{
    "contractName": "NFTPatientHealthChain",
    "abi": [
        {
            "inputs": [
                {
                    "internalType": "address",
                    "name": "initialOwner",
                    "type": "address"
                }
            ],
            "stateMutability": "nonpayable",
            "type": "constructor"
        },
        {
            "inputs": [
                {
                    "internalType": "address",
                    "name": "sender",
                    "type": "address"
                },
                {
                    "internalType": "uint256",
                    "name": "tokenId",
                    "type": "uint256"
                },
                {
                    "internalType": "address",
                    "name": "owner",
                    "type": "address"
                }
            ],
            "name": "ERC721IncorrectOwner",
            "type": "error"
        },
        {
            "inputs": [
                {
                    "internalType": "address",
                    "name": "operator",
                    "type": "address"
                },
                {
                    "internalType": "uint256",
                    "name": "tokenId",
                    "type": "uint256"
                }
            ],
            "name": "ERC721InsufficientApproval",
            "type": "error"
        },
        {
            "inputs": [
                {
                    "internalType": "address",
                    "name": "approver",
                    "type": "address"
                }
            ],
            "name": "ERC721InvalidApprover",
            "type": "error"
        },
        {
            "inputs": [
                {
                    "internalType": "address",
                    "name": "operator",
                    "type": "address"
                }
            ],
            "name": "ERC721InvalidOperator",
            "type": "error"
        },
        {
            "inputs": [
                {
                    "internalType": "address",
                    "name": "owner",
                    "type": "address"
                }
            ],
            "name": "ERC721InvalidOwner",
            "type": "error"
        },
        {
            "inputs": [
                {
                    "internalType": "address",
                    "name": "receiver",
                    "type": "address"
                }
            ],
            "name": "ERC721InvalidReceiver",
            "type": "error"
        },
        {
            "inputs": [
                {
                    "internalType": "address",
                    "name": "sender",
                    "type": "address"
                }
            ],
            "name": "ERC721InvalidSender",
            "type": "error"
        },
        {
            "inputs": [
                {
                    "internalType": "uint256",
                    "name": "tokenId",
                    "type": "uint256"
                }
            ],
            "name": "ERC721NonexistentToken",
            "type": "error"
        },
        {
            "inputs": [
                {
                    "internalType": "address",
                    "name": "owner",
                    "type": "address"
                }
            ],
            "name": "OwnableInvalidOwner",
            "type": "error"
        },
        {
            "inputs": [
                {
                    "internalType": "address",
                    "name": "account",
                    "type": "address"
                }
            ],
            "name": "OwnableUnauthorizedAccount",
            "type": "error"
        },
        {
            "anonymous": false,
            "inputs": [
                {
                    "indexed": true,
                    "internalType": "address",
                    "name": "owner",
                    "type": "address"
                },
                {
                    "indexed": true,
                    "internalType": "address",
                    "name": "approved",
                    "type": "address"
                },
                {
                    "indexed": true,
                    "internalType": "uint256",
                    "name": "tokenId",
                    "type": "uint256"
                }
            ],
            "name": "Approval",
            "type": "event"
        },
        {
            "anonymous": false,
            "inputs": [
                {
                    "indexed": true,
                    "internalType": "address",
                    "name": "owner",
                    "type": "address"
                },
                {
                    "indexed": true,
                    "internalType": "address",
                    "name": "operator",
                    "type": "address"
                },
                {
                    "indexed": false,
                    "internalType": "bool",
                    "name": "approved",
                    "type": "bool"
                }
            ],
            "name": "ApprovalForAll",
            "type": "event"
        },
        {
            "anonymous": false,
            "inputs": [
                {
                    "indexed": true,
                    "internalType": "address",
                    "name": "from",
                    "type": "address"
                },
                {
                    "indexed": true,
                    "internalType": "address",
                    "name": "to",
                    "type": "address"
                },
                {
                    "indexed": false,
                    "internalType": "uint256",
                    "name": "tokenId",
                    "type": "uint256"
                },
                {
                    "indexed": false,
                    "internalType": "bytes32",
                    "name": "txHash",
                    "type": "bytes32"
                }
            ],
            "name": "NFTTransferred",
            "type": "event"
        },
        {
            "anonymous": false,
            "inputs": [
                {
                    "indexed": true,
                    "internalType": "address",
                    "name": "previousOwner",
                    "type": "address"
                },
                {
                    "indexed": true,
                    "internalType": "address",
                    "name": "newOwner",
                    "type": "address"
                }
            ],
            "name": "OwnershipTransferred",
            "type": "event"
        },
        {
            "anonymous": false,
            "inputs": [
                {
                    "indexed": true,
                    "internalType": "address",
                    "name": "from",
                    "type": "address"
                },
                {
                    "indexed": true,
                    "internalType": "address",
                    "name": "to",
                    "type": "address"
                },
                {
                    "indexed": true,
                    "internalType": "uint256",
                    "name": "tokenId",
                    "type": "uint256"
                }
            ],
            "name": "Transfer",
            "type": "event"
        },
        {
            "inputs": [
                {
                    "internalType": "address",
                    "name": "to",
                    "type": "address"
                },
                {
                    "internalType": "uint256",
                    "name": "tokenId",
                    "type": "uint256"
                }
            ],
            "name": "approve",
            "outputs": [],
            "stateMutability": "nonpayable",
            "type": "function"
        },
        {
            "inputs": [
                {
                    "internalType": "address",
                    "name": "owner",
                    "type": "address"
                }
            ],
            "name": "balanceOf",
            "outputs": [
                {
                    "internalType": "uint256",
                    "name": "",
                    "type": "uint256"
                }
            ],
            "stateMutability": "view",
            "type": "function"
        },
        {
            "inputs": [
                {
                    "internalType": "uint256",
                    "name": "tokenId",
                    "type": "uint256"
                }
            ],
            "name": "getApproved",
            "outputs": [
                {
                    "internalType": "address",
                    "name": "",
                    "type": "address"
                }
            ],
            "stateMutability": "view",
            "type": "function"
        },
        {
            "inputs": [
                {
                    "internalType": "bytes32",
                    "name": "txHash",
                    "type": "bytes32"
                }
            ],
            "name": "getTransactionStatus",
            "outputs": [
                {
                    "internalType": "bool",
                    "name": "",
                    "type": "bool"
                }
            ],
            "stateMutability": "view",
            "type": "function"
        },
        {
            "inputs": [],
            "name": "housewallet",
            "outputs": [
                {
                    "internalType": "address",
                    "name": "",
                    "type": "address"
                }
            ],
            "stateMutability": "view",
            "type": "function"
        },
        {
            "inputs": [
                {
                    "internalType": "address",
                    "name": "owner",
                    "type": "address"
                },
                {
                    "internalType": "address",
                    "name": "operator",
                    "type": "address"
                }
            ],
            "name": "isApprovedForAll",
            "outputs": [
                {
                    "internalType": "bool",
                    "name": "",
                    "type": "bool"
                }
            ],
            "stateMutability": "view",
            "type": "function"
        },
        {
            "inputs": [
                {
                    "internalType": "bytes32",
                    "name": "txHash",
                    "type": "bytes32"
                }
            ],
            "name": "markTransactionCompleted",
            "outputs": [],
            "stateMutability": "nonpayable",
            "type": "function"
        },
        {
            "inputs": [
                {
                    "internalType": "address",
                    "name": "to",
                    "type": "address"
                },
                {
                    "internalType": "uint256",
                    "name": "tokenId",
                    "type": "uint256"
                }
            ],
            "name": "mintNFT",
            "outputs": [],
            "stateMutability": "nonpayable",
            "type": "function"
        },
        {
            "inputs": [],
            "name": "name",
            "outputs": [
                {
                    "internalType": "string",
                    "name": "",
                    "type": "string"
                }
            ],
            "stateMutability": "view",
            "type": "function"
        },
        {
            "inputs": [],
            "name": "owner",
            "outputs": [
                {
                    "internalType": "address",
                    "name": "",
                    "type": "address"
                }
            ],
            "stateMutability": "view",
            "type": "function"
        },
        {
            "inputs": [
                {
                    "internalType": "uint256",
                    "name": "tokenId",
                    "type": "uint256"
                }
            ],
            "name": "ownerOf",
            "outputs": [
                {
                    "internalType": "address",
                    "name": "",
                    "type": "address"
                }
            ],
            "stateMutability": "view",
            "type": "function"
        },
        {
            "inputs": [],
            "name": "renounceOwnership",
            "outputs": [],
            "stateMutability": "nonpayable",
            "type": "function"
        },
        {
            "inputs": [
                {
                    "internalType": "address",
                    "name": "from",
                    "type": "address"
                },
                {
                    "internalType": "address",
                    "name": "to",
                    "type": "address"
                },
                {
                    "internalType": "uint256",
                    "name": "tokenId",
                    "type": "uint256"
                }
            ],
            "name": "safeTransferFrom",
            "outputs": [],
            "stateMutability": "nonpayable",
            "type": "function"
        },
        {
            "inputs": [
                {
                    "internalType": "address",
                    "name": "from",
                    "type": "address"
                },
                {
                    "internalType": "address",
                    "name": "to",
                    "type": "address"
                },
                {
                    "internalType": "uint256",
                    "name": "tokenId",
                    "type": "uint256"
                },
                {
                    "internalType": "bytes",
                    "name": "data",
                    "type": "bytes"
                }
            ],
            "name": "safeTransferFrom",
            "outputs": [],
            "stateMutability": "nonpayable",
            "type": "function"
        },
        {
            "inputs": [
                {
                    "internalType": "address",
                    "name": "operator",
                    "type": "address"
                },
                {
                    "internalType": "bool",
                    "name": "approved",
                    "type": "bool"
                }
            ],
            "name": "setApprovalForAll",
            "outputs": [],
            "stateMutability": "nonpayable",
            "type": "function"
        },
        {
            "inputs": [
                {
                    "internalType": "bytes4",
                    "name": "interfaceId",
                    "type": "bytes4"
                }
            ],
            "name": "supportsInterface",
            "outputs": [
                {
                    "internalType": "bool",
                    "name": "",
                    "type": "bool"
                }
            ],
            "stateMutability": "view",
            "type": "function"
        },
        {
            "inputs": [],
            "name": "symbol",
            "outputs": [
                {
                    "internalType": "string",
                    "name": "",
                    "type": "string"
                }
            ],
            "stateMutability": "view",
            "type": "function"
        },
        {
            "inputs": [
                {
                    "internalType": "uint256",
                    "name": "tokenId",
                    "type": "uint256"
                }
            ],
            "name": "tokenURI",
            "outputs": [
                {
                    "internalType": "string",
                    "name": "",
                    "type": "string"
                }
            ],
            "stateMutability": "view",
            "type": "function"
        },
        {
            "inputs": [
                {
                    "internalType": "address",
                    "name": "from",
                    "type": "address"
                },
                {
                    "internalType": "address",
                    "name": "to",
                    "type": "address"
                },
                {
                    "internalType": "uint256",
                    "name": "tokenId",
                    "type": "uint256"
                }
            ],
            "name": "transferFrom",
            "outputs": [],
            "stateMutability": "nonpayable",
            "type": "function"
        },
        {
            "inputs": [
                {
                    "internalType": "address",
                    "name": "to",
                    "type": "address"
                },
                {
                    "internalType": "uint256",
                    "name": "tokenId",
                    "type": "uint256"
                }
            ],
            "name": "transferNFT",
            "outputs": [],
            "stateMutability": "nonpayable",
            "type": "function"
        },
        {
            "inputs": [
                {
                    "internalType": "address",
                    "name": "to",
                    "type": "address"
                },
                {
                    "internalType": "uint256",
                    "name": "tokenId",
                    "type": "uint256"
                }
            ],
            "name": "transferNFTWithETH",
            "outputs": [
                {
                    "internalType": "bytes32",
                    "name": "",
                    "type": "bytes32"
                }
            ],
            "stateMutability": "payable",
            "type": "function"
        },
        {
            "inputs": [
                {
                    "internalType": "address",
                    "name": "newOwner",
                    "type": "address"
                }
            ],
            "name": "transferOwnership",
            "outputs": [],
            "stateMutability": "nonpayable",
            "type": "function"
        },
        {
            "inputs": [],
            "name": "withdrawBalance",
            "outputs": [],
            "stateMutability": "nonpayable",
            "type": "function"
        }
    ],
    "bytecode": "608060405234801562000010575f80fd5b50604051620018a3380380620018a3833981016040819052620000339162000147565b806040518060400160405280600a81526020016913919514185d1a595b9d60b21b815250604051806040016040528060048152602001631394139560e21b815250815f908162000084919062000216565b50600162000093828262000216565b5050506001600160a01b038116620000c457604051631e4fbdf760e01b81525f600482015260240160405180910390fd5b620000cf81620000f6565b50600780546001600160a01b0319166001600160a01b0392909216919091179055620002de565b600680546001600160a01b038381166001600160a01b0319831681179093556040519116919082907f8be0079c531659141344cd1fd0a4f28419497f9722a3daafe3b4186f6b6457e0905f90a35050565b5f6020828403121562000158575f80fd5b81516001600160a01b03811681146200016f575f80fd5b9392505050565b634e487b7160e01b5f52604160045260245ffd5b600181811c908216806200019f57607f821691505b602082108103620001be57634e487b7160e01b5f52602260045260245ffd5b50919050565b601f82111562000211575f81815260208120601f850160051c81016020861015620001ec5750805b601f850160051c820191505b818110156200020d57828155600101620001f8565b5050505b505050565b81516001600160401b0381111562000232576200023262000176565b6200024a816200024384546200018a565b84620001c4565b602080601f83116001811462000280575f8415620002685750858301515b5f19600386901b1c1916600185901b1785556200020d565b5f85815260208120601f198616915b82811015620002b0578886015182559484019460019091019084016200028f565b5085821015620002ce57878501515f19600388901b60f8161c191681555b5050505050600190811b01905550565b6115b780620002ec5f395ff3fe60806040526004361061013c575f3560e01c806370a08231116100b357806395d89b411161006d57806395d89b4114610379578063a22cb4651461038d578063b88d4fde146103ac578063c87b56dd146103cb578063e985e9c5146103ea578063f2fde38b14610409575f80fd5b806370a08231146102bd578063715018a6146102dc578063863b3894146102f05780638da5cb5b1461030f578063944074651461032c57806394ab67fe1461035a575f80fd5b80633741897211610104578063374189721461020c5780633c168eab1461022b57806342842e0e1461024a5780635c91eeaa146102695780635fd8c7101461028a5780636352211e1461029e575f80fd5b806301ffc9a71461014057806306fdde0314610174578063081812fc14610195578063095ea7b3146101cc57806323b872dd146101ed575b5f80fd5b34801561014b575f80fd5b5061015f61015a36600461120a565b610428565b60405190151581526020015b60405180910390f35b34801561017f575f80fd5b50610188610479565b60405161016b9190611272565b3480156101a0575f80fd5b506101b46101af366004611284565b610508565b6040516001600160a01b03909116815260200161016b565b3480156101d7575f80fd5b506101eb6101e63660046112b6565b61052f565b005b3480156101f8575f80fd5b506101eb6102073660046112de565b61053e565b348015610217575f80fd5b506101eb610226366004611284565b6105cc565b348015610236575f80fd5b506101eb6102453660046112b6565b6105ee565b348015610255575f80fd5b506101eb6102643660046112de565b610671565b61027c6102773660046112b6565b610690565b60405190815260200161016b565b348015610295575f80fd5b506101eb61080a565b3480156102a9575f80fd5b506101b46102b8366004611284565b61084b565b3480156102c8575f80fd5b5061027c6102d7366004611317565b610855565b3480156102e7575f80fd5b506101eb61089a565b3480156102fb575f80fd5b506007546101b4906001600160a01b031681565b34801561031a575f80fd5b506006546001600160a01b03166101b4565b348015610337575f80fd5b5061015f610346366004611284565b5f9081526009602052604090205460ff1690565b348015610365575f80fd5b506101eb6103743660046112b6565b6108ad565b348015610384575f80fd5b5061018861093a565b348015610398575f80fd5b506101eb6103a7366004611330565b610949565b3480156103b7575f80fd5b506101eb6103c636600461137d565b610954565b3480156103d6575f80fd5b506101886103e5366004611284565b61096b565b3480156103f5575f80fd5b5061015f610404366004611452565b6109dc565b348015610414575f80fd5b506101eb610423366004611317565b610a09565b5f6001600160e01b031982166380ac58cd60e01b148061045857506001600160e01b03198216635b5e139f60e01b145b8061047357506301ffc9a760e01b6001600160e01b03198316145b92915050565b60605f805461048790611483565b80601f01602080910402602001604051908101604052809291908181526020018280546104b390611483565b80156104fe5780601f106104d5576101008083540402835291602001916104fe565b820191905f5260205f20905b8154815290600101906020018083116104e157829003601f168201915b5050505050905090565b5f61051282610a43565b505f828152600460205260409020546001600160a01b0316610473565b61053a828233610a7b565b5050565b6001600160a01b03821661056c57604051633250574960e11b81525f60048201526024015b60405180910390fd5b5f610578838333610a88565b9050836001600160a01b0316816001600160a01b0316146105c6576040516364283d7b60e01b81526001600160a01b0380861660048301526024820184905282166044820152606401610563565b50505050565b6105d4610b7a565b5f908152600960205260409020805460ff19166001179055565b5f8181526008602052604090205460ff161561064c5760405162461bcd60e51b815260206004820152601f60248201527f4e46542077697468207468697320494420616c726561647920657869737473006044820152606401610563565b6106568282610ba7565b5f908152600860205260409020805460ff1916600117905550565b61068b83838360405180602001604052805f815250610954565b505050565b5f8061069b8361084b565b90506001600160a01b03811633146106c55760405162461bcd60e51b8152600401610563906114bb565b5f34116107145760405162461bcd60e51b815260206004820181905260248201527f4554482076616c7565206d7573742062652067726561746572207468616e20306044820152606401610563565b61071f818585610c08565b6040516001600160a01b038216903480156108fc02915f818181858888f19350505050158015610751573d5f803e3d5ffd5b506040516bffffffffffffffffffffffff1933606090811b8216602084015286901b166034820152604881018490523460688201524360888201525f9060a80160408051808303601f1901815282825280516020918201205f81815260098352839020805460ff1916905587845290830181905292506001600160a01b0387811692908516917f6ce7a869aeca298d0f3bdbf430acb6be50c36c199a39e377226041328c95352f910160405180910390a3949350505050565b610812610b7a565b6006546040516001600160a01b03909116904780156108fc02915f818181858888f19350505050158015610848573d5f803e3d5ffd5b50565b5f61047382610a43565b5f6001600160a01b03821661087f576040516322718ad960e21b81525f6004820152602401610563565b506001600160a01b03165f9081526003602052604090205490565b6108a2610b7a565b6108ab5f610cb5565b565b5f6108b78261084b565b90506001600160a01b03811633146108e15760405162461bcd60e51b8152600401610563906114bb565b6108ec818484610c08565b604080518381525f60208201526001600160a01b0380861692908416917f6ce7a869aeca298d0f3bdbf430acb6be50c36c199a39e377226041328c95352f91015b60405180910390a3505050565b60606001805461048790611483565b61053a338383610d06565b61095f84848461053e565b6105c684848484610d9c565b606061097682610a43565b505f61098c60408051602081019091525f815290565b90505f8151116109aa5760405180602001604052805f8152506109d5565b806109b484610ec2565b6040516020016109c59291906114fc565b6040516020818303038152906040525b9392505050565b6001600160a01b039182165f90815260056020908152604080832093909416825291909152205460ff1690565b610a11610b7a565b6001600160a01b038116610a3a57604051631e4fbdf760e01b81525f6004820152602401610563565b61084881610cb5565b5f818152600260205260408120546001600160a01b03168061047357604051637e27328960e01b815260048101849052602401610563565b61068b8383836001610f52565b5f828152600260205260408120546001600160a01b0390811690831615610ab457610ab4818486611056565b6001600160a01b03811615610aee57610acf5f855f80610f52565b6001600160a01b0381165f90815260036020526040902080545f190190555b6001600160a01b03851615610b1c576001600160a01b0385165f908152600360205260409020805460010190555b5f8481526002602052604080822080546001600160a01b0319166001600160a01b0389811691821790925591518793918516917fddf252ad1be2c89b69c2b068fc378daa952ba7f163c4a11628f55a4df523b3ef91a4949350505050565b6006546001600160a01b031633146108ab5760405163118cdaa760e01b8152336004820152602401610563565b6001600160a01b038216610bd057604051633250574960e11b81525f6004820152602401610563565b5f610bdc83835f610a88565b90506001600160a01b0381161561068b576040516339e3563760e11b81525f6004820152602401610563565b6001600160a01b038216610c3157604051633250574960e11b81525f6004820152602401610563565b5f610c3d83835f610a88565b90506001600160a01b038116610c6957604051637e27328960e01b815260048101839052602401610563565b836001600160a01b0316816001600160a01b0316146105c6576040516364283d7b60e01b81526001600160a01b0380861660048301526024820184905282166044820152606401610563565b600680546001600160a01b038381166001600160a01b0319831681179093556040519116919082907f8be0079c531659141344cd1fd0a4f28419497f9722a3daafe3b4186f6b6457e0905f90a35050565b6001600160a01b038216610d3857604051630b61174360e31b81526001600160a01b0383166004820152602401610563565b6001600160a01b038381165f81815260056020908152604080832094871680845294825291829020805460ff191686151590811790915591519182527f17307eab39ab6107e8899845ad3d59bd9653f200f220920489ca2b5937696c31910161092d565b6001600160a01b0383163b156105c657604051630a85bd0160e11b81526001600160a01b0384169063150b7a0290610dde90339088908790879060040161152a565b6020604051808303815f875af1925050508015610e18575060408051601f3d908101601f19168201909252610e1591810190611566565b60015b610e7f573d808015610e45576040519150601f19603f3d011682016040523d82523d5f602084013e610e4a565b606091505b5080515f03610e7757604051633250574960e11b81526001600160a01b0385166004820152602401610563565b805181602001fd5b6001600160e01b03198116630a85bd0160e11b14610ebb57604051633250574960e11b81526001600160a01b0385166004820152602401610563565b5050505050565b60605f610ece836110ba565b60010190505f8167ffffffffffffffff811115610eed57610eed611369565b6040519080825280601f01601f191660200182016040528015610f17576020820181803683370190505b5090508181016020015b5f19016f181899199a1a9b1b9c1cb0b131b232b360811b600a86061a8153600a8504945084610f2157509392505050565b8080610f6657506001600160a01b03821615155b15611027575f610f7584610a43565b90506001600160a01b03831615801590610fa15750826001600160a01b0316816001600160a01b031614155b8015610fb45750610fb281846109dc565b155b15610fdd5760405163a9fbf51f60e01b81526001600160a01b0384166004820152602401610563565b81156110255783856001600160a01b0316826001600160a01b03167f8c5be1e5ebec7d5bd14f71427d1e84f3dd0314c0f7b2291e5b200ac8c7c3b92560405160405180910390a45b505b50505f90815260046020526040902080546001600160a01b0319166001600160a01b0392909216919091179055565b611061838383611191565b61068b576001600160a01b03831661108f57604051637e27328960e01b815260048101829052602401610563565b60405163177e802f60e01b81526001600160a01b038316600482015260248101829052604401610563565b5f8072184f03e93ff9f4daa797ed6e38ed64bf6a1f0160401b83106110f85772184f03e93ff9f4daa797ed6e38ed64bf6a1f0160401b830492506040015b6d04ee2d6d415b85acef81000000008310611124576d04ee2d6d415b85acef8100000000830492506020015b662386f26fc10000831061114257662386f26fc10000830492506010015b6305f5e100831061115a576305f5e100830492506008015b612710831061116e57612710830492506004015b60648310611180576064830492506002015b600a83106104735760010192915050565b5f6001600160a01b038316158015906111ed5750826001600160a01b0316846001600160a01b031614806111ca57506111ca84846109dc565b806111ed57505f828152600460205260409020546001600160a01b038481169116145b949350505050565b6001600160e01b031981168114610848575f80fd5b5f6020828403121561121a575f80fd5b81356109d5816111f5565b5f5b8381101561123f578181015183820152602001611227565b50505f910152565b5f815180845261125e816020860160208601611225565b601f01601f19169290920160200192915050565b602081525f6109d56020830184611247565b5f60208284031215611294575f80fd5b5035919050565b80356001600160a01b03811681146112b1575f80fd5b919050565b5f80604083850312156112c7575f80fd5b6112d08361129b565b946020939093013593505050565b5f805f606084860312156112f0575f80fd5b6112f98461129b565b92506113076020850161129b565b9150604084013590509250925092565b5f60208284031215611327575f80fd5b6109d58261129b565b5f8060408385031215611341575f80fd5b61134a8361129b565b91506020830135801515811461135e575f80fd5b809150509250929050565b634e487b7160e01b5f52604160045260245ffd5b5f805f8060808587031215611390575f80fd5b6113998561129b565b93506113a76020860161129b565b925060408501359150606085013567ffffffffffffffff808211156113ca575f80fd5b818701915087601f8301126113dd575f80fd5b8135818111156113ef576113ef611369565b604051601f8201601f19908116603f0116810190838211818310171561141757611417611369565b816040528281528a602084870101111561142f575f80fd5b826020860160208301375f60208483010152809550505050505092959194509250565b5f8060408385031215611463575f80fd5b61146c8361129b565b915061147a6020840161129b565b90509250929050565b600181811c9082168061149757607f821691505b6020821081036114b557634e487b7160e01b5f52602260045260245ffd5b50919050565b60208082526021908201527f596f7520617265206e6f7420746865206f776e6572206f662074686973204e466040820152601560fa1b606082015260800190565b5f835161150d818460208801611225565b835190830190611521818360208801611225565b01949350505050565b6001600160a01b03858116825284166020820152604081018390526080606082018190525f9061155c90830184611247565b9695505050505050565b5f60208284031215611576575f80fd5b81516109d5816111f556fea26469706673582212207a9003a38996424abdb7faf82a80570c960115a94bce3a4971561cb235d63ae464736f6c63430008150033",
    "sourcePath": "r:/Agus/Facultad/TFI 5to/smartcontract/SmartContract/contracts/NFTPatient.sol",
    "compiler": {
        "name": "solc",
        "version": "0.8.21+commit.d9974bed"
    },
    "functionHashes": {
        "approve(address,uint256)": "095ea7b3",
        "balanceOf(address)": "70a08231",
        "getApproved(uint256)": "081812fc",
        "getTransactionStatus(bytes32)": "94407465",
        "housewallet()": "863b3894",
        "isApprovedForAll(address,address)": "e985e9c5",
        "markTransactionCompleted(bytes32)": "37418972",
        "mintNFT(address,uint256)": "3c168eab",
        "name()": "06fdde03",
        "owner()": "8da5cb5b",
        "ownerOf(uint256)": "6352211e",
        "renounceOwnership()": "715018a6",
        "safeTransferFrom(address,address,uint256)": "42842e0e",
        "safeTransferFrom(address,address,uint256,bytes)": "b88d4fde",
        "setApprovalForAll(address,bool)": "a22cb465",
        "supportsInterface(bytes4)": "01ffc9a7",
        "symbol()": "95d89b41",
        "tokenURI(uint256)": "c87b56dd",
        "transferFrom(address,address,uint256)": "23b872dd",
        "transferNFT(address,uint256)": "94ab67fe",
        "transferNFTWithETH(address,uint256)": "5c91eeaa",
        "transferOwnership(address)": "f2fde38b",
        "withdrawBalance()": "5fd8c710"
    },
    "gasEstimates": {
        "creation": {
            "codeDepositCost": "1111800",
            "executionCost": "infinite",
            "totalCost": "infinite"
        },
        "external": {
            "approve(address,uint256)": "31531",
            "balanceOf(address)": "2608",
            "getApproved(uint256)": "infinite",
            "getTransactionStatus(bytes32)": "2547",
            "housewallet()": "2403",
            "isApprovedForAll(address,address)": "infinite",
            "markTransactionCompleted(bytes32)": "26695",
            "mintNFT(address,uint256)": "128585",
            "name()": "infinite",
            "owner()": "2419",
            "ownerOf(uint256)": "infinite",
            "renounceOwnership()": "infinite",
            "safeTransferFrom(address,address,uint256)": "infinite",
            "safeTransferFrom(address,address,uint256,bytes)": "infinite",
            "setApprovalForAll(address,bool)": "26712",
            "supportsInterface(bytes4)": "531",
            "symbol()": "infinite",
            "tokenURI(uint256)": "infinite",
            "transferFrom(address,address,uint256)": "infinite",
            "transferNFT(address,uint256)": "infinite",
            "transferNFTWithETH(address,uint256)": "infinite",
            "transferOwnership(address)": "28465",
            "withdrawBalance()": "infinite"
        }
    }
}