{
	"contracts/NFTPatient.sol": {
		"NFTPatientHealthChain": {
			"abi": [
				{
					"inputs": [
						{
							"internalType": "address",
							"name": "_myTokenAddress",
							"type": "address"
						},
						{
							"internalType": "address",
							"name": "initialOwner",
							"type": "address"
						},
						{
							"internalType": "address",
							"name": "_housewallet",
							"type": "address"
						}
					],
					"stateMutability": "nonpayable",
					"type": "constructor"
				},
				{
					"inputs": [
						{
							"internalType": "address",
							"name": "sender",
							"type": "address"
						},
						{
							"internalType": "uint256",
							"name": "tokenId",
							"type": "uint256"
						},
						{
							"internalType": "address",
							"name": "owner",
							"type": "address"
						}
					],
					"name": "ERC721IncorrectOwner",
					"type": "error"
				},
				{
					"inputs": [
						{
							"internalType": "address",
							"name": "operator",
							"type": "address"
						},
						{
							"internalType": "uint256",
							"name": "tokenId",
							"type": "uint256"
						}
					],
					"name": "ERC721InsufficientApproval",
					"type": "error"
				},
				{
					"inputs": [
						{
							"internalType": "address",
							"name": "approver",
							"type": "address"
						}
					],
					"name": "ERC721InvalidApprover",
					"type": "error"
				},
				{
					"inputs": [
						{
							"internalType": "address",
							"name": "operator",
							"type": "address"
						}
					],
					"name": "ERC721InvalidOperator",
					"type": "error"
				},
				{
					"inputs": [
						{
							"internalType": "address",
							"name": "owner",
							"type": "address"
						}
					],
					"name": "ERC721InvalidOwner",
					"type": "error"
				},
				{
					"inputs": [
						{
							"internalType": "address",
							"name": "receiver",
							"type": "address"
						}
					],
					"name": "ERC721InvalidReceiver",
					"type": "error"
				},
				{
					"inputs": [
						{
							"internalType": "address",
							"name": "sender",
							"type": "address"
						}
					],
					"name": "ERC721InvalidSender",
					"type": "error"
				},
				{
					"inputs": [
						{
							"internalType": "uint256",
							"name": "tokenId",
							"type": "uint256"
						}
					],
					"name": "ERC721NonexistentToken",
					"type": "error"
				},
				{
					"inputs": [
						{
							"internalType": "address",
							"name": "owner",
							"type": "address"
						}
					],
					"name": "OwnableInvalidOwner",
					"type": "error"
				},
				{
					"inputs": [
						{
							"internalType": "address",
							"name": "account",
							"type": "address"
						}
					],
					"name": "OwnableUnauthorizedAccount",
					"type": "error"
				},
				{
					"anonymous": false,
					"inputs": [
						{
							"indexed": true,
							"internalType": "address",
							"name": "owner",
							"type": "address"
						},
						{
							"indexed": true,
							"internalType": "address",
							"name": "approved",
							"type": "address"
						},
						{
							"indexed": true,
							"internalType": "uint256",
							"name": "tokenId",
							"type": "uint256"
						}
					],
					"name": "Approval",
					"type": "event"
				},
				{
					"anonymous": false,
					"inputs": [
						{
							"indexed": true,
							"internalType": "address",
							"name": "owner",
							"type": "address"
						},
						{
							"indexed": true,
							"internalType": "address",
							"name": "operator",
							"type": "address"
						},
						{
							"indexed": false,
							"internalType": "bool",
							"name": "approved",
							"type": "bool"
						}
					],
					"name": "ApprovalForAll",
					"type": "event"
				},
				{
					"anonymous": false,
					"inputs": [
						{
							"indexed": true,
							"internalType": "address",
							"name": "from",
							"type": "address"
						},
						{
							"indexed": true,
							"internalType": "address",
							"name": "to",
							"type": "address"
						},
						{
							"indexed": false,
							"internalType": "uint256",
							"name": "tokenId",
							"type": "uint256"
						},
						{
							"indexed": false,
							"internalType": "uint256",
							"name": "tokenAmount",
							"type": "uint256"
						},
						{
							"indexed": false,
							"internalType": "bytes32",
							"name": "txHash",
							"type": "bytes32"
						}
					],
					"name": "NFTTransferred",
					"type": "event"
				},
				{
					"anonymous": false,
					"inputs": [
						{
							"indexed": true,
							"internalType": "address",
							"name": "previousOwner",
							"type": "address"
						},
						{
							"indexed": true,
							"internalType": "address",
							"name": "newOwner",
							"type": "address"
						}
					],
					"name": "OwnershipTransferred",
					"type": "event"
				},
				{
					"anonymous": false,
					"inputs": [
						{
							"indexed": true,
							"internalType": "address",
							"name": "from",
							"type": "address"
						},
						{
							"indexed": true,
							"internalType": "address",
							"name": "to",
							"type": "address"
						},
						{
							"indexed": true,
							"internalType": "uint256",
							"name": "tokenId",
							"type": "uint256"
						}
					],
					"name": "Transfer",
					"type": "event"
				},
				{
					"inputs": [
						{
							"internalType": "address",
							"name": "to",
							"type": "address"
						},
						{
							"internalType": "uint256",
							"name": "tokenId",
							"type": "uint256"
						}
					],
					"name": "approve",
					"outputs": [],
					"stateMutability": "nonpayable",
					"type": "function"
				},
				{
					"inputs": [
						{
							"internalType": "address",
							"name": "owner",
							"type": "address"
						}
					],
					"name": "balanceOf",
					"outputs": [
						{
							"internalType": "uint256",
							"name": "",
							"type": "uint256"
						}
					],
					"stateMutability": "view",
					"type": "function"
				},
				{
					"inputs": [
						{
							"internalType": "uint256",
							"name": "tokenId",
							"type": "uint256"
						}
					],
					"name": "getApproved",
					"outputs": [
						{
							"internalType": "address",
							"name": "",
							"type": "address"
						}
					],
					"stateMutability": "view",
					"type": "function"
				},
				{
					"inputs": [
						{
							"internalType": "bytes32",
							"name": "txHash",
							"type": "bytes32"
						}
					],
					"name": "getTransactionStatus",
					"outputs": [
						{
							"internalType": "bool",
							"name": "",
							"type": "bool"
						}
					],
					"stateMutability": "view",
					"type": "function"
				},
				{
					"inputs": [],
					"name": "housewallet",
					"outputs": [
						{
							"internalType": "address",
							"name": "",
							"type": "address"
						}
					],
					"stateMutability": "view",
					"type": "function"
				},
				{
					"inputs": [
						{
							"internalType": "address",
							"name": "owner",
							"type": "address"
						},
						{
							"internalType": "address",
							"name": "operator",
							"type": "address"
						}
					],
					"name": "isApprovedForAll",
					"outputs": [
						{
							"internalType": "bool",
							"name": "",
							"type": "bool"
						}
					],
					"stateMutability": "view",
					"type": "function"
				},
				{
					"inputs": [
						{
							"internalType": "bytes32",
							"name": "txHash",
							"type": "bytes32"
						}
					],
					"name": "markTransactionCompleted",
					"outputs": [],
					"stateMutability": "nonpayable",
					"type": "function"
				},
				{
					"inputs": [
						{
							"internalType": "address",
							"name": "to",
							"type": "address"
						},
						{
							"internalType": "uint256",
							"name": "tokenId",
							"type": "uint256"
						}
					],
					"name": "mintNFT",
					"outputs": [],
					"stateMutability": "nonpayable",
					"type": "function"
				},
				{
					"inputs": [],
					"name": "myToken",
					"outputs": [
						{
							"internalType": "contract IERC20",
							"name": "",
							"type": "address"
						}
					],
					"stateMutability": "view",
					"type": "function"
				},
				{
					"inputs": [],
					"name": "name",
					"outputs": [
						{
							"internalType": "string",
							"name": "",
							"type": "string"
						}
					],
					"stateMutability": "view",
					"type": "function"
				},
				{
					"inputs": [],
					"name": "owner",
					"outputs": [
						{
							"internalType": "address",
							"name": "",
							"type": "address"
						}
					],
					"stateMutability": "view",
					"type": "function"
				},
				{
					"inputs": [
						{
							"internalType": "uint256",
							"name": "tokenId",
							"type": "uint256"
						}
					],
					"name": "ownerOf",
					"outputs": [
						{
							"internalType": "address",
							"name": "",
							"type": "address"
						}
					],
					"stateMutability": "view",
					"type": "function"
				},
				{
					"inputs": [],
					"name": "renounceOwnership",
					"outputs": [],
					"stateMutability": "nonpayable",
					"type": "function"
				},
				{
					"inputs": [
						{
							"internalType": "address",
							"name": "from",
							"type": "address"
						},
						{
							"internalType": "address",
							"name": "to",
							"type": "address"
						},
						{
							"internalType": "uint256",
							"name": "tokenId",
							"type": "uint256"
						}
					],
					"name": "safeTransferFrom",
					"outputs": [],
					"stateMutability": "nonpayable",
					"type": "function"
				},
				{
					"inputs": [
						{
							"internalType": "address",
							"name": "from",
							"type": "address"
						},
						{
							"internalType": "address",
							"name": "to",
							"type": "address"
						},
						{
							"internalType": "uint256",
							"name": "tokenId",
							"type": "uint256"
						},
						{
							"internalType": "bytes",
							"name": "data",
							"type": "bytes"
						}
					],
					"name": "safeTransferFrom",
					"outputs": [],
					"stateMutability": "nonpayable",
					"type": "function"
				},
				{
					"inputs": [
						{
							"internalType": "address",
							"name": "operator",
							"type": "address"
						},
						{
							"internalType": "bool",
							"name": "approved",
							"type": "bool"
						}
					],
					"name": "setApprovalForAll",
					"outputs": [],
					"stateMutability": "nonpayable",
					"type": "function"
				},
				{
					"inputs": [
						{
							"internalType": "bytes4",
							"name": "interfaceId",
							"type": "bytes4"
						}
					],
					"name": "supportsInterface",
					"outputs": [
						{
							"internalType": "bool",
							"name": "",
							"type": "bool"
						}
					],
					"stateMutability": "view",
					"type": "function"
				},
				{
					"inputs": [],
					"name": "symbol",
					"outputs": [
						{
							"internalType": "string",
							"name": "",
							"type": "string"
						}
					],
					"stateMutability": "view",
					"type": "function"
				},
				{
					"inputs": [
						{
							"internalType": "uint256",
							"name": "tokenId",
							"type": "uint256"
						}
					],
					"name": "tokenURI",
					"outputs": [
						{
							"internalType": "string",
							"name": "",
							"type": "string"
						}
					],
					"stateMutability": "view",
					"type": "function"
				},
				{
					"inputs": [
						{
							"internalType": "address",
							"name": "from",
							"type": "address"
						},
						{
							"internalType": "address",
							"name": "to",
							"type": "address"
						},
						{
							"internalType": "uint256",
							"name": "tokenId",
							"type": "uint256"
						}
					],
					"name": "transferFrom",
					"outputs": [],
					"stateMutability": "nonpayable",
					"type": "function"
				},
				{
					"inputs": [
						{
							"internalType": "address",
							"name": "to",
							"type": "address"
						},
						{
							"internalType": "uint256",
							"name": "tokenId",
							"type": "uint256"
						}
					],
					"name": "transferNFT",
					"outputs": [],
					"stateMutability": "nonpayable",
					"type": "function"
				},
				{
					"inputs": [
						{
							"internalType": "address",
							"name": "to",
							"type": "address"
						},
						{
							"internalType": "uint256",
							"name": "tokenId",
							"type": "uint256"
						},
						{
							"internalType": "uint256",
							"name": "tokenAmount",
							"type": "uint256"
						}
					],
					"name": "transferNFTWithToken",
					"outputs": [
						{
							"internalType": "bytes32",
							"name": "",
							"type": "bytes32"
						}
					],
					"stateMutability": "payable",
					"type": "function"
				},
				{
					"inputs": [
						{
							"internalType": "address",
							"name": "newOwner",
							"type": "address"
						}
					],
					"name": "transferOwnership",
					"outputs": [],
					"stateMutability": "nonpayable",
					"type": "function"
				}
			],
			"devdoc": {
				"errors": {
					"ERC721IncorrectOwner(address,uint256,address)": [
						{
							"details": "Indicates an error related to the ownership over a particular token. Used in transfers.",
							"params": {
								"owner": "Address of the current owner of a token.",
								"sender": "Address whose tokens are being transferred.",
								"tokenId": "Identifier number of a token."
							}
						}
					],
					"ERC721InsufficientApproval(address,uint256)": [
						{
							"details": "Indicates a failure with the `operator`’s approval. Used in transfers.",
							"params": {
								"operator": "Address that may be allowed to operate on tokens without being their owner.",
								"tokenId": "Identifier number of a token."
							}
						}
					],
					"ERC721InvalidApprover(address)": [
						{
							"details": "Indicates a failure with the `approver` of a token to be approved. Used in approvals.",
							"params": {
								"approver": "Address initiating an approval operation."
							}
						}
					],
					"ERC721InvalidOperator(address)": [
						{
							"details": "Indicates a failure with the `operator` to be approved. Used in approvals.",
							"params": {
								"operator": "Address that may be allowed to operate on tokens without being their owner."
							}
						}
					],
					"ERC721InvalidOwner(address)": [
						{
							"details": "Indicates that an address can't be an owner. For example, `address(0)` is a forbidden owner in EIP-20. Used in balance queries.",
							"params": {
								"owner": "Address of the current owner of a token."
							}
						}
					],
					"ERC721InvalidReceiver(address)": [
						{
							"details": "Indicates a failure with the token `receiver`. Used in transfers.",
							"params": {
								"receiver": "Address to which tokens are being transferred."
							}
						}
					],
					"ERC721InvalidSender(address)": [
						{
							"details": "Indicates a failure with the token `sender`. Used in transfers.",
							"params": {
								"sender": "Address whose tokens are being transferred."
							}
						}
					],
					"ERC721NonexistentToken(uint256)": [
						{
							"details": "Indicates a `tokenId` whose `owner` is the zero address.",
							"params": {
								"tokenId": "Identifier number of a token."
							}
						}
					],
					"OwnableInvalidOwner(address)": [
						{
							"details": "The owner is not a valid owner account. (eg. `address(0)`)"
						}
					],
					"OwnableUnauthorizedAccount(address)": [
						{
							"details": "The caller account is not authorized to perform an operation."
						}
					]
				},
				"events": {
					"Approval(address,address,uint256)": {
						"details": "Emitted when `owner` enables `approved` to manage the `tokenId` token."
					},
					"ApprovalForAll(address,address,bool)": {
						"details": "Emitted when `owner` enables or disables (`approved`) `operator` to manage all of its assets."
					},
					"Transfer(address,address,uint256)": {
						"details": "Emitted when `tokenId` token is transferred from `from` to `to`."
					}
				},
				"kind": "dev",
				"methods": {
					"approve(address,uint256)": {
						"details": "See {IERC721-approve}."
					},
					"balanceOf(address)": {
						"details": "See {IERC721-balanceOf}."
					},
					"getApproved(uint256)": {
						"details": "See {IERC721-getApproved}."
					},
					"isApprovedForAll(address,address)": {
						"details": "See {IERC721-isApprovedForAll}."
					},
					"name()": {
						"details": "See {IERC721Metadata-name}."
					},
					"owner()": {
						"details": "Returns the address of the current owner."
					},
					"ownerOf(uint256)": {
						"details": "See {IERC721-ownerOf}."
					},
					"renounceOwnership()": {
						"details": "Leaves the contract without owner. It will not be possible to call `onlyOwner` functions. Can only be called by the current owner. NOTE: Renouncing ownership will leave the contract without an owner, thereby disabling any functionality that is only available to the owner."
					},
					"safeTransferFrom(address,address,uint256)": {
						"details": "See {IERC721-safeTransferFrom}."
					},
					"safeTransferFrom(address,address,uint256,bytes)": {
						"details": "See {IERC721-safeTransferFrom}."
					},
					"setApprovalForAll(address,bool)": {
						"details": "See {IERC721-setApprovalForAll}."
					},
					"supportsInterface(bytes4)": {
						"details": "See {IERC165-supportsInterface}."
					},
					"symbol()": {
						"details": "See {IERC721Metadata-symbol}."
					},
					"tokenURI(uint256)": {
						"details": "See {IERC721Metadata-tokenURI}."
					},
					"transferFrom(address,address,uint256)": {
						"details": "See {IERC721-transferFrom}."
					},
					"transferOwnership(address)": {
						"details": "Transfers ownership of the contract to a new account (`newOwner`). Can only be called by the current owner."
					}
				},
				"version": 1
			},
			"evm": {
				"assembly": "    /* \"contracts/NFTPatient.sol\":288:3574  contract NFTPatientHealthChain is ERC721, Ownable {... */\n  mstore(0x40, 0x80)\n    /* \"contracts/NFTPatient.sol\":916:1137  constructor(address _myTokenAddress, address initialOwner, address _housewallet) ERC721(\"NFTPatient\", \"NPNT\") Ownable(initialOwner) {... */\n  callvalue\n  dup1\n  iszero\n  tag_1\n  jumpi\n  0x00\n  dup1\n  revert\ntag_1:\n  pop\n  mload(0x40)\n  sub(codesize, bytecodeSize)\n  dup1\n  bytecodeSize\n  dup4\n  codecopy\n  dup2\n  dup2\n  add\n  0x40\n  mstore\n  dup2\n  add\n  swap1\n  tag_2\n  swap2\n  swap1\n  tag_3\n  jump\t// in\ntag_2:\n    /* \"contracts/NFTPatient.sol\":1034:1046  initialOwner */\n  dup2\n    /* \"@openzeppelin/contracts/token/ERC721/ERC721.sol\":1381:1494  constructor(string memory name_, string memory symbol_) {... */\n  mload(0x40)\n  dup1\n  0x40\n  add\n  0x40\n  mstore\n  dup1\n  0x0a\n  dup2\n  mstore\n  0x20\n  add\n  0x4e465450617469656e7400000000000000000000000000000000000000000000\n  dup2\n  mstore\n  pop\n  mload(0x40)\n  dup1\n  0x40\n  add\n  0x40\n  mstore\n  dup1\n  0x04\n  dup2\n  mstore\n  0x20\n  add\n  0x4e504e5400000000000000000000000000000000000000000000000000000000\n  dup2\n  mstore\n  pop\n    /* \"@openzeppelin/contracts/token/ERC721/ERC721.sol\":1455:1460  name_ */\n  dup2\n    /* \"@openzeppelin/contracts/token/ERC721/ERC721.sol\":1447:1452  _name */\n  0x00\n    /* \"@openzeppelin/contracts/token/ERC721/ERC721.sol\":1447:1460  _name = name_ */\n  swap1\n  dup2\n  tag_8\n  swap2\n  swap1\n  tag_9\n  jump\t// in\ntag_8:\n  pop\n    /* \"@openzeppelin/contracts/token/ERC721/ERC721.sol\":1480:1487  symbol_ */\n  dup1\n    /* \"@openzeppelin/contracts/token/ERC721/ERC721.sol\":1470:1477  _symbol */\n  0x01\n    /* \"@openzeppelin/contracts/token/ERC721/ERC721.sol\":1470:1487  _symbol = symbol_ */\n  swap1\n  dup2\n  tag_10\n  swap2\n  swap1\n  tag_9\n  jump\t// in\ntag_10:\n  pop\n    /* \"@openzeppelin/contracts/token/ERC721/ERC721.sol\":1381:1494  constructor(string memory name_, string memory symbol_) {... */\n  pop\n  pop\n    /* \"@openzeppelin/contracts/access/Ownable.sol\":1297:1298  0 */\n  0x00\n    /* \"@openzeppelin/contracts/access/Ownable.sol\":1273:1299  initialOwner == address(0) */\n  0xffffffffffffffffffffffffffffffffffffffff\n  and\n    /* \"@openzeppelin/contracts/access/Ownable.sol\":1273:1285  initialOwner */\n  dup2\n    /* \"@openzeppelin/contracts/access/Ownable.sol\":1273:1299  initialOwner == address(0) */\n  0xffffffffffffffffffffffffffffffffffffffff\n  and\n  sub\n    /* \"@openzeppelin/contracts/access/Ownable.sol\":1269:1364  if (initialOwner == address(0)) {... */\n  tag_12\n  jumpi\n    /* \"@openzeppelin/contracts/access/Ownable.sol\":1350:1351  0 */\n  0x00\n    /* \"@openzeppelin/contracts/access/Ownable.sol\":1322:1353  OwnableInvalidOwner(address(0)) */\n  mload(0x40)\n  0x1e4fbdf700000000000000000000000000000000000000000000000000000000\n  dup2\n  mstore\n  0x04\n  add\n  tag_13\n  swap2\n  swap1\n  tag_14\n  jump\t// in\ntag_13:\n  mload(0x40)\n  dup1\n  swap2\n  sub\n  swap1\n  revert\n    /* \"@openzeppelin/contracts/access/Ownable.sol\":1269:1364  if (initialOwner == address(0)) {... */\ntag_12:\n    /* \"@openzeppelin/contracts/access/Ownable.sol\":1373:1405  _transferOwnership(initialOwner) */\n  tag_15\n    /* \"@openzeppelin/contracts/access/Ownable.sol\":1392:1404  initialOwner */\n  dup2\n    /* \"@openzeppelin/contracts/access/Ownable.sol\":1373:1391  _transferOwnership */\n  shl(0x20, tag_16)\n    /* \"@openzeppelin/contracts/access/Ownable.sol\":1373:1405  _transferOwnership(initialOwner) */\n  0x20\n  shr\n  jump\t// in\ntag_15:\n    /* \"@openzeppelin/contracts/access/Ownable.sol\":1225:1412  constructor(address initialOwner) {... */\n  pop\n    /* \"contracts/NFTPatient.sol\":1076:1091  _myTokenAddress */\n  dup3\n    /* \"contracts/NFTPatient.sol\":1059:1066  myToken */\n  0x08\n  0x00\n    /* \"contracts/NFTPatient.sol\":1059:1092  myToken = IERC20(_myTokenAddress) */\n  0x0100\n  exp\n  dup2\n  sload\n  dup2\n  0xffffffffffffffffffffffffffffffffffffffff\n  mul\n  not\n  and\n  swap1\n  dup4\n  0xffffffffffffffffffffffffffffffffffffffff\n  and\n  mul\n  or\n  swap1\n  sstore\n  pop\n    /* \"contracts/NFTPatient.sol\":1117:1129  _housewallet */\n  dup1\n    /* \"contracts/NFTPatient.sol\":1103:1114  housewallet */\n  0x09\n  0x00\n    /* \"contracts/NFTPatient.sol\":1103:1129  housewallet = _housewallet */\n  0x0100\n  exp\n  dup2\n  sload\n  dup2\n  0xffffffffffffffffffffffffffffffffffffffff\n  mul\n  not\n  and\n  swap1\n  dup4\n  0xffffffffffffffffffffffffffffffffffffffff\n  and\n  mul\n  or\n  swap1\n  sstore\n  pop\n    /* \"contracts/NFTPatient.sol\":916:1137  constructor(address _myTokenAddress, address initialOwner, address _housewallet) ERC721(\"NFTPatient\", \"NPNT\") Ownable(initialOwner) {... */\n  pop\n  pop\n  pop\n    /* \"contracts/NFTPatient.sol\":288:3574  contract NFTPatientHealthChain is ERC721, Ownable {... */\n  jump(tag_18)\n    /* \"@openzeppelin/contracts/access/Ownable.sol\":2912:3099  function _transferOwnership(address newOwner) internal virtual {... */\ntag_16:\n    /* \"@openzeppelin/contracts/access/Ownable.sol\":2985:3001  address oldOwner */\n  0x00\n    /* \"@openzeppelin/contracts/access/Ownable.sol\":3004:3010  _owner */\n  0x06\n  0x00\n  swap1\n  sload\n  swap1\n  0x0100\n  exp\n  swap1\n  div\n  0xffffffffffffffffffffffffffffffffffffffff\n  and\n    /* \"@openzeppelin/contracts/access/Ownable.sol\":2985:3010  address oldOwner = _owner */\n  swap1\n  pop\n    /* \"@openzeppelin/contracts/access/Ownable.sol\":3029:3037  newOwner */\n  dup2\n    /* \"@openzeppelin/contracts/access/Ownable.sol\":3020:3026  _owner */\n  0x06\n  0x00\n    /* \"@openzeppelin/contracts/access/Ownable.sol\":3020:3037  _owner = newOwner */\n  0x0100\n  exp\n  dup2\n  sload\n  dup2\n  0xffffffffffffffffffffffffffffffffffffffff\n  mul\n  not\n  and\n  swap1\n  dup4\n  0xffffffffffffffffffffffffffffffffffffffff\n  and\n  mul\n  or\n  swap1\n  sstore\n  pop\n    /* \"@openzeppelin/contracts/access/Ownable.sol\":3083:3091  newOwner */\n  dup2\n    /* \"@openzeppelin/contracts/access/Ownable.sol\":3052:3092  OwnershipTransferred(oldOwner, newOwner) */\n  0xffffffffffffffffffffffffffffffffffffffff\n  and\n    /* \"@openzeppelin/contracts/access/Ownable.sol\":3073:3081  oldOwner */\n  dup2\n    /* \"@openzeppelin/contracts/access/Ownable.sol\":3052:3092  OwnershipTransferred(oldOwner, newOwner) */\n  0xffffffffffffffffffffffffffffffffffffffff\n  and\n  0x8be0079c531659141344cd1fd0a4f28419497f9722a3daafe3b4186f6b6457e0\n  mload(0x40)\n  mload(0x40)\n  dup1\n  swap2\n  sub\n  swap1\n  log3\n    /* \"@openzeppelin/contracts/access/Ownable.sol\":2975:3099  {... */\n  pop\n    /* \"@openzeppelin/contracts/access/Ownable.sol\":2912:3099  function _transferOwnership(address newOwner) internal virtual {... */\n  pop\n  jump\t// out\n    /* \"#utility.yul\":88:205   */\ntag_21:\n    /* \"#utility.yul\":197:198   */\n  0x00\n    /* \"#utility.yul\":194:195   */\n  dup1\n    /* \"#utility.yul\":187:199   */\n  revert\n    /* \"#utility.yul\":334:460   */\ntag_23:\n    /* \"#utility.yul\":371:378   */\n  0x00\n    /* \"#utility.yul\":411:453   */\n  0xffffffffffffffffffffffffffffffffffffffff\n    /* \"#utility.yul\":404:409   */\n  dup3\n    /* \"#utility.yul\":400:454   */\n  and\n    /* \"#utility.yul\":389:454   */\n  swap1\n  pop\n    /* \"#utility.yul\":334:460   */\n  swap2\n  swap1\n  pop\n  jump\t// out\n    /* \"#utility.yul\":466:562   */\ntag_24:\n    /* \"#utility.yul\":503:510   */\n  0x00\n    /* \"#utility.yul\":532:556   */\n  tag_54\n    /* \"#utility.yul\":550:555   */\n  dup3\n    /* \"#utility.yul\":532:556   */\n  tag_23\n  jump\t// in\ntag_54:\n    /* \"#utility.yul\":521:556   */\n  swap1\n  pop\n    /* \"#utility.yul\":466:562   */\n  swap2\n  swap1\n  pop\n  jump\t// out\n    /* \"#utility.yul\":568:690   */\ntag_25:\n    /* \"#utility.yul\":641:665   */\n  tag_56\n    /* \"#utility.yul\":659:664   */\n  dup2\n    /* \"#utility.yul\":641:665   */\n  tag_24\n  jump\t// in\ntag_56:\n    /* \"#utility.yul\":634:639   */\n  dup2\n    /* \"#utility.yul\":631:666   */\n  eq\n    /* \"#utility.yul\":621:684   */\n  tag_57\n  jumpi\n    /* \"#utility.yul\":680:681   */\n  0x00\n    /* \"#utility.yul\":677:678   */\n  dup1\n    /* \"#utility.yul\":670:682   */\n  revert\n    /* \"#utility.yul\":621:684   */\ntag_57:\n    /* \"#utility.yul\":568:690   */\n  pop\n  jump\t// out\n    /* \"#utility.yul\":696:839   */\ntag_26:\n    /* \"#utility.yul\":753:758   */\n  0x00\n    /* \"#utility.yul\":784:790   */\n  dup2\n    /* \"#utility.yul\":778:791   */\n  mload\n    /* \"#utility.yul\":769:791   */\n  swap1\n  pop\n    /* \"#utility.yul\":800:833   */\n  tag_59\n    /* \"#utility.yul\":827:832   */\n  dup2\n    /* \"#utility.yul\":800:833   */\n  tag_25\n  jump\t// in\ntag_59:\n    /* \"#utility.yul\":696:839   */\n  swap3\n  swap2\n  pop\n  pop\n  jump\t// out\n    /* \"#utility.yul\":845:1508   */\ntag_3:\n    /* \"#utility.yul\":933:939   */\n  0x00\n    /* \"#utility.yul\":941:947   */\n  dup1\n    /* \"#utility.yul\":949:955   */\n  0x00\n    /* \"#utility.yul\":998:1000   */\n  0x60\n    /* \"#utility.yul\":986:995   */\n  dup5\n    /* \"#utility.yul\":977:984   */\n  dup7\n    /* \"#utility.yul\":973:996   */\n  sub\n    /* \"#utility.yul\":969:1001   */\n  slt\n    /* \"#utility.yul\":966:1085   */\n  iszero\n  tag_61\n  jumpi\n    /* \"#utility.yul\":1004:1083   */\n  tag_62\n  tag_21\n  jump\t// in\ntag_62:\n    /* \"#utility.yul\":966:1085   */\ntag_61:\n    /* \"#utility.yul\":1124:1125   */\n  0x00\n    /* \"#utility.yul\":1149:1213   */\n  tag_63\n    /* \"#utility.yul\":1205:1212   */\n  dup7\n    /* \"#utility.yul\":1196:1202   */\n  dup3\n    /* \"#utility.yul\":1185:1194   */\n  dup8\n    /* \"#utility.yul\":1181:1203   */\n  add\n    /* \"#utility.yul\":1149:1213   */\n  tag_26\n  jump\t// in\ntag_63:\n    /* \"#utility.yul\":1139:1213   */\n  swap4\n  pop\n    /* \"#utility.yul\":1095:1223   */\n  pop\n    /* \"#utility.yul\":1262:1264   */\n  0x20\n    /* \"#utility.yul\":1288:1352   */\n  tag_64\n    /* \"#utility.yul\":1344:1351   */\n  dup7\n    /* \"#utility.yul\":1335:1341   */\n  dup3\n    /* \"#utility.yul\":1324:1333   */\n  dup8\n    /* \"#utility.yul\":1320:1342   */\n  add\n    /* \"#utility.yul\":1288:1352   */\n  tag_26\n  jump\t// in\ntag_64:\n    /* \"#utility.yul\":1278:1352   */\n  swap3\n  pop\n    /* \"#utility.yul\":1233:1362   */\n  pop\n    /* \"#utility.yul\":1401:1403   */\n  0x40\n    /* \"#utility.yul\":1427:1491   */\n  tag_65\n    /* \"#utility.yul\":1483:1490   */\n  dup7\n    /* \"#utility.yul\":1474:1480   */\n  dup3\n    /* \"#utility.yul\":1463:1472   */\n  dup8\n    /* \"#utility.yul\":1459:1481   */\n  add\n    /* \"#utility.yul\":1427:1491   */\n  tag_26\n  jump\t// in\ntag_65:\n    /* \"#utility.yul\":1417:1491   */\n  swap2\n  pop\n    /* \"#utility.yul\":1372:1501   */\n  pop\n    /* \"#utility.yul\":845:1508   */\n  swap3\n  pop\n  swap3\n  pop\n  swap3\n  jump\t// out\n    /* \"#utility.yul\":1514:1613   */\ntag_27:\n    /* \"#utility.yul\":1566:1572   */\n  0x00\n    /* \"#utility.yul\":1600:1605   */\n  dup2\n    /* \"#utility.yul\":1594:1606   */\n  mload\n    /* \"#utility.yul\":1584:1606   */\n  swap1\n  pop\n    /* \"#utility.yul\":1514:1613   */\n  swap2\n  swap1\n  pop\n  jump\t// out\n    /* \"#utility.yul\":1619:1799   */\ntag_28:\n    /* \"#utility.yul\":1667:1744   */\n  0x4e487b7100000000000000000000000000000000000000000000000000000000\n    /* \"#utility.yul\":1664:1665   */\n  0x00\n    /* \"#utility.yul\":1657:1745   */\n  mstore\n    /* \"#utility.yul\":1764:1768   */\n  0x41\n    /* \"#utility.yul\":1761:1762   */\n  0x04\n    /* \"#utility.yul\":1754:1769   */\n  mstore\n    /* \"#utility.yul\":1788:1792   */\n  0x24\n    /* \"#utility.yul\":1785:1786   */\n  0x00\n    /* \"#utility.yul\":1778:1793   */\n  revert\n    /* \"#utility.yul\":1805:1985   */\ntag_29:\n    /* \"#utility.yul\":1853:1930   */\n  0x4e487b7100000000000000000000000000000000000000000000000000000000\n    /* \"#utility.yul\":1850:1851   */\n  0x00\n    /* \"#utility.yul\":1843:1931   */\n  mstore\n    /* \"#utility.yul\":1950:1954   */\n  0x22\n    /* \"#utility.yul\":1947:1948   */\n  0x04\n    /* \"#utility.yul\":1940:1955   */\n  mstore\n    /* \"#utility.yul\":1974:1978   */\n  0x24\n    /* \"#utility.yul\":1971:1972   */\n  0x00\n    /* \"#utility.yul\":1964:1979   */\n  revert\n    /* \"#utility.yul\":1991:2311   */\ntag_30:\n    /* \"#utility.yul\":2035:2041   */\n  0x00\n    /* \"#utility.yul\":2072:2073   */\n  0x02\n    /* \"#utility.yul\":2066:2070   */\n  dup3\n    /* \"#utility.yul\":2062:2074   */\n  div\n    /* \"#utility.yul\":2052:2074   */\n  swap1\n  pop\n    /* \"#utility.yul\":2119:2120   */\n  0x01\n    /* \"#utility.yul\":2113:2117   */\n  dup3\n    /* \"#utility.yul\":2109:2121   */\n  and\n    /* \"#utility.yul\":2140:2158   */\n  dup1\n    /* \"#utility.yul\":2130:2211   */\n  tag_70\n  jumpi\n    /* \"#utility.yul\":2196:2200   */\n  0x7f\n    /* \"#utility.yul\":2188:2194   */\n  dup3\n    /* \"#utility.yul\":2184:2201   */\n  and\n    /* \"#utility.yul\":2174:2201   */\n  swap2\n  pop\n    /* \"#utility.yul\":2130:2211   */\ntag_70:\n    /* \"#utility.yul\":2258:2260   */\n  0x20\n    /* \"#utility.yul\":2250:2256   */\n  dup3\n    /* \"#utility.yul\":2247:2261   */\n  lt\n    /* \"#utility.yul\":2227:2245   */\n  dup2\n    /* \"#utility.yul\":2224:2262   */\n  sub\n    /* \"#utility.yul\":2221:2305   */\n  tag_71\n  jumpi\n    /* \"#utility.yul\":2277:2295   */\n  tag_72\n  tag_29\n  jump\t// in\ntag_72:\n    /* \"#utility.yul\":2221:2305   */\ntag_71:\n    /* \"#utility.yul\":2042:2311   */\n  pop\n    /* \"#utility.yul\":1991:2311   */\n  swap2\n  swap1\n  pop\n  jump\t// out\n    /* \"#utility.yul\":2317:2458   */\ntag_31:\n    /* \"#utility.yul\":2366:2370   */\n  0x00\n    /* \"#utility.yul\":2389:2392   */\n  dup2\n    /* \"#utility.yul\":2381:2392   */\n  swap1\n  pop\n    /* \"#utility.yul\":2412:2415   */\n  dup2\n    /* \"#utility.yul\":2409:2410   */\n  0x00\n    /* \"#utility.yul\":2402:2416   */\n  mstore\n    /* \"#utility.yul\":2446:2450   */\n  0x20\n    /* \"#utility.yul\":2443:2444   */\n  0x00\n    /* \"#utility.yul\":2433:2451   */\n  keccak256\n    /* \"#utility.yul\":2425:2451   */\n  swap1\n  pop\n    /* \"#utility.yul\":2317:2458   */\n  swap2\n  swap1\n  pop\n  jump\t// out\n    /* \"#utility.yul\":2464:2557   */\ntag_32:\n    /* \"#utility.yul\":2501:2507   */\n  0x00\n    /* \"#utility.yul\":2548:2550   */\n  0x20\n    /* \"#utility.yul\":2543:2545   */\n  0x1f\n    /* \"#utility.yul\":2536:2541   */\n  dup4\n    /* \"#utility.yul\":2532:2546   */\n  add\n    /* \"#utility.yul\":2528:2551   */\n  div\n    /* \"#utility.yul\":2518:2551   */\n  swap1\n  pop\n    /* \"#utility.yul\":2464:2557   */\n  swap2\n  swap1\n  pop\n  jump\t// out\n    /* \"#utility.yul\":2563:2670   */\ntag_33:\n    /* \"#utility.yul\":2607:2615   */\n  0x00\n    /* \"#utility.yul\":2657:2662   */\n  dup3\n    /* \"#utility.yul\":2651:2655   */\n  dup3\n    /* \"#utility.yul\":2647:2663   */\n  shl\n    /* \"#utility.yul\":2626:2663   */\n  swap1\n  pop\n    /* \"#utility.yul\":2563:2670   */\n  swap3\n  swap2\n  pop\n  pop\n  jump\t// out\n    /* \"#utility.yul\":2676:3069   */\ntag_34:\n    /* \"#utility.yul\":2745:2751   */\n  0x00\n    /* \"#utility.yul\":2795:2796   */\n  0x08\n    /* \"#utility.yul\":2783:2793   */\n  dup4\n    /* \"#utility.yul\":2779:2797   */\n  mul\n    /* \"#utility.yul\":2818:2915   */\n  tag_77\n    /* \"#utility.yul\":2848:2914   */\n  0xffffffffffffffffffffffffffffffffffffffffffffffffffffffffffffffff\n    /* \"#utility.yul\":2837:2846   */\n  dup3\n    /* \"#utility.yul\":2818:2915   */\n  tag_33\n  jump\t// in\ntag_77:\n    /* \"#utility.yul\":2936:2975   */\n  tag_78\n    /* \"#utility.yul\":2966:2974   */\n  dup7\n    /* \"#utility.yul\":2955:2964   */\n  dup4\n    /* \"#utility.yul\":2936:2975   */\n  tag_33\n  jump\t// in\ntag_78:\n    /* \"#utility.yul\":2924:2975   */\n  swap6\n  pop\n    /* \"#utility.yul\":3008:3012   */\n  dup1\n    /* \"#utility.yul\":3004:3013   */\n  not\n    /* \"#utility.yul\":2997:3002   */\n  dup5\n    /* \"#utility.yul\":2993:3014   */\n  and\n    /* \"#utility.yul\":2984:3014   */\n  swap4\n  pop\n    /* \"#utility.yul\":3057:3061   */\n  dup1\n    /* \"#utility.yul\":3047:3055   */\n  dup7\n    /* \"#utility.yul\":3043:3062   */\n  and\n    /* \"#utility.yul\":3036:3041   */\n  dup5\n    /* \"#utility.yul\":3033:3063   */\n  or\n    /* \"#utility.yul\":3023:3063   */\n  swap3\n  pop\n    /* \"#utility.yul\":2752:3069   */\n  pop\n  pop\n    /* \"#utility.yul\":2676:3069   */\n  swap4\n  swap3\n  pop\n  pop\n  pop\n  jump\t// out\n    /* \"#utility.yul\":3075:3152   */\ntag_35:\n    /* \"#utility.yul\":3112:3119   */\n  0x00\n    /* \"#utility.yul\":3141:3146   */\n  dup2\n    /* \"#utility.yul\":3130:3146   */\n  swap1\n  pop\n    /* \"#utility.yul\":3075:3152   */\n  swap2\n  swap1\n  pop\n  jump\t// out\n    /* \"#utility.yul\":3158:3218   */\ntag_36:\n    /* \"#utility.yul\":3186:3189   */\n  0x00\n    /* \"#utility.yul\":3207:3212   */\n  dup2\n    /* \"#utility.yul\":3200:3212   */\n  swap1\n  pop\n    /* \"#utility.yul\":3158:3218   */\n  swap2\n  swap1\n  pop\n  jump\t// out\n    /* \"#utility.yul\":3224:3366   */\ntag_37:\n    /* \"#utility.yul\":3274:3283   */\n  0x00\n    /* \"#utility.yul\":3307:3360   */\n  tag_82\n    /* \"#utility.yul\":3325:3359   */\n  tag_83\n    /* \"#utility.yul\":3334:3358   */\n  tag_84\n    /* \"#utility.yul\":3352:3357   */\n  dup5\n    /* \"#utility.yul\":3334:3358   */\n  tag_35\n  jump\t// in\ntag_84:\n    /* \"#utility.yul\":3325:3359   */\n  tag_36\n  jump\t// in\ntag_83:\n    /* \"#utility.yul\":3307:3360   */\n  tag_35\n  jump\t// in\ntag_82:\n    /* \"#utility.yul\":3294:3360   */\n  swap1\n  pop\n    /* \"#utility.yul\":3224:3366   */\n  swap2\n  swap1\n  pop\n  jump\t// out\n    /* \"#utility.yul\":3372:3447   */\ntag_38:\n    /* \"#utility.yul\":3415:3418   */\n  0x00\n    /* \"#utility.yul\":3436:3441   */\n  dup2\n    /* \"#utility.yul\":3429:3441   */\n  swap1\n  pop\n    /* \"#utility.yul\":3372:3447   */\n  swap2\n  swap1\n  pop\n  jump\t// out\n    /* \"#utility.yul\":3453:3722   */\ntag_39:\n    /* \"#utility.yul\":3563:3602   */\n  tag_87\n    /* \"#utility.yul\":3594:3601   */\n  dup4\n    /* \"#utility.yul\":3563:3602   */\n  tag_37\n  jump\t// in\ntag_87:\n    /* \"#utility.yul\":3624:3715   */\n  tag_88\n    /* \"#utility.yul\":3673:3714   */\n  tag_89\n    /* \"#utility.yul\":3697:3713   */\n  dup3\n    /* \"#utility.yul\":3673:3714   */\n  tag_38\n  jump\t// in\ntag_89:\n    /* \"#utility.yul\":3665:3671   */\n  dup5\n    /* \"#utility.yul\":3658:3662   */\n  dup5\n    /* \"#utility.yul\":3652:3663   */\n  sload\n    /* \"#utility.yul\":3624:3715   */\n  tag_34\n  jump\t// in\ntag_88:\n    /* \"#utility.yul\":3618:3622   */\n  dup3\n    /* \"#utility.yul\":3611:3716   */\n  sstore\n    /* \"#utility.yul\":3529:3722   */\n  pop\n    /* \"#utility.yul\":3453:3722   */\n  pop\n  pop\n  pop\n  jump\t// out\n    /* \"#utility.yul\":3728:3801   */\ntag_40:\n    /* \"#utility.yul\":3773:3776   */\n  0x00\n    /* \"#utility.yul\":3728:3801   */\n  swap1\n  jump\t// out\n    /* \"#utility.yul\":3807:3996   */\ntag_41:\n    /* \"#utility.yul\":3884:3916   */\n  tag_92\n  tag_40\n  jump\t// in\ntag_92:\n    /* \"#utility.yul\":3925:3990   */\n  tag_93\n    /* \"#utility.yul\":3983:3989   */\n  dup2\n    /* \"#utility.yul\":3975:3981   */\n  dup5\n    /* \"#utility.yul\":3969:3973   */\n  dup5\n    /* \"#utility.yul\":3925:3990   */\n  tag_39\n  jump\t// in\ntag_93:\n    /* \"#utility.yul\":3860:3996   */\n  pop\n    /* \"#utility.yul\":3807:3996   */\n  pop\n  pop\n  jump\t// out\n    /* \"#utility.yul\":4002:4188   */\ntag_42:\n    /* \"#utility.yul\":4062:4182   */\ntag_95:\n    /* \"#utility.yul\":4079:4082   */\n  dup2\n    /* \"#utility.yul\":4072:4077   */\n  dup2\n    /* \"#utility.yul\":4069:4083   */\n  lt\n    /* \"#utility.yul\":4062:4182   */\n  iszero\n  tag_97\n  jumpi\n    /* \"#utility.yul\":4133:4172   */\n  tag_98\n    /* \"#utility.yul\":4170:4171   */\n  0x00\n    /* \"#utility.yul\":4163:4168   */\n  dup3\n    /* \"#utility.yul\":4133:4172   */\n  tag_41\n  jump\t// in\ntag_98:\n    /* \"#utility.yul\":4106:4107   */\n  0x01\n    /* \"#utility.yul\":4099:4104   */\n  dup2\n    /* \"#utility.yul\":4095:4108   */\n  add\n    /* \"#utility.yul\":4086:4108   */\n  swap1\n  pop\n    /* \"#utility.yul\":4062:4182   */\n  jump(tag_95)\ntag_97:\n    /* \"#utility.yul\":4002:4188   */\n  pop\n  pop\n  jump\t// out\n    /* \"#utility.yul\":4194:4737   */\ntag_43:\n    /* \"#utility.yul\":4295:4297   */\n  0x1f\n    /* \"#utility.yul\":4290:4293   */\n  dup3\n    /* \"#utility.yul\":4287:4298   */\n  gt\n    /* \"#utility.yul\":4284:4730   */\n  iszero\n  tag_100\n  jumpi\n    /* \"#utility.yul\":4329:4367   */\n  tag_101\n    /* \"#utility.yul\":4361:4366   */\n  dup2\n    /* \"#utility.yul\":4329:4367   */\n  tag_31\n  jump\t// in\ntag_101:\n    /* \"#utility.yul\":4413:4442   */\n  tag_102\n    /* \"#utility.yul\":4431:4441   */\n  dup5\n    /* \"#utility.yul\":4413:4442   */\n  tag_32\n  jump\t// in\ntag_102:\n    /* \"#utility.yul\":4403:4411   */\n  dup2\n    /* \"#utility.yul\":4399:4443   */\n  add\n    /* \"#utility.yul\":4596:4598   */\n  0x20\n    /* \"#utility.yul\":4584:4594   */\n  dup6\n    /* \"#utility.yul\":4581:4599   */\n  lt\n    /* \"#utility.yul\":4578:4627   */\n  iszero\n  tag_103\n  jumpi\n    /* \"#utility.yul\":4617:4625   */\n  dup2\n    /* \"#utility.yul\":4602:4625   */\n  swap1\n  pop\n    /* \"#utility.yul\":4578:4627   */\ntag_103:\n    /* \"#utility.yul\":4640:4720   */\n  tag_104\n    /* \"#utility.yul\":4696:4718   */\n  tag_105\n    /* \"#utility.yul\":4714:4717   */\n  dup6\n    /* \"#utility.yul\":4696:4718   */\n  tag_32\n  jump\t// in\ntag_105:\n    /* \"#utility.yul\":4686:4694   */\n  dup4\n    /* \"#utility.yul\":4682:4719   */\n  add\n    /* \"#utility.yul\":4669:4680   */\n  dup3\n    /* \"#utility.yul\":4640:4720   */\n  tag_42\n  jump\t// in\ntag_104:\n    /* \"#utility.yul\":4299:4730   */\n  pop\n  pop\n    /* \"#utility.yul\":4284:4730   */\ntag_100:\n    /* \"#utility.yul\":4194:4737   */\n  pop\n  pop\n  pop\n  jump\t// out\n    /* \"#utility.yul\":4743:4860   */\ntag_44:\n    /* \"#utility.yul\":4797:4805   */\n  0x00\n    /* \"#utility.yul\":4847:4852   */\n  dup3\n    /* \"#utility.yul\":4841:4845   */\n  dup3\n    /* \"#utility.yul\":4837:4853   */\n  shr\n    /* \"#utility.yul\":4816:4853   */\n  swap1\n  pop\n    /* \"#utility.yul\":4743:4860   */\n  swap3\n  swap2\n  pop\n  pop\n  jump\t// out\n    /* \"#utility.yul\":4866:5035   */\ntag_45:\n    /* \"#utility.yul\":4910:4916   */\n  0x00\n    /* \"#utility.yul\":4943:4994   */\n  tag_108\n    /* \"#utility.yul\":4991:4992   */\n  0x00\n    /* \"#utility.yul\":4987:4993   */\n  not\n    /* \"#utility.yul\":4979:4984   */\n  dup5\n    /* \"#utility.yul\":4976:4977   */\n  0x08\n    /* \"#utility.yul\":4972:4985   */\n  mul\n    /* \"#utility.yul\":4943:4994   */\n  tag_44\n  jump\t// in\ntag_108:\n    /* \"#utility.yul\":4939:4995   */\n  not\n    /* \"#utility.yul\":5024:5028   */\n  dup1\n    /* \"#utility.yul\":5018:5022   */\n  dup4\n    /* \"#utility.yul\":5014:5029   */\n  and\n    /* \"#utility.yul\":5004:5029   */\n  swap2\n  pop\n    /* \"#utility.yul\":4917:5035   */\n  pop\n    /* \"#utility.yul\":4866:5035   */\n  swap3\n  swap2\n  pop\n  pop\n  jump\t// out\n    /* \"#utility.yul\":5040:5335   */\ntag_46:\n    /* \"#utility.yul\":5116:5120   */\n  0x00\n    /* \"#utility.yul\":5262:5291   */\n  tag_110\n    /* \"#utility.yul\":5287:5290   */\n  dup4\n    /* \"#utility.yul\":5281:5285   */\n  dup4\n    /* \"#utility.yul\":5262:5291   */\n  tag_45\n  jump\t// in\ntag_110:\n    /* \"#utility.yul\":5254:5291   */\n  swap2\n  pop\n    /* \"#utility.yul\":5324:5327   */\n  dup3\n    /* \"#utility.yul\":5321:5322   */\n  0x02\n    /* \"#utility.yul\":5317:5328   */\n  mul\n    /* \"#utility.yul\":5311:5315   */\n  dup3\n    /* \"#utility.yul\":5308:5329   */\n  or\n    /* \"#utility.yul\":5300:5329   */\n  swap1\n  pop\n    /* \"#utility.yul\":5040:5335   */\n  swap3\n  swap2\n  pop\n  pop\n  jump\t// out\n    /* \"#utility.yul\":5340:6735   */\ntag_9:\n    /* \"#utility.yul\":5457:5494   */\n  tag_112\n    /* \"#utility.yul\":5490:5493   */\n  dup3\n    /* \"#utility.yul\":5457:5494   */\n  tag_27\n  jump\t// in\ntag_112:\n    /* \"#utility.yul\":5559:5577   */\n  0xffffffffffffffff\n    /* \"#utility.yul\":5551:5557   */\n  dup2\n    /* \"#utility.yul\":5548:5578   */\n  gt\n    /* \"#utility.yul\":5545:5601   */\n  iszero\n  tag_113\n  jumpi\n    /* \"#utility.yul\":5581:5599   */\n  tag_114\n  tag_28\n  jump\t// in\ntag_114:\n    /* \"#utility.yul\":5545:5601   */\ntag_113:\n    /* \"#utility.yul\":5625:5663   */\n  tag_115\n    /* \"#utility.yul\":5657:5661   */\n  dup3\n    /* \"#utility.yul\":5651:5662   */\n  sload\n    /* \"#utility.yul\":5625:5663   */\n  tag_30\n  jump\t// in\ntag_115:\n    /* \"#utility.yul\":5710:5777   */\n  tag_116\n    /* \"#utility.yul\":5770:5776   */\n  dup3\n    /* \"#utility.yul\":5762:5768   */\n  dup3\n    /* \"#utility.yul\":5756:5760   */\n  dup6\n    /* \"#utility.yul\":5710:5777   */\n  tag_43\n  jump\t// in\ntag_116:\n    /* \"#utility.yul\":5804:5805   */\n  0x00\n    /* \"#utility.yul\":5828:5832   */\n  0x20\n    /* \"#utility.yul\":5815:5832   */\n  swap1\n  pop\n    /* \"#utility.yul\":5860:5862   */\n  0x1f\n    /* \"#utility.yul\":5852:5858   */\n  dup4\n    /* \"#utility.yul\":5849:5863   */\n  gt\n    /* \"#utility.yul\":5877:5878   */\n  0x01\n    /* \"#utility.yul\":5872:6490   */\n  dup2\n  eq\n  tag_118\n  jumpi\n    /* \"#utility.yul\":6534:6535   */\n  0x00\n    /* \"#utility.yul\":6551:6557   */\n  dup5\n    /* \"#utility.yul\":6548:6625   */\n  iszero\n  tag_119\n  jumpi\n    /* \"#utility.yul\":6600:6609   */\n  dup3\n    /* \"#utility.yul\":6595:6598   */\n  dup8\n    /* \"#utility.yul\":6591:6610   */\n  add\n    /* \"#utility.yul\":6585:6611   */\n  mload\n    /* \"#utility.yul\":6576:6611   */\n  swap1\n  pop\n    /* \"#utility.yul\":6548:6625   */\ntag_119:\n    /* \"#utility.yul\":6651:6718   */\n  tag_120\n    /* \"#utility.yul\":6711:6717   */\n  dup6\n    /* \"#utility.yul\":6704:6709   */\n  dup3\n    /* \"#utility.yul\":6651:6718   */\n  tag_46\n  jump\t// in\ntag_120:\n    /* \"#utility.yul\":6645:6649   */\n  dup7\n    /* \"#utility.yul\":6638:6719   */\n  sstore\n    /* \"#utility.yul\":6507:6729   */\n  pop\n    /* \"#utility.yul\":5842:6729   */\n  jump(tag_117)\n    /* \"#utility.yul\":5872:6490   */\ntag_118:\n    /* \"#utility.yul\":5924:5928   */\n  0x1f\n    /* \"#utility.yul\":5920:5929   */\n  not\n    /* \"#utility.yul\":5912:5918   */\n  dup5\n    /* \"#utility.yul\":5908:5930   */\n  and\n    /* \"#utility.yul\":5958:5995   */\n  tag_121\n    /* \"#utility.yul\":5990:5994   */\n  dup7\n    /* \"#utility.yul\":5958:5995   */\n  tag_31\n  jump\t// in\ntag_121:\n    /* \"#utility.yul\":6017:6018   */\n  0x00\n    /* \"#utility.yul\":6031:6239   */\ntag_122:\n    /* \"#utility.yul\":6045:6052   */\n  dup3\n    /* \"#utility.yul\":6042:6043   */\n  dup2\n    /* \"#utility.yul\":6039:6053   */\n  lt\n    /* \"#utility.yul\":6031:6239   */\n  iszero\n  tag_124\n  jumpi\n    /* \"#utility.yul\":6124:6133   */\n  dup5\n    /* \"#utility.yul\":6119:6122   */\n  dup10\n    /* \"#utility.yul\":6115:6134   */\n  add\n    /* \"#utility.yul\":6109:6135   */\n  mload\n    /* \"#utility.yul\":6101:6107   */\n  dup3\n    /* \"#utility.yul\":6094:6136   */\n  sstore\n    /* \"#utility.yul\":6175:6176   */\n  0x01\n    /* \"#utility.yul\":6167:6173   */\n  dup3\n    /* \"#utility.yul\":6163:6177   */\n  add\n    /* \"#utility.yul\":6153:6177   */\n  swap2\n  pop\n    /* \"#utility.yul\":6222:6224   */\n  0x20\n    /* \"#utility.yul\":6211:6220   */\n  dup6\n    /* \"#utility.yul\":6207:6225   */\n  add\n    /* \"#utility.yul\":6194:6225   */\n  swap5\n  pop\n    /* \"#utility.yul\":6068:6072   */\n  0x20\n    /* \"#utility.yul\":6065:6066   */\n  dup2\n    /* \"#utility.yul\":6061:6073   */\n  add\n    /* \"#utility.yul\":6056:6073   */\n  swap1\n  pop\n    /* \"#utility.yul\":6031:6239   */\n  jump(tag_122)\ntag_124:\n    /* \"#utility.yul\":6267:6273   */\n  dup7\n    /* \"#utility.yul\":6258:6265   */\n  dup4\n    /* \"#utility.yul\":6255:6274   */\n  lt\n    /* \"#utility.yul\":6252:6431   */\n  iszero\n  tag_125\n  jumpi\n    /* \"#utility.yul\":6325:6334   */\n  dup5\n    /* \"#utility.yul\":6320:6323   */\n  dup10\n    /* \"#utility.yul\":6316:6335   */\n  add\n    /* \"#utility.yul\":6310:6336   */\n  mload\n    /* \"#utility.yul\":6368:6416   */\n  tag_126\n    /* \"#utility.yul\":6410:6414   */\n  0x1f\n    /* \"#utility.yul\":6402:6408   */\n  dup10\n    /* \"#utility.yul\":6398:6415   */\n  and\n    /* \"#utility.yul\":6387:6396   */\n  dup3\n    /* \"#utility.yul\":6368:6416   */\n  tag_45\n  jump\t// in\ntag_126:\n    /* \"#utility.yul\":6360:6366   */\n  dup4\n    /* \"#utility.yul\":6353:6417   */\n  sstore\n    /* \"#utility.yul\":6275:6431   */\n  pop\n    /* \"#utility.yul\":6252:6431   */\ntag_125:\n    /* \"#utility.yul\":6477:6478   */\n  0x01\n    /* \"#utility.yul\":6473:6474   */\n  0x02\n    /* \"#utility.yul\":6465:6471   */\n  dup9\n    /* \"#utility.yul\":6461:6475   */\n  mul\n    /* \"#utility.yul\":6457:6479   */\n  add\n    /* \"#utility.yul\":6451:6455   */\n  dup9\n    /* \"#utility.yul\":6444:6480   */\n  sstore\n    /* \"#utility.yul\":5879:6490   */\n  pop\n  pop\n  pop\n    /* \"#utility.yul\":5842:6729   */\ntag_117:\n  pop\n    /* \"#utility.yul\":5432:6735   */\n  pop\n  pop\n  pop\n    /* \"#utility.yul\":5340:6735   */\n  pop\n  pop\n  jump\t// out\n    /* \"#utility.yul\":6741:6859   */\ntag_47:\n    /* \"#utility.yul\":6828:6852   */\n  tag_128\n    /* \"#utility.yul\":6846:6851   */\n  dup2\n    /* \"#utility.yul\":6828:6852   */\n  tag_24\n  jump\t// in\ntag_128:\n    /* \"#utility.yul\":6823:6826   */\n  dup3\n    /* \"#utility.yul\":6816:6853   */\n  mstore\n    /* \"#utility.yul\":6741:6859   */\n  pop\n  pop\n  jump\t// out\n    /* \"#utility.yul\":6865:7087   */\ntag_14:\n    /* \"#utility.yul\":6958:6962   */\n  0x00\n    /* \"#utility.yul\":6996:6998   */\n  0x20\n    /* \"#utility.yul\":6985:6994   */\n  dup3\n    /* \"#utility.yul\":6981:6999   */\n  add\n    /* \"#utility.yul\":6973:6999   */\n  swap1\n  pop\n    /* \"#utility.yul\":7009:7080   */\n  tag_130\n    /* \"#utility.yul\":7077:7078   */\n  0x00\n    /* \"#utility.yul\":7066:7075   */\n  dup4\n    /* \"#utility.yul\":7062:7079   */\n  add\n    /* \"#utility.yul\":7053:7059   */\n  dup5\n    /* \"#utility.yul\":7009:7080   */\n  tag_47\n  jump\t// in\ntag_130:\n    /* \"#utility.yul\":6865:7087   */\n  swap3\n  swap2\n  pop\n  pop\n  jump\t// out\n    /* \"contracts/NFTPatient.sol\":288:3574  contract NFTPatientHealthChain is ERC721, Ownable {... */\ntag_18:\n  dataSize(sub_0)\n  dup1\n  dataOffset(sub_0)\n  0x00\n  codecopy\n  0x00\n  return\nstop\n\nsub_0: assembly {\n        /* \"contracts/NFTPatient.sol\":288:3574  contract NFTPatientHealthChain is ERC721, Ownable {... */\n      mstore(0x40, 0x80)\n      jumpi(tag_1, lt(calldatasize, 0x04))\n      shr(0xe0, calldataload(0x00))\n      dup1\n      0x863b3894\n      gt\n      tag_25\n      jumpi\n      dup1\n      0xa22cb465\n      gt\n      tag_26\n      jumpi\n      dup1\n      0xa22cb465\n      eq\n      tag_19\n      jumpi\n      dup1\n      0xb88d4fde\n      eq\n      tag_20\n      jumpi\n      dup1\n      0xb8fcf937\n      eq\n      tag_21\n      jumpi\n      dup1\n      0xc87b56dd\n      eq\n      tag_22\n      jumpi\n      dup1\n      0xe985e9c5\n      eq\n      tag_23\n      jumpi\n      dup1\n      0xf2fde38b\n      eq\n      tag_24\n      jumpi\n      jump(tag_1)\n    tag_26:\n      dup1\n      0x863b3894\n      eq\n      tag_13\n      jumpi\n      dup1\n      0x8da5cb5b\n      eq\n      tag_14\n      jumpi\n      dup1\n      0x8f3481c0\n      eq\n      tag_15\n      jumpi\n      dup1\n      0x94407465\n      eq\n      tag_16\n      jumpi\n      dup1\n      0x94ab67fe\n      eq\n      tag_17\n      jumpi\n      dup1\n      0x95d89b41\n      eq\n      tag_18\n      jumpi\n      jump(tag_1)\n    tag_25:\n      dup1\n      0x37418972\n      gt\n      tag_27\n      jumpi\n      dup1\n      0x37418972\n      eq\n      tag_7\n      jumpi\n      dup1\n      0x3c168eab\n      eq\n      tag_8\n      jumpi\n      dup1\n      0x42842e0e\n      eq\n      tag_9\n      jumpi\n      dup1\n      0x6352211e\n      eq\n      tag_10\n      jumpi\n      dup1\n      0x70a08231\n      eq\n      tag_11\n      jumpi\n      dup1\n      0x715018a6\n      eq\n      tag_12\n      jumpi\n      jump(tag_1)\n    tag_27:\n      dup1\n      0x01ffc9a7\n      eq\n      tag_2\n      jumpi\n      dup1\n      0x06fdde03\n      eq\n      tag_3\n      jumpi\n      dup1\n      0x081812fc\n      eq\n      tag_4\n      jumpi\n      dup1\n      0x095ea7b3\n      eq\n      tag_5\n      jumpi\n      dup1\n      0x23b872dd\n      eq\n      tag_6\n      jumpi\n    tag_1:\n      0x00\n      dup1\n      revert\n        /* \"@openzeppelin/contracts/token/ERC721/ERC721.sol\":1561:1861  function supportsInterface(bytes4 interfaceId) public view virtual override(ERC165, IERC165) returns (bool) {... */\n    tag_2:\n      callvalue\n      dup1\n      iszero\n      tag_28\n      jumpi\n      0x00\n      dup1\n      revert\n    tag_28:\n      pop\n      tag_29\n      0x04\n      dup1\n      calldatasize\n      sub\n      dup2\n      add\n      swap1\n      tag_30\n      swap2\n      swap1\n      tag_31\n      jump\t// in\n    tag_30:\n      tag_32\n      jump\t// in\n    tag_29:\n      mload(0x40)\n      tag_33\n      swap2\n      swap1\n      tag_34\n      jump\t// in\n    tag_33:\n      mload(0x40)\n      dup1\n      swap2\n      sub\n      swap1\n      return\n        /* \"@openzeppelin/contracts/token/ERC721/ERC721.sol\":2365:2454  function name() public view virtual returns (string memory) {... */\n    tag_3:\n      callvalue\n      dup1\n      iszero\n      tag_35\n      jumpi\n      0x00\n      dup1\n      revert\n    tag_35:\n      pop\n      tag_36\n      tag_37\n      jump\t// in\n    tag_36:\n      mload(0x40)\n      tag_38\n      swap2\n      swap1\n      tag_39\n      jump\t// in\n    tag_38:\n      mload(0x40)\n      dup1\n      swap2\n      sub\n      swap1\n      return\n        /* \"@openzeppelin/contracts/token/ERC721/ERC721.sol\":3497:3651  function getApproved(uint256 tokenId) public view virtual returns (address) {... */\n    tag_4:\n      callvalue\n      dup1\n      iszero\n      tag_40\n      jumpi\n      0x00\n      dup1\n      revert\n    tag_40:\n      pop\n      tag_41\n      0x04\n      dup1\n      calldatasize\n      sub\n      dup2\n      add\n      swap1\n      tag_42\n      swap2\n      swap1\n      tag_43\n      jump\t// in\n    tag_42:\n      tag_44\n      jump\t// in\n    tag_41:\n      mload(0x40)\n      tag_45\n      swap2\n      swap1\n      tag_46\n      jump\t// in\n    tag_45:\n      mload(0x40)\n      dup1\n      swap2\n      sub\n      swap1\n      return\n        /* \"@openzeppelin/contracts/token/ERC721/ERC721.sol\":3323:3436  function approve(address to, uint256 tokenId) public virtual {... */\n    tag_5:\n      callvalue\n      dup1\n      iszero\n      tag_47\n      jumpi\n      0x00\n      dup1\n      revert\n    tag_47:\n      pop\n      tag_48\n      0x04\n      dup1\n      calldatasize\n      sub\n      dup2\n      add\n      swap1\n      tag_49\n      swap2\n      swap1\n      tag_50\n      jump\t// in\n    tag_49:\n      tag_51\n      jump\t// in\n    tag_48:\n      stop\n        /* \"@openzeppelin/contracts/token/ERC721/ERC721.sol\":4143:4721  function transferFrom(address from, address to, uint256 tokenId) public virtual {... */\n    tag_6:\n      callvalue\n      dup1\n      iszero\n      tag_52\n      jumpi\n      0x00\n      dup1\n      revert\n    tag_52:\n      pop\n      tag_53\n      0x04\n      dup1\n      calldatasize\n      sub\n      dup2\n      add\n      swap1\n      tag_54\n      swap2\n      swap1\n      tag_55\n      jump\t// in\n    tag_54:\n      tag_56\n      jump\t// in\n    tag_53:\n      stop\n        /* \"contracts/NFTPatient.sol\":3448:3571  function markTransactionCompleted(bytes32 txHash) public onlyOwner {... */\n    tag_7:\n      callvalue\n      dup1\n      iszero\n      tag_57\n      jumpi\n      0x00\n      dup1\n      revert\n    tag_57:\n      pop\n      tag_58\n      0x04\n      dup1\n      calldatasize\n      sub\n      dup2\n      add\n      swap1\n      tag_59\n      swap2\n      swap1\n      tag_60\n      jump\t// in\n    tag_59:\n      tag_61\n      jump\t// in\n    tag_58:\n      stop\n        /* \"contracts/NFTPatient.sol\":1208:1422  function mintNFT(address to, uint256 tokenId) public onlyOwner {... */\n    tag_8:\n      callvalue\n      dup1\n      iszero\n      tag_62\n      jumpi\n      0x00\n      dup1\n      revert\n    tag_62:\n      pop\n      tag_63\n      0x04\n      dup1\n      calldatasize\n      sub\n      dup2\n      add\n      swap1\n      tag_64\n      swap2\n      swap1\n      tag_50\n      jump\t// in\n    tag_64:\n      tag_65\n      jump\t// in\n    tag_63:\n      stop\n        /* \"@openzeppelin/contracts/token/ERC721/ERC721.sol\":4787:4919  function safeTransferFrom(address from, address to, uint256 tokenId) public {... */\n    tag_9:\n      callvalue\n      dup1\n      iszero\n      tag_66\n      jumpi\n      0x00\n      dup1\n      revert\n    tag_66:\n      pop\n      tag_67\n      0x04\n      dup1\n      calldatasize\n      sub\n      dup2\n      add\n      swap1\n      tag_68\n      swap2\n      swap1\n      tag_55\n      jump\t// in\n    tag_68:\n      tag_69\n      jump\t// in\n    tag_67:\n      stop\n        /* \"@openzeppelin/contracts/token/ERC721/ERC721.sol\":2185:2303  function ownerOf(uint256 tokenId) public view virtual returns (address) {... */\n    tag_10:\n      callvalue\n      dup1\n      iszero\n      tag_70\n      jumpi\n      0x00\n      dup1\n      revert\n    tag_70:\n      pop\n      tag_71\n      0x04\n      dup1\n      calldatasize\n      sub\n      dup2\n      add\n      swap1\n      tag_72\n      swap2\n      swap1\n      tag_43\n      jump\t// in\n    tag_72:\n      tag_73\n      jump\t// in\n    tag_71:\n      mload(0x40)\n      tag_74\n      swap2\n      swap1\n      tag_46\n      jump\t// in\n    tag_74:\n      mload(0x40)\n      dup1\n      swap2\n      sub\n      swap1\n      return\n        /* \"@openzeppelin/contracts/token/ERC721/ERC721.sol\":1920:2128  function balanceOf(address owner) public view virtual returns (uint256) {... */\n    tag_11:\n      callvalue\n      dup1\n      iszero\n      tag_75\n      jumpi\n      0x00\n      dup1\n      revert\n    tag_75:\n      pop\n      tag_76\n      0x04\n      dup1\n      calldatasize\n      sub\n      dup2\n      add\n      swap1\n      tag_77\n      swap2\n      swap1\n      tag_78\n      jump\t// in\n    tag_77:\n      tag_79\n      jump\t// in\n    tag_76:\n      mload(0x40)\n      tag_80\n      swap2\n      swap1\n      tag_81\n      jump\t// in\n    tag_80:\n      mload(0x40)\n      dup1\n      swap2\n      sub\n      swap1\n      return\n        /* \"@openzeppelin/contracts/access/Ownable.sol\":2293:2394  function renounceOwnership() public virtual onlyOwner {... */\n    tag_12:\n      callvalue\n      dup1\n      iszero\n      tag_82\n      jumpi\n      0x00\n      dup1\n      revert\n    tag_82:\n      pop\n      tag_83\n      tag_84\n      jump\t// in\n    tag_83:\n      stop\n        /* \"contracts/NFTPatient.sol\":501:527  address public housewallet */\n    tag_13:\n      callvalue\n      dup1\n      iszero\n      tag_85\n      jumpi\n      0x00\n      dup1\n      revert\n    tag_85:\n      pop\n      tag_86\n      tag_87\n      jump\t// in\n    tag_86:\n      mload(0x40)\n      tag_88\n      swap2\n      swap1\n      tag_46\n      jump\t// in\n    tag_88:\n      mload(0x40)\n      dup1\n      swap2\n      sub\n      swap1\n      return\n        /* \"@openzeppelin/contracts/access/Ownable.sol\":1638:1723  function owner() public view virtual returns (address) {... */\n    tag_14:\n      callvalue\n      dup1\n      iszero\n      tag_89\n      jumpi\n      0x00\n      dup1\n      revert\n    tag_89:\n      pop\n      tag_90\n      tag_91\n      jump\t// in\n    tag_90:\n      mload(0x40)\n      tag_92\n      swap2\n      swap1\n      tag_46\n      jump\t// in\n    tag_92:\n      mload(0x40)\n      dup1\n      swap2\n      sub\n      swap1\n      return\n        /* \"contracts/NFTPatient.sol\":2009:3044  function transferNFTWithToken(address to, uint256 tokenId, uint256 tokenAmount) public payable returns (bytes32) {... */\n    tag_15:\n      tag_93\n      0x04\n      dup1\n      calldatasize\n      sub\n      dup2\n      add\n      swap1\n      tag_94\n      swap2\n      swap1\n      tag_95\n      jump\t// in\n    tag_94:\n      tag_96\n      jump\t// in\n    tag_93:\n      mload(0x40)\n      tag_97\n      swap2\n      swap1\n      tag_98\n      jump\t// in\n    tag_97:\n      mload(0x40)\n      dup1\n      swap2\n      sub\n      swap1\n      return\n        /* \"contracts/NFTPatient.sol\":3140:3351  function getTransactionStatus(bytes32 txHash) public view returns (bool) {... */\n    tag_16:\n      callvalue\n      dup1\n      iszero\n      tag_99\n      jumpi\n      0x00\n      dup1\n      revert\n    tag_99:\n      pop\n      tag_100\n      0x04\n      dup1\n      calldatasize\n      sub\n      dup2\n      add\n      swap1\n      tag_101\n      swap2\n      swap1\n      tag_60\n      jump\t// in\n    tag_101:\n      tag_102\n      jump\t// in\n    tag_100:\n      mload(0x40)\n      tag_103\n      swap2\n      swap1\n      tag_34\n      jump\t// in\n    tag_103:\n      mload(0x40)\n      dup1\n      swap2\n      sub\n      swap1\n      return\n        /* \"contracts/NFTPatient.sol\":1549:1902  function transferNFT(address to, uint256 tokenId) public {... */\n    tag_17:\n      callvalue\n      dup1\n      iszero\n      tag_104\n      jumpi\n      0x00\n      dup1\n      revert\n    tag_104:\n      pop\n      tag_105\n      0x04\n      dup1\n      calldatasize\n      sub\n      dup2\n      add\n      swap1\n      tag_106\n      swap2\n      swap1\n      tag_50\n      jump\t// in\n    tag_106:\n      tag_107\n      jump\t// in\n    tag_105:\n      stop\n        /* \"@openzeppelin/contracts/token/ERC721/ERC721.sol\":2518:2611  function symbol() public view virtual returns (string memory) {... */\n    tag_18:\n      callvalue\n      dup1\n      iszero\n      tag_108\n      jumpi\n      0x00\n      dup1\n      revert\n    tag_108:\n      pop\n      tag_109\n      tag_110\n      jump\t// in\n    tag_109:\n      mload(0x40)\n      tag_111\n      swap2\n      swap1\n      tag_39\n      jump\t// in\n    tag_111:\n      mload(0x40)\n      dup1\n      swap2\n      sub\n      swap1\n      return\n        /* \"@openzeppelin/contracts/token/ERC721/ERC721.sol\":3718:3862  function setApprovalForAll(address operator, bool approved) public virtual {... */\n    tag_19:\n      callvalue\n      dup1\n      iszero\n      tag_112\n      jumpi\n      0x00\n      dup1\n      revert\n    tag_112:\n      pop\n      tag_113\n      0x04\n      dup1\n      calldatasize\n      sub\n      dup2\n      add\n      swap1\n      tag_114\n      swap2\n      swap1\n      tag_115\n      jump\t// in\n    tag_114:\n      tag_116\n      jump\t// in\n    tag_113:\n      stop\n        /* \"@openzeppelin/contracts/token/ERC721/ERC721.sol\":4985:5193  function safeTransferFrom(address from, address to, uint256 tokenId, bytes memory data) public virtual {... */\n    tag_20:\n      callvalue\n      dup1\n      iszero\n      tag_117\n      jumpi\n      0x00\n      dup1\n      revert\n    tag_117:\n      pop\n      tag_118\n      0x04\n      dup1\n      calldatasize\n      sub\n      dup2\n      add\n      swap1\n      tag_119\n      swap2\n      swap1\n      tag_120\n      jump\t// in\n    tag_119:\n      tag_121\n      jump\t// in\n    tag_118:\n      stop\n        /* \"contracts/NFTPatient.sol\":430:451  IERC20 public myToken */\n    tag_21:\n      callvalue\n      dup1\n      iszero\n      tag_122\n      jumpi\n      0x00\n      dup1\n      revert\n    tag_122:\n      pop\n      tag_123\n      tag_124\n      jump\t// in\n    tag_123:\n      mload(0x40)\n      tag_125\n      swap2\n      swap1\n      tag_126\n      jump\t// in\n    tag_125:\n      mload(0x40)\n      dup1\n      swap2\n      sub\n      swap1\n      return\n        /* \"@openzeppelin/contracts/token/ERC721/ERC721.sol\":2677:2932  function tokenURI(uint256 tokenId) public view virtual returns (string memory) {... */\n    tag_22:\n      callvalue\n      dup1\n      iszero\n      tag_127\n      jumpi\n      0x00\n      dup1\n      revert\n    tag_127:\n      pop\n      tag_128\n      0x04\n      dup1\n      calldatasize\n      sub\n      dup2\n      add\n      swap1\n      tag_129\n      swap2\n      swap1\n      tag_43\n      jump\t// in\n    tag_129:\n      tag_130\n      jump\t// in\n    tag_128:\n      mload(0x40)\n      tag_131\n      swap2\n      swap1\n      tag_39\n      jump\t// in\n    tag_131:\n      mload(0x40)\n      dup1\n      swap2\n      sub\n      swap1\n      return\n        /* \"@openzeppelin/contracts/token/ERC721/ERC721.sol\":3928:4081  function isApprovedForAll(address owner, address operator) public view virtual returns (bool) {... */\n    tag_23:\n      callvalue\n      dup1\n      iszero\n      tag_132\n      jumpi\n      0x00\n      dup1\n      revert\n    tag_132:\n      pop\n      tag_133\n      0x04\n      dup1\n      calldatasize\n      sub\n      dup2\n      add\n      swap1\n      tag_134\n      swap2\n      swap1\n      tag_135\n      jump\t// in\n    tag_134:\n      tag_136\n      jump\t// in\n    tag_133:\n      mload(0x40)\n      tag_137\n      swap2\n      swap1\n      tag_34\n      jump\t// in\n    tag_137:\n      mload(0x40)\n      dup1\n      swap2\n      sub\n      swap1\n      return\n        /* \"@openzeppelin/contracts/access/Ownable.sol\":2543:2758  function transferOwnership(address newOwner) public virtual onlyOwner {... */\n    tag_24:\n      callvalue\n      dup1\n      iszero\n      tag_138\n      jumpi\n      0x00\n      dup1\n      revert\n    tag_138:\n      pop\n      tag_139\n      0x04\n      dup1\n      calldatasize\n      sub\n      dup2\n      add\n      swap1\n      tag_140\n      swap2\n      swap1\n      tag_78\n      jump\t// in\n    tag_140:\n      tag_141\n      jump\t// in\n    tag_139:\n      stop\n        /* \"@openzeppelin/contracts/token/ERC721/ERC721.sol\":1561:1861  function supportsInterface(bytes4 interfaceId) public view virtual override(ERC165, IERC165) returns (bool) {... */\n    tag_32:\n        /* \"@openzeppelin/contracts/token/ERC721/ERC721.sol\":1663:1667  bool */\n      0x00\n        /* \"@openzeppelin/contracts/token/ERC721/ERC721.sol\":1713:1738  type(IERC721).interfaceId */\n      0x80ac58cd00000000000000000000000000000000000000000000000000000000\n        /* \"@openzeppelin/contracts/token/ERC721/ERC721.sol\":1698:1738  interfaceId == type(IERC721).interfaceId */\n      not(0xffffffffffffffffffffffffffffffffffffffffffffffffffffffff)\n      and\n        /* \"@openzeppelin/contracts/token/ERC721/ERC721.sol\":1698:1709  interfaceId */\n      dup3\n        /* \"@openzeppelin/contracts/token/ERC721/ERC721.sol\":1698:1738  interfaceId == type(IERC721).interfaceId */\n      not(0xffffffffffffffffffffffffffffffffffffffffffffffffffffffff)\n      and\n      eq\n        /* \"@openzeppelin/contracts/token/ERC721/ERC721.sol\":1698:1802  interfaceId == type(IERC721).interfaceId ||... */\n      dup1\n      tag_143\n      jumpi\n      pop\n        /* \"@openzeppelin/contracts/token/ERC721/ERC721.sol\":1769:1802  type(IERC721Metadata).interfaceId */\n      0x5b5e139f00000000000000000000000000000000000000000000000000000000\n        /* \"@openzeppelin/contracts/token/ERC721/ERC721.sol\":1754:1802  interfaceId == type(IERC721Metadata).interfaceId */\n      not(0xffffffffffffffffffffffffffffffffffffffffffffffffffffffff)\n      and\n        /* \"@openzeppelin/contracts/token/ERC721/ERC721.sol\":1754:1765  interfaceId */\n      dup3\n        /* \"@openzeppelin/contracts/token/ERC721/ERC721.sol\":1754:1802  interfaceId == type(IERC721Metadata).interfaceId */\n      not(0xffffffffffffffffffffffffffffffffffffffffffffffffffffffff)\n      and\n      eq\n        /* \"@openzeppelin/contracts/token/ERC721/ERC721.sol\":1698:1802  interfaceId == type(IERC721).interfaceId ||... */\n    tag_143:\n        /* \"@openzeppelin/contracts/token/ERC721/ERC721.sol\":1698:1854  interfaceId == type(IERC721).interfaceId ||... */\n      dup1\n      tag_144\n      jumpi\n      pop\n        /* \"@openzeppelin/contracts/token/ERC721/ERC721.sol\":1818:1854  super.supportsInterface(interfaceId) */\n      tag_145\n        /* \"@openzeppelin/contracts/token/ERC721/ERC721.sol\":1842:1853  interfaceId */\n      dup3\n        /* \"@openzeppelin/contracts/token/ERC721/ERC721.sol\":1818:1841  super.supportsInterface */\n      tag_146\n        /* \"@openzeppelin/contracts/token/ERC721/ERC721.sol\":1818:1854  super.supportsInterface(interfaceId) */\n      jump\t// in\n    tag_145:\n        /* \"@openzeppelin/contracts/token/ERC721/ERC721.sol\":1698:1854  interfaceId == type(IERC721).interfaceId ||... */\n    tag_144:\n        /* \"@openzeppelin/contracts/token/ERC721/ERC721.sol\":1679:1854  return... */\n      swap1\n      pop\n        /* \"@openzeppelin/contracts/token/ERC721/ERC721.sol\":1561:1861  function supportsInterface(bytes4 interfaceId) public view virtual override(ERC165, IERC165) returns (bool) {... */\n      swap2\n      swap1\n      pop\n      jump\t// out\n        /* \"@openzeppelin/contracts/token/ERC721/ERC721.sol\":2365:2454  function name() public view virtual returns (string memory) {... */\n    tag_37:\n        /* \"@openzeppelin/contracts/token/ERC721/ERC721.sol\":2410:2423  string memory */\n      0x60\n        /* \"@openzeppelin/contracts/token/ERC721/ERC721.sol\":2442:2447  _name */\n      0x00\n        /* \"@openzeppelin/contracts/token/ERC721/ERC721.sol\":2435:2447  return _name */\n      dup1\n      sload\n      tag_148\n      swap1\n      tag_149\n      jump\t// in\n    tag_148:\n      dup1\n      0x1f\n      add\n      0x20\n      dup1\n      swap2\n      div\n      mul\n      0x20\n      add\n      mload(0x40)\n      swap1\n      dup2\n      add\n      0x40\n      mstore\n      dup1\n      swap3\n      swap2\n      swap1\n      dup2\n      dup2\n      mstore\n      0x20\n      add\n      dup3\n      dup1\n      sload\n      tag_150\n      swap1\n      tag_149\n      jump\t// in\n    tag_150:\n      dup1\n      iszero\n      tag_151\n      jumpi\n      dup1\n      0x1f\n      lt\n      tag_152\n      jumpi\n      0x0100\n      dup1\n      dup4\n      sload\n      div\n      mul\n      dup4\n      mstore\n      swap2\n      0x20\n      add\n      swap2\n      jump(tag_151)\n    tag_152:\n      dup3\n      add\n      swap2\n      swap1\n      0x00\n      mstore\n      keccak256(0x00, 0x20)\n      swap1\n    tag_153:\n      dup2\n      sload\n      dup2\n      mstore\n      swap1\n      0x01\n      add\n      swap1\n      0x20\n      add\n      dup1\n      dup4\n      gt\n      tag_153\n      jumpi\n      dup3\n      swap1\n      sub\n      0x1f\n      and\n      dup3\n      add\n      swap2\n    tag_151:\n      pop\n      pop\n      pop\n      pop\n      pop\n      swap1\n      pop\n        /* \"@openzeppelin/contracts/token/ERC721/ERC721.sol\":2365:2454  function name() public view virtual returns (string memory) {... */\n      swap1\n      jump\t// out\n        /* \"@openzeppelin/contracts/token/ERC721/ERC721.sol\":3497:3651  function getApproved(uint256 tokenId) public view virtual returns (address) {... */\n    tag_44:\n        /* \"@openzeppelin/contracts/token/ERC721/ERC721.sol\":3564:3571  address */\n      0x00\n        /* \"@openzeppelin/contracts/token/ERC721/ERC721.sol\":3583:3605  _requireOwned(tokenId) */\n      tag_155\n        /* \"@openzeppelin/contracts/token/ERC721/ERC721.sol\":3597:3604  tokenId */\n      dup3\n        /* \"@openzeppelin/contracts/token/ERC721/ERC721.sol\":3583:3596  _requireOwned */\n      tag_156\n        /* \"@openzeppelin/contracts/token/ERC721/ERC721.sol\":3583:3605  _requireOwned(tokenId) */\n      jump\t// in\n    tag_155:\n      pop\n        /* \"@openzeppelin/contracts/token/ERC721/ERC721.sol\":3623:3644  _getApproved(tokenId) */\n      tag_157\n        /* \"@openzeppelin/contracts/token/ERC721/ERC721.sol\":3636:3643  tokenId */\n      dup3\n        /* \"@openzeppelin/contracts/token/ERC721/ERC721.sol\":3623:3635  _getApproved */\n      tag_158\n        /* \"@openzeppelin/contracts/token/ERC721/ERC721.sol\":3623:3644  _getApproved(tokenId) */\n      jump\t// in\n    tag_157:\n        /* \"@openzeppelin/contracts/token/ERC721/ERC721.sol\":3616:3644  return _getApproved(tokenId) */\n      swap1\n      pop\n        /* \"@openzeppelin/contracts/token/ERC721/ERC721.sol\":3497:3651  function getApproved(uint256 tokenId) public view virtual returns (address) {... */\n      swap2\n      swap1\n      pop\n      jump\t// out\n        /* \"@openzeppelin/contracts/token/ERC721/ERC721.sol\":3323:3436  function approve(address to, uint256 tokenId) public virtual {... */\n    tag_51:\n        /* \"@openzeppelin/contracts/token/ERC721/ERC721.sol\":3394:3429  _approve(to, tokenId, _msgSender()) */\n      tag_160\n        /* \"@openzeppelin/contracts/token/ERC721/ERC721.sol\":3403:3405  to */\n      dup3\n        /* \"@openzeppelin/contracts/token/ERC721/ERC721.sol\":3407:3414  tokenId */\n      dup3\n        /* \"@openzeppelin/contracts/token/ERC721/ERC721.sol\":3416:3428  _msgSender() */\n      tag_161\n        /* \"@openzeppelin/contracts/token/ERC721/ERC721.sol\":3416:3426  _msgSender */\n      tag_162\n        /* \"@openzeppelin/contracts/token/ERC721/ERC721.sol\":3416:3428  _msgSender() */\n      jump\t// in\n    tag_161:\n        /* \"@openzeppelin/contracts/token/ERC721/ERC721.sol\":3394:3402  _approve */\n      tag_163\n        /* \"@openzeppelin/contracts/token/ERC721/ERC721.sol\":3394:3429  _approve(to, tokenId, _msgSender()) */\n      jump\t// in\n    tag_160:\n        /* \"@openzeppelin/contracts/token/ERC721/ERC721.sol\":3323:3436  function approve(address to, uint256 tokenId) public virtual {... */\n      pop\n      pop\n      jump\t// out\n        /* \"@openzeppelin/contracts/token/ERC721/ERC721.sol\":4143:4721  function transferFrom(address from, address to, uint256 tokenId) public virtual {... */\n    tag_56:\n        /* \"@openzeppelin/contracts/token/ERC721/ERC721.sol\":4251:4252  0 */\n      0x00\n        /* \"@openzeppelin/contracts/token/ERC721/ERC721.sol\":4237:4253  to == address(0) */\n      0xffffffffffffffffffffffffffffffffffffffff\n      and\n        /* \"@openzeppelin/contracts/token/ERC721/ERC721.sol\":4237:4239  to */\n      dup3\n        /* \"@openzeppelin/contracts/token/ERC721/ERC721.sol\":4237:4253  to == address(0) */\n      0xffffffffffffffffffffffffffffffffffffffff\n      and\n      sub\n        /* \"@openzeppelin/contracts/token/ERC721/ERC721.sol\":4233:4320  if (to == address(0)) {... */\n      tag_165\n      jumpi\n        /* \"@openzeppelin/contracts/token/ERC721/ERC721.sol\":4306:4307  0 */\n      0x00\n        /* \"@openzeppelin/contracts/token/ERC721/ERC721.sol\":4276:4309  ERC721InvalidReceiver(address(0)) */\n      mload(0x40)\n      0x64a0ae9200000000000000000000000000000000000000000000000000000000\n      dup2\n      mstore\n      0x04\n      add\n      tag_166\n      swap2\n      swap1\n      tag_46\n      jump\t// in\n    tag_166:\n      mload(0x40)\n      dup1\n      swap2\n      sub\n      swap1\n      revert\n        /* \"@openzeppelin/contracts/token/ERC721/ERC721.sol\":4233:4320  if (to == address(0)) {... */\n    tag_165:\n        /* \"@openzeppelin/contracts/token/ERC721/ERC721.sol\":4538:4559  address previousOwner */\n      0x00\n        /* \"@openzeppelin/contracts/token/ERC721/ERC721.sol\":4562:4596  _update(to, tokenId, _msgSender()) */\n      tag_167\n        /* \"@openzeppelin/contracts/token/ERC721/ERC721.sol\":4570:4572  to */\n      dup4\n        /* \"@openzeppelin/contracts/token/ERC721/ERC721.sol\":4574:4581  tokenId */\n      dup4\n        /* \"@openzeppelin/contracts/token/ERC721/ERC721.sol\":4583:4595  _msgSender() */\n      tag_168\n        /* \"@openzeppelin/contracts/token/ERC721/ERC721.sol\":4583:4593  _msgSender */\n      tag_162\n        /* \"@openzeppelin/contracts/token/ERC721/ERC721.sol\":4583:4595  _msgSender() */\n      jump\t// in\n    tag_168:\n        /* \"@openzeppelin/contracts/token/ERC721/ERC721.sol\":4562:4569  _update */\n      tag_169\n        /* \"@openzeppelin/contracts/token/ERC721/ERC721.sol\":4562:4596  _update(to, tokenId, _msgSender()) */\n      jump\t// in\n    tag_167:\n        /* \"@openzeppelin/contracts/token/ERC721/ERC721.sol\":4538:4596  address previousOwner = _update(to, tokenId, _msgSender()) */\n      swap1\n      pop\n        /* \"@openzeppelin/contracts/token/ERC721/ERC721.sol\":4627:4631  from */\n      dup4\n        /* \"@openzeppelin/contracts/token/ERC721/ERC721.sol\":4610:4631  previousOwner != from */\n      0xffffffffffffffffffffffffffffffffffffffff\n      and\n        /* \"@openzeppelin/contracts/token/ERC721/ERC721.sol\":4610:4623  previousOwner */\n      dup2\n        /* \"@openzeppelin/contracts/token/ERC721/ERC721.sol\":4610:4631  previousOwner != from */\n      0xffffffffffffffffffffffffffffffffffffffff\n      and\n      eq\n        /* \"@openzeppelin/contracts/token/ERC721/ERC721.sol\":4606:4715  if (previousOwner != from) {... */\n      tag_170\n      jumpi\n        /* \"@openzeppelin/contracts/token/ERC721/ERC721.sol\":4675:4679  from */\n      dup4\n        /* \"@openzeppelin/contracts/token/ERC721/ERC721.sol\":4681:4688  tokenId */\n      dup3\n        /* \"@openzeppelin/contracts/token/ERC721/ERC721.sol\":4690:4703  previousOwner */\n      dup3\n        /* \"@openzeppelin/contracts/token/ERC721/ERC721.sol\":4654:4704  ERC721IncorrectOwner(from, tokenId, previousOwner) */\n      mload(0x40)\n      0x64283d7b00000000000000000000000000000000000000000000000000000000\n      dup2\n      mstore\n      0x04\n      add\n      tag_171\n      swap4\n      swap3\n      swap2\n      swap1\n      tag_172\n      jump\t// in\n    tag_171:\n      mload(0x40)\n      dup1\n      swap2\n      sub\n      swap1\n      revert\n        /* \"@openzeppelin/contracts/token/ERC721/ERC721.sol\":4606:4715  if (previousOwner != from) {... */\n    tag_170:\n        /* \"@openzeppelin/contracts/token/ERC721/ERC721.sol\":4223:4721  {... */\n      pop\n        /* \"@openzeppelin/contracts/token/ERC721/ERC721.sol\":4143:4721  function transferFrom(address from, address to, uint256 tokenId) public virtual {... */\n      pop\n      pop\n      pop\n      jump\t// out\n        /* \"contracts/NFTPatient.sol\":3448:3571  function markTransactionCompleted(bytes32 txHash) public onlyOwner {... */\n    tag_61:\n        /* \"@openzeppelin/contracts/access/Ownable.sol\":1531:1544  _checkOwner() */\n      tag_174\n        /* \"@openzeppelin/contracts/access/Ownable.sol\":1531:1542  _checkOwner */\n      tag_175\n        /* \"@openzeppelin/contracts/access/Ownable.sol\":1531:1544  _checkOwner() */\n      jump\t// in\n    tag_174:\n        /* \"contracts/NFTPatient.sol\":3559:3563  true */\n      0x01\n        /* \"contracts/NFTPatient.sol\":3526:3548  _completedTransactions */\n      0x0b\n        /* \"contracts/NFTPatient.sol\":3526:3556  _completedTransactions[txHash] */\n      0x00\n        /* \"contracts/NFTPatient.sol\":3549:3555  txHash */\n      dup4\n        /* \"contracts/NFTPatient.sol\":3526:3556  _completedTransactions[txHash] */\n      dup2\n      mstore\n      0x20\n      add\n      swap1\n      dup2\n      mstore\n      0x20\n      add\n      0x00\n      keccak256\n      0x00\n        /* \"contracts/NFTPatient.sol\":3526:3563  _completedTransactions[txHash] = true */\n      0x0100\n      exp\n      dup2\n      sload\n      dup2\n      0xff\n      mul\n      not\n      and\n      swap1\n      dup4\n      iszero\n      iszero\n      mul\n      or\n      swap1\n      sstore\n      pop\n        /* \"contracts/NFTPatient.sol\":3448:3571  function markTransactionCompleted(bytes32 txHash) public onlyOwner {... */\n      pop\n      jump\t// out\n        /* \"contracts/NFTPatient.sol\":1208:1422  function mintNFT(address to, uint256 tokenId) public onlyOwner {... */\n    tag_65:\n        /* \"@openzeppelin/contracts/access/Ownable.sol\":1531:1544  _checkOwner() */\n      tag_178\n        /* \"@openzeppelin/contracts/access/Ownable.sol\":1531:1542  _checkOwner */\n      tag_175\n        /* \"@openzeppelin/contracts/access/Ownable.sol\":1531:1544  _checkOwner() */\n      jump\t// in\n    tag_178:\n        /* \"contracts/NFTPatient.sol\":1291:1301  _nftExists */\n      0x0a\n        /* \"contracts/NFTPatient.sol\":1291:1310  _nftExists[tokenId] */\n      0x00\n        /* \"contracts/NFTPatient.sol\":1302:1309  tokenId */\n      dup3\n        /* \"contracts/NFTPatient.sol\":1291:1310  _nftExists[tokenId] */\n      dup2\n      mstore\n      0x20\n      add\n      swap1\n      dup2\n      mstore\n      0x20\n      add\n      0x00\n      keccak256\n      0x00\n      swap1\n      sload\n      swap1\n      0x0100\n      exp\n      swap1\n      div\n      0xff\n      and\n        /* \"contracts/NFTPatient.sol\":1290:1310  !_nftExists[tokenId] */\n      iszero\n        /* \"contracts/NFTPatient.sol\":1282:1346  require(!_nftExists[tokenId], \"NFT with this ID already exists\") */\n      tag_180\n      jumpi\n      mload(0x40)\n      0x08c379a000000000000000000000000000000000000000000000000000000000\n      dup2\n      mstore\n      0x04\n      add\n      tag_181\n      swap1\n      tag_182\n      jump\t// in\n    tag_181:\n      mload(0x40)\n      dup1\n      swap2\n      sub\n      swap1\n      revert\n    tag_180:\n        /* \"contracts/NFTPatient.sol\":1359:1377  _mint(to, tokenId) */\n      tag_183\n        /* \"contracts/NFTPatient.sol\":1365:1367  to */\n      dup3\n        /* \"contracts/NFTPatient.sol\":1369:1376  tokenId */\n      dup3\n        /* \"contracts/NFTPatient.sol\":1359:1364  _mint */\n      tag_184\n        /* \"contracts/NFTPatient.sol\":1359:1377  _mint(to, tokenId) */\n      jump\t// in\n    tag_183:\n        /* \"contracts/NFTPatient.sol\":1410:1414  true */\n      0x01\n        /* \"contracts/NFTPatient.sol\":1388:1398  _nftExists */\n      0x0a\n        /* \"contracts/NFTPatient.sol\":1388:1407  _nftExists[tokenId] */\n      0x00\n        /* \"contracts/NFTPatient.sol\":1399:1406  tokenId */\n      dup4\n        /* \"contracts/NFTPatient.sol\":1388:1407  _nftExists[tokenId] */\n      dup2\n      mstore\n      0x20\n      add\n      swap1\n      dup2\n      mstore\n      0x20\n      add\n      0x00\n      keccak256\n      0x00\n        /* \"contracts/NFTPatient.sol\":1388:1414  _nftExists[tokenId] = true */\n      0x0100\n      exp\n      dup2\n      sload\n      dup2\n      0xff\n      mul\n      not\n      and\n      swap1\n      dup4\n      iszero\n      iszero\n      mul\n      or\n      swap1\n      sstore\n      pop\n        /* \"contracts/NFTPatient.sol\":1208:1422  function mintNFT(address to, uint256 tokenId) public onlyOwner {... */\n      pop\n      pop\n      jump\t// out\n        /* \"@openzeppelin/contracts/token/ERC721/ERC721.sol\":4787:4919  function safeTransferFrom(address from, address to, uint256 tokenId) public {... */\n    tag_69:\n        /* \"@openzeppelin/contracts/token/ERC721/ERC721.sol\":4873:4912  safeTransferFrom(from, to, tokenId, \"\") */\n      tag_186\n        /* \"@openzeppelin/contracts/token/ERC721/ERC721.sol\":4890:4894  from */\n      dup4\n        /* \"@openzeppelin/contracts/token/ERC721/ERC721.sol\":4896:4898  to */\n      dup4\n        /* \"@openzeppelin/contracts/token/ERC721/ERC721.sol\":4900:4907  tokenId */\n      dup4\n        /* \"@openzeppelin/contracts/token/ERC721/ERC721.sol\":4873:4912  safeTransferFrom(from, to, tokenId, \"\") */\n      mload(0x40)\n      dup1\n      0x20\n      add\n      0x40\n      mstore\n      dup1\n      0x00\n      dup2\n      mstore\n      pop\n        /* \"@openzeppelin/contracts/token/ERC721/ERC721.sol\":4873:4889  safeTransferFrom */\n      tag_121\n        /* \"@openzeppelin/contracts/token/ERC721/ERC721.sol\":4873:4912  safeTransferFrom(from, to, tokenId, \"\") */\n      jump\t// in\n    tag_186:\n        /* \"@openzeppelin/contracts/token/ERC721/ERC721.sol\":4787:4919  function safeTransferFrom(address from, address to, uint256 tokenId) public {... */\n      pop\n      pop\n      pop\n      jump\t// out\n        /* \"@openzeppelin/contracts/token/ERC721/ERC721.sol\":2185:2303  function ownerOf(uint256 tokenId) public view virtual returns (address) {... */\n    tag_73:\n        /* \"@openzeppelin/contracts/token/ERC721/ERC721.sol\":2248:2255  address */\n      0x00\n        /* \"@openzeppelin/contracts/token/ERC721/ERC721.sol\":2274:2296  _requireOwned(tokenId) */\n      tag_188\n        /* \"@openzeppelin/contracts/token/ERC721/ERC721.sol\":2288:2295  tokenId */\n      dup3\n        /* \"@openzeppelin/contracts/token/ERC721/ERC721.sol\":2274:2287  _requireOwned */\n      tag_156\n        /* \"@openzeppelin/contracts/token/ERC721/ERC721.sol\":2274:2296  _requireOwned(tokenId) */\n      jump\t// in\n    tag_188:\n        /* \"@openzeppelin/contracts/token/ERC721/ERC721.sol\":2267:2296  return _requireOwned(tokenId) */\n      swap1\n      pop\n        /* \"@openzeppelin/contracts/token/ERC721/ERC721.sol\":2185:2303  function ownerOf(uint256 tokenId) public view virtual returns (address) {... */\n      swap2\n      swap1\n      pop\n      jump\t// out\n        /* \"@openzeppelin/contracts/token/ERC721/ERC721.sol\":1920:2128  function balanceOf(address owner) public view virtual returns (uint256) {... */\n    tag_79:\n        /* \"@openzeppelin/contracts/token/ERC721/ERC721.sol\":1983:1990  uint256 */\n      0x00\n        /* \"@openzeppelin/contracts/token/ERC721/ERC721.sol\":2023:2024  0 */\n      dup1\n        /* \"@openzeppelin/contracts/token/ERC721/ERC721.sol\":2006:2025  owner == address(0) */\n      0xffffffffffffffffffffffffffffffffffffffff\n      and\n        /* \"@openzeppelin/contracts/token/ERC721/ERC721.sol\":2006:2011  owner */\n      dup3\n        /* \"@openzeppelin/contracts/token/ERC721/ERC721.sol\":2006:2025  owner == address(0) */\n      0xffffffffffffffffffffffffffffffffffffffff\n      and\n      sub\n        /* \"@openzeppelin/contracts/token/ERC721/ERC721.sol\":2002:2089  if (owner == address(0)) {... */\n      tag_190\n      jumpi\n        /* \"@openzeppelin/contracts/token/ERC721/ERC721.sol\":2075:2076  0 */\n      0x00\n        /* \"@openzeppelin/contracts/token/ERC721/ERC721.sol\":2048:2078  ERC721InvalidOwner(address(0)) */\n      mload(0x40)\n      0x89c62b6400000000000000000000000000000000000000000000000000000000\n      dup2\n      mstore\n      0x04\n      add\n      tag_191\n      swap2\n      swap1\n      tag_46\n      jump\t// in\n    tag_191:\n      mload(0x40)\n      dup1\n      swap2\n      sub\n      swap1\n      revert\n        /* \"@openzeppelin/contracts/token/ERC721/ERC721.sol\":2002:2089  if (owner == address(0)) {... */\n    tag_190:\n        /* \"@openzeppelin/contracts/token/ERC721/ERC721.sol\":2105:2114  _balances */\n      0x03\n        /* \"@openzeppelin/contracts/token/ERC721/ERC721.sol\":2105:2121  _balances[owner] */\n      0x00\n        /* \"@openzeppelin/contracts/token/ERC721/ERC721.sol\":2115:2120  owner */\n      dup4\n        /* \"@openzeppelin/contracts/token/ERC721/ERC721.sol\":2105:2121  _balances[owner] */\n      0xffffffffffffffffffffffffffffffffffffffff\n      and\n      0xffffffffffffffffffffffffffffffffffffffff\n      and\n      dup2\n      mstore\n      0x20\n      add\n      swap1\n      dup2\n      mstore\n      0x20\n      add\n      0x00\n      keccak256\n      sload\n        /* \"@openzeppelin/contracts/token/ERC721/ERC721.sol\":2098:2121  return _balances[owner] */\n      swap1\n      pop\n        /* \"@openzeppelin/contracts/token/ERC721/ERC721.sol\":1920:2128  function balanceOf(address owner) public view virtual returns (uint256) {... */\n      swap2\n      swap1\n      pop\n      jump\t// out\n        /* \"@openzeppelin/contracts/access/Ownable.sol\":2293:2394  function renounceOwnership() public virtual onlyOwner {... */\n    tag_84:\n        /* \"@openzeppelin/contracts/access/Ownable.sol\":1531:1544  _checkOwner() */\n      tag_193\n        /* \"@openzeppelin/contracts/access/Ownable.sol\":1531:1542  _checkOwner */\n      tag_175\n        /* \"@openzeppelin/contracts/access/Ownable.sol\":1531:1544  _checkOwner() */\n      jump\t// in\n    tag_193:\n        /* \"@openzeppelin/contracts/access/Ownable.sol\":2357:2387  _transferOwnership(address(0)) */\n      tag_195\n        /* \"@openzeppelin/contracts/access/Ownable.sol\":2384:2385  0 */\n      0x00\n        /* \"@openzeppelin/contracts/access/Ownable.sol\":2357:2375  _transferOwnership */\n      tag_196\n        /* \"@openzeppelin/contracts/access/Ownable.sol\":2357:2387  _transferOwnership(address(0)) */\n      jump\t// in\n    tag_195:\n        /* \"@openzeppelin/contracts/access/Ownable.sol\":2293:2394  function renounceOwnership() public virtual onlyOwner {... */\n      jump\t// out\n        /* \"contracts/NFTPatient.sol\":501:527  address public housewallet */\n    tag_87:\n      0x09\n      0x00\n      swap1\n      sload\n      swap1\n      0x0100\n      exp\n      swap1\n      div\n      0xffffffffffffffffffffffffffffffffffffffff\n      and\n      dup2\n      jump\t// out\n        /* \"@openzeppelin/contracts/access/Ownable.sol\":1638:1723  function owner() public view virtual returns (address) {... */\n    tag_91:\n        /* \"@openzeppelin/contracts/access/Ownable.sol\":1684:1691  address */\n      0x00\n        /* \"@openzeppelin/contracts/access/Ownable.sol\":1710:1716  _owner */\n      0x06\n      0x00\n      swap1\n      sload\n      swap1\n      0x0100\n      exp\n      swap1\n      div\n      0xffffffffffffffffffffffffffffffffffffffff\n      and\n        /* \"@openzeppelin/contracts/access/Ownable.sol\":1703:1716  return _owner */\n      swap1\n      pop\n        /* \"@openzeppelin/contracts/access/Ownable.sol\":1638:1723  function owner() public view virtual returns (address) {... */\n      swap1\n      jump\t// out\n        /* \"contracts/NFTPatient.sol\":2009:3044  function transferNFTWithToken(address to, uint256 tokenId, uint256 tokenAmount) public payable returns (bytes32) {... */\n    tag_96:\n        /* \"contracts/NFTPatient.sol\":2113:2120  bytes32 */\n      0x00\n        /* \"contracts/NFTPatient.sol\":2208:2221  address owner */\n      dup1\n        /* \"contracts/NFTPatient.sol\":2224:2240  ownerOf(tokenId) */\n      tag_199\n        /* \"contracts/NFTPatient.sol\":2232:2239  tokenId */\n      dup5\n        /* \"contracts/NFTPatient.sol\":2224:2231  ownerOf */\n      tag_73\n        /* \"contracts/NFTPatient.sol\":2224:2240  ownerOf(tokenId) */\n      jump\t// in\n    tag_199:\n        /* \"contracts/NFTPatient.sol\":2208:2240  address owner = ownerOf(tokenId) */\n      swap1\n      pop\n        /* \"contracts/NFTPatient.sol\":2268:2278  msg.sender */\n      caller\n        /* \"contracts/NFTPatient.sol\":2259:2278  owner == msg.sender */\n      0xffffffffffffffffffffffffffffffffffffffff\n      and\n        /* \"contracts/NFTPatient.sol\":2259:2264  owner */\n      dup2\n        /* \"contracts/NFTPatient.sol\":2259:2278  owner == msg.sender */\n      0xffffffffffffffffffffffffffffffffffffffff\n      and\n      eq\n        /* \"contracts/NFTPatient.sol\":2251:2316  require(owner == msg.sender, \"You are not the owner of this NFT\") */\n      tag_200\n      jumpi\n      mload(0x40)\n      0x08c379a000000000000000000000000000000000000000000000000000000000\n      dup2\n      mstore\n      0x04\n      add\n      tag_201\n      swap1\n      tag_202\n      jump\t// in\n    tag_201:\n      mload(0x40)\n      dup1\n      swap2\n      sub\n      swap1\n      revert\n    tag_200:\n        /* \"contracts/NFTPatient.sol\":2375:2404  _transfer(owner, to, tokenId) */\n      tag_203\n        /* \"contracts/NFTPatient.sol\":2385:2390  owner */\n      dup2\n        /* \"contracts/NFTPatient.sol\":2392:2394  to */\n      dup7\n        /* \"contracts/NFTPatient.sol\":2396:2403  tokenId */\n      dup7\n        /* \"contracts/NFTPatient.sol\":2375:2384  _transfer */\n      tag_204\n        /* \"contracts/NFTPatient.sol\":2375:2404  _transfer(owner, to, tokenId) */\n      jump\t// in\n    tag_203:\n        /* \"contracts/NFTPatient.sol\":2500:2507  myToken */\n      0x08\n      0x00\n      swap1\n      sload\n      swap1\n      0x0100\n      exp\n      swap1\n      div\n      0xffffffffffffffffffffffffffffffffffffffff\n      and\n        /* \"contracts/NFTPatient.sol\":2500:2520  myToken.transferFrom */\n      0xffffffffffffffffffffffffffffffffffffffff\n      and\n      0x23b872dd\n        /* \"contracts/NFTPatient.sol\":2521:2523  to */\n      dup7\n        /* \"contracts/NFTPatient.sol\":2525:2530  owner */\n      dup4\n        /* \"contracts/NFTPatient.sol\":2532:2543  tokenAmount */\n      dup7\n        /* \"contracts/NFTPatient.sol\":2500:2544  myToken.transferFrom(to, owner, tokenAmount) */\n      mload(0x40)\n      dup5\n      0xffffffff\n      and\n      0xe0\n      shl\n      dup2\n      mstore\n      0x04\n      add\n      tag_205\n      swap4\n      swap3\n      swap2\n      swap1\n      tag_206\n      jump\t// in\n    tag_205:\n      0x20\n      mload(0x40)\n      dup1\n      dup4\n      sub\n      dup2\n      0x00\n      dup8\n      gas\n      call\n      iszero\n      dup1\n      iszero\n      tag_208\n      jumpi\n      returndatasize\n      0x00\n      dup1\n      returndatacopy\n      revert(0x00, returndatasize)\n    tag_208:\n      pop\n      pop\n      pop\n      pop\n      mload(0x40)\n      returndatasize\n      not(0x1f)\n      0x1f\n      dup3\n      add\n      and\n      dup3\n      add\n      dup1\n      0x40\n      mstore\n      pop\n      dup2\n      add\n      swap1\n      tag_209\n      swap2\n      swap1\n      tag_210\n      jump\t// in\n    tag_209:\n        /* \"contracts/NFTPatient.sol\":2492:2577  require(myToken.transferFrom(to, owner, tokenAmount), \"Token Amount transfer failed\") */\n      tag_211\n      jumpi\n      mload(0x40)\n      0x08c379a000000000000000000000000000000000000000000000000000000000\n      dup2\n      mstore\n      0x04\n      add\n      tag_212\n      swap1\n      tag_213\n      jump\t// in\n    tag_212:\n      mload(0x40)\n      dup1\n      swap2\n      sub\n      swap1\n      revert\n    tag_211:\n        /* \"contracts/NFTPatient.sol\":2639:2653  bytes32 txHash */\n      0x00\n        /* \"contracts/NFTPatient.sol\":2683:2693  msg.sender */\n      caller\n        /* \"contracts/NFTPatient.sol\":2695:2697  to */\n      dup7\n        /* \"contracts/NFTPatient.sol\":2699:2706  tokenId */\n      dup7\n        /* \"contracts/NFTPatient.sol\":2708:2719  tokenAmount */\n      dup7\n        /* \"contracts/NFTPatient.sol\":2721:2733  block.number */\n      number\n        /* \"contracts/NFTPatient.sol\":2666:2734  abi.encodePacked(msg.sender, to, tokenId, tokenAmount, block.number) */\n      add(0x20, mload(0x40))\n      tag_214\n      swap6\n      swap5\n      swap4\n      swap3\n      swap2\n      swap1\n      tag_215\n      jump\t// in\n    tag_214:\n      mload(0x40)\n      0x20\n      dup2\n      dup4\n      sub\n      sub\n      dup2\n      mstore\n      swap1\n      0x40\n      mstore\n        /* \"contracts/NFTPatient.sol\":2656:2735  keccak256(abi.encodePacked(msg.sender, to, tokenId, tokenAmount, block.number)) */\n      dup1\n      mload\n      swap1\n      0x20\n      add\n      keccak256\n        /* \"contracts/NFTPatient.sol\":2639:2735  bytes32 txHash = keccak256(abi.encodePacked(msg.sender, to, tokenId, tokenAmount, block.number)) */\n      swap1\n      pop\n        /* \"contracts/NFTPatient.sol\":2834:2839  false */\n      0x00\n        /* \"contracts/NFTPatient.sol\":2801:2823  _completedTransactions */\n      0x0b\n        /* \"contracts/NFTPatient.sol\":2801:2831  _completedTransactions[txHash] */\n      0x00\n        /* \"contracts/NFTPatient.sol\":2824:2830  txHash */\n      dup4\n        /* \"contracts/NFTPatient.sol\":2801:2831  _completedTransactions[txHash] */\n      dup2\n      mstore\n      0x20\n      add\n      swap1\n      dup2\n      mstore\n      0x20\n      add\n      0x00\n      keccak256\n      0x00\n        /* \"contracts/NFTPatient.sol\":2801:2839  _completedTransactions[txHash] = false */\n      0x0100\n      exp\n      dup2\n      sload\n      dup2\n      0xff\n      mul\n      not\n      and\n      swap1\n      dup4\n      iszero\n      iszero\n      mul\n      or\n      swap1\n      sstore\n      pop\n        /* \"contracts/NFTPatient.sol\":2943:2945  to */\n      dup6\n        /* \"contracts/NFTPatient.sol\":2921:2976  NFTTransferred(owner, to, tokenId, tokenAmount, txHash) */\n      0xffffffffffffffffffffffffffffffffffffffff\n      and\n        /* \"contracts/NFTPatient.sol\":2936:2941  owner */\n      dup3\n        /* \"contracts/NFTPatient.sol\":2921:2976  NFTTransferred(owner, to, tokenId, tokenAmount, txHash) */\n      0xffffffffffffffffffffffffffffffffffffffff\n      and\n      0x9f9ac6bca37e427696541548195017f8d7569c1bdff1ba5b97d815bfb9c11f8c\n        /* \"contracts/NFTPatient.sol\":2947:2954  tokenId */\n      dup8\n        /* \"contracts/NFTPatient.sol\":2956:2967  tokenAmount */\n      dup8\n        /* \"contracts/NFTPatient.sol\":2969:2975  txHash */\n      dup6\n        /* \"contracts/NFTPatient.sol\":2921:2976  NFTTransferred(owner, to, tokenId, tokenAmount, txHash) */\n      mload(0x40)\n      tag_216\n      swap4\n      swap3\n      swap2\n      swap1\n      tag_217\n      jump\t// in\n    tag_216:\n      mload(0x40)\n      dup1\n      swap2\n      sub\n      swap1\n      log3\n        /* \"contracts/NFTPatient.sol\":2996:3002  txHash */\n      dup1\n        /* \"contracts/NFTPatient.sol\":2989:3002  return txHash */\n      swap3\n      pop\n      pop\n      pop\n        /* \"contracts/NFTPatient.sol\":2009:3044  function transferNFTWithToken(address to, uint256 tokenId, uint256 tokenAmount) public payable returns (bytes32) {... */\n      swap4\n      swap3\n      pop\n      pop\n      pop\n      jump\t// out\n        /* \"contracts/NFTPatient.sol\":3140:3351  function getTransactionStatus(bytes32 txHash) public view returns (bool) {... */\n    tag_102:\n        /* \"contracts/NFTPatient.sol\":3207:3211  bool */\n      0x00\n        /* \"contracts/NFTPatient.sol\":3313:3335  _completedTransactions */\n      0x0b\n        /* \"contracts/NFTPatient.sol\":3313:3343  _completedTransactions[txHash] */\n      0x00\n        /* \"contracts/NFTPatient.sol\":3336:3342  txHash */\n      dup4\n        /* \"contracts/NFTPatient.sol\":3313:3343  _completedTransactions[txHash] */\n      dup2\n      mstore\n      0x20\n      add\n      swap1\n      dup2\n      mstore\n      0x20\n      add\n      0x00\n      keccak256\n      0x00\n      swap1\n      sload\n      swap1\n      0x0100\n      exp\n      swap1\n      div\n      0xff\n      and\n        /* \"contracts/NFTPatient.sol\":3306:3343  return _completedTransactions[txHash] */\n      swap1\n      pop\n        /* \"contracts/NFTPatient.sol\":3140:3351  function getTransactionStatus(bytes32 txHash) public view returns (bool) {... */\n      swap2\n      swap1\n      pop\n      jump\t// out\n        /* \"contracts/NFTPatient.sol\":1549:1902  function transferNFT(address to, uint256 tokenId) public {... */\n    tag_107:\n        /* \"contracts/NFTPatient.sol\":1617:1630  address owner */\n      0x00\n        /* \"contracts/NFTPatient.sol\":1633:1649  ownerOf(tokenId) */\n      tag_220\n        /* \"contracts/NFTPatient.sol\":1641:1648  tokenId */\n      dup3\n        /* \"contracts/NFTPatient.sol\":1633:1640  ownerOf */\n      tag_73\n        /* \"contracts/NFTPatient.sol\":1633:1649  ownerOf(tokenId) */\n      jump\t// in\n    tag_220:\n        /* \"contracts/NFTPatient.sol\":1617:1649  address owner = ownerOf(tokenId) */\n      swap1\n      pop\n        /* \"contracts/NFTPatient.sol\":1677:1687  msg.sender */\n      caller\n        /* \"contracts/NFTPatient.sol\":1668:1687  owner == msg.sender */\n      0xffffffffffffffffffffffffffffffffffffffff\n      and\n        /* \"contracts/NFTPatient.sol\":1668:1673  owner */\n      dup2\n        /* \"contracts/NFTPatient.sol\":1668:1687  owner == msg.sender */\n      0xffffffffffffffffffffffffffffffffffffffff\n      and\n      eq\n        /* \"contracts/NFTPatient.sol\":1660:1725  require(owner == msg.sender, \"You are not the owner of this NFT\") */\n      tag_221\n      jumpi\n      mload(0x40)\n      0x08c379a000000000000000000000000000000000000000000000000000000000\n      dup2\n      mstore\n      0x04\n      add\n      tag_222\n      swap1\n      tag_202\n      jump\t// in\n    tag_222:\n      mload(0x40)\n      dup1\n      swap2\n      sub\n      swap1\n      revert\n    tag_221:\n        /* \"contracts/NFTPatient.sol\":1736:1765  _transfer(owner, to, tokenId) */\n      tag_223\n        /* \"contracts/NFTPatient.sol\":1746:1751  owner */\n      dup2\n        /* \"contracts/NFTPatient.sol\":1753:1755  to */\n      dup5\n        /* \"contracts/NFTPatient.sol\":1757:1764  tokenId */\n      dup5\n        /* \"contracts/NFTPatient.sol\":1736:1745  _transfer */\n      tag_204\n        /* \"contracts/NFTPatient.sol\":1736:1765  _transfer(owner, to, tokenId) */\n      jump\t// in\n    tag_223:\n        /* \"contracts/NFTPatient.sol\":1867:1869  to */\n      dup3\n        /* \"contracts/NFTPatient.sol\":1845:1894  NFTTransferred(owner, to, tokenId, 0, bytes32(0)) */\n      0xffffffffffffffffffffffffffffffffffffffff\n      and\n        /* \"contracts/NFTPatient.sol\":1860:1865  owner */\n      dup2\n        /* \"contracts/NFTPatient.sol\":1845:1894  NFTTransferred(owner, to, tokenId, 0, bytes32(0)) */\n      0xffffffffffffffffffffffffffffffffffffffff\n      and\n      0x9f9ac6bca37e427696541548195017f8d7569c1bdff1ba5b97d815bfb9c11f8c\n        /* \"contracts/NFTPatient.sol\":1871:1878  tokenId */\n      dup5\n        /* \"contracts/NFTPatient.sol\":1880:1881  0 */\n      0x00\n        /* \"contracts/NFTPatient.sol\":1891:1892  0 */\n      dup1\n        /* \"contracts/NFTPatient.sol\":1883:1893  bytes32(0) */\n      0x00\n      shl\n        /* \"contracts/NFTPatient.sol\":1845:1894  NFTTransferred(owner, to, tokenId, 0, bytes32(0)) */\n      mload(0x40)\n      tag_224\n      swap4\n      swap3\n      swap2\n      swap1\n      tag_225\n      jump\t// in\n    tag_224:\n      mload(0x40)\n      dup1\n      swap2\n      sub\n      swap1\n      log3\n        /* \"contracts/NFTPatient.sol\":1606:1902  {... */\n      pop\n        /* \"contracts/NFTPatient.sol\":1549:1902  function transferNFT(address to, uint256 tokenId) public {... */\n      pop\n      pop\n      jump\t// out\n        /* \"@openzeppelin/contracts/token/ERC721/ERC721.sol\":2518:2611  function symbol() public view virtual returns (string memory) {... */\n    tag_110:\n        /* \"@openzeppelin/contracts/token/ERC721/ERC721.sol\":2565:2578  string memory */\n      0x60\n        /* \"@openzeppelin/contracts/token/ERC721/ERC721.sol\":2597:2604  _symbol */\n      0x01\n        /* \"@openzeppelin/contracts/token/ERC721/ERC721.sol\":2590:2604  return _symbol */\n      dup1\n      sload\n      tag_227\n      swap1\n      tag_149\n      jump\t// in\n    tag_227:\n      dup1\n      0x1f\n      add\n      0x20\n      dup1\n      swap2\n      div\n      mul\n      0x20\n      add\n      mload(0x40)\n      swap1\n      dup2\n      add\n      0x40\n      mstore\n      dup1\n      swap3\n      swap2\n      swap1\n      dup2\n      dup2\n      mstore\n      0x20\n      add\n      dup3\n      dup1\n      sload\n      tag_228\n      swap1\n      tag_149\n      jump\t// in\n    tag_228:\n      dup1\n      iszero\n      tag_229\n      jumpi\n      dup1\n      0x1f\n      lt\n      tag_230\n      jumpi\n      0x0100\n      dup1\n      dup4\n      sload\n      div\n      mul\n      dup4\n      mstore\n      swap2\n      0x20\n      add\n      swap2\n      jump(tag_229)\n    tag_230:\n      dup3\n      add\n      swap2\n      swap1\n      0x00\n      mstore\n      keccak256(0x00, 0x20)\n      swap1\n    tag_231:\n      dup2\n      sload\n      dup2\n      mstore\n      swap1\n      0x01\n      add\n      swap1\n      0x20\n      add\n      dup1\n      dup4\n      gt\n      tag_231\n      jumpi\n      dup3\n      swap1\n      sub\n      0x1f\n      and\n      dup3\n      add\n      swap2\n    tag_229:\n      pop\n      pop\n      pop\n      pop\n      pop\n      swap1\n      pop\n        /* \"@openzeppelin/contracts/token/ERC721/ERC721.sol\":2518:2611  function symbol() public view virtual returns (string memory) {... */\n      swap1\n      jump\t// out\n        /* \"@openzeppelin/contracts/token/ERC721/ERC721.sol\":3718:3862  function setApprovalForAll(address operator, bool approved) public virtual {... */\n    tag_116:\n        /* \"@openzeppelin/contracts/token/ERC721/ERC721.sol\":3803:3855  _setApprovalForAll(_msgSender(), operator, approved) */\n      tag_233\n        /* \"@openzeppelin/contracts/token/ERC721/ERC721.sol\":3822:3834  _msgSender() */\n      tag_234\n        /* \"@openzeppelin/contracts/token/ERC721/ERC721.sol\":3822:3832  _msgSender */\n      tag_162\n        /* \"@openzeppelin/contracts/token/ERC721/ERC721.sol\":3822:3834  _msgSender() */\n      jump\t// in\n    tag_234:\n        /* \"@openzeppelin/contracts/token/ERC721/ERC721.sol\":3836:3844  operator */\n      dup4\n        /* \"@openzeppelin/contracts/token/ERC721/ERC721.sol\":3846:3854  approved */\n      dup4\n        /* \"@openzeppelin/contracts/token/ERC721/ERC721.sol\":3803:3821  _setApprovalForAll */\n      tag_235\n        /* \"@openzeppelin/contracts/token/ERC721/ERC721.sol\":3803:3855  _setApprovalForAll(_msgSender(), operator, approved) */\n      jump\t// in\n    tag_233:\n        /* \"@openzeppelin/contracts/token/ERC721/ERC721.sol\":3718:3862  function setApprovalForAll(address operator, bool approved) public virtual {... */\n      pop\n      pop\n      jump\t// out\n        /* \"@openzeppelin/contracts/token/ERC721/ERC721.sol\":4985:5193  function safeTransferFrom(address from, address to, uint256 tokenId, bytes memory data) public virtual {... */\n    tag_121:\n        /* \"@openzeppelin/contracts/token/ERC721/ERC721.sol\":5098:5129  transferFrom(from, to, tokenId) */\n      tag_237\n        /* \"@openzeppelin/contracts/token/ERC721/ERC721.sol\":5111:5115  from */\n      dup5\n        /* \"@openzeppelin/contracts/token/ERC721/ERC721.sol\":5117:5119  to */\n      dup5\n        /* \"@openzeppelin/contracts/token/ERC721/ERC721.sol\":5121:5128  tokenId */\n      dup5\n        /* \"@openzeppelin/contracts/token/ERC721/ERC721.sol\":5098:5110  transferFrom */\n      tag_56\n        /* \"@openzeppelin/contracts/token/ERC721/ERC721.sol\":5098:5129  transferFrom(from, to, tokenId) */\n      jump\t// in\n    tag_237:\n        /* \"@openzeppelin/contracts/token/ERC721/ERC721.sol\":5139:5186  _checkOnERC721Received(from, to, tokenId, data) */\n      tag_238\n        /* \"@openzeppelin/contracts/token/ERC721/ERC721.sol\":5162:5166  from */\n      dup5\n        /* \"@openzeppelin/contracts/token/ERC721/ERC721.sol\":5168:5170  to */\n      dup5\n        /* \"@openzeppelin/contracts/token/ERC721/ERC721.sol\":5172:5179  tokenId */\n      dup5\n        /* \"@openzeppelin/contracts/token/ERC721/ERC721.sol\":5181:5185  data */\n      dup5\n        /* \"@openzeppelin/contracts/token/ERC721/ERC721.sol\":5139:5161  _checkOnERC721Received */\n      tag_239\n        /* \"@openzeppelin/contracts/token/ERC721/ERC721.sol\":5139:5186  _checkOnERC721Received(from, to, tokenId, data) */\n      jump\t// in\n    tag_238:\n        /* \"@openzeppelin/contracts/token/ERC721/ERC721.sol\":4985:5193  function safeTransferFrom(address from, address to, uint256 tokenId, bytes memory data) public virtual {... */\n      pop\n      pop\n      pop\n      pop\n      jump\t// out\n        /* \"contracts/NFTPatient.sol\":430:451  IERC20 public myToken */\n    tag_124:\n      0x08\n      0x00\n      swap1\n      sload\n      swap1\n      0x0100\n      exp\n      swap1\n      div\n      0xffffffffffffffffffffffffffffffffffffffff\n      and\n      dup2\n      jump\t// out\n        /* \"@openzeppelin/contracts/token/ERC721/ERC721.sol\":2677:2932  function tokenURI(uint256 tokenId) public view virtual returns (string memory) {... */\n    tag_130:\n        /* \"@openzeppelin/contracts/token/ERC721/ERC721.sol\":2741:2754  string memory */\n      0x60\n        /* \"@openzeppelin/contracts/token/ERC721/ERC721.sol\":2766:2788  _requireOwned(tokenId) */\n      tag_241\n        /* \"@openzeppelin/contracts/token/ERC721/ERC721.sol\":2780:2787  tokenId */\n      dup3\n        /* \"@openzeppelin/contracts/token/ERC721/ERC721.sol\":2766:2779  _requireOwned */\n      tag_156\n        /* \"@openzeppelin/contracts/token/ERC721/ERC721.sol\":2766:2788  _requireOwned(tokenId) */\n      jump\t// in\n    tag_241:\n      pop\n        /* \"@openzeppelin/contracts/token/ERC721/ERC721.sol\":2799:2820  string memory baseURI */\n      0x00\n        /* \"@openzeppelin/contracts/token/ERC721/ERC721.sol\":2823:2833  _baseURI() */\n      tag_242\n        /* \"@openzeppelin/contracts/token/ERC721/ERC721.sol\":2823:2831  _baseURI */\n      tag_243\n        /* \"@openzeppelin/contracts/token/ERC721/ERC721.sol\":2823:2833  _baseURI() */\n      jump\t// in\n    tag_242:\n        /* \"@openzeppelin/contracts/token/ERC721/ERC721.sol\":2799:2833  string memory baseURI = _baseURI() */\n      swap1\n      pop\n        /* \"@openzeppelin/contracts/token/ERC721/ERC721.sol\":2874:2875  0 */\n      0x00\n        /* \"@openzeppelin/contracts/token/ERC721/ERC721.sol\":2856:2863  baseURI */\n      dup2\n        /* \"@openzeppelin/contracts/token/ERC721/ERC721.sol\":2850:2871  bytes(baseURI).length */\n      mload\n        /* \"@openzeppelin/contracts/token/ERC721/ERC721.sol\":2850:2875  bytes(baseURI).length > 0 */\n      gt\n        /* \"@openzeppelin/contracts/token/ERC721/ERC721.sol\":2850:2925  bytes(baseURI).length > 0 ? string.concat(baseURI, tokenId.toString()) : \"\" */\n      tag_244\n      jumpi\n      mload(0x40)\n      dup1\n      0x20\n      add\n      0x40\n      mstore\n      dup1\n      0x00\n      dup2\n      mstore\n      pop\n      jump(tag_245)\n    tag_244:\n        /* \"@openzeppelin/contracts/token/ERC721/ERC721.sol\":2892:2899  baseURI */\n      dup1\n        /* \"@openzeppelin/contracts/token/ERC721/ERC721.sol\":2901:2919  tokenId.toString() */\n      tag_246\n        /* \"@openzeppelin/contracts/token/ERC721/ERC721.sol\":2901:2908  tokenId */\n      dup5\n        /* \"@openzeppelin/contracts/token/ERC721/ERC721.sol\":2901:2917  tokenId.toString */\n      tag_247\n        /* \"@openzeppelin/contracts/token/ERC721/ERC721.sol\":2901:2919  tokenId.toString() */\n      jump\t// in\n    tag_246:\n        /* \"@openzeppelin/contracts/token/ERC721/ERC721.sol\":2878:2920  string.concat(baseURI, tokenId.toString()) */\n      add(0x20, mload(0x40))\n      tag_248\n      swap3\n      swap2\n      swap1\n      tag_249\n      jump\t// in\n    tag_248:\n      mload(0x40)\n      0x20\n      dup2\n      dup4\n      sub\n      sub\n      dup2\n      mstore\n      swap1\n      0x40\n      mstore\n        /* \"@openzeppelin/contracts/token/ERC721/ERC721.sol\":2850:2925  bytes(baseURI).length > 0 ? string.concat(baseURI, tokenId.toString()) : \"\" */\n    tag_245:\n        /* \"@openzeppelin/contracts/token/ERC721/ERC721.sol\":2843:2925  return bytes(baseURI).length > 0 ? string.concat(baseURI, tokenId.toString()) : \"\" */\n      swap2\n      pop\n      pop\n        /* \"@openzeppelin/contracts/token/ERC721/ERC721.sol\":2677:2932  function tokenURI(uint256 tokenId) public view virtual returns (string memory) {... */\n      swap2\n      swap1\n      pop\n      jump\t// out\n        /* \"@openzeppelin/contracts/token/ERC721/ERC721.sol\":3928:4081  function isApprovedForAll(address owner, address operator) public view virtual returns (bool) {... */\n    tag_136:\n        /* \"@openzeppelin/contracts/token/ERC721/ERC721.sol\":4016:4020  bool */\n      0x00\n        /* \"@openzeppelin/contracts/token/ERC721/ERC721.sol\":4039:4057  _operatorApprovals */\n      0x05\n        /* \"@openzeppelin/contracts/token/ERC721/ERC721.sol\":4039:4064  _operatorApprovals[owner] */\n      0x00\n        /* \"@openzeppelin/contracts/token/ERC721/ERC721.sol\":4058:4063  owner */\n      dup5\n        /* \"@openzeppelin/contracts/token/ERC721/ERC721.sol\":4039:4064  _operatorApprovals[owner] */\n      0xffffffffffffffffffffffffffffffffffffffff\n      and\n      0xffffffffffffffffffffffffffffffffffffffff\n      and\n      dup2\n      mstore\n      0x20\n      add\n      swap1\n      dup2\n      mstore\n      0x20\n      add\n      0x00\n      keccak256\n        /* \"@openzeppelin/contracts/token/ERC721/ERC721.sol\":4039:4074  _operatorApprovals[owner][operator] */\n      0x00\n        /* \"@openzeppelin/contracts/token/ERC721/ERC721.sol\":4065:4073  operator */\n      dup4\n        /* \"@openzeppelin/contracts/token/ERC721/ERC721.sol\":4039:4074  _operatorApprovals[owner][operator] */\n      0xffffffffffffffffffffffffffffffffffffffff\n      and\n      0xffffffffffffffffffffffffffffffffffffffff\n      and\n      dup2\n      mstore\n      0x20\n      add\n      swap1\n      dup2\n      mstore\n      0x20\n      add\n      0x00\n      keccak256\n      0x00\n      swap1\n      sload\n      swap1\n      0x0100\n      exp\n      swap1\n      div\n      0xff\n      and\n        /* \"@openzeppelin/contracts/token/ERC721/ERC721.sol\":4032:4074  return _operatorApprovals[owner][operator] */\n      swap1\n      pop\n        /* \"@openzeppelin/contracts/token/ERC721/ERC721.sol\":3928:4081  function isApprovedForAll(address owner, address operator) public view virtual returns (bool) {... */\n      swap3\n      swap2\n      pop\n      pop\n      jump\t// out\n        /* \"@openzeppelin/contracts/access/Ownable.sol\":2543:2758  function transferOwnership(address newOwner) public virtual onlyOwner {... */\n    tag_141:\n        /* \"@openzeppelin/contracts/access/Ownable.sol\":1531:1544  _checkOwner() */\n      tag_252\n        /* \"@openzeppelin/contracts/access/Ownable.sol\":1531:1542  _checkOwner */\n      tag_175\n        /* \"@openzeppelin/contracts/access/Ownable.sol\":1531:1544  _checkOwner() */\n      jump\t// in\n    tag_252:\n        /* \"@openzeppelin/contracts/access/Ownable.sol\":2647:2648  0 */\n      0x00\n        /* \"@openzeppelin/contracts/access/Ownable.sol\":2627:2649  newOwner == address(0) */\n      0xffffffffffffffffffffffffffffffffffffffff\n      and\n        /* \"@openzeppelin/contracts/access/Ownable.sol\":2627:2635  newOwner */\n      dup2\n        /* \"@openzeppelin/contracts/access/Ownable.sol\":2627:2649  newOwner == address(0) */\n      0xffffffffffffffffffffffffffffffffffffffff\n      and\n      sub\n        /* \"@openzeppelin/contracts/access/Ownable.sol\":2623:2714  if (newOwner == address(0)) {... */\n      tag_254\n      jumpi\n        /* \"@openzeppelin/contracts/access/Ownable.sol\":2700:2701  0 */\n      0x00\n        /* \"@openzeppelin/contracts/access/Ownable.sol\":2672:2703  OwnableInvalidOwner(address(0)) */\n      mload(0x40)\n      0x1e4fbdf700000000000000000000000000000000000000000000000000000000\n      dup2\n      mstore\n      0x04\n      add\n      tag_255\n      swap2\n      swap1\n      tag_46\n      jump\t// in\n    tag_255:\n      mload(0x40)\n      dup1\n      swap2\n      sub\n      swap1\n      revert\n        /* \"@openzeppelin/contracts/access/Ownable.sol\":2623:2714  if (newOwner == address(0)) {... */\n    tag_254:\n        /* \"@openzeppelin/contracts/access/Ownable.sol\":2723:2751  _transferOwnership(newOwner) */\n      tag_256\n        /* \"@openzeppelin/contracts/access/Ownable.sol\":2742:2750  newOwner */\n      dup2\n        /* \"@openzeppelin/contracts/access/Ownable.sol\":2723:2741  _transferOwnership */\n      tag_196\n        /* \"@openzeppelin/contracts/access/Ownable.sol\":2723:2751  _transferOwnership(newOwner) */\n      jump\t// in\n    tag_256:\n        /* \"@openzeppelin/contracts/access/Ownable.sol\":2543:2758  function transferOwnership(address newOwner) public virtual onlyOwner {... */\n      pop\n      jump\t// out\n        /* \"@openzeppelin/contracts/utils/introspection/ERC165.sol\":762:908  function supportsInterface(bytes4 interfaceId) public view virtual returns (bool) {... */\n    tag_146:\n        /* \"@openzeppelin/contracts/utils/introspection/ERC165.sol\":838:842  bool */\n      0x00\n        /* \"@openzeppelin/contracts/utils/introspection/ERC165.sol\":876:901  type(IERC165).interfaceId */\n      0x01ffc9a700000000000000000000000000000000000000000000000000000000\n        /* \"@openzeppelin/contracts/utils/introspection/ERC165.sol\":861:901  interfaceId == type(IERC165).interfaceId */\n      not(0xffffffffffffffffffffffffffffffffffffffffffffffffffffffff)\n      and\n        /* \"@openzeppelin/contracts/utils/introspection/ERC165.sol\":861:872  interfaceId */\n      dup3\n        /* \"@openzeppelin/contracts/utils/introspection/ERC165.sol\":861:901  interfaceId == type(IERC165).interfaceId */\n      not(0xffffffffffffffffffffffffffffffffffffffffffffffffffffffff)\n      and\n      eq\n        /* \"@openzeppelin/contracts/utils/introspection/ERC165.sol\":854:901  return interfaceId == type(IERC165).interfaceId */\n      swap1\n      pop\n        /* \"@openzeppelin/contracts/utils/introspection/ERC165.sol\":762:908  function supportsInterface(bytes4 interfaceId) public view virtual returns (bool) {... */\n      swap2\n      swap1\n      pop\n      jump\t// out\n        /* \"@openzeppelin/contracts/token/ERC721/ERC721.sol\":16138:16379  function _requireOwned(uint256 tokenId) internal view returns (address) {... */\n    tag_156:\n        /* \"@openzeppelin/contracts/token/ERC721/ERC721.sol\":16201:16208  address */\n      0x00\n        /* \"@openzeppelin/contracts/token/ERC721/ERC721.sol\":16220:16233  address owner */\n      dup1\n        /* \"@openzeppelin/contracts/token/ERC721/ERC721.sol\":16236:16253  _ownerOf(tokenId) */\n      tag_259\n        /* \"@openzeppelin/contracts/token/ERC721/ERC721.sol\":16245:16252  tokenId */\n      dup4\n        /* \"@openzeppelin/contracts/token/ERC721/ERC721.sol\":16236:16244  _ownerOf */\n      tag_260\n        /* \"@openzeppelin/contracts/token/ERC721/ERC721.sol\":16236:16253  _ownerOf(tokenId) */\n      jump\t// in\n    tag_259:\n        /* \"@openzeppelin/contracts/token/ERC721/ERC721.sol\":16220:16253  address owner = _ownerOf(tokenId) */\n      swap1\n      pop\n        /* \"@openzeppelin/contracts/token/ERC721/ERC721.sol\":16284:16285  0 */\n      0x00\n        /* \"@openzeppelin/contracts/token/ERC721/ERC721.sol\":16267:16286  owner == address(0) */\n      0xffffffffffffffffffffffffffffffffffffffff\n      and\n        /* \"@openzeppelin/contracts/token/ERC721/ERC721.sol\":16267:16272  owner */\n      dup2\n        /* \"@openzeppelin/contracts/token/ERC721/ERC721.sol\":16267:16286  owner == address(0) */\n      0xffffffffffffffffffffffffffffffffffffffff\n      and\n      sub\n        /* \"@openzeppelin/contracts/token/ERC721/ERC721.sol\":16263:16351  if (owner == address(0)) {... */\n      tag_261\n      jumpi\n        /* \"@openzeppelin/contracts/token/ERC721/ERC721.sol\":16332:16339  tokenId */\n      dup3\n        /* \"@openzeppelin/contracts/token/ERC721/ERC721.sol\":16309:16340  ERC721NonexistentToken(tokenId) */\n      mload(0x40)\n      0x7e27328900000000000000000000000000000000000000000000000000000000\n      dup2\n      mstore\n      0x04\n      add\n      tag_262\n      swap2\n      swap1\n      tag_81\n      jump\t// in\n    tag_262:\n      mload(0x40)\n      dup1\n      swap2\n      sub\n      swap1\n      revert\n        /* \"@openzeppelin/contracts/token/ERC721/ERC721.sol\":16263:16351  if (owner == address(0)) {... */\n    tag_261:\n        /* \"@openzeppelin/contracts/token/ERC721/ERC721.sol\":16367:16372  owner */\n      dup1\n        /* \"@openzeppelin/contracts/token/ERC721/ERC721.sol\":16360:16372  return owner */\n      swap2\n      pop\n      pop\n        /* \"@openzeppelin/contracts/token/ERC721/ERC721.sol\":16138:16379  function _requireOwned(uint256 tokenId) internal view returns (address) {... */\n      swap2\n      swap1\n      pop\n      jump\t// out\n        /* \"@openzeppelin/contracts/token/ERC721/ERC721.sol\":5938:6065  function _getApproved(uint256 tokenId) internal view virtual returns (address) {... */\n    tag_158:\n        /* \"@openzeppelin/contracts/token/ERC721/ERC721.sol\":6008:6015  address */\n      0x00\n        /* \"@openzeppelin/contracts/token/ERC721/ERC721.sol\":6034:6049  _tokenApprovals */\n      0x04\n        /* \"@openzeppelin/contracts/token/ERC721/ERC721.sol\":6034:6058  _tokenApprovals[tokenId] */\n      0x00\n        /* \"@openzeppelin/contracts/token/ERC721/ERC721.sol\":6050:6057  tokenId */\n      dup4\n        /* \"@openzeppelin/contracts/token/ERC721/ERC721.sol\":6034:6058  _tokenApprovals[tokenId] */\n      dup2\n      mstore\n      0x20\n      add\n      swap1\n      dup2\n      mstore\n      0x20\n      add\n      0x00\n      keccak256\n      0x00\n      swap1\n      sload\n      swap1\n      0x0100\n      exp\n      swap1\n      div\n      0xffffffffffffffffffffffffffffffffffffffff\n      and\n        /* \"@openzeppelin/contracts/token/ERC721/ERC721.sol\":6027:6058  return _tokenApprovals[tokenId] */\n      swap1\n      pop\n        /* \"@openzeppelin/contracts/token/ERC721/ERC721.sol\":5938:6065  function _getApproved(uint256 tokenId) internal view virtual returns (address) {... */\n      swap2\n      swap1\n      pop\n      jump\t// out\n        /* \"@openzeppelin/contracts/utils/Context.sol\":656:752  function _msgSender() internal view virtual returns (address) {... */\n    tag_162:\n        /* \"@openzeppelin/contracts/utils/Context.sol\":709:716  address */\n      0x00\n        /* \"@openzeppelin/contracts/utils/Context.sol\":735:745  msg.sender */\n      caller\n        /* \"@openzeppelin/contracts/utils/Context.sol\":728:745  return msg.sender */\n      swap1\n      pop\n        /* \"@openzeppelin/contracts/utils/Context.sol\":656:752  function _msgSender() internal view virtual returns (address) {... */\n      swap1\n      jump\t// out\n        /* \"@openzeppelin/contracts/token/ERC721/ERC721.sol\":14418:14538  function _approve(address to, uint256 tokenId, address auth) internal {... */\n    tag_163:\n        /* \"@openzeppelin/contracts/token/ERC721/ERC721.sol\":14498:14531  _approve(to, tokenId, auth, true) */\n      tag_266\n        /* \"@openzeppelin/contracts/token/ERC721/ERC721.sol\":14507:14509  to */\n      dup4\n        /* \"@openzeppelin/contracts/token/ERC721/ERC721.sol\":14511:14518  tokenId */\n      dup4\n        /* \"@openzeppelin/contracts/token/ERC721/ERC721.sol\":14520:14524  auth */\n      dup4\n        /* \"@openzeppelin/contracts/token/ERC721/ERC721.sol\":14526:14530  true */\n      0x01\n        /* \"@openzeppelin/contracts/token/ERC721/ERC721.sol\":14498:14506  _approve */\n      tag_267\n        /* \"@openzeppelin/contracts/token/ERC721/ERC721.sol\":14498:14531  _approve(to, tokenId, auth, true) */\n      jump\t// in\n    tag_266:\n        /* \"@openzeppelin/contracts/token/ERC721/ERC721.sol\":14418:14538  function _approve(address to, uint256 tokenId, address auth) internal {... */\n      pop\n      pop\n      pop\n      jump\t// out\n        /* \"@openzeppelin/contracts/token/ERC721/ERC721.sol\":8838:9633  function _update(address to, uint256 tokenId, address auth) internal virtual returns (address) {... */\n    tag_169:\n        /* \"@openzeppelin/contracts/token/ERC721/ERC721.sol\":8924:8931  address */\n      0x00\n        /* \"@openzeppelin/contracts/token/ERC721/ERC721.sol\":8943:8955  address from */\n      dup1\n        /* \"@openzeppelin/contracts/token/ERC721/ERC721.sol\":8958:8975  _ownerOf(tokenId) */\n      tag_269\n        /* \"@openzeppelin/contracts/token/ERC721/ERC721.sol\":8967:8974  tokenId */\n      dup5\n        /* \"@openzeppelin/contracts/token/ERC721/ERC721.sol\":8958:8966  _ownerOf */\n      tag_260\n        /* \"@openzeppelin/contracts/token/ERC721/ERC721.sol\":8958:8975  _ownerOf(tokenId) */\n      jump\t// in\n    tag_269:\n        /* \"@openzeppelin/contracts/token/ERC721/ERC721.sol\":8943:8975  address from = _ownerOf(tokenId) */\n      swap1\n      pop\n        /* \"@openzeppelin/contracts/token/ERC721/ERC721.sol\":9051:9052  0 */\n      0x00\n        /* \"@openzeppelin/contracts/token/ERC721/ERC721.sol\":9035:9053  auth != address(0) */\n      0xffffffffffffffffffffffffffffffffffffffff\n      and\n        /* \"@openzeppelin/contracts/token/ERC721/ERC721.sol\":9035:9039  auth */\n      dup4\n        /* \"@openzeppelin/contracts/token/ERC721/ERC721.sol\":9035:9053  auth != address(0) */\n      0xffffffffffffffffffffffffffffffffffffffff\n      and\n      eq\n        /* \"@openzeppelin/contracts/token/ERC721/ERC721.sol\":9031:9117  if (auth != address(0)) {... */\n      tag_270\n      jumpi\n        /* \"@openzeppelin/contracts/token/ERC721/ERC721.sol\":9069:9106  _checkAuthorized(from, auth, tokenId) */\n      tag_271\n        /* \"@openzeppelin/contracts/token/ERC721/ERC721.sol\":9086:9090  from */\n      dup2\n        /* \"@openzeppelin/contracts/token/ERC721/ERC721.sol\":9092:9096  auth */\n      dup5\n        /* \"@openzeppelin/contracts/token/ERC721/ERC721.sol\":9098:9105  tokenId */\n      dup7\n        /* \"@openzeppelin/contracts/token/ERC721/ERC721.sol\":9069:9085  _checkAuthorized */\n      tag_272\n        /* \"@openzeppelin/contracts/token/ERC721/ERC721.sol\":9069:9106  _checkAuthorized(from, auth, tokenId) */\n      jump\t// in\n    tag_271:\n        /* \"@openzeppelin/contracts/token/ERC721/ERC721.sol\":9031:9117  if (auth != address(0)) {... */\n    tag_270:\n        /* \"@openzeppelin/contracts/token/ERC721/ERC721.sol\":9177:9178  0 */\n      0x00\n        /* \"@openzeppelin/contracts/token/ERC721/ERC721.sol\":9161:9179  from != address(0) */\n      0xffffffffffffffffffffffffffffffffffffffff\n      and\n        /* \"@openzeppelin/contracts/token/ERC721/ERC721.sol\":9161:9165  from */\n      dup2\n        /* \"@openzeppelin/contracts/token/ERC721/ERC721.sol\":9161:9179  from != address(0) */\n      0xffffffffffffffffffffffffffffffffffffffff\n      and\n      eq\n        /* \"@openzeppelin/contracts/token/ERC721/ERC721.sol\":9157:9413  if (from != address(0)) {... */\n      tag_273\n      jumpi\n        /* \"@openzeppelin/contracts/token/ERC721/ERC721.sol\":9277:9325  _approve(address(0), tokenId, address(0), false) */\n      tag_274\n        /* \"@openzeppelin/contracts/token/ERC721/ERC721.sol\":9294:9295  0 */\n      0x00\n        /* \"@openzeppelin/contracts/token/ERC721/ERC721.sol\":9298:9305  tokenId */\n      dup6\n        /* \"@openzeppelin/contracts/token/ERC721/ERC721.sol\":9315:9316  0 */\n      0x00\n        /* \"@openzeppelin/contracts/token/ERC721/ERC721.sol\":9319:9324  false */\n      dup1\n        /* \"@openzeppelin/contracts/token/ERC721/ERC721.sol\":9277:9285  _approve */\n      tag_267\n        /* \"@openzeppelin/contracts/token/ERC721/ERC721.sol\":9277:9325  _approve(address(0), tokenId, address(0), false) */\n      jump\t// in\n    tag_274:\n        /* \"@openzeppelin/contracts/token/ERC721/ERC721.sol\":9387:9388  1 */\n      0x01\n        /* \"@openzeppelin/contracts/token/ERC721/ERC721.sol\":9368:9377  _balances */\n      0x03\n        /* \"@openzeppelin/contracts/token/ERC721/ERC721.sol\":9368:9383  _balances[from] */\n      0x00\n        /* \"@openzeppelin/contracts/token/ERC721/ERC721.sol\":9378:9382  from */\n      dup4\n        /* \"@openzeppelin/contracts/token/ERC721/ERC721.sol\":9368:9383  _balances[from] */\n      0xffffffffffffffffffffffffffffffffffffffff\n      and\n      0xffffffffffffffffffffffffffffffffffffffff\n      and\n      dup2\n      mstore\n      0x20\n      add\n      swap1\n      dup2\n      mstore\n      0x20\n      add\n      0x00\n      keccak256\n      0x00\n        /* \"@openzeppelin/contracts/token/ERC721/ERC721.sol\":9368:9388  _balances[from] -= 1 */\n      dup3\n      dup3\n      sload\n      sub\n      swap3\n      pop\n      pop\n      dup2\n      swap1\n      sstore\n      pop\n        /* \"@openzeppelin/contracts/token/ERC721/ERC721.sol\":9157:9413  if (from != address(0)) {... */\n    tag_273:\n        /* \"@openzeppelin/contracts/token/ERC721/ERC721.sol\":9441:9442  0 */\n      0x00\n        /* \"@openzeppelin/contracts/token/ERC721/ERC721.sol\":9427:9443  to != address(0) */\n      0xffffffffffffffffffffffffffffffffffffffff\n      and\n        /* \"@openzeppelin/contracts/token/ERC721/ERC721.sol\":9427:9429  to */\n      dup6\n        /* \"@openzeppelin/contracts/token/ERC721/ERC721.sol\":9427:9443  to != address(0) */\n      0xffffffffffffffffffffffffffffffffffffffff\n      and\n      eq\n        /* \"@openzeppelin/contracts/token/ERC721/ERC721.sol\":9423:9530  if (to != address(0)) {... */\n      tag_275\n      jumpi\n        /* \"@openzeppelin/contracts/token/ERC721/ERC721.sol\":9504:9505  1 */\n      0x01\n        /* \"@openzeppelin/contracts/token/ERC721/ERC721.sol\":9487:9496  _balances */\n      0x03\n        /* \"@openzeppelin/contracts/token/ERC721/ERC721.sol\":9487:9500  _balances[to] */\n      0x00\n        /* \"@openzeppelin/contracts/token/ERC721/ERC721.sol\":9497:9499  to */\n      dup8\n        /* \"@openzeppelin/contracts/token/ERC721/ERC721.sol\":9487:9500  _balances[to] */\n      0xffffffffffffffffffffffffffffffffffffffff\n      and\n      0xffffffffffffffffffffffffffffffffffffffff\n      and\n      dup2\n      mstore\n      0x20\n      add\n      swap1\n      dup2\n      mstore\n      0x20\n      add\n      0x00\n      keccak256\n      0x00\n        /* \"@openzeppelin/contracts/token/ERC721/ERC721.sol\":9487:9505  _balances[to] += 1 */\n      dup3\n      dup3\n      sload\n      add\n      swap3\n      pop\n      pop\n      dup2\n      swap1\n      sstore\n      pop\n        /* \"@openzeppelin/contracts/token/ERC721/ERC721.sol\":9423:9530  if (to != address(0)) {... */\n    tag_275:\n        /* \"@openzeppelin/contracts/token/ERC721/ERC721.sol\":9559:9561  to */\n      dup5\n        /* \"@openzeppelin/contracts/token/ERC721/ERC721.sol\":9540:9547  _owners */\n      0x02\n        /* \"@openzeppelin/contracts/token/ERC721/ERC721.sol\":9540:9556  _owners[tokenId] */\n      0x00\n        /* \"@openzeppelin/contracts/token/ERC721/ERC721.sol\":9548:9555  tokenId */\n      dup7\n        /* \"@openzeppelin/contracts/token/ERC721/ERC721.sol\":9540:9556  _owners[tokenId] */\n      dup2\n      mstore\n      0x20\n      add\n      swap1\n      dup2\n      mstore\n      0x20\n      add\n      0x00\n      keccak256\n      0x00\n        /* \"@openzeppelin/contracts/token/ERC721/ERC721.sol\":9540:9561  _owners[tokenId] = to */\n      0x0100\n      exp\n      dup2\n      sload\n      dup2\n      0xffffffffffffffffffffffffffffffffffffffff\n      mul\n      not\n      and\n      swap1\n      dup4\n      0xffffffffffffffffffffffffffffffffffffffff\n      and\n      mul\n      or\n      swap1\n      sstore\n      pop\n        /* \"@openzeppelin/contracts/token/ERC721/ERC721.sol\":9596:9603  tokenId */\n      dup4\n        /* \"@openzeppelin/contracts/token/ERC721/ERC721.sol\":9592:9594  to */\n      dup6\n        /* \"@openzeppelin/contracts/token/ERC721/ERC721.sol\":9577:9604  Transfer(from, to, tokenId) */\n      0xffffffffffffffffffffffffffffffffffffffff\n      and\n        /* \"@openzeppelin/contracts/token/ERC721/ERC721.sol\":9586:9590  from */\n      dup3\n        /* \"@openzeppelin/contracts/token/ERC721/ERC721.sol\":9577:9604  Transfer(from, to, tokenId) */\n      0xffffffffffffffffffffffffffffffffffffffff\n      and\n      0xddf252ad1be2c89b69c2b068fc378daa952ba7f163c4a11628f55a4df523b3ef\n      mload(0x40)\n      mload(0x40)\n      dup1\n      swap2\n      sub\n      swap1\n      log4\n        /* \"@openzeppelin/contracts/token/ERC721/ERC721.sol\":9622:9626  from */\n      dup1\n        /* \"@openzeppelin/contracts/token/ERC721/ERC721.sol\":9615:9626  return from */\n      swap2\n      pop\n      pop\n        /* \"@openzeppelin/contracts/token/ERC721/ERC721.sol\":8838:9633  function _update(address to, uint256 tokenId, address auth) internal virtual returns (address) {... */\n      swap4\n      swap3\n      pop\n      pop\n      pop\n      jump\t// out\n        /* \"@openzeppelin/contracts/access/Ownable.sol\":1796:1958  function _checkOwner() internal view virtual {... */\n    tag_175:\n        /* \"@openzeppelin/contracts/access/Ownable.sol\":1866:1878  _msgSender() */\n      tag_277\n        /* \"@openzeppelin/contracts/access/Ownable.sol\":1866:1876  _msgSender */\n      tag_162\n        /* \"@openzeppelin/contracts/access/Ownable.sol\":1866:1878  _msgSender() */\n      jump\t// in\n    tag_277:\n        /* \"@openzeppelin/contracts/access/Ownable.sol\":1855:1878  owner() != _msgSender() */\n      0xffffffffffffffffffffffffffffffffffffffff\n      and\n        /* \"@openzeppelin/contracts/access/Ownable.sol\":1855:1862  owner() */\n      tag_278\n        /* \"@openzeppelin/contracts/access/Ownable.sol\":1855:1860  owner */\n      tag_91\n        /* \"@openzeppelin/contracts/access/Ownable.sol\":1855:1862  owner() */\n      jump\t// in\n    tag_278:\n        /* \"@openzeppelin/contracts/access/Ownable.sol\":1855:1878  owner() != _msgSender() */\n      0xffffffffffffffffffffffffffffffffffffffff\n      and\n      eq\n        /* \"@openzeppelin/contracts/access/Ownable.sol\":1851:1952  if (owner() != _msgSender()) {... */\n      tag_279\n      jumpi\n        /* \"@openzeppelin/contracts/access/Ownable.sol\":1928:1940  _msgSender() */\n      tag_280\n        /* \"@openzeppelin/contracts/access/Ownable.sol\":1928:1938  _msgSender */\n      tag_162\n        /* \"@openzeppelin/contracts/access/Ownable.sol\":1928:1940  _msgSender() */\n      jump\t// in\n    tag_280:\n        /* \"@openzeppelin/contracts/access/Ownable.sol\":1901:1941  OwnableUnauthorizedAccount(_msgSender()) */\n      mload(0x40)\n      0x118cdaa700000000000000000000000000000000000000000000000000000000\n      dup2\n      mstore\n      0x04\n      add\n      tag_281\n      swap2\n      swap1\n      tag_46\n      jump\t// in\n    tag_281:\n      mload(0x40)\n      dup1\n      swap2\n      sub\n      swap1\n      revert\n        /* \"@openzeppelin/contracts/access/Ownable.sol\":1851:1952  if (owner() != _msgSender()) {... */\n    tag_279:\n        /* \"@openzeppelin/contracts/access/Ownable.sol\":1796:1958  function _checkOwner() internal view virtual {... */\n      jump\t// out\n        /* \"@openzeppelin/contracts/token/ERC721/ERC721.sol\":9955:10282  function _mint(address to, uint256 tokenId) internal {... */\n    tag_184:\n        /* \"@openzeppelin/contracts/token/ERC721/ERC721.sol\":10036:10037  0 */\n      0x00\n        /* \"@openzeppelin/contracts/token/ERC721/ERC721.sol\":10022:10038  to == address(0) */\n      0xffffffffffffffffffffffffffffffffffffffff\n      and\n        /* \"@openzeppelin/contracts/token/ERC721/ERC721.sol\":10022:10024  to */\n      dup3\n        /* \"@openzeppelin/contracts/token/ERC721/ERC721.sol\":10022:10038  to == address(0) */\n      0xffffffffffffffffffffffffffffffffffffffff\n      and\n      sub\n        /* \"@openzeppelin/contracts/token/ERC721/ERC721.sol\":10018:10105  if (to == address(0)) {... */\n      tag_283\n      jumpi\n        /* \"@openzeppelin/contracts/token/ERC721/ERC721.sol\":10091:10092  0 */\n      0x00\n        /* \"@openzeppelin/contracts/token/ERC721/ERC721.sol\":10061:10094  ERC721InvalidReceiver(address(0)) */\n      mload(0x40)\n      0x64a0ae9200000000000000000000000000000000000000000000000000000000\n      dup2\n      mstore\n      0x04\n      add\n      tag_284\n      swap2\n      swap1\n      tag_46\n      jump\t// in\n    tag_284:\n      mload(0x40)\n      dup1\n      swap2\n      sub\n      swap1\n      revert\n        /* \"@openzeppelin/contracts/token/ERC721/ERC721.sol\":10018:10105  if (to == address(0)) {... */\n    tag_283:\n        /* \"@openzeppelin/contracts/token/ERC721/ERC721.sol\":10114:10135  address previousOwner */\n      0x00\n        /* \"@openzeppelin/contracts/token/ERC721/ERC721.sol\":10138:10170  _update(to, tokenId, address(0)) */\n      tag_285\n        /* \"@openzeppelin/contracts/token/ERC721/ERC721.sol\":10146:10148  to */\n      dup4\n        /* \"@openzeppelin/contracts/token/ERC721/ERC721.sol\":10150:10157  tokenId */\n      dup4\n        /* \"@openzeppelin/contracts/token/ERC721/ERC721.sol\":10167:10168  0 */\n      0x00\n        /* \"@openzeppelin/contracts/token/ERC721/ERC721.sol\":10138:10145  _update */\n      tag_169\n        /* \"@openzeppelin/contracts/token/ERC721/ERC721.sol\":10138:10170  _update(to, tokenId, address(0)) */\n      jump\t// in\n    tag_285:\n        /* \"@openzeppelin/contracts/token/ERC721/ERC721.sol\":10114:10170  address previousOwner = _update(to, tokenId, address(0)) */\n      swap1\n      pop\n        /* \"@openzeppelin/contracts/token/ERC721/ERC721.sol\":10209:10210  0 */\n      0x00\n        /* \"@openzeppelin/contracts/token/ERC721/ERC721.sol\":10184:10211  previousOwner != address(0) */\n      0xffffffffffffffffffffffffffffffffffffffff\n      and\n        /* \"@openzeppelin/contracts/token/ERC721/ERC721.sol\":10184:10197  previousOwner */\n      dup2\n        /* \"@openzeppelin/contracts/token/ERC721/ERC721.sol\":10184:10211  previousOwner != address(0) */\n      0xffffffffffffffffffffffffffffffffffffffff\n      and\n      eq\n        /* \"@openzeppelin/contracts/token/ERC721/ERC721.sol\":10180:10276  if (previousOwner != address(0)) {... */\n      tag_286\n      jumpi\n        /* \"@openzeppelin/contracts/token/ERC721/ERC721.sol\":10262:10263  0 */\n      0x00\n        /* \"@openzeppelin/contracts/token/ERC721/ERC721.sol\":10234:10265  ERC721InvalidSender(address(0)) */\n      mload(0x40)\n      0x73c6ac6e00000000000000000000000000000000000000000000000000000000\n      dup2\n      mstore\n      0x04\n      add\n      tag_287\n      swap2\n      swap1\n      tag_46\n      jump\t// in\n    tag_287:\n      mload(0x40)\n      dup1\n      swap2\n      sub\n      swap1\n      revert\n        /* \"@openzeppelin/contracts/token/ERC721/ERC721.sol\":10180:10276  if (previousOwner != address(0)) {... */\n    tag_286:\n        /* \"@openzeppelin/contracts/token/ERC721/ERC721.sol\":10008:10282  {... */\n      pop\n        /* \"@openzeppelin/contracts/token/ERC721/ERC721.sol\":9955:10282  function _mint(address to, uint256 tokenId) internal {... */\n      pop\n      pop\n      jump\t// out\n        /* \"@openzeppelin/contracts/access/Ownable.sol\":2912:3099  function _transferOwnership(address newOwner) internal virtual {... */\n    tag_196:\n        /* \"@openzeppelin/contracts/access/Ownable.sol\":2985:3001  address oldOwner */\n      0x00\n        /* \"@openzeppelin/contracts/access/Ownable.sol\":3004:3010  _owner */\n      0x06\n      0x00\n      swap1\n      sload\n      swap1\n      0x0100\n      exp\n      swap1\n      div\n      0xffffffffffffffffffffffffffffffffffffffff\n      and\n        /* \"@openzeppelin/contracts/access/Ownable.sol\":2985:3010  address oldOwner = _owner */\n      swap1\n      pop\n        /* \"@openzeppelin/contracts/access/Ownable.sol\":3029:3037  newOwner */\n      dup2\n        /* \"@openzeppelin/contracts/access/Ownable.sol\":3020:3026  _owner */\n      0x06\n      0x00\n        /* \"@openzeppelin/contracts/access/Ownable.sol\":3020:3037  _owner = newOwner */\n      0x0100\n      exp\n      dup2\n      sload\n      dup2\n      0xffffffffffffffffffffffffffffffffffffffff\n      mul\n      not\n      and\n      swap1\n      dup4\n      0xffffffffffffffffffffffffffffffffffffffff\n      and\n      mul\n      or\n      swap1\n      sstore\n      pop\n        /* \"@openzeppelin/contracts/access/Ownable.sol\":3083:3091  newOwner */\n      dup2\n        /* \"@openzeppelin/contracts/access/Ownable.sol\":3052:3092  OwnershipTransferred(oldOwner, newOwner) */\n      0xffffffffffffffffffffffffffffffffffffffff\n      and\n        /* \"@openzeppelin/contracts/access/Ownable.sol\":3073:3081  oldOwner */\n      dup2\n        /* \"@openzeppelin/contracts/access/Ownable.sol\":3052:3092  OwnershipTransferred(oldOwner, newOwner) */\n      0xffffffffffffffffffffffffffffffffffffffff\n      and\n      0x8be0079c531659141344cd1fd0a4f28419497f9722a3daafe3b4186f6b6457e0\n      mload(0x40)\n      mload(0x40)\n      dup1\n      swap2\n      sub\n      swap1\n      log3\n        /* \"@openzeppelin/contracts/access/Ownable.sol\":2975:3099  {... */\n      pop\n        /* \"@openzeppelin/contracts/access/Ownable.sol\":2912:3099  function _transferOwnership(address newOwner) internal virtual {... */\n      pop\n      jump\t// out\n        /* \"@openzeppelin/contracts/token/ERC721/ERC721.sol\":12013:12473  function _transfer(address from, address to, uint256 tokenId) internal {... */\n    tag_204:\n        /* \"@openzeppelin/contracts/token/ERC721/ERC721.sol\":12112:12113  0 */\n      0x00\n        /* \"@openzeppelin/contracts/token/ERC721/ERC721.sol\":12098:12114  to == address(0) */\n      0xffffffffffffffffffffffffffffffffffffffff\n      and\n        /* \"@openzeppelin/contracts/token/ERC721/ERC721.sol\":12098:12100  to */\n      dup3\n        /* \"@openzeppelin/contracts/token/ERC721/ERC721.sol\":12098:12114  to == address(0) */\n      0xffffffffffffffffffffffffffffffffffffffff\n      and\n      sub\n        /* \"@openzeppelin/contracts/token/ERC721/ERC721.sol\":12094:12181  if (to == address(0)) {... */\n      tag_290\n      jumpi\n        /* \"@openzeppelin/contracts/token/ERC721/ERC721.sol\":12167:12168  0 */\n      0x00\n        /* \"@openzeppelin/contracts/token/ERC721/ERC721.sol\":12137:12170  ERC721InvalidReceiver(address(0)) */\n      mload(0x40)\n      0x64a0ae9200000000000000000000000000000000000000000000000000000000\n      dup2\n      mstore\n      0x04\n      add\n      tag_291\n      swap2\n      swap1\n      tag_46\n      jump\t// in\n    tag_291:\n      mload(0x40)\n      dup1\n      swap2\n      sub\n      swap1\n      revert\n        /* \"@openzeppelin/contracts/token/ERC721/ERC721.sol\":12094:12181  if (to == address(0)) {... */\n    tag_290:\n        /* \"@openzeppelin/contracts/token/ERC721/ERC721.sol\":12190:12211  address previousOwner */\n      0x00\n        /* \"@openzeppelin/contracts/token/ERC721/ERC721.sol\":12214:12246  _update(to, tokenId, address(0)) */\n      tag_292\n        /* \"@openzeppelin/contracts/token/ERC721/ERC721.sol\":12222:12224  to */\n      dup4\n        /* \"@openzeppelin/contracts/token/ERC721/ERC721.sol\":12226:12233  tokenId */\n      dup4\n        /* \"@openzeppelin/contracts/token/ERC721/ERC721.sol\":12243:12244  0 */\n      0x00\n        /* \"@openzeppelin/contracts/token/ERC721/ERC721.sol\":12214:12221  _update */\n      tag_169\n        /* \"@openzeppelin/contracts/token/ERC721/ERC721.sol\":12214:12246  _update(to, tokenId, address(0)) */\n      jump\t// in\n    tag_292:\n        /* \"@openzeppelin/contracts/token/ERC721/ERC721.sol\":12190:12246  address previousOwner = _update(to, tokenId, address(0)) */\n      swap1\n      pop\n        /* \"@openzeppelin/contracts/token/ERC721/ERC721.sol\":12285:12286  0 */\n      0x00\n        /* \"@openzeppelin/contracts/token/ERC721/ERC721.sol\":12260:12287  previousOwner == address(0) */\n      0xffffffffffffffffffffffffffffffffffffffff\n      and\n        /* \"@openzeppelin/contracts/token/ERC721/ERC721.sol\":12260:12273  previousOwner */\n      dup2\n        /* \"@openzeppelin/contracts/token/ERC721/ERC721.sol\":12260:12287  previousOwner == address(0) */\n      0xffffffffffffffffffffffffffffffffffffffff\n      and\n      sub\n        /* \"@openzeppelin/contracts/token/ERC721/ERC721.sol\":12256:12467  if (previousOwner == address(0)) {... */\n      tag_293\n      jumpi\n        /* \"@openzeppelin/contracts/token/ERC721/ERC721.sol\":12333:12340  tokenId */\n      dup2\n        /* \"@openzeppelin/contracts/token/ERC721/ERC721.sol\":12310:12341  ERC721NonexistentToken(tokenId) */\n      mload(0x40)\n      0x7e27328900000000000000000000000000000000000000000000000000000000\n      dup2\n      mstore\n      0x04\n      add\n      tag_294\n      swap2\n      swap1\n      tag_81\n      jump\t// in\n    tag_294:\n      mload(0x40)\n      dup1\n      swap2\n      sub\n      swap1\n      revert\n        /* \"@openzeppelin/contracts/token/ERC721/ERC721.sol\":12256:12467  if (previousOwner == address(0)) {... */\n    tag_293:\n        /* \"@openzeppelin/contracts/token/ERC721/ERC721.sol\":12379:12383  from */\n      dup4\n        /* \"@openzeppelin/contracts/token/ERC721/ERC721.sol\":12362:12383  previousOwner != from */\n      0xffffffffffffffffffffffffffffffffffffffff\n      and\n        /* \"@openzeppelin/contracts/token/ERC721/ERC721.sol\":12362:12375  previousOwner */\n      dup2\n        /* \"@openzeppelin/contracts/token/ERC721/ERC721.sol\":12362:12383  previousOwner != from */\n      0xffffffffffffffffffffffffffffffffffffffff\n      and\n      eq\n        /* \"@openzeppelin/contracts/token/ERC721/ERC721.sol\":12358:12467  if (previousOwner != from) {... */\n      tag_296\n      jumpi\n        /* \"@openzeppelin/contracts/token/ERC721/ERC721.sol\":12427:12431  from */\n      dup4\n        /* \"@openzeppelin/contracts/token/ERC721/ERC721.sol\":12433:12440  tokenId */\n      dup3\n        /* \"@openzeppelin/contracts/token/ERC721/ERC721.sol\":12442:12455  previousOwner */\n      dup3\n        /* \"@openzeppelin/contracts/token/ERC721/ERC721.sol\":12406:12456  ERC721IncorrectOwner(from, tokenId, previousOwner) */\n      mload(0x40)\n      0x64283d7b00000000000000000000000000000000000000000000000000000000\n      dup2\n      mstore\n      0x04\n      add\n      tag_297\n      swap4\n      swap3\n      swap2\n      swap1\n      tag_172\n      jump\t// in\n    tag_297:\n      mload(0x40)\n      dup1\n      swap2\n      sub\n      swap1\n      revert\n        /* \"@openzeppelin/contracts/token/ERC721/ERC721.sol\":12358:12467  if (previousOwner != from) {... */\n    tag_296:\n        /* \"@openzeppelin/contracts/token/ERC721/ERC721.sol\":12084:12473  {... */\n      pop\n        /* \"@openzeppelin/contracts/token/ERC721/ERC721.sol\":12013:12473  function _transfer(address from, address to, uint256 tokenId) internal {... */\n      pop\n      pop\n      pop\n      jump\t// out\n        /* \"@openzeppelin/contracts/token/ERC721/ERC721.sol\":15591:15903  function _setApprovalForAll(address owner, address operator, bool approved) internal virtual {... */\n    tag_235:\n        /* \"@openzeppelin/contracts/token/ERC721/ERC721.sol\":15718:15719  0 */\n      0x00\n        /* \"@openzeppelin/contracts/token/ERC721/ERC721.sol\":15698:15720  operator == address(0) */\n      0xffffffffffffffffffffffffffffffffffffffff\n      and\n        /* \"@openzeppelin/contracts/token/ERC721/ERC721.sol\":15698:15706  operator */\n      dup3\n        /* \"@openzeppelin/contracts/token/ERC721/ERC721.sol\":15698:15720  operator == address(0) */\n      0xffffffffffffffffffffffffffffffffffffffff\n      and\n      sub\n        /* \"@openzeppelin/contracts/token/ERC721/ERC721.sol\":15694:15785  if (operator == address(0)) {... */\n      tag_299\n      jumpi\n        /* \"@openzeppelin/contracts/token/ERC721/ERC721.sol\":15765:15773  operator */\n      dup2\n        /* \"@openzeppelin/contracts/token/ERC721/ERC721.sol\":15743:15774  ERC721InvalidOperator(operator) */\n      mload(0x40)\n      0x5b08ba1800000000000000000000000000000000000000000000000000000000\n      dup2\n      mstore\n      0x04\n      add\n      tag_300\n      swap2\n      swap1\n      tag_46\n      jump\t// in\n    tag_300:\n      mload(0x40)\n      dup1\n      swap2\n      sub\n      swap1\n      revert\n        /* \"@openzeppelin/contracts/token/ERC721/ERC721.sol\":15694:15785  if (operator == address(0)) {... */\n    tag_299:\n        /* \"@openzeppelin/contracts/token/ERC721/ERC721.sol\":15832:15840  approved */\n      dup1\n        /* \"@openzeppelin/contracts/token/ERC721/ERC721.sol\":15794:15812  _operatorApprovals */\n      0x05\n        /* \"@openzeppelin/contracts/token/ERC721/ERC721.sol\":15794:15819  _operatorApprovals[owner] */\n      0x00\n        /* \"@openzeppelin/contracts/token/ERC721/ERC721.sol\":15813:15818  owner */\n      dup6\n        /* \"@openzeppelin/contracts/token/ERC721/ERC721.sol\":15794:15819  _operatorApprovals[owner] */\n      0xffffffffffffffffffffffffffffffffffffffff\n      and\n      0xffffffffffffffffffffffffffffffffffffffff\n      and\n      dup2\n      mstore\n      0x20\n      add\n      swap1\n      dup2\n      mstore\n      0x20\n      add\n      0x00\n      keccak256\n        /* \"@openzeppelin/contracts/token/ERC721/ERC721.sol\":15794:15829  _operatorApprovals[owner][operator] */\n      0x00\n        /* \"@openzeppelin/contracts/token/ERC721/ERC721.sol\":15820:15828  operator */\n      dup5\n        /* \"@openzeppelin/contracts/token/ERC721/ERC721.sol\":15794:15829  _operatorApprovals[owner][operator] */\n      0xffffffffffffffffffffffffffffffffffffffff\n      and\n      0xffffffffffffffffffffffffffffffffffffffff\n      and\n      dup2\n      mstore\n      0x20\n      add\n      swap1\n      dup2\n      mstore\n      0x20\n      add\n      0x00\n      keccak256\n      0x00\n        /* \"@openzeppelin/contracts/token/ERC721/ERC721.sol\":15794:15840  _operatorApprovals[owner][operator] = approved */\n      0x0100\n      exp\n      dup2\n      sload\n      dup2\n      0xff\n      mul\n      not\n      and\n      swap1\n      dup4\n      iszero\n      iszero\n      mul\n      or\n      swap1\n      sstore\n      pop\n        /* \"@openzeppelin/contracts/token/ERC721/ERC721.sol\":15877:15885  operator */\n      dup2\n        /* \"@openzeppelin/contracts/token/ERC721/ERC721.sol\":15855:15896  ApprovalForAll(owner, operator, approved) */\n      0xffffffffffffffffffffffffffffffffffffffff\n      and\n        /* \"@openzeppelin/contracts/token/ERC721/ERC721.sol\":15870:15875  owner */\n      dup4\n        /* \"@openzeppelin/contracts/token/ERC721/ERC721.sol\":15855:15896  ApprovalForAll(owner, operator, approved) */\n      0xffffffffffffffffffffffffffffffffffffffff\n      and\n      0x17307eab39ab6107e8899845ad3d59bd9653f200f220920489ca2b5937696c31\n        /* \"@openzeppelin/contracts/token/ERC721/ERC721.sol\":15887:15895  approved */\n      dup4\n        /* \"@openzeppelin/contracts/token/ERC721/ERC721.sol\":15855:15896  ApprovalForAll(owner, operator, approved) */\n      mload(0x40)\n      tag_301\n      swap2\n      swap1\n      tag_34\n      jump\t// in\n    tag_301:\n      mload(0x40)\n      dup1\n      swap2\n      sub\n      swap1\n      log3\n        /* \"@openzeppelin/contracts/token/ERC721/ERC721.sol\":15591:15903  function _setApprovalForAll(address owner, address operator, bool approved) internal virtual {... */\n      pop\n      pop\n      pop\n      jump\t// out\n        /* \"@openzeppelin/contracts/token/ERC721/ERC721.sol\":16918:17700  function _checkOnERC721Received(address from, address to, uint256 tokenId, bytes memory data) private {... */\n    tag_239:\n        /* \"@openzeppelin/contracts/token/ERC721/ERC721.sol\":17051:17052  0 */\n      0x00\n        /* \"@openzeppelin/contracts/token/ERC721/ERC721.sol\":17034:17036  to */\n      dup4\n        /* \"@openzeppelin/contracts/token/ERC721/ERC721.sol\":17034:17048  to.code.length */\n      0xffffffffffffffffffffffffffffffffffffffff\n      and\n      extcodesize\n        /* \"@openzeppelin/contracts/token/ERC721/ERC721.sol\":17034:17052  to.code.length > 0 */\n      gt\n        /* \"@openzeppelin/contracts/token/ERC721/ERC721.sol\":17030:17694  if (to.code.length > 0) {... */\n      iszero\n      tag_303\n      jumpi\n        /* \"@openzeppelin/contracts/token/ERC721/ERC721.sol\":17088:17090  to */\n      dup3\n        /* \"@openzeppelin/contracts/token/ERC721/ERC721.sol\":17072:17108  IERC721Receiver(to).onERC721Received */\n      0xffffffffffffffffffffffffffffffffffffffff\n      and\n      0x150b7a02\n        /* \"@openzeppelin/contracts/token/ERC721/ERC721.sol\":17109:17121  _msgSender() */\n      tag_304\n        /* \"@openzeppelin/contracts/token/ERC721/ERC721.sol\":17109:17119  _msgSender */\n      tag_162\n        /* \"@openzeppelin/contracts/token/ERC721/ERC721.sol\":17109:17121  _msgSender() */\n      jump\t// in\n    tag_304:\n        /* \"@openzeppelin/contracts/token/ERC721/ERC721.sol\":17123:17127  from */\n      dup7\n        /* \"@openzeppelin/contracts/token/ERC721/ERC721.sol\":17129:17136  tokenId */\n      dup6\n        /* \"@openzeppelin/contracts/token/ERC721/ERC721.sol\":17138:17142  data */\n      dup6\n        /* \"@openzeppelin/contracts/token/ERC721/ERC721.sol\":17072:17143  IERC721Receiver(to).onERC721Received(_msgSender(), from, tokenId, data) */\n      mload(0x40)\n      dup6\n      0xffffffff\n      and\n      0xe0\n      shl\n      dup2\n      mstore\n      0x04\n      add\n      tag_305\n      swap5\n      swap4\n      swap3\n      swap2\n      swap1\n      tag_306\n      jump\t// in\n    tag_305:\n      0x20\n      mload(0x40)\n      dup1\n      dup4\n      sub\n      dup2\n      0x00\n      dup8\n      gas\n      call\n      swap3\n      pop\n      pop\n      pop\n      dup1\n      iszero\n      tag_307\n      jumpi\n      pop\n      mload(0x40)\n      returndatasize\n      not(0x1f)\n      0x1f\n      dup3\n      add\n      and\n      dup3\n      add\n      dup1\n      0x40\n      mstore\n      pop\n      dup2\n      add\n      swap1\n      tag_308\n      swap2\n      swap1\n      tag_309\n      jump\t// in\n    tag_308:\n      0x01\n    tag_307:\n        /* \"@openzeppelin/contracts/token/ERC721/ERC721.sol\":17068:17684  try IERC721Receiver(to).onERC721Received(_msgSender(), from, tokenId, data) returns (bytes4 retval) {... */\n      tag_310\n      jumpi\n      returndatasize\n      dup1\n      0x00\n      dup2\n      eq\n      tag_315\n      jumpi\n      mload(0x40)\n      swap2\n      pop\n      and(add(returndatasize, 0x3f), not(0x1f))\n      dup3\n      add\n      0x40\n      mstore\n      returndatasize\n      dup3\n      mstore\n      returndatasize\n      0x00\n      0x20\n      dup5\n      add\n      returndatacopy\n      jump(tag_314)\n    tag_315:\n      0x60\n      swap2\n      pop\n    tag_314:\n      pop\n        /* \"@openzeppelin/contracts/token/ERC721/ERC721.sol\":17398:17399  0 */\n      0x00\n        /* \"@openzeppelin/contracts/token/ERC721/ERC721.sol\":17381:17387  reason */\n      dup2\n        /* \"@openzeppelin/contracts/token/ERC721/ERC721.sol\":17381:17394  reason.length */\n      mload\n        /* \"@openzeppelin/contracts/token/ERC721/ERC721.sol\":17381:17399  reason.length == 0 */\n      sub\n        /* \"@openzeppelin/contracts/token/ERC721/ERC721.sol\":17377:17670  if (reason.length == 0) {... */\n      tag_316\n      jumpi\n        /* \"@openzeppelin/contracts/token/ERC721/ERC721.sol\":17452:17454  to */\n      dup4\n        /* \"@openzeppelin/contracts/token/ERC721/ERC721.sol\":17430:17455  ERC721InvalidReceiver(to) */\n      mload(0x40)\n      0x64a0ae9200000000000000000000000000000000000000000000000000000000\n      dup2\n      mstore\n      0x04\n      add\n      tag_317\n      swap2\n      swap1\n      tag_46\n      jump\t// in\n    tag_317:\n      mload(0x40)\n      dup1\n      swap2\n      sub\n      swap1\n      revert\n        /* \"@openzeppelin/contracts/token/ERC721/ERC721.sol\":17377:17670  if (reason.length == 0) {... */\n    tag_316:\n        /* \"@openzeppelin/contracts/token/ERC721/ERC721.sol\":17622:17628  reason */\n      dup1\n        /* \"@openzeppelin/contracts/token/ERC721/ERC721.sol\":17616:17629  mload(reason) */\n      mload\n        /* \"@openzeppelin/contracts/token/ERC721/ERC721.sol\":17607:17613  reason */\n      dup2\n        /* \"@openzeppelin/contracts/token/ERC721/ERC721.sol\":17603:17605  32 */\n      0x20\n        /* \"@openzeppelin/contracts/token/ERC721/ERC721.sol\":17599:17614  add(32, reason) */\n      add\n        /* \"@openzeppelin/contracts/token/ERC721/ERC721.sol\":17592:17630  revert(add(32, reason), mload(reason)) */\n      revert\n        /* \"@openzeppelin/contracts/token/ERC721/ERC721.sol\":17068:17684  try IERC721Receiver(to).onERC721Received(_msgSender(), from, tokenId, data) returns (bytes4 retval) {... */\n    tag_310:\n        /* \"@openzeppelin/contracts/token/ERC721/ERC721.sol\":17200:17241  IERC721Receiver.onERC721Received.selector */\n      shl(0xe0, 0x150b7a02)\n        /* \"@openzeppelin/contracts/token/ERC721/ERC721.sol\":17190:17241  retval != IERC721Receiver.onERC721Received.selector */\n      not(0xffffffffffffffffffffffffffffffffffffffffffffffffffffffff)\n      and\n        /* \"@openzeppelin/contracts/token/ERC721/ERC721.sol\":17190:17196  retval */\n      dup2\n        /* \"@openzeppelin/contracts/token/ERC721/ERC721.sol\":17190:17241  retval != IERC721Receiver.onERC721Received.selector */\n      not(0xffffffffffffffffffffffffffffffffffffffffffffffffffffffff)\n      and\n      eq\n        /* \"@openzeppelin/contracts/token/ERC721/ERC721.sol\":17186:17316  if (retval != IERC721Receiver.onERC721Received.selector) {... */\n      tag_320\n      jumpi\n        /* \"@openzeppelin/contracts/token/ERC721/ERC721.sol\":17294:17296  to */\n      dup4\n        /* \"@openzeppelin/contracts/token/ERC721/ERC721.sol\":17272:17297  ERC721InvalidReceiver(to) */\n      mload(0x40)\n      0x64a0ae9200000000000000000000000000000000000000000000000000000000\n      dup2\n      mstore\n      0x04\n      add\n      tag_321\n      swap2\n      swap1\n      tag_46\n      jump\t// in\n    tag_321:\n      mload(0x40)\n      dup1\n      swap2\n      sub\n      swap1\n      revert\n        /* \"@openzeppelin/contracts/token/ERC721/ERC721.sol\":17186:17316  if (retval != IERC721Receiver.onERC721Received.selector) {... */\n    tag_320:\n        /* \"@openzeppelin/contracts/token/ERC721/ERC721.sol\":17144:17330  returns (bytes4 retval) {... */\n      pop\n        /* \"@openzeppelin/contracts/token/ERC721/ERC721.sol\":17030:17694  if (to.code.length > 0) {... */\n    tag_303:\n        /* \"@openzeppelin/contracts/token/ERC721/ERC721.sol\":16918:17700  function _checkOnERC721Received(address from, address to, uint256 tokenId, bytes memory data) private {... */\n      pop\n      pop\n      pop\n      pop\n      jump\t// out\n        /* \"@openzeppelin/contracts/token/ERC721/ERC721.sol\":3174:3266  function _baseURI() internal view virtual returns (string memory) {... */\n    tag_243:\n        /* \"@openzeppelin/contracts/token/ERC721/ERC721.sol\":3225:3238  string memory */\n      0x60\n        /* \"@openzeppelin/contracts/token/ERC721/ERC721.sol\":3250:3259  return \"\" */\n      mload(0x40)\n      dup1\n      0x20\n      add\n      0x40\n      mstore\n      dup1\n      0x00\n      dup2\n      mstore\n      pop\n      swap1\n      pop\n        /* \"@openzeppelin/contracts/token/ERC721/ERC721.sol\":3174:3266  function _baseURI() internal view virtual returns (string memory) {... */\n      swap1\n      jump\t// out\n        /* \"@openzeppelin/contracts/utils/Strings.sol\":637:1335  function toString(uint256 value) internal pure returns (string memory) {... */\n    tag_247:\n        /* \"@openzeppelin/contracts/utils/Strings.sol\":693:706  string memory */\n      0x60\n        /* \"@openzeppelin/contracts/utils/Strings.sol\":742:756  uint256 length */\n      0x00\n        /* \"@openzeppelin/contracts/utils/Strings.sol\":779:780  1 */\n      0x01\n        /* \"@openzeppelin/contracts/utils/Strings.sol\":759:776  Math.log10(value) */\n      tag_324\n        /* \"@openzeppelin/contracts/utils/Strings.sol\":770:775  value */\n      dup5\n        /* \"@openzeppelin/contracts/utils/Strings.sol\":759:769  Math.log10 */\n      tag_325\n        /* \"@openzeppelin/contracts/utils/Strings.sol\":759:776  Math.log10(value) */\n      jump\t// in\n    tag_324:\n        /* \"@openzeppelin/contracts/utils/Strings.sol\":759:780  Math.log10(value) + 1 */\n      add\n        /* \"@openzeppelin/contracts/utils/Strings.sol\":742:780  uint256 length = Math.log10(value) + 1 */\n      swap1\n      pop\n        /* \"@openzeppelin/contracts/utils/Strings.sol\":794:814  string memory buffer */\n      0x00\n        /* \"@openzeppelin/contracts/utils/Strings.sol\":828:834  length */\n      dup2\n        /* \"@openzeppelin/contracts/utils/Strings.sol\":817:835  new string(length) */\n      0xffffffffffffffff\n      dup2\n      gt\n      iszero\n      tag_326\n      jumpi\n      tag_327\n      tag_328\n      jump\t// in\n    tag_327:\n    tag_326:\n      mload(0x40)\n      swap1\n      dup1\n      dup3\n      mstore\n      dup1\n      0x1f\n      add\n      not(0x1f)\n      and\n      0x20\n      add\n      dup3\n      add\n      0x40\n      mstore\n      dup1\n      iszero\n      tag_329\n      jumpi\n      dup2\n      0x20\n      add\n      0x01\n      dup3\n      mul\n      dup1\n      calldatasize\n      dup4\n      calldatacopy\n      dup1\n      dup3\n      add\n      swap2\n      pop\n      pop\n      swap1\n      pop\n    tag_329:\n      pop\n        /* \"@openzeppelin/contracts/utils/Strings.sol\":794:835  string memory buffer = new string(length) */\n      swap1\n      pop\n        /* \"@openzeppelin/contracts/utils/Strings.sol\":849:860  uint256 ptr */\n      0x00\n        /* \"@openzeppelin/contracts/utils/Strings.sol\":975:981  length */\n      dup3\n        /* \"@openzeppelin/contracts/utils/Strings.sol\":971:973  32 */\n      0x20\n        /* \"@openzeppelin/contracts/utils/Strings.sol\":967:982  add(32, length) */\n      add\n        /* \"@openzeppelin/contracts/utils/Strings.sol\":959:965  buffer */\n      dup3\n        /* \"@openzeppelin/contracts/utils/Strings.sol\":955:983  add(buffer, add(32, length)) */\n      add\n        /* \"@openzeppelin/contracts/utils/Strings.sol\":948:983  ptr := add(buffer, add(32, length)) */\n      swap1\n      pop\n        /* \"@openzeppelin/contracts/utils/Strings.sol\":1010:1292  while (true) {... */\n    tag_330:\n        /* \"@openzeppelin/contracts/utils/Strings.sol\":1017:1021  true */\n      0x01\n        /* \"@openzeppelin/contracts/utils/Strings.sol\":1010:1292  while (true) {... */\n      iszero\n      tag_331\n      jumpi\n        /* \"@openzeppelin/contracts/utils/Strings.sol\":1041:1046  ptr-- */\n      dup1\n      dup1\n      0x01\n      swap1\n      sub\n      swap2\n      pop\n      pop\n        /* \"@openzeppelin/contracts/utils/Strings.sol\":1180:1190  HEX_DIGITS */\n      0x3031323334353637383961626364656600000000000000000000000000000000\n        /* \"@openzeppelin/contracts/utils/Strings.sol\":1175:1177  10 */\n      0x0a\n        /* \"@openzeppelin/contracts/utils/Strings.sol\":1168:1173  value */\n      dup7\n        /* \"@openzeppelin/contracts/utils/Strings.sol\":1164:1178  mod(value, 10) */\n      mod\n        /* \"@openzeppelin/contracts/utils/Strings.sol\":1159:1191  byte(mod(value, 10), HEX_DIGITS) */\n      byte\n        /* \"@openzeppelin/contracts/utils/Strings.sol\":1154:1157  ptr */\n      dup2\n        /* \"@openzeppelin/contracts/utils/Strings.sol\":1146:1192  mstore8(ptr, byte(mod(value, 10), HEX_DIGITS)) */\n      mstore8\n        /* \"@openzeppelin/contracts/utils/Strings.sol\":1236:1238  10 */\n      0x0a\n        /* \"@openzeppelin/contracts/utils/Strings.sol\":1227:1238  value /= 10 */\n      dup6\n      dup2\n      tag_332\n      jumpi\n      tag_333\n      tag_334\n      jump\t// in\n    tag_333:\n    tag_332:\n      div\n      swap5\n      pop\n        /* \"@openzeppelin/contracts/utils/Strings.sol\":1269:1270  0 */\n      0x00\n        /* \"@openzeppelin/contracts/utils/Strings.sol\":1260:1265  value */\n      dup6\n        /* \"@openzeppelin/contracts/utils/Strings.sol\":1260:1270  value == 0 */\n      sub\n        /* \"@openzeppelin/contracts/utils/Strings.sol\":1010:1292  while (true) {... */\n      tag_330\n        /* \"@openzeppelin/contracts/utils/Strings.sol\":1256:1277  if (value == 0) break */\n      jumpi\n        /* \"@openzeppelin/contracts/utils/Strings.sol\":1010:1292  while (true) {... */\n    tag_331:\n        /* \"@openzeppelin/contracts/utils/Strings.sol\":1312:1318  buffer */\n      dup2\n        /* \"@openzeppelin/contracts/utils/Strings.sol\":1305:1318  return buffer */\n      swap4\n      pop\n      pop\n      pop\n      pop\n        /* \"@openzeppelin/contracts/utils/Strings.sol\":637:1335  function toString(uint256 value) internal pure returns (string memory) {... */\n      swap2\n      swap1\n      pop\n      jump\t// out\n        /* \"@openzeppelin/contracts/token/ERC721/ERC721.sol\":5707:5822  function _ownerOf(uint256 tokenId) internal view virtual returns (address) {... */\n    tag_260:\n        /* \"@openzeppelin/contracts/token/ERC721/ERC721.sol\":5773:5780  address */\n      0x00\n        /* \"@openzeppelin/contracts/token/ERC721/ERC721.sol\":5799:5806  _owners */\n      0x02\n        /* \"@openzeppelin/contracts/token/ERC721/ERC721.sol\":5799:5815  _owners[tokenId] */\n      0x00\n        /* \"@openzeppelin/contracts/token/ERC721/ERC721.sol\":5807:5814  tokenId */\n      dup4\n        /* \"@openzeppelin/contracts/token/ERC721/ERC721.sol\":5799:5815  _owners[tokenId] */\n      dup2\n      mstore\n      0x20\n      add\n      swap1\n      dup2\n      mstore\n      0x20\n      add\n      0x00\n      keccak256\n      0x00\n      swap1\n      sload\n      swap1\n      0x0100\n      exp\n      swap1\n      div\n      0xffffffffffffffffffffffffffffffffffffffff\n      and\n        /* \"@openzeppelin/contracts/token/ERC721/ERC721.sol\":5792:5815  return _owners[tokenId] */\n      swap1\n      pop\n        /* \"@openzeppelin/contracts/token/ERC721/ERC721.sol\":5707:5822  function _ownerOf(uint256 tokenId) internal view virtual returns (address) {... */\n      swap2\n      swap1\n      pop\n      jump\t// out\n        /* \"@openzeppelin/contracts/token/ERC721/ERC721.sol\":14720:15382  function _approve(address to, uint256 tokenId, address auth, bool emitEvent) internal virtual {... */\n    tag_267:\n        /* \"@openzeppelin/contracts/token/ERC721/ERC721.sol\":14880:14889  emitEvent */\n      dup1\n        /* \"@openzeppelin/contracts/token/ERC721/ERC721.sol\":14880:14911  emitEvent || auth != address(0) */\n      dup1\n      tag_338\n      jumpi\n      pop\n        /* \"@openzeppelin/contracts/token/ERC721/ERC721.sol\":14909:14910  0 */\n      0x00\n        /* \"@openzeppelin/contracts/token/ERC721/ERC721.sol\":14893:14911  auth != address(0) */\n      0xffffffffffffffffffffffffffffffffffffffff\n      and\n        /* \"@openzeppelin/contracts/token/ERC721/ERC721.sol\":14893:14897  auth */\n      dup3\n        /* \"@openzeppelin/contracts/token/ERC721/ERC721.sol\":14893:14911  auth != address(0) */\n      0xffffffffffffffffffffffffffffffffffffffff\n      and\n      eq\n      iszero\n        /* \"@openzeppelin/contracts/token/ERC721/ERC721.sol\":14880:14911  emitEvent || auth != address(0) */\n    tag_338:\n        /* \"@openzeppelin/contracts/token/ERC721/ERC721.sol\":14876:15336  if (emitEvent || auth != address(0)) {... */\n      iszero\n      tag_339\n      jumpi\n        /* \"@openzeppelin/contracts/token/ERC721/ERC721.sol\":14927:14940  address owner */\n      0x00\n        /* \"@openzeppelin/contracts/token/ERC721/ERC721.sol\":14943:14965  _requireOwned(tokenId) */\n      tag_340\n        /* \"@openzeppelin/contracts/token/ERC721/ERC721.sol\":14957:14964  tokenId */\n      dup5\n        /* \"@openzeppelin/contracts/token/ERC721/ERC721.sol\":14943:14956  _requireOwned */\n      tag_156\n        /* \"@openzeppelin/contracts/token/ERC721/ERC721.sol\":14943:14965  _requireOwned(tokenId) */\n      jump\t// in\n    tag_340:\n        /* \"@openzeppelin/contracts/token/ERC721/ERC721.sol\":14927:14965  address owner = _requireOwned(tokenId) */\n      swap1\n      pop\n        /* \"@openzeppelin/contracts/token/ERC721/ERC721.sol\":15109:15110  0 */\n      0x00\n        /* \"@openzeppelin/contracts/token/ERC721/ERC721.sol\":15093:15111  auth != address(0) */\n      0xffffffffffffffffffffffffffffffffffffffff\n      and\n        /* \"@openzeppelin/contracts/token/ERC721/ERC721.sol\":15093:15097  auth */\n      dup4\n        /* \"@openzeppelin/contracts/token/ERC721/ERC721.sol\":15093:15111  auth != address(0) */\n      0xffffffffffffffffffffffffffffffffffffffff\n      and\n      eq\n      iszero\n        /* \"@openzeppelin/contracts/token/ERC721/ERC721.sol\":15093:15128  auth != address(0) && owner != auth */\n      dup1\n      iszero\n      tag_341\n      jumpi\n      pop\n        /* \"@openzeppelin/contracts/token/ERC721/ERC721.sol\":15124:15128  auth */\n      dup3\n        /* \"@openzeppelin/contracts/token/ERC721/ERC721.sol\":15115:15128  owner != auth */\n      0xffffffffffffffffffffffffffffffffffffffff\n      and\n        /* \"@openzeppelin/contracts/token/ERC721/ERC721.sol\":15115:15120  owner */\n      dup2\n        /* \"@openzeppelin/contracts/token/ERC721/ERC721.sol\":15115:15128  owner != auth */\n      0xffffffffffffffffffffffffffffffffffffffff\n      and\n      eq\n      iszero\n        /* \"@openzeppelin/contracts/token/ERC721/ERC721.sol\":15093:15128  auth != address(0) && owner != auth */\n    tag_341:\n        /* \"@openzeppelin/contracts/token/ERC721/ERC721.sol\":15093:15162  auth != address(0) && owner != auth && !isApprovedForAll(owner, auth) */\n      dup1\n      iszero\n      tag_342\n      jumpi\n      pop\n        /* \"@openzeppelin/contracts/token/ERC721/ERC721.sol\":15133:15162  isApprovedForAll(owner, auth) */\n      tag_343\n        /* \"@openzeppelin/contracts/token/ERC721/ERC721.sol\":15150:15155  owner */\n      dup2\n        /* \"@openzeppelin/contracts/token/ERC721/ERC721.sol\":15157:15161  auth */\n      dup5\n        /* \"@openzeppelin/contracts/token/ERC721/ERC721.sol\":15133:15149  isApprovedForAll */\n      tag_136\n        /* \"@openzeppelin/contracts/token/ERC721/ERC721.sol\":15133:15162  isApprovedForAll(owner, auth) */\n      jump\t// in\n    tag_343:\n        /* \"@openzeppelin/contracts/token/ERC721/ERC721.sol\":15132:15162  !isApprovedForAll(owner, auth) */\n      iszero\n        /* \"@openzeppelin/contracts/token/ERC721/ERC721.sol\":15093:15162  auth != address(0) && owner != auth && !isApprovedForAll(owner, auth) */\n    tag_342:\n        /* \"@openzeppelin/contracts/token/ERC721/ERC721.sol\":15089:15231  if (auth != address(0) && owner != auth && !isApprovedForAll(owner, auth)) {... */\n      iszero\n      tag_344\n      jumpi\n        /* \"@openzeppelin/contracts/token/ERC721/ERC721.sol\":15211:15215  auth */\n      dup3\n        /* \"@openzeppelin/contracts/token/ERC721/ERC721.sol\":15189:15216  ERC721InvalidApprover(auth) */\n      mload(0x40)\n      0xa9fbf51f00000000000000000000000000000000000000000000000000000000\n      dup2\n      mstore\n      0x04\n      add\n      tag_345\n      swap2\n      swap1\n      tag_46\n      jump\t// in\n    tag_345:\n      mload(0x40)\n      dup1\n      swap2\n      sub\n      swap1\n      revert\n        /* \"@openzeppelin/contracts/token/ERC721/ERC721.sol\":15089:15231  if (auth != address(0) && owner != auth && !isApprovedForAll(owner, auth)) {... */\n    tag_344:\n        /* \"@openzeppelin/contracts/token/ERC721/ERC721.sol\":15249:15258  emitEvent */\n      dup2\n        /* \"@openzeppelin/contracts/token/ERC721/ERC721.sol\":15245:15326  if (emitEvent) {... */\n      iszero\n      tag_346\n      jumpi\n        /* \"@openzeppelin/contracts/token/ERC721/ERC721.sol\":15303:15310  tokenId */\n      dup4\n        /* \"@openzeppelin/contracts/token/ERC721/ERC721.sol\":15299:15301  to */\n      dup6\n        /* \"@openzeppelin/contracts/token/ERC721/ERC721.sol\":15283:15311  Approval(owner, to, tokenId) */\n      0xffffffffffffffffffffffffffffffffffffffff\n      and\n        /* \"@openzeppelin/contracts/token/ERC721/ERC721.sol\":15292:15297  owner */\n      dup3\n        /* \"@openzeppelin/contracts/token/ERC721/ERC721.sol\":15283:15311  Approval(owner, to, tokenId) */\n      0xffffffffffffffffffffffffffffffffffffffff\n      and\n      0x8c5be1e5ebec7d5bd14f71427d1e84f3dd0314c0f7b2291e5b200ac8c7c3b925\n      mload(0x40)\n      mload(0x40)\n      dup1\n      swap2\n      sub\n      swap1\n      log4\n        /* \"@openzeppelin/contracts/token/ERC721/ERC721.sol\":15245:15326  if (emitEvent) {... */\n    tag_346:\n        /* \"@openzeppelin/contracts/token/ERC721/ERC721.sol\":14913:15336  {... */\n      pop\n        /* \"@openzeppelin/contracts/token/ERC721/ERC721.sol\":14876:15336  if (emitEvent || auth != address(0)) {... */\n    tag_339:\n        /* \"@openzeppelin/contracts/token/ERC721/ERC721.sol\":15373:15375  to */\n      dup4\n        /* \"@openzeppelin/contracts/token/ERC721/ERC721.sol\":15346:15361  _tokenApprovals */\n      0x04\n        /* \"@openzeppelin/contracts/token/ERC721/ERC721.sol\":15346:15370  _tokenApprovals[tokenId] */\n      0x00\n        /* \"@openzeppelin/contracts/token/ERC721/ERC721.sol\":15362:15369  tokenId */\n      dup6\n        /* \"@openzeppelin/contracts/token/ERC721/ERC721.sol\":15346:15370  _tokenApprovals[tokenId] */\n      dup2\n      mstore\n      0x20\n      add\n      swap1\n      dup2\n      mstore\n      0x20\n      add\n      0x00\n      keccak256\n      0x00\n        /* \"@openzeppelin/contracts/token/ERC721/ERC721.sol\":15346:15375  _tokenApprovals[tokenId] = to */\n      0x0100\n      exp\n      dup2\n      sload\n      dup2\n      0xffffffffffffffffffffffffffffffffffffffff\n      mul\n      not\n      and\n      swap1\n      dup4\n      0xffffffffffffffffffffffffffffffffffffffff\n      and\n      mul\n      or\n      swap1\n      sstore\n      pop\n        /* \"@openzeppelin/contracts/token/ERC721/ERC721.sol\":14720:15382  function _approve(address to, uint256 tokenId, address auth, bool emitEvent) internal virtual {... */\n      pop\n      pop\n      pop\n      pop\n      jump\t// out\n        /* \"@openzeppelin/contracts/token/ERC721/ERC721.sol\":7082:7450  function _checkAuthorized(address owner, address spender, uint256 tokenId) internal view virtual {... */\n    tag_272:\n        /* \"@openzeppelin/contracts/token/ERC721/ERC721.sol\":7194:7232  _isAuthorized(owner, spender, tokenId) */\n      tag_348\n        /* \"@openzeppelin/contracts/token/ERC721/ERC721.sol\":7208:7213  owner */\n      dup4\n        /* \"@openzeppelin/contracts/token/ERC721/ERC721.sol\":7215:7222  spender */\n      dup4\n        /* \"@openzeppelin/contracts/token/ERC721/ERC721.sol\":7224:7231  tokenId */\n      dup4\n        /* \"@openzeppelin/contracts/token/ERC721/ERC721.sol\":7194:7207  _isAuthorized */\n      tag_349\n        /* \"@openzeppelin/contracts/token/ERC721/ERC721.sol\":7194:7232  _isAuthorized(owner, spender, tokenId) */\n      jump\t// in\n    tag_348:\n        /* \"@openzeppelin/contracts/token/ERC721/ERC721.sol\":7189:7444  if (!_isAuthorized(owner, spender, tokenId)) {... */\n      tag_350\n      jumpi\n        /* \"@openzeppelin/contracts/token/ERC721/ERC721.sol\":7269:7270  0 */\n      0x00\n        /* \"@openzeppelin/contracts/token/ERC721/ERC721.sol\":7252:7271  owner == address(0) */\n      0xffffffffffffffffffffffffffffffffffffffff\n      and\n        /* \"@openzeppelin/contracts/token/ERC721/ERC721.sol\":7252:7257  owner */\n      dup4\n        /* \"@openzeppelin/contracts/token/ERC721/ERC721.sol\":7252:7271  owner == address(0) */\n      0xffffffffffffffffffffffffffffffffffffffff\n      and\n      sub\n        /* \"@openzeppelin/contracts/token/ERC721/ERC721.sol\":7248:7434  if (owner == address(0)) {... */\n      tag_351\n      jumpi\n        /* \"@openzeppelin/contracts/token/ERC721/ERC721.sol\":7321:7328  tokenId */\n      dup1\n        /* \"@openzeppelin/contracts/token/ERC721/ERC721.sol\":7298:7329  ERC721NonexistentToken(tokenId) */\n      mload(0x40)\n      0x7e27328900000000000000000000000000000000000000000000000000000000\n      dup2\n      mstore\n      0x04\n      add\n      tag_352\n      swap2\n      swap1\n      tag_81\n      jump\t// in\n    tag_352:\n      mload(0x40)\n      dup1\n      swap2\n      sub\n      swap1\n      revert\n        /* \"@openzeppelin/contracts/token/ERC721/ERC721.sol\":7248:7434  if (owner == address(0)) {... */\n    tag_351:\n        /* \"@openzeppelin/contracts/token/ERC721/ERC721.sol\":7402:7409  spender */\n      dup2\n        /* \"@openzeppelin/contracts/token/ERC721/ERC721.sol\":7411:7418  tokenId */\n      dup2\n        /* \"@openzeppelin/contracts/token/ERC721/ERC721.sol\":7375:7419  ERC721InsufficientApproval(spender, tokenId) */\n      mload(0x40)\n      0x177e802f00000000000000000000000000000000000000000000000000000000\n      dup2\n      mstore\n      0x04\n      add\n      tag_354\n      swap3\n      swap2\n      swap1\n      tag_355\n      jump\t// in\n    tag_354:\n      mload(0x40)\n      dup1\n      swap2\n      sub\n      swap1\n      revert\n        /* \"@openzeppelin/contracts/token/ERC721/ERC721.sol\":7189:7444  if (!_isAuthorized(owner, spender, tokenId)) {... */\n    tag_350:\n        /* \"@openzeppelin/contracts/token/ERC721/ERC721.sol\":7082:7450  function _checkAuthorized(address owner, address spender, uint256 tokenId) internal view virtual {... */\n      pop\n      pop\n      pop\n      jump\t// out\n        /* \"@openzeppelin/contracts/utils/math/Math.sol\":12214:13130  function log10(uint256 value) internal pure returns (uint256) {... */\n    tag_325:\n        /* \"@openzeppelin/contracts/utils/math/Math.sol\":12267:12274  uint256 */\n      0x00\n        /* \"@openzeppelin/contracts/utils/math/Math.sol\":12286:12300  uint256 result */\n      dup1\n        /* \"@openzeppelin/contracts/utils/math/Math.sol\":12303:12304  0 */\n      0x00\n        /* \"@openzeppelin/contracts/utils/math/Math.sol\":12286:12304  uint256 result = 0 */\n      swap1\n      pop\n        /* \"@openzeppelin/contracts/utils/math/Math.sol\":12351:12359  10 ** 64 */\n      0x184f03e93ff9f4daa797ed6e38ed64bf6a1f010000000000000000\n        /* \"@openzeppelin/contracts/utils/math/Math.sol\":12342:12347  value */\n      dup4\n        /* \"@openzeppelin/contracts/utils/math/Math.sol\":12342:12359  value >= 10 ** 64 */\n      lt\n        /* \"@openzeppelin/contracts/utils/math/Math.sol\":12338:12441  if (value >= 10 ** 64) {... */\n      tag_357\n      jumpi\n        /* \"@openzeppelin/contracts/utils/math/Math.sol\":12388:12396  10 ** 64 */\n      0x184f03e93ff9f4daa797ed6e38ed64bf6a1f010000000000000000\n        /* \"@openzeppelin/contracts/utils/math/Math.sol\":12379:12396  value /= 10 ** 64 */\n      dup4\n      dup2\n      tag_358\n      jumpi\n      tag_359\n      tag_334\n      jump\t// in\n    tag_359:\n    tag_358:\n      div\n      swap3\n      pop\n        /* \"@openzeppelin/contracts/utils/math/Math.sol\":12424:12426  64 */\n      0x40\n        /* \"@openzeppelin/contracts/utils/math/Math.sol\":12414:12426  result += 64 */\n      dup2\n      add\n      swap1\n      pop\n        /* \"@openzeppelin/contracts/utils/math/Math.sol\":12338:12441  if (value >= 10 ** 64) {... */\n    tag_357:\n        /* \"@openzeppelin/contracts/utils/math/Math.sol\":12467:12475  10 ** 32 */\n      0x04ee2d6d415b85acef8100000000\n        /* \"@openzeppelin/contracts/utils/math/Math.sol\":12458:12463  value */\n      dup4\n        /* \"@openzeppelin/contracts/utils/math/Math.sol\":12458:12475  value >= 10 ** 32 */\n      lt\n        /* \"@openzeppelin/contracts/utils/math/Math.sol\":12454:12557  if (value >= 10 ** 32) {... */\n      tag_360\n      jumpi\n        /* \"@openzeppelin/contracts/utils/math/Math.sol\":12504:12512  10 ** 32 */\n      0x04ee2d6d415b85acef8100000000\n        /* \"@openzeppelin/contracts/utils/math/Math.sol\":12495:12512  value /= 10 ** 32 */\n      dup4\n      dup2\n      tag_361\n      jumpi\n      tag_362\n      tag_334\n      jump\t// in\n    tag_362:\n    tag_361:\n      div\n      swap3\n      pop\n        /* \"@openzeppelin/contracts/utils/math/Math.sol\":12540:12542  32 */\n      0x20\n        /* \"@openzeppelin/contracts/utils/math/Math.sol\":12530:12542  result += 32 */\n      dup2\n      add\n      swap1\n      pop\n        /* \"@openzeppelin/contracts/utils/math/Math.sol\":12454:12557  if (value >= 10 ** 32) {... */\n    tag_360:\n        /* \"@openzeppelin/contracts/utils/math/Math.sol\":12583:12591  10 ** 16 */\n      0x2386f26fc10000\n        /* \"@openzeppelin/contracts/utils/math/Math.sol\":12574:12579  value */\n      dup4\n        /* \"@openzeppelin/contracts/utils/math/Math.sol\":12574:12591  value >= 10 ** 16 */\n      lt\n        /* \"@openzeppelin/contracts/utils/math/Math.sol\":12570:12673  if (value >= 10 ** 16) {... */\n      tag_363\n      jumpi\n        /* \"@openzeppelin/contracts/utils/math/Math.sol\":12620:12628  10 ** 16 */\n      0x2386f26fc10000\n        /* \"@openzeppelin/contracts/utils/math/Math.sol\":12611:12628  value /= 10 ** 16 */\n      dup4\n      dup2\n      tag_364\n      jumpi\n      tag_365\n      tag_334\n      jump\t// in\n    tag_365:\n    tag_364:\n      div\n      swap3\n      pop\n        /* \"@openzeppelin/contracts/utils/math/Math.sol\":12656:12658  16 */\n      0x10\n        /* \"@openzeppelin/contracts/utils/math/Math.sol\":12646:12658  result += 16 */\n      dup2\n      add\n      swap1\n      pop\n        /* \"@openzeppelin/contracts/utils/math/Math.sol\":12570:12673  if (value >= 10 ** 16) {... */\n    tag_363:\n        /* \"@openzeppelin/contracts/utils/math/Math.sol\":12699:12706  10 ** 8 */\n      0x05f5e100\n        /* \"@openzeppelin/contracts/utils/math/Math.sol\":12690:12695  value */\n      dup4\n        /* \"@openzeppelin/contracts/utils/math/Math.sol\":12690:12706  value >= 10 ** 8 */\n      lt\n        /* \"@openzeppelin/contracts/utils/math/Math.sol\":12686:12786  if (value >= 10 ** 8) {... */\n      tag_366\n      jumpi\n        /* \"@openzeppelin/contracts/utils/math/Math.sol\":12735:12742  10 ** 8 */\n      0x05f5e100\n        /* \"@openzeppelin/contracts/utils/math/Math.sol\":12726:12742  value /= 10 ** 8 */\n      dup4\n      dup2\n      tag_367\n      jumpi\n      tag_368\n      tag_334\n      jump\t// in\n    tag_368:\n    tag_367:\n      div\n      swap3\n      pop\n        /* \"@openzeppelin/contracts/utils/math/Math.sol\":12770:12771  8 */\n      0x08\n        /* \"@openzeppelin/contracts/utils/math/Math.sol\":12760:12771  result += 8 */\n      dup2\n      add\n      swap1\n      pop\n        /* \"@openzeppelin/contracts/utils/math/Math.sol\":12686:12786  if (value >= 10 ** 8) {... */\n    tag_366:\n        /* \"@openzeppelin/contracts/utils/math/Math.sol\":12812:12819  10 ** 4 */\n      0x2710\n        /* \"@openzeppelin/contracts/utils/math/Math.sol\":12803:12808  value */\n      dup4\n        /* \"@openzeppelin/contracts/utils/math/Math.sol\":12803:12819  value >= 10 ** 4 */\n      lt\n        /* \"@openzeppelin/contracts/utils/math/Math.sol\":12799:12899  if (value >= 10 ** 4) {... */\n      tag_369\n      jumpi\n        /* \"@openzeppelin/contracts/utils/math/Math.sol\":12848:12855  10 ** 4 */\n      0x2710\n        /* \"@openzeppelin/contracts/utils/math/Math.sol\":12839:12855  value /= 10 ** 4 */\n      dup4\n      dup2\n      tag_370\n      jumpi\n      tag_371\n      tag_334\n      jump\t// in\n    tag_371:\n    tag_370:\n      div\n      swap3\n      pop\n        /* \"@openzeppelin/contracts/utils/math/Math.sol\":12883:12884  4 */\n      0x04\n        /* \"@openzeppelin/contracts/utils/math/Math.sol\":12873:12884  result += 4 */\n      dup2\n      add\n      swap1\n      pop\n        /* \"@openzeppelin/contracts/utils/math/Math.sol\":12799:12899  if (value >= 10 ** 4) {... */\n    tag_369:\n        /* \"@openzeppelin/contracts/utils/math/Math.sol\":12925:12932  10 ** 2 */\n      0x64\n        /* \"@openzeppelin/contracts/utils/math/Math.sol\":12916:12921  value */\n      dup4\n        /* \"@openzeppelin/contracts/utils/math/Math.sol\":12916:12932  value >= 10 ** 2 */\n      lt\n        /* \"@openzeppelin/contracts/utils/math/Math.sol\":12912:13012  if (value >= 10 ** 2) {... */\n      tag_372\n      jumpi\n        /* \"@openzeppelin/contracts/utils/math/Math.sol\":12961:12968  10 ** 2 */\n      0x64\n        /* \"@openzeppelin/contracts/utils/math/Math.sol\":12952:12968  value /= 10 ** 2 */\n      dup4\n      dup2\n      tag_373\n      jumpi\n      tag_374\n      tag_334\n      jump\t// in\n    tag_374:\n    tag_373:\n      div\n      swap3\n      pop\n        /* \"@openzeppelin/contracts/utils/math/Math.sol\":12996:12997  2 */\n      0x02\n        /* \"@openzeppelin/contracts/utils/math/Math.sol\":12986:12997  result += 2 */\n      dup2\n      add\n      swap1\n      pop\n        /* \"@openzeppelin/contracts/utils/math/Math.sol\":12912:13012  if (value >= 10 ** 2) {... */\n    tag_372:\n        /* \"@openzeppelin/contracts/utils/math/Math.sol\":13038:13045  10 ** 1 */\n      0x0a\n        /* \"@openzeppelin/contracts/utils/math/Math.sol\":13029:13034  value */\n      dup4\n        /* \"@openzeppelin/contracts/utils/math/Math.sol\":13029:13045  value >= 10 ** 1 */\n      lt\n        /* \"@openzeppelin/contracts/utils/math/Math.sol\":13025:13091  if (value >= 10 ** 1) {... */\n      tag_375\n      jumpi\n        /* \"@openzeppelin/contracts/utils/math/Math.sol\":13075:13076  1 */\n      0x01\n        /* \"@openzeppelin/contracts/utils/math/Math.sol\":13065:13076  result += 1 */\n      dup2\n      add\n      swap1\n      pop\n        /* \"@openzeppelin/contracts/utils/math/Math.sol\":13025:13091  if (value >= 10 ** 1) {... */\n    tag_375:\n        /* \"@openzeppelin/contracts/utils/math/Math.sol\":13117:13123  result */\n      dup1\n        /* \"@openzeppelin/contracts/utils/math/Math.sol\":13110:13123  return result */\n      swap2\n      pop\n      pop\n        /* \"@openzeppelin/contracts/utils/math/Math.sol\":12214:13130  function log10(uint256 value) internal pure returns (uint256) {... */\n      swap2\n      swap1\n      pop\n      jump\t// out\n        /* \"@openzeppelin/contracts/token/ERC721/ERC721.sol\":6376:6648  function _isAuthorized(address owner, address spender, uint256 tokenId) internal view virtual returns (bool) {... */\n    tag_349:\n        /* \"@openzeppelin/contracts/token/ERC721/ERC721.sol\":6479:6483  bool */\n      0x00\n        /* \"@openzeppelin/contracts/token/ERC721/ERC721.sol\":6533:6534  0 */\n      dup1\n        /* \"@openzeppelin/contracts/token/ERC721/ERC721.sol\":6514:6535  spender != address(0) */\n      0xffffffffffffffffffffffffffffffffffffffff\n      and\n        /* \"@openzeppelin/contracts/token/ERC721/ERC721.sol\":6514:6521  spender */\n      dup4\n        /* \"@openzeppelin/contracts/token/ERC721/ERC721.sol\":6514:6535  spender != address(0) */\n      0xffffffffffffffffffffffffffffffffffffffff\n      and\n      eq\n      iszero\n        /* \"@openzeppelin/contracts/token/ERC721/ERC721.sol\":6514:6641  spender != address(0) &&... */\n      dup1\n      iszero\n      tag_377\n      jumpi\n      pop\n        /* \"@openzeppelin/contracts/token/ERC721/ERC721.sol\":6561:6568  spender */\n      dup3\n        /* \"@openzeppelin/contracts/token/ERC721/ERC721.sol\":6552:6568  owner == spender */\n      0xffffffffffffffffffffffffffffffffffffffff\n      and\n        /* \"@openzeppelin/contracts/token/ERC721/ERC721.sol\":6552:6557  owner */\n      dup5\n        /* \"@openzeppelin/contracts/token/ERC721/ERC721.sol\":6552:6568  owner == spender */\n      0xffffffffffffffffffffffffffffffffffffffff\n      and\n      eq\n        /* \"@openzeppelin/contracts/token/ERC721/ERC721.sol\":6552:6604  owner == spender || isApprovedForAll(owner, spender) */\n      dup1\n      tag_378\n      jumpi\n      pop\n        /* \"@openzeppelin/contracts/token/ERC721/ERC721.sol\":6572:6604  isApprovedForAll(owner, spender) */\n      tag_379\n        /* \"@openzeppelin/contracts/token/ERC721/ERC721.sol\":6589:6594  owner */\n      dup5\n        /* \"@openzeppelin/contracts/token/ERC721/ERC721.sol\":6596:6603  spender */\n      dup5\n        /* \"@openzeppelin/contracts/token/ERC721/ERC721.sol\":6572:6588  isApprovedForAll */\n      tag_136\n        /* \"@openzeppelin/contracts/token/ERC721/ERC721.sol\":6572:6604  isApprovedForAll(owner, spender) */\n      jump\t// in\n    tag_379:\n        /* \"@openzeppelin/contracts/token/ERC721/ERC721.sol\":6552:6604  owner == spender || isApprovedForAll(owner, spender) */\n    tag_378:\n        /* \"@openzeppelin/contracts/token/ERC721/ERC721.sol\":6552:6640  owner == spender || isApprovedForAll(owner, spender) || _getApproved(tokenId) == spender */\n      dup1\n      tag_380\n      jumpi\n      pop\n        /* \"@openzeppelin/contracts/token/ERC721/ERC721.sol\":6633:6640  spender */\n      dup3\n        /* \"@openzeppelin/contracts/token/ERC721/ERC721.sol\":6608:6640  _getApproved(tokenId) == spender */\n      0xffffffffffffffffffffffffffffffffffffffff\n      and\n        /* \"@openzeppelin/contracts/token/ERC721/ERC721.sol\":6608:6629  _getApproved(tokenId) */\n      tag_381\n        /* \"@openzeppelin/contracts/token/ERC721/ERC721.sol\":6621:6628  tokenId */\n      dup4\n        /* \"@openzeppelin/contracts/token/ERC721/ERC721.sol\":6608:6620  _getApproved */\n      tag_158\n        /* \"@openzeppelin/contracts/token/ERC721/ERC721.sol\":6608:6629  _getApproved(tokenId) */\n      jump\t// in\n    tag_381:\n        /* \"@openzeppelin/contracts/token/ERC721/ERC721.sol\":6608:6640  _getApproved(tokenId) == spender */\n      0xffffffffffffffffffffffffffffffffffffffff\n      and\n      eq\n        /* \"@openzeppelin/contracts/token/ERC721/ERC721.sol\":6552:6640  owner == spender || isApprovedForAll(owner, spender) || _getApproved(tokenId) == spender */\n    tag_380:\n        /* \"@openzeppelin/contracts/token/ERC721/ERC721.sol\":6514:6641  spender != address(0) &&... */\n    tag_377:\n        /* \"@openzeppelin/contracts/token/ERC721/ERC721.sol\":6495:6641  return... */\n      swap1\n      pop\n        /* \"@openzeppelin/contracts/token/ERC721/ERC721.sol\":6376:6648  function _isAuthorized(address owner, address spender, uint256 tokenId) internal view virtual returns (bool) {... */\n      swap4\n      swap3\n      pop\n      pop\n      pop\n      jump\t// out\n        /* \"#utility.yul\":7:82   */\n    tag_382:\n        /* \"#utility.yul\":40:46   */\n      0x00\n        /* \"#utility.yul\":73:75   */\n      0x40\n        /* \"#utility.yul\":67:76   */\n      mload\n        /* \"#utility.yul\":57:76   */\n      swap1\n      pop\n        /* \"#utility.yul\":7:82   */\n      swap1\n      jump\t// out\n        /* \"#utility.yul\":88:205   */\n    tag_383:\n        /* \"#utility.yul\":197:198   */\n      0x00\n        /* \"#utility.yul\":194:195   */\n      dup1\n        /* \"#utility.yul\":187:199   */\n      revert\n        /* \"#utility.yul\":211:328   */\n    tag_384:\n        /* \"#utility.yul\":320:321   */\n      0x00\n        /* \"#utility.yul\":317:318   */\n      dup1\n        /* \"#utility.yul\":310:322   */\n      revert\n        /* \"#utility.yul\":334:483   */\n    tag_385:\n        /* \"#utility.yul\":370:377   */\n      0x00\n        /* \"#utility.yul\":410:476   */\n      0xffffffff00000000000000000000000000000000000000000000000000000000\n        /* \"#utility.yul\":403:408   */\n      dup3\n        /* \"#utility.yul\":399:477   */\n      and\n        /* \"#utility.yul\":388:477   */\n      swap1\n      pop\n        /* \"#utility.yul\":334:483   */\n      swap2\n      swap1\n      pop\n      jump\t// out\n        /* \"#utility.yul\":489:609   */\n    tag_386:\n        /* \"#utility.yul\":561:584   */\n      tag_452\n        /* \"#utility.yul\":578:583   */\n      dup2\n        /* \"#utility.yul\":561:584   */\n      tag_385\n      jump\t// in\n    tag_452:\n        /* \"#utility.yul\":554:559   */\n      dup2\n        /* \"#utility.yul\":551:585   */\n      eq\n        /* \"#utility.yul\":541:603   */\n      tag_453\n      jumpi\n        /* \"#utility.yul\":599:600   */\n      0x00\n        /* \"#utility.yul\":596:597   */\n      dup1\n        /* \"#utility.yul\":589:601   */\n      revert\n        /* \"#utility.yul\":541:603   */\n    tag_453:\n        /* \"#utility.yul\":489:609   */\n      pop\n      jump\t// out\n        /* \"#utility.yul\":615:752   */\n    tag_387:\n        /* \"#utility.yul\":660:665   */\n      0x00\n        /* \"#utility.yul\":698:704   */\n      dup2\n        /* \"#utility.yul\":685:705   */\n      calldataload\n        /* \"#utility.yul\":676:705   */\n      swap1\n      pop\n        /* \"#utility.yul\":714:746   */\n      tag_455\n        /* \"#utility.yul\":740:745   */\n      dup2\n        /* \"#utility.yul\":714:746   */\n      tag_386\n      jump\t// in\n    tag_455:\n        /* \"#utility.yul\":615:752   */\n      swap3\n      swap2\n      pop\n      pop\n      jump\t// out\n        /* \"#utility.yul\":758:1085   */\n    tag_31:\n        /* \"#utility.yul\":816:822   */\n      0x00\n        /* \"#utility.yul\":865:867   */\n      0x20\n        /* \"#utility.yul\":853:862   */\n      dup3\n        /* \"#utility.yul\":844:851   */\n      dup5\n        /* \"#utility.yul\":840:863   */\n      sub\n        /* \"#utility.yul\":836:868   */\n      slt\n        /* \"#utility.yul\":833:952   */\n      iszero\n      tag_457\n      jumpi\n        /* \"#utility.yul\":871:950   */\n      tag_458\n      tag_383\n      jump\t// in\n    tag_458:\n        /* \"#utility.yul\":833:952   */\n    tag_457:\n        /* \"#utility.yul\":991:992   */\n      0x00\n        /* \"#utility.yul\":1016:1068   */\n      tag_459\n        /* \"#utility.yul\":1060:1067   */\n      dup5\n        /* \"#utility.yul\":1051:1057   */\n      dup3\n        /* \"#utility.yul\":1040:1049   */\n      dup6\n        /* \"#utility.yul\":1036:1058   */\n      add\n        /* \"#utility.yul\":1016:1068   */\n      tag_387\n      jump\t// in\n    tag_459:\n        /* \"#utility.yul\":1006:1068   */\n      swap2\n      pop\n        /* \"#utility.yul\":962:1078   */\n      pop\n        /* \"#utility.yul\":758:1085   */\n      swap3\n      swap2\n      pop\n      pop\n      jump\t// out\n        /* \"#utility.yul\":1091:1181   */\n    tag_388:\n        /* \"#utility.yul\":1125:1132   */\n      0x00\n        /* \"#utility.yul\":1168:1173   */\n      dup2\n        /* \"#utility.yul\":1161:1174   */\n      iszero\n        /* \"#utility.yul\":1154:1175   */\n      iszero\n        /* \"#utility.yul\":1143:1175   */\n      swap1\n      pop\n        /* \"#utility.yul\":1091:1181   */\n      swap2\n      swap1\n      pop\n      jump\t// out\n        /* \"#utility.yul\":1187:1296   */\n    tag_389:\n        /* \"#utility.yul\":1268:1289   */\n      tag_462\n        /* \"#utility.yul\":1283:1288   */\n      dup2\n        /* \"#utility.yul\":1268:1289   */\n      tag_388\n      jump\t// in\n    tag_462:\n        /* \"#utility.yul\":1263:1266   */\n      dup3\n        /* \"#utility.yul\":1256:1290   */\n      mstore\n        /* \"#utility.yul\":1187:1296   */\n      pop\n      pop\n      jump\t// out\n        /* \"#utility.yul\":1302:1512   */\n    tag_34:\n        /* \"#utility.yul\":1389:1393   */\n      0x00\n        /* \"#utility.yul\":1427:1429   */\n      0x20\n        /* \"#utility.yul\":1416:1425   */\n      dup3\n        /* \"#utility.yul\":1412:1430   */\n      add\n        /* \"#utility.yul\":1404:1430   */\n      swap1\n      pop\n        /* \"#utility.yul\":1440:1505   */\n      tag_464\n        /* \"#utility.yul\":1502:1503   */\n      0x00\n        /* \"#utility.yul\":1491:1500   */\n      dup4\n        /* \"#utility.yul\":1487:1504   */\n      add\n        /* \"#utility.yul\":1478:1484   */\n      dup5\n        /* \"#utility.yul\":1440:1505   */\n      tag_389\n      jump\t// in\n    tag_464:\n        /* \"#utility.yul\":1302:1512   */\n      swap3\n      swap2\n      pop\n      pop\n      jump\t// out\n        /* \"#utility.yul\":1518:1617   */\n    tag_390:\n        /* \"#utility.yul\":1570:1576   */\n      0x00\n        /* \"#utility.yul\":1604:1609   */\n      dup2\n        /* \"#utility.yul\":1598:1610   */\n      mload\n        /* \"#utility.yul\":1588:1610   */\n      swap1\n      pop\n        /* \"#utility.yul\":1518:1617   */\n      swap2\n      swap1\n      pop\n      jump\t// out\n        /* \"#utility.yul\":1623:1792   */\n    tag_391:\n        /* \"#utility.yul\":1707:1718   */\n      0x00\n        /* \"#utility.yul\":1741:1747   */\n      dup3\n        /* \"#utility.yul\":1736:1739   */\n      dup3\n        /* \"#utility.yul\":1729:1748   */\n      mstore\n        /* \"#utility.yul\":1781:1785   */\n      0x20\n        /* \"#utility.yul\":1776:1779   */\n      dup3\n        /* \"#utility.yul\":1772:1786   */\n      add\n        /* \"#utility.yul\":1757:1786   */\n      swap1\n      pop\n        /* \"#utility.yul\":1623:1792   */\n      swap3\n      swap2\n      pop\n      pop\n      jump\t// out\n        /* \"#utility.yul\":1798:2044   */\n    tag_392:\n        /* \"#utility.yul\":1879:1880   */\n      0x00\n        /* \"#utility.yul\":1889:2002   */\n    tag_468:\n        /* \"#utility.yul\":1903:1909   */\n      dup4\n        /* \"#utility.yul\":1900:1901   */\n      dup2\n        /* \"#utility.yul\":1897:1910   */\n      lt\n        /* \"#utility.yul\":1889:2002   */\n      iszero\n      tag_470\n      jumpi\n        /* \"#utility.yul\":1988:1989   */\n      dup1\n        /* \"#utility.yul\":1983:1986   */\n      dup3\n        /* \"#utility.yul\":1979:1990   */\n      add\n        /* \"#utility.yul\":1973:1991   */\n      mload\n        /* \"#utility.yul\":1969:1970   */\n      dup2\n        /* \"#utility.yul\":1964:1967   */\n      dup5\n        /* \"#utility.yul\":1960:1971   */\n      add\n        /* \"#utility.yul\":1953:1992   */\n      mstore\n        /* \"#utility.yul\":1925:1927   */\n      0x20\n        /* \"#utility.yul\":1922:1923   */\n      dup2\n        /* \"#utility.yul\":1918:1928   */\n      add\n        /* \"#utility.yul\":1913:1928   */\n      swap1\n      pop\n        /* \"#utility.yul\":1889:2002   */\n      jump(tag_468)\n    tag_470:\n        /* \"#utility.yul\":2036:2037   */\n      0x00\n        /* \"#utility.yul\":2027:2033   */\n      dup5\n        /* \"#utility.yul\":2022:2025   */\n      dup5\n        /* \"#utility.yul\":2018:2034   */\n      add\n        /* \"#utility.yul\":2011:2038   */\n      mstore\n        /* \"#utility.yul\":1860:2044   */\n      pop\n        /* \"#utility.yul\":1798:2044   */\n      pop\n      pop\n      pop\n      jump\t// out\n        /* \"#utility.yul\":2050:2152   */\n    tag_393:\n        /* \"#utility.yul\":2091:2097   */\n      0x00\n        /* \"#utility.yul\":2142:2144   */\n      0x1f\n        /* \"#utility.yul\":2138:2145   */\n      not\n        /* \"#utility.yul\":2133:2135   */\n      0x1f\n        /* \"#utility.yul\":2126:2131   */\n      dup4\n        /* \"#utility.yul\":2122:2136   */\n      add\n        /* \"#utility.yul\":2118:2146   */\n      and\n        /* \"#utility.yul\":2108:2146   */\n      swap1\n      pop\n        /* \"#utility.yul\":2050:2152   */\n      swap2\n      swap1\n      pop\n      jump\t// out\n        /* \"#utility.yul\":2158:2535   */\n    tag_394:\n        /* \"#utility.yul\":2246:2249   */\n      0x00\n        /* \"#utility.yul\":2274:2313   */\n      tag_473\n        /* \"#utility.yul\":2307:2312   */\n      dup3\n        /* \"#utility.yul\":2274:2313   */\n      tag_390\n      jump\t// in\n    tag_473:\n        /* \"#utility.yul\":2329:2400   */\n      tag_474\n        /* \"#utility.yul\":2393:2399   */\n      dup2\n        /* \"#utility.yul\":2388:2391   */\n      dup6\n        /* \"#utility.yul\":2329:2400   */\n      tag_391\n      jump\t// in\n    tag_474:\n        /* \"#utility.yul\":2322:2400   */\n      swap4\n      pop\n        /* \"#utility.yul\":2409:2474   */\n      tag_475\n        /* \"#utility.yul\":2467:2473   */\n      dup2\n        /* \"#utility.yul\":2462:2465   */\n      dup6\n        /* \"#utility.yul\":2455:2459   */\n      0x20\n        /* \"#utility.yul\":2448:2453   */\n      dup7\n        /* \"#utility.yul\":2444:2460   */\n      add\n        /* \"#utility.yul\":2409:2474   */\n      tag_392\n      jump\t// in\n    tag_475:\n        /* \"#utility.yul\":2499:2528   */\n      tag_476\n        /* \"#utility.yul\":2521:2527   */\n      dup2\n        /* \"#utility.yul\":2499:2528   */\n      tag_393\n      jump\t// in\n    tag_476:\n        /* \"#utility.yul\":2494:2497   */\n      dup5\n        /* \"#utility.yul\":2490:2529   */\n      add\n        /* \"#utility.yul\":2483:2529   */\n      swap2\n      pop\n        /* \"#utility.yul\":2250:2535   */\n      pop\n        /* \"#utility.yul\":2158:2535   */\n      swap3\n      swap2\n      pop\n      pop\n      jump\t// out\n        /* \"#utility.yul\":2541:2854   */\n    tag_39:\n        /* \"#utility.yul\":2654:2658   */\n      0x00\n        /* \"#utility.yul\":2692:2694   */\n      0x20\n        /* \"#utility.yul\":2681:2690   */\n      dup3\n        /* \"#utility.yul\":2677:2695   */\n      add\n        /* \"#utility.yul\":2669:2695   */\n      swap1\n      pop\n        /* \"#utility.yul\":2741:2750   */\n      dup2\n        /* \"#utility.yul\":2735:2739   */\n      dup2\n        /* \"#utility.yul\":2731:2751   */\n      sub\n        /* \"#utility.yul\":2727:2728   */\n      0x00\n        /* \"#utility.yul\":2716:2725   */\n      dup4\n        /* \"#utility.yul\":2712:2729   */\n      add\n        /* \"#utility.yul\":2705:2752   */\n      mstore\n        /* \"#utility.yul\":2769:2847   */\n      tag_478\n        /* \"#utility.yul\":2842:2846   */\n      dup2\n        /* \"#utility.yul\":2833:2839   */\n      dup5\n        /* \"#utility.yul\":2769:2847   */\n      tag_394\n      jump\t// in\n    tag_478:\n        /* \"#utility.yul\":2761:2847   */\n      swap1\n      pop\n        /* \"#utility.yul\":2541:2854   */\n      swap3\n      swap2\n      pop\n      pop\n      jump\t// out\n        /* \"#utility.yul\":2860:2937   */\n    tag_395:\n        /* \"#utility.yul\":2897:2904   */\n      0x00\n        /* \"#utility.yul\":2926:2931   */\n      dup2\n        /* \"#utility.yul\":2915:2931   */\n      swap1\n      pop\n        /* \"#utility.yul\":2860:2937   */\n      swap2\n      swap1\n      pop\n      jump\t// out\n        /* \"#utility.yul\":2943:3065   */\n    tag_396:\n        /* \"#utility.yul\":3016:3040   */\n      tag_481\n        /* \"#utility.yul\":3034:3039   */\n      dup2\n        /* \"#utility.yul\":3016:3040   */\n      tag_395\n      jump\t// in\n    tag_481:\n        /* \"#utility.yul\":3009:3014   */\n      dup2\n        /* \"#utility.yul\":3006:3041   */\n      eq\n        /* \"#utility.yul\":2996:3059   */\n      tag_482\n      jumpi\n        /* \"#utility.yul\":3055:3056   */\n      0x00\n        /* \"#utility.yul\":3052:3053   */\n      dup1\n        /* \"#utility.yul\":3045:3057   */\n      revert\n        /* \"#utility.yul\":2996:3059   */\n    tag_482:\n        /* \"#utility.yul\":2943:3065   */\n      pop\n      jump\t// out\n        /* \"#utility.yul\":3071:3210   */\n    tag_397:\n        /* \"#utility.yul\":3117:3122   */\n      0x00\n        /* \"#utility.yul\":3155:3161   */\n      dup2\n        /* \"#utility.yul\":3142:3162   */\n      calldataload\n        /* \"#utility.yul\":3133:3162   */\n      swap1\n      pop\n        /* \"#utility.yul\":3171:3204   */\n      tag_484\n        /* \"#utility.yul\":3198:3203   */\n      dup2\n        /* \"#utility.yul\":3171:3204   */\n      tag_396\n      jump\t// in\n    tag_484:\n        /* \"#utility.yul\":3071:3210   */\n      swap3\n      swap2\n      pop\n      pop\n      jump\t// out\n        /* \"#utility.yul\":3216:3545   */\n    tag_43:\n        /* \"#utility.yul\":3275:3281   */\n      0x00\n        /* \"#utility.yul\":3324:3326   */\n      0x20\n        /* \"#utility.yul\":3312:3321   */\n      dup3\n        /* \"#utility.yul\":3303:3310   */\n      dup5\n        /* \"#utility.yul\":3299:3322   */\n      sub\n        /* \"#utility.yul\":3295:3327   */\n      slt\n        /* \"#utility.yul\":3292:3411   */\n      iszero\n      tag_486\n      jumpi\n        /* \"#utility.yul\":3330:3409   */\n      tag_487\n      tag_383\n      jump\t// in\n    tag_487:\n        /* \"#utility.yul\":3292:3411   */\n    tag_486:\n        /* \"#utility.yul\":3450:3451   */\n      0x00\n        /* \"#utility.yul\":3475:3528   */\n      tag_488\n        /* \"#utility.yul\":3520:3527   */\n      dup5\n        /* \"#utility.yul\":3511:3517   */\n      dup3\n        /* \"#utility.yul\":3500:3509   */\n      dup6\n        /* \"#utility.yul\":3496:3518   */\n      add\n        /* \"#utility.yul\":3475:3528   */\n      tag_397\n      jump\t// in\n    tag_488:\n        /* \"#utility.yul\":3465:3528   */\n      swap2\n      pop\n        /* \"#utility.yul\":3421:3538   */\n      pop\n        /* \"#utility.yul\":3216:3545   */\n      swap3\n      swap2\n      pop\n      pop\n      jump\t// out\n        /* \"#utility.yul\":3551:3677   */\n    tag_398:\n        /* \"#utility.yul\":3588:3595   */\n      0x00\n        /* \"#utility.yul\":3628:3670   */\n      0xffffffffffffffffffffffffffffffffffffffff\n        /* \"#utility.yul\":3621:3626   */\n      dup3\n        /* \"#utility.yul\":3617:3671   */\n      and\n        /* \"#utility.yul\":3606:3671   */\n      swap1\n      pop\n        /* \"#utility.yul\":3551:3677   */\n      swap2\n      swap1\n      pop\n      jump\t// out\n        /* \"#utility.yul\":3683:3779   */\n    tag_399:\n        /* \"#utility.yul\":3720:3727   */\n      0x00\n        /* \"#utility.yul\":3749:3773   */\n      tag_491\n        /* \"#utility.yul\":3767:3772   */\n      dup3\n        /* \"#utility.yul\":3749:3773   */\n      tag_398\n      jump\t// in\n    tag_491:\n        /* \"#utility.yul\":3738:3773   */\n      swap1\n      pop\n        /* \"#utility.yul\":3683:3779   */\n      swap2\n      swap1\n      pop\n      jump\t// out\n        /* \"#utility.yul\":3785:3903   */\n    tag_400:\n        /* \"#utility.yul\":3872:3896   */\n      tag_493\n        /* \"#utility.yul\":3890:3895   */\n      dup2\n        /* \"#utility.yul\":3872:3896   */\n      tag_399\n      jump\t// in\n    tag_493:\n        /* \"#utility.yul\":3867:3870   */\n      dup3\n        /* \"#utility.yul\":3860:3897   */\n      mstore\n        /* \"#utility.yul\":3785:3903   */\n      pop\n      pop\n      jump\t// out\n        /* \"#utility.yul\":3909:4131   */\n    tag_46:\n        /* \"#utility.yul\":4002:4006   */\n      0x00\n        /* \"#utility.yul\":4040:4042   */\n      0x20\n        /* \"#utility.yul\":4029:4038   */\n      dup3\n        /* \"#utility.yul\":4025:4043   */\n      add\n        /* \"#utility.yul\":4017:4043   */\n      swap1\n      pop\n        /* \"#utility.yul\":4053:4124   */\n      tag_495\n        /* \"#utility.yul\":4121:4122   */\n      0x00\n        /* \"#utility.yul\":4110:4119   */\n      dup4\n        /* \"#utility.yul\":4106:4123   */\n      add\n        /* \"#utility.yul\":4097:4103   */\n      dup5\n        /* \"#utility.yul\":4053:4124   */\n      tag_400\n      jump\t// in\n    tag_495:\n        /* \"#utility.yul\":3909:4131   */\n      swap3\n      swap2\n      pop\n      pop\n      jump\t// out\n        /* \"#utility.yul\":4137:4259   */\n    tag_401:\n        /* \"#utility.yul\":4210:4234   */\n      tag_497\n        /* \"#utility.yul\":4228:4233   */\n      dup2\n        /* \"#utility.yul\":4210:4234   */\n      tag_399\n      jump\t// in\n    tag_497:\n        /* \"#utility.yul\":4203:4208   */\n      dup2\n        /* \"#utility.yul\":4200:4235   */\n      eq\n        /* \"#utility.yul\":4190:4253   */\n      tag_498\n      jumpi\n        /* \"#utility.yul\":4249:4250   */\n      0x00\n        /* \"#utility.yul\":4246:4247   */\n      dup1\n        /* \"#utility.yul\":4239:4251   */\n      revert\n        /* \"#utility.yul\":4190:4253   */\n    tag_498:\n        /* \"#utility.yul\":4137:4259   */\n      pop\n      jump\t// out\n        /* \"#utility.yul\":4265:4404   */\n    tag_402:\n        /* \"#utility.yul\":4311:4316   */\n      0x00\n        /* \"#utility.yul\":4349:4355   */\n      dup2\n        /* \"#utility.yul\":4336:4356   */\n      calldataload\n        /* \"#utility.yul\":4327:4356   */\n      swap1\n      pop\n        /* \"#utility.yul\":4365:4398   */\n      tag_500\n        /* \"#utility.yul\":4392:4397   */\n      dup2\n        /* \"#utility.yul\":4365:4398   */\n      tag_401\n      jump\t// in\n    tag_500:\n        /* \"#utility.yul\":4265:4404   */\n      swap3\n      swap2\n      pop\n      pop\n      jump\t// out\n        /* \"#utility.yul\":4410:4884   */\n    tag_50:\n        /* \"#utility.yul\":4478:4484   */\n      0x00\n        /* \"#utility.yul\":4486:4492   */\n      dup1\n        /* \"#utility.yul\":4535:4537   */\n      0x40\n        /* \"#utility.yul\":4523:4532   */\n      dup4\n        /* \"#utility.yul\":4514:4521   */\n      dup6\n        /* \"#utility.yul\":4510:4533   */\n      sub\n        /* \"#utility.yul\":4506:4538   */\n      slt\n        /* \"#utility.yul\":4503:4622   */\n      iszero\n      tag_502\n      jumpi\n        /* \"#utility.yul\":4541:4620   */\n      tag_503\n      tag_383\n      jump\t// in\n    tag_503:\n        /* \"#utility.yul\":4503:4622   */\n    tag_502:\n        /* \"#utility.yul\":4661:4662   */\n      0x00\n        /* \"#utility.yul\":4686:4739   */\n      tag_504\n        /* \"#utility.yul\":4731:4738   */\n      dup6\n        /* \"#utility.yul\":4722:4728   */\n      dup3\n        /* \"#utility.yul\":4711:4720   */\n      dup7\n        /* \"#utility.yul\":4707:4729   */\n      add\n        /* \"#utility.yul\":4686:4739   */\n      tag_402\n      jump\t// in\n    tag_504:\n        /* \"#utility.yul\":4676:4739   */\n      swap3\n      pop\n        /* \"#utility.yul\":4632:4749   */\n      pop\n        /* \"#utility.yul\":4788:4790   */\n      0x20\n        /* \"#utility.yul\":4814:4867   */\n      tag_505\n        /* \"#utility.yul\":4859:4866   */\n      dup6\n        /* \"#utility.yul\":4850:4856   */\n      dup3\n        /* \"#utility.yul\":4839:4848   */\n      dup7\n        /* \"#utility.yul\":4835:4857   */\n      add\n        /* \"#utility.yul\":4814:4867   */\n      tag_397\n      jump\t// in\n    tag_505:\n        /* \"#utility.yul\":4804:4867   */\n      swap2\n      pop\n        /* \"#utility.yul\":4759:4877   */\n      pop\n        /* \"#utility.yul\":4410:4884   */\n      swap3\n      pop\n      swap3\n      swap1\n      pop\n      jump\t// out\n        /* \"#utility.yul\":4890:5509   */\n    tag_55:\n        /* \"#utility.yul\":4967:4973   */\n      0x00\n        /* \"#utility.yul\":4975:4981   */\n      dup1\n        /* \"#utility.yul\":4983:4989   */\n      0x00\n        /* \"#utility.yul\":5032:5034   */\n      0x60\n        /* \"#utility.yul\":5020:5029   */\n      dup5\n        /* \"#utility.yul\":5011:5018   */\n      dup7\n        /* \"#utility.yul\":5007:5030   */\n      sub\n        /* \"#utility.yul\":5003:5035   */\n      slt\n        /* \"#utility.yul\":5000:5119   */\n      iszero\n      tag_507\n      jumpi\n        /* \"#utility.yul\":5038:5117   */\n      tag_508\n      tag_383\n      jump\t// in\n    tag_508:\n        /* \"#utility.yul\":5000:5119   */\n    tag_507:\n        /* \"#utility.yul\":5158:5159   */\n      0x00\n        /* \"#utility.yul\":5183:5236   */\n      tag_509\n        /* \"#utility.yul\":5228:5235   */\n      dup7\n        /* \"#utility.yul\":5219:5225   */\n      dup3\n        /* \"#utility.yul\":5208:5217   */\n      dup8\n        /* \"#utility.yul\":5204:5226   */\n      add\n        /* \"#utility.yul\":5183:5236   */\n      tag_402\n      jump\t// in\n    tag_509:\n        /* \"#utility.yul\":5173:5236   */\n      swap4\n      pop\n        /* \"#utility.yul\":5129:5246   */\n      pop\n        /* \"#utility.yul\":5285:5287   */\n      0x20\n        /* \"#utility.yul\":5311:5364   */\n      tag_510\n        /* \"#utility.yul\":5356:5363   */\n      dup7\n        /* \"#utility.yul\":5347:5353   */\n      dup3\n        /* \"#utility.yul\":5336:5345   */\n      dup8\n        /* \"#utility.yul\":5332:5354   */\n      add\n        /* \"#utility.yul\":5311:5364   */\n      tag_402\n      jump\t// in\n    tag_510:\n        /* \"#utility.yul\":5301:5364   */\n      swap3\n      pop\n        /* \"#utility.yul\":5256:5374   */\n      pop\n        /* \"#utility.yul\":5413:5415   */\n      0x40\n        /* \"#utility.yul\":5439:5492   */\n      tag_511\n        /* \"#utility.yul\":5484:5491   */\n      dup7\n        /* \"#utility.yul\":5475:5481   */\n      dup3\n        /* \"#utility.yul\":5464:5473   */\n      dup8\n        /* \"#utility.yul\":5460:5482   */\n      add\n        /* \"#utility.yul\":5439:5492   */\n      tag_397\n      jump\t// in\n    tag_511:\n        /* \"#utility.yul\":5429:5492   */\n      swap2\n      pop\n        /* \"#utility.yul\":5384:5502   */\n      pop\n        /* \"#utility.yul\":4890:5509   */\n      swap3\n      pop\n      swap3\n      pop\n      swap3\n      jump\t// out\n        /* \"#utility.yul\":5515:5592   */\n    tag_403:\n        /* \"#utility.yul\":5552:5559   */\n      0x00\n        /* \"#utility.yul\":5581:5586   */\n      dup2\n        /* \"#utility.yul\":5570:5586   */\n      swap1\n      pop\n        /* \"#utility.yul\":5515:5592   */\n      swap2\n      swap1\n      pop\n      jump\t// out\n        /* \"#utility.yul\":5598:5720   */\n    tag_404:\n        /* \"#utility.yul\":5671:5695   */\n      tag_514\n        /* \"#utility.yul\":5689:5694   */\n      dup2\n        /* \"#utility.yul\":5671:5695   */\n      tag_403\n      jump\t// in\n    tag_514:\n        /* \"#utility.yul\":5664:5669   */\n      dup2\n        /* \"#utility.yul\":5661:5696   */\n      eq\n        /* \"#utility.yul\":5651:5714   */\n      tag_515\n      jumpi\n        /* \"#utility.yul\":5710:5711   */\n      0x00\n        /* \"#utility.yul\":5707:5708   */\n      dup1\n        /* \"#utility.yul\":5700:5712   */\n      revert\n        /* \"#utility.yul\":5651:5714   */\n    tag_515:\n        /* \"#utility.yul\":5598:5720   */\n      pop\n      jump\t// out\n        /* \"#utility.yul\":5726:5865   */\n    tag_405:\n        /* \"#utility.yul\":5772:5777   */\n      0x00\n        /* \"#utility.yul\":5810:5816   */\n      dup2\n        /* \"#utility.yul\":5797:5817   */\n      calldataload\n        /* \"#utility.yul\":5788:5817   */\n      swap1\n      pop\n        /* \"#utility.yul\":5826:5859   */\n      tag_517\n        /* \"#utility.yul\":5853:5858   */\n      dup2\n        /* \"#utility.yul\":5826:5859   */\n      tag_404\n      jump\t// in\n    tag_517:\n        /* \"#utility.yul\":5726:5865   */\n      swap3\n      swap2\n      pop\n      pop\n      jump\t// out\n        /* \"#utility.yul\":5871:6200   */\n    tag_60:\n        /* \"#utility.yul\":5930:5936   */\n      0x00\n        /* \"#utility.yul\":5979:5981   */\n      0x20\n        /* \"#utility.yul\":5967:5976   */\n      dup3\n        /* \"#utility.yul\":5958:5965   */\n      dup5\n        /* \"#utility.yul\":5954:5977   */\n      sub\n        /* \"#utility.yul\":5950:5982   */\n      slt\n        /* \"#utility.yul\":5947:6066   */\n      iszero\n      tag_519\n      jumpi\n        /* \"#utility.yul\":5985:6064   */\n      tag_520\n      tag_383\n      jump\t// in\n    tag_520:\n        /* \"#utility.yul\":5947:6066   */\n    tag_519:\n        /* \"#utility.yul\":6105:6106   */\n      0x00\n        /* \"#utility.yul\":6130:6183   */\n      tag_521\n        /* \"#utility.yul\":6175:6182   */\n      dup5\n        /* \"#utility.yul\":6166:6172   */\n      dup3\n        /* \"#utility.yul\":6155:6164   */\n      dup6\n        /* \"#utility.yul\":6151:6173   */\n      add\n        /* \"#utility.yul\":6130:6183   */\n      tag_405\n      jump\t// in\n    tag_521:\n        /* \"#utility.yul\":6120:6183   */\n      swap2\n      pop\n        /* \"#utility.yul\":6076:6193   */\n      pop\n        /* \"#utility.yul\":5871:6200   */\n      swap3\n      swap2\n      pop\n      pop\n      jump\t// out\n        /* \"#utility.yul\":6206:6535   */\n    tag_78:\n        /* \"#utility.yul\":6265:6271   */\n      0x00\n        /* \"#utility.yul\":6314:6316   */\n      0x20\n        /* \"#utility.yul\":6302:6311   */\n      dup3\n        /* \"#utility.yul\":6293:6300   */\n      dup5\n        /* \"#utility.yul\":6289:6312   */\n      sub\n        /* \"#utility.yul\":6285:6317   */\n      slt\n        /* \"#utility.yul\":6282:6401   */\n      iszero\n      tag_523\n      jumpi\n        /* \"#utility.yul\":6320:6399   */\n      tag_524\n      tag_383\n      jump\t// in\n    tag_524:\n        /* \"#utility.yul\":6282:6401   */\n    tag_523:\n        /* \"#utility.yul\":6440:6441   */\n      0x00\n        /* \"#utility.yul\":6465:6518   */\n      tag_525\n        /* \"#utility.yul\":6510:6517   */\n      dup5\n        /* \"#utility.yul\":6501:6507   */\n      dup3\n        /* \"#utility.yul\":6490:6499   */\n      dup6\n        /* \"#utility.yul\":6486:6508   */\n      add\n        /* \"#utility.yul\":6465:6518   */\n      tag_402\n      jump\t// in\n    tag_525:\n        /* \"#utility.yul\":6455:6518   */\n      swap2\n      pop\n        /* \"#utility.yul\":6411:6528   */\n      pop\n        /* \"#utility.yul\":6206:6535   */\n      swap3\n      swap2\n      pop\n      pop\n      jump\t// out\n        /* \"#utility.yul\":6541:6659   */\n    tag_406:\n        /* \"#utility.yul\":6628:6652   */\n      tag_527\n        /* \"#utility.yul\":6646:6651   */\n      dup2\n        /* \"#utility.yul\":6628:6652   */\n      tag_395\n      jump\t// in\n    tag_527:\n        /* \"#utility.yul\":6623:6626   */\n      dup3\n        /* \"#utility.yul\":6616:6653   */\n      mstore\n        /* \"#utility.yul\":6541:6659   */\n      pop\n      pop\n      jump\t// out\n        /* \"#utility.yul\":6665:6887   */\n    tag_81:\n        /* \"#utility.yul\":6758:6762   */\n      0x00\n        /* \"#utility.yul\":6796:6798   */\n      0x20\n        /* \"#utility.yul\":6785:6794   */\n      dup3\n        /* \"#utility.yul\":6781:6799   */\n      add\n        /* \"#utility.yul\":6773:6799   */\n      swap1\n      pop\n        /* \"#utility.yul\":6809:6880   */\n      tag_529\n        /* \"#utility.yul\":6877:6878   */\n      0x00\n        /* \"#utility.yul\":6866:6875   */\n      dup4\n        /* \"#utility.yul\":6862:6879   */\n      add\n        /* \"#utility.yul\":6853:6859   */\n      dup5\n        /* \"#utility.yul\":6809:6880   */\n      tag_406\n      jump\t// in\n    tag_529:\n        /* \"#utility.yul\":6665:6887   */\n      swap3\n      swap2\n      pop\n      pop\n      jump\t// out\n        /* \"#utility.yul\":6893:7512   */\n    tag_95:\n        /* \"#utility.yul\":6970:6976   */\n      0x00\n        /* \"#utility.yul\":6978:6984   */\n      dup1\n        /* \"#utility.yul\":6986:6992   */\n      0x00\n        /* \"#utility.yul\":7035:7037   */\n      0x60\n        /* \"#utility.yul\":7023:7032   */\n      dup5\n        /* \"#utility.yul\":7014:7021   */\n      dup7\n        /* \"#utility.yul\":7010:7033   */\n      sub\n        /* \"#utility.yul\":7006:7038   */\n      slt\n        /* \"#utility.yul\":7003:7122   */\n      iszero\n      tag_531\n      jumpi\n        /* \"#utility.yul\":7041:7120   */\n      tag_532\n      tag_383\n      jump\t// in\n    tag_532:\n        /* \"#utility.yul\":7003:7122   */\n    tag_531:\n        /* \"#utility.yul\":7161:7162   */\n      0x00\n        /* \"#utility.yul\":7186:7239   */\n      tag_533\n        /* \"#utility.yul\":7231:7238   */\n      dup7\n        /* \"#utility.yul\":7222:7228   */\n      dup3\n        /* \"#utility.yul\":7211:7220   */\n      dup8\n        /* \"#utility.yul\":7207:7229   */\n      add\n        /* \"#utility.yul\":7186:7239   */\n      tag_402\n      jump\t// in\n    tag_533:\n        /* \"#utility.yul\":7176:7239   */\n      swap4\n      pop\n        /* \"#utility.yul\":7132:7249   */\n      pop\n        /* \"#utility.yul\":7288:7290   */\n      0x20\n        /* \"#utility.yul\":7314:7367   */\n      tag_534\n        /* \"#utility.yul\":7359:7366   */\n      dup7\n        /* \"#utility.yul\":7350:7356   */\n      dup3\n        /* \"#utility.yul\":7339:7348   */\n      dup8\n        /* \"#utility.yul\":7335:7357   */\n      add\n        /* \"#utility.yul\":7314:7367   */\n      tag_397\n      jump\t// in\n    tag_534:\n        /* \"#utility.yul\":7304:7367   */\n      swap3\n      pop\n        /* \"#utility.yul\":7259:7377   */\n      pop\n        /* \"#utility.yul\":7416:7418   */\n      0x40\n        /* \"#utility.yul\":7442:7495   */\n      tag_535\n        /* \"#utility.yul\":7487:7494   */\n      dup7\n        /* \"#utility.yul\":7478:7484   */\n      dup3\n        /* \"#utility.yul\":7467:7476   */\n      dup8\n        /* \"#utility.yul\":7463:7485   */\n      add\n        /* \"#utility.yul\":7442:7495   */\n      tag_397\n      jump\t// in\n    tag_535:\n        /* \"#utility.yul\":7432:7495   */\n      swap2\n      pop\n        /* \"#utility.yul\":7387:7505   */\n      pop\n        /* \"#utility.yul\":6893:7512   */\n      swap3\n      pop\n      swap3\n      pop\n      swap3\n      jump\t// out\n        /* \"#utility.yul\":7518:7636   */\n    tag_407:\n        /* \"#utility.yul\":7605:7629   */\n      tag_537\n        /* \"#utility.yul\":7623:7628   */\n      dup2\n        /* \"#utility.yul\":7605:7629   */\n      tag_403\n      jump\t// in\n    tag_537:\n        /* \"#utility.yul\":7600:7603   */\n      dup3\n        /* \"#utility.yul\":7593:7630   */\n      mstore\n        /* \"#utility.yul\":7518:7636   */\n      pop\n      pop\n      jump\t// out\n        /* \"#utility.yul\":7642:7864   */\n    tag_98:\n        /* \"#utility.yul\":7735:7739   */\n      0x00\n        /* \"#utility.yul\":7773:7775   */\n      0x20\n        /* \"#utility.yul\":7762:7771   */\n      dup3\n        /* \"#utility.yul\":7758:7776   */\n      add\n        /* \"#utility.yul\":7750:7776   */\n      swap1\n      pop\n        /* \"#utility.yul\":7786:7857   */\n      tag_539\n        /* \"#utility.yul\":7854:7855   */\n      0x00\n        /* \"#utility.yul\":7843:7852   */\n      dup4\n        /* \"#utility.yul\":7839:7856   */\n      add\n        /* \"#utility.yul\":7830:7836   */\n      dup5\n        /* \"#utility.yul\":7786:7857   */\n      tag_407\n      jump\t// in\n    tag_539:\n        /* \"#utility.yul\":7642:7864   */\n      swap3\n      swap2\n      pop\n      pop\n      jump\t// out\n        /* \"#utility.yul\":7870:7986   */\n    tag_408:\n        /* \"#utility.yul\":7940:7961   */\n      tag_541\n        /* \"#utility.yul\":7955:7960   */\n      dup2\n        /* \"#utility.yul\":7940:7961   */\n      tag_388\n      jump\t// in\n    tag_541:\n        /* \"#utility.yul\":7933:7938   */\n      dup2\n        /* \"#utility.yul\":7930:7962   */\n      eq\n        /* \"#utility.yul\":7920:7980   */\n      tag_542\n      jumpi\n        /* \"#utility.yul\":7976:7977   */\n      0x00\n        /* \"#utility.yul\":7973:7974   */\n      dup1\n        /* \"#utility.yul\":7966:7978   */\n      revert\n        /* \"#utility.yul\":7920:7980   */\n    tag_542:\n        /* \"#utility.yul\":7870:7986   */\n      pop\n      jump\t// out\n        /* \"#utility.yul\":7992:8125   */\n    tag_409:\n        /* \"#utility.yul\":8035:8040   */\n      0x00\n        /* \"#utility.yul\":8073:8079   */\n      dup2\n        /* \"#utility.yul\":8060:8080   */\n      calldataload\n        /* \"#utility.yul\":8051:8080   */\n      swap1\n      pop\n        /* \"#utility.yul\":8089:8119   */\n      tag_544\n        /* \"#utility.yul\":8113:8118   */\n      dup2\n        /* \"#utility.yul\":8089:8119   */\n      tag_408\n      jump\t// in\n    tag_544:\n        /* \"#utility.yul\":7992:8125   */\n      swap3\n      swap2\n      pop\n      pop\n      jump\t// out\n        /* \"#utility.yul\":8131:8599   */\n    tag_115:\n        /* \"#utility.yul\":8196:8202   */\n      0x00\n        /* \"#utility.yul\":8204:8210   */\n      dup1\n        /* \"#utility.yul\":8253:8255   */\n      0x40\n        /* \"#utility.yul\":8241:8250   */\n      dup4\n        /* \"#utility.yul\":8232:8239   */\n      dup6\n        /* \"#utility.yul\":8228:8251   */\n      sub\n        /* \"#utility.yul\":8224:8256   */\n      slt\n        /* \"#utility.yul\":8221:8340   */\n      iszero\n      tag_546\n      jumpi\n        /* \"#utility.yul\":8259:8338   */\n      tag_547\n      tag_383\n      jump\t// in\n    tag_547:\n        /* \"#utility.yul\":8221:8340   */\n    tag_546:\n        /* \"#utility.yul\":8379:8380   */\n      0x00\n        /* \"#utility.yul\":8404:8457   */\n      tag_548\n        /* \"#utility.yul\":8449:8456   */\n      dup6\n        /* \"#utility.yul\":8440:8446   */\n      dup3\n        /* \"#utility.yul\":8429:8438   */\n      dup7\n        /* \"#utility.yul\":8425:8447   */\n      add\n        /* \"#utility.yul\":8404:8457   */\n      tag_402\n      jump\t// in\n    tag_548:\n        /* \"#utility.yul\":8394:8457   */\n      swap3\n      pop\n        /* \"#utility.yul\":8350:8467   */\n      pop\n        /* \"#utility.yul\":8506:8508   */\n      0x20\n        /* \"#utility.yul\":8532:8582   */\n      tag_549\n        /* \"#utility.yul\":8574:8581   */\n      dup6\n        /* \"#utility.yul\":8565:8571   */\n      dup3\n        /* \"#utility.yul\":8554:8563   */\n      dup7\n        /* \"#utility.yul\":8550:8572   */\n      add\n        /* \"#utility.yul\":8532:8582   */\n      tag_409\n      jump\t// in\n    tag_549:\n        /* \"#utility.yul\":8522:8582   */\n      swap2\n      pop\n        /* \"#utility.yul\":8477:8592   */\n      pop\n        /* \"#utility.yul\":8131:8599   */\n      swap3\n      pop\n      swap3\n      swap1\n      pop\n      jump\t// out\n        /* \"#utility.yul\":8605:8722   */\n    tag_410:\n        /* \"#utility.yul\":8714:8715   */\n      0x00\n        /* \"#utility.yul\":8711:8712   */\n      dup1\n        /* \"#utility.yul\":8704:8716   */\n      revert\n        /* \"#utility.yul\":8728:8845   */\n    tag_411:\n        /* \"#utility.yul\":8837:8838   */\n      0x00\n        /* \"#utility.yul\":8834:8835   */\n      dup1\n        /* \"#utility.yul\":8827:8839   */\n      revert\n        /* \"#utility.yul\":8851:9031   */\n    tag_328:\n        /* \"#utility.yul\":8899:8976   */\n      0x4e487b7100000000000000000000000000000000000000000000000000000000\n        /* \"#utility.yul\":8896:8897   */\n      0x00\n        /* \"#utility.yul\":8889:8977   */\n      mstore\n        /* \"#utility.yul\":8996:9000   */\n      0x41\n        /* \"#utility.yul\":8993:8994   */\n      0x04\n        /* \"#utility.yul\":8986:9001   */\n      mstore\n        /* \"#utility.yul\":9020:9024   */\n      0x24\n        /* \"#utility.yul\":9017:9018   */\n      0x00\n        /* \"#utility.yul\":9010:9025   */\n      revert\n        /* \"#utility.yul\":9037:9318   */\n    tag_412:\n        /* \"#utility.yul\":9120:9147   */\n      tag_554\n        /* \"#utility.yul\":9142:9146   */\n      dup3\n        /* \"#utility.yul\":9120:9147   */\n      tag_393\n      jump\t// in\n    tag_554:\n        /* \"#utility.yul\":9112:9118   */\n      dup2\n        /* \"#utility.yul\":9108:9148   */\n      add\n        /* \"#utility.yul\":9250:9256   */\n      dup2\n        /* \"#utility.yul\":9238:9248   */\n      dup2\n        /* \"#utility.yul\":9235:9257   */\n      lt\n        /* \"#utility.yul\":9214:9232   */\n      0xffffffffffffffff\n        /* \"#utility.yul\":9202:9212   */\n      dup3\n        /* \"#utility.yul\":9199:9233   */\n      gt\n        /* \"#utility.yul\":9196:9258   */\n      or\n        /* \"#utility.yul\":9193:9281   */\n      iszero\n      tag_555\n      jumpi\n        /* \"#utility.yul\":9261:9279   */\n      tag_556\n      tag_328\n      jump\t// in\n    tag_556:\n        /* \"#utility.yul\":9193:9281   */\n    tag_555:\n        /* \"#utility.yul\":9301:9311   */\n      dup1\n        /* \"#utility.yul\":9297:9299   */\n      0x40\n        /* \"#utility.yul\":9290:9312   */\n      mstore\n        /* \"#utility.yul\":9080:9318   */\n      pop\n        /* \"#utility.yul\":9037:9318   */\n      pop\n      pop\n      jump\t// out\n        /* \"#utility.yul\":9324:9453   */\n    tag_413:\n        /* \"#utility.yul\":9358:9364   */\n      0x00\n        /* \"#utility.yul\":9385:9405   */\n      tag_558\n      tag_382\n      jump\t// in\n    tag_558:\n        /* \"#utility.yul\":9375:9405   */\n      swap1\n      pop\n        /* \"#utility.yul\":9414:9447   */\n      tag_559\n        /* \"#utility.yul\":9442:9446   */\n      dup3\n        /* \"#utility.yul\":9434:9440   */\n      dup3\n        /* \"#utility.yul\":9414:9447   */\n      tag_412\n      jump\t// in\n    tag_559:\n        /* \"#utility.yul\":9324:9453   */\n      swap2\n      swap1\n      pop\n      jump\t// out\n        /* \"#utility.yul\":9459:9766   */\n    tag_414:\n        /* \"#utility.yul\":9520:9524   */\n      0x00\n        /* \"#utility.yul\":9610:9628   */\n      0xffffffffffffffff\n        /* \"#utility.yul\":9602:9608   */\n      dup3\n        /* \"#utility.yul\":9599:9629   */\n      gt\n        /* \"#utility.yul\":9596:9652   */\n      iszero\n      tag_561\n      jumpi\n        /* \"#utility.yul\":9632:9650   */\n      tag_562\n      tag_328\n      jump\t// in\n    tag_562:\n        /* \"#utility.yul\":9596:9652   */\n    tag_561:\n        /* \"#utility.yul\":9670:9699   */\n      tag_563\n        /* \"#utility.yul\":9692:9698   */\n      dup3\n        /* \"#utility.yul\":9670:9699   */\n      tag_393\n      jump\t// in\n    tag_563:\n        /* \"#utility.yul\":9662:9699   */\n      swap1\n      pop\n        /* \"#utility.yul\":9754:9758   */\n      0x20\n        /* \"#utility.yul\":9748:9752   */\n      dup2\n        /* \"#utility.yul\":9744:9759   */\n      add\n        /* \"#utility.yul\":9736:9759   */\n      swap1\n      pop\n        /* \"#utility.yul\":9459:9766   */\n      swap2\n      swap1\n      pop\n      jump\t// out\n        /* \"#utility.yul\":9772:9918   */\n    tag_415:\n        /* \"#utility.yul\":9869:9875   */\n      dup3\n        /* \"#utility.yul\":9864:9867   */\n      dup2\n        /* \"#utility.yul\":9859:9862   */\n      dup4\n        /* \"#utility.yul\":9846:9876   */\n      calldatacopy\n        /* \"#utility.yul\":9910:9911   */\n      0x00\n        /* \"#utility.yul\":9901:9907   */\n      dup4\n        /* \"#utility.yul\":9896:9899   */\n      dup4\n        /* \"#utility.yul\":9892:9908   */\n      add\n        /* \"#utility.yul\":9885:9912   */\n      mstore\n        /* \"#utility.yul\":9772:9918   */\n      pop\n      pop\n      pop\n      jump\t// out\n        /* \"#utility.yul\":9924:10347   */\n    tag_416:\n        /* \"#utility.yul\":10001:10006   */\n      0x00\n        /* \"#utility.yul\":10026:10091   */\n      tag_566\n        /* \"#utility.yul\":10042:10090   */\n      tag_567\n        /* \"#utility.yul\":10083:10089   */\n      dup5\n        /* \"#utility.yul\":10042:10090   */\n      tag_414\n      jump\t// in\n    tag_567:\n        /* \"#utility.yul\":10026:10091   */\n      tag_413\n      jump\t// in\n    tag_566:\n        /* \"#utility.yul\":10017:10091   */\n      swap1\n      pop\n        /* \"#utility.yul\":10114:10120   */\n      dup3\n        /* \"#utility.yul\":10107:10112   */\n      dup2\n        /* \"#utility.yul\":10100:10121   */\n      mstore\n        /* \"#utility.yul\":10152:10156   */\n      0x20\n        /* \"#utility.yul\":10145:10150   */\n      dup2\n        /* \"#utility.yul\":10141:10157   */\n      add\n        /* \"#utility.yul\":10190:10193   */\n      dup5\n        /* \"#utility.yul\":10181:10187   */\n      dup5\n        /* \"#utility.yul\":10176:10179   */\n      dup5\n        /* \"#utility.yul\":10172:10188   */\n      add\n        /* \"#utility.yul\":10169:10194   */\n      gt\n        /* \"#utility.yul\":10166:10278   */\n      iszero\n      tag_568\n      jumpi\n        /* \"#utility.yul\":10197:10276   */\n      tag_569\n      tag_411\n      jump\t// in\n    tag_569:\n        /* \"#utility.yul\":10166:10278   */\n    tag_568:\n        /* \"#utility.yul\":10287:10341   */\n      tag_570\n        /* \"#utility.yul\":10334:10340   */\n      dup5\n        /* \"#utility.yul\":10329:10332   */\n      dup3\n        /* \"#utility.yul\":10324:10327   */\n      dup6\n        /* \"#utility.yul\":10287:10341   */\n      tag_415\n      jump\t// in\n    tag_570:\n        /* \"#utility.yul\":10007:10347   */\n      pop\n        /* \"#utility.yul\":9924:10347   */\n      swap4\n      swap3\n      pop\n      pop\n      pop\n      jump\t// out\n        /* \"#utility.yul\":10366:10704   */\n    tag_417:\n        /* \"#utility.yul\":10421:10426   */\n      0x00\n        /* \"#utility.yul\":10470:10473   */\n      dup3\n        /* \"#utility.yul\":10463:10467   */\n      0x1f\n        /* \"#utility.yul\":10455:10461   */\n      dup4\n        /* \"#utility.yul\":10451:10468   */\n      add\n        /* \"#utility.yul\":10447:10474   */\n      slt\n        /* \"#utility.yul\":10437:10559   */\n      tag_572\n      jumpi\n        /* \"#utility.yul\":10478:10557   */\n      tag_573\n      tag_410\n      jump\t// in\n    tag_573:\n        /* \"#utility.yul\":10437:10559   */\n    tag_572:\n        /* \"#utility.yul\":10595:10601   */\n      dup2\n        /* \"#utility.yul\":10582:10602   */\n      calldataload\n        /* \"#utility.yul\":10620:10698   */\n      tag_574\n        /* \"#utility.yul\":10694:10697   */\n      dup5\n        /* \"#utility.yul\":10686:10692   */\n      dup3\n        /* \"#utility.yul\":10679:10683   */\n      0x20\n        /* \"#utility.yul\":10671:10677   */\n      dup7\n        /* \"#utility.yul\":10667:10684   */\n      add\n        /* \"#utility.yul\":10620:10698   */\n      tag_416\n      jump\t// in\n    tag_574:\n        /* \"#utility.yul\":10611:10698   */\n      swap2\n      pop\n        /* \"#utility.yul\":10427:10704   */\n      pop\n        /* \"#utility.yul\":10366:10704   */\n      swap3\n      swap2\n      pop\n      pop\n      jump\t// out\n        /* \"#utility.yul\":10710:11653   */\n    tag_120:\n        /* \"#utility.yul\":10805:10811   */\n      0x00\n        /* \"#utility.yul\":10813:10819   */\n      dup1\n        /* \"#utility.yul\":10821:10827   */\n      0x00\n        /* \"#utility.yul\":10829:10835   */\n      dup1\n        /* \"#utility.yul\":10878:10881   */\n      0x80\n        /* \"#utility.yul\":10866:10875   */\n      dup6\n        /* \"#utility.yul\":10857:10864   */\n      dup8\n        /* \"#utility.yul\":10853:10876   */\n      sub\n        /* \"#utility.yul\":10849:10882   */\n      slt\n        /* \"#utility.yul\":10846:10966   */\n      iszero\n      tag_576\n      jumpi\n        /* \"#utility.yul\":10885:10964   */\n      tag_577\n      tag_383\n      jump\t// in\n    tag_577:\n        /* \"#utility.yul\":10846:10966   */\n    tag_576:\n        /* \"#utility.yul\":11005:11006   */\n      0x00\n        /* \"#utility.yul\":11030:11083   */\n      tag_578\n        /* \"#utility.yul\":11075:11082   */\n      dup8\n        /* \"#utility.yul\":11066:11072   */\n      dup3\n        /* \"#utility.yul\":11055:11064   */\n      dup9\n        /* \"#utility.yul\":11051:11073   */\n      add\n        /* \"#utility.yul\":11030:11083   */\n      tag_402\n      jump\t// in\n    tag_578:\n        /* \"#utility.yul\":11020:11083   */\n      swap5\n      pop\n        /* \"#utility.yul\":10976:11093   */\n      pop\n        /* \"#utility.yul\":11132:11134   */\n      0x20\n        /* \"#utility.yul\":11158:11211   */\n      tag_579\n        /* \"#utility.yul\":11203:11210   */\n      dup8\n        /* \"#utility.yul\":11194:11200   */\n      dup3\n        /* \"#utility.yul\":11183:11192   */\n      dup9\n        /* \"#utility.yul\":11179:11201   */\n      add\n        /* \"#utility.yul\":11158:11211   */\n      tag_402\n      jump\t// in\n    tag_579:\n        /* \"#utility.yul\":11148:11211   */\n      swap4\n      pop\n        /* \"#utility.yul\":11103:11221   */\n      pop\n        /* \"#utility.yul\":11260:11262   */\n      0x40\n        /* \"#utility.yul\":11286:11339   */\n      tag_580\n        /* \"#utility.yul\":11331:11338   */\n      dup8\n        /* \"#utility.yul\":11322:11328   */\n      dup3\n        /* \"#utility.yul\":11311:11320   */\n      dup9\n        /* \"#utility.yul\":11307:11329   */\n      add\n        /* \"#utility.yul\":11286:11339   */\n      tag_397\n      jump\t// in\n    tag_580:\n        /* \"#utility.yul\":11276:11339   */\n      swap3\n      pop\n        /* \"#utility.yul\":11231:11349   */\n      pop\n        /* \"#utility.yul\":11416:11418   */\n      0x60\n        /* \"#utility.yul\":11405:11414   */\n      dup6\n        /* \"#utility.yul\":11401:11419   */\n      add\n        /* \"#utility.yul\":11388:11420   */\n      calldataload\n        /* \"#utility.yul\":11447:11465   */\n      0xffffffffffffffff\n        /* \"#utility.yul\":11439:11445   */\n      dup2\n        /* \"#utility.yul\":11436:11466   */\n      gt\n        /* \"#utility.yul\":11433:11550   */\n      iszero\n      tag_581\n      jumpi\n        /* \"#utility.yul\":11469:11548   */\n      tag_582\n      tag_384\n      jump\t// in\n    tag_582:\n        /* \"#utility.yul\":11433:11550   */\n    tag_581:\n        /* \"#utility.yul\":11574:11636   */\n      tag_583\n        /* \"#utility.yul\":11628:11635   */\n      dup8\n        /* \"#utility.yul\":11619:11625   */\n      dup3\n        /* \"#utility.yul\":11608:11617   */\n      dup9\n        /* \"#utility.yul\":11604:11626   */\n      add\n        /* \"#utility.yul\":11574:11636   */\n      tag_417\n      jump\t// in\n    tag_583:\n        /* \"#utility.yul\":11564:11636   */\n      swap2\n      pop\n        /* \"#utility.yul\":11359:11646   */\n      pop\n        /* \"#utility.yul\":10710:11653   */\n      swap3\n      swap6\n      swap2\n      swap5\n      pop\n      swap3\n      pop\n      jump\t// out\n        /* \"#utility.yul\":11659:11719   */\n    tag_418:\n        /* \"#utility.yul\":11687:11690   */\n      0x00\n        /* \"#utility.yul\":11708:11713   */\n      dup2\n        /* \"#utility.yul\":11701:11713   */\n      swap1\n      pop\n        /* \"#utility.yul\":11659:11719   */\n      swap2\n      swap1\n      pop\n      jump\t// out\n        /* \"#utility.yul\":11725:11867   */\n    tag_419:\n        /* \"#utility.yul\":11775:11784   */\n      0x00\n        /* \"#utility.yul\":11808:11861   */\n      tag_586\n        /* \"#utility.yul\":11826:11860   */\n      tag_587\n        /* \"#utility.yul\":11835:11859   */\n      tag_588\n        /* \"#utility.yul\":11853:11858   */\n      dup5\n        /* \"#utility.yul\":11835:11859   */\n      tag_398\n      jump\t// in\n    tag_588:\n        /* \"#utility.yul\":11826:11860   */\n      tag_418\n      jump\t// in\n    tag_587:\n        /* \"#utility.yul\":11808:11861   */\n      tag_398\n      jump\t// in\n    tag_586:\n        /* \"#utility.yul\":11795:11861   */\n      swap1\n      pop\n        /* \"#utility.yul\":11725:11867   */\n      swap2\n      swap1\n      pop\n      jump\t// out\n        /* \"#utility.yul\":11873:11999   */\n    tag_420:\n        /* \"#utility.yul\":11923:11932   */\n      0x00\n        /* \"#utility.yul\":11956:11993   */\n      tag_590\n        /* \"#utility.yul\":11987:11992   */\n      dup3\n        /* \"#utility.yul\":11956:11993   */\n      tag_419\n      jump\t// in\n    tag_590:\n        /* \"#utility.yul\":11943:11993   */\n      swap1\n      pop\n        /* \"#utility.yul\":11873:11999   */\n      swap2\n      swap1\n      pop\n      jump\t// out\n        /* \"#utility.yul\":12005:12145   */\n    tag_421:\n        /* \"#utility.yul\":12069:12078   */\n      0x00\n        /* \"#utility.yul\":12102:12139   */\n      tag_592\n        /* \"#utility.yul\":12133:12138   */\n      dup3\n        /* \"#utility.yul\":12102:12139   */\n      tag_420\n      jump\t// in\n    tag_592:\n        /* \"#utility.yul\":12089:12139   */\n      swap1\n      pop\n        /* \"#utility.yul\":12005:12145   */\n      swap2\n      swap1\n      pop\n      jump\t// out\n        /* \"#utility.yul\":12151:12310   */\n    tag_422:\n        /* \"#utility.yul\":12252:12303   */\n      tag_594\n        /* \"#utility.yul\":12297:12302   */\n      dup2\n        /* \"#utility.yul\":12252:12303   */\n      tag_421\n      jump\t// in\n    tag_594:\n        /* \"#utility.yul\":12247:12250   */\n      dup3\n        /* \"#utility.yul\":12240:12304   */\n      mstore\n        /* \"#utility.yul\":12151:12310   */\n      pop\n      pop\n      jump\t// out\n        /* \"#utility.yul\":12316:12566   */\n    tag_126:\n        /* \"#utility.yul\":12423:12427   */\n      0x00\n        /* \"#utility.yul\":12461:12463   */\n      0x20\n        /* \"#utility.yul\":12450:12459   */\n      dup3\n        /* \"#utility.yul\":12446:12464   */\n      add\n        /* \"#utility.yul\":12438:12464   */\n      swap1\n      pop\n        /* \"#utility.yul\":12474:12559   */\n      tag_596\n        /* \"#utility.yul\":12556:12557   */\n      0x00\n        /* \"#utility.yul\":12545:12554   */\n      dup4\n        /* \"#utility.yul\":12541:12558   */\n      add\n        /* \"#utility.yul\":12532:12538   */\n      dup5\n        /* \"#utility.yul\":12474:12559   */\n      tag_422\n      jump\t// in\n    tag_596:\n        /* \"#utility.yul\":12316:12566   */\n      swap3\n      swap2\n      pop\n      pop\n      jump\t// out\n        /* \"#utility.yul\":12572:13046   */\n    tag_135:\n        /* \"#utility.yul\":12640:12646   */\n      0x00\n        /* \"#utility.yul\":12648:12654   */\n      dup1\n        /* \"#utility.yul\":12697:12699   */\n      0x40\n        /* \"#utility.yul\":12685:12694   */\n      dup4\n        /* \"#utility.yul\":12676:12683   */\n      dup6\n        /* \"#utility.yul\":12672:12695   */\n      sub\n        /* \"#utility.yul\":12668:12700   */\n      slt\n        /* \"#utility.yul\":12665:12784   */\n      iszero\n      tag_598\n      jumpi\n        /* \"#utility.yul\":12703:12782   */\n      tag_599\n      tag_383\n      jump\t// in\n    tag_599:\n        /* \"#utility.yul\":12665:12784   */\n    tag_598:\n        /* \"#utility.yul\":12823:12824   */\n      0x00\n        /* \"#utility.yul\":12848:12901   */\n      tag_600\n        /* \"#utility.yul\":12893:12900   */\n      dup6\n        /* \"#utility.yul\":12884:12890   */\n      dup3\n        /* \"#utility.yul\":12873:12882   */\n      dup7\n        /* \"#utility.yul\":12869:12891   */\n      add\n        /* \"#utility.yul\":12848:12901   */\n      tag_402\n      jump\t// in\n    tag_600:\n        /* \"#utility.yul\":12838:12901   */\n      swap3\n      pop\n        /* \"#utility.yul\":12794:12911   */\n      pop\n        /* \"#utility.yul\":12950:12952   */\n      0x20\n        /* \"#utility.yul\":12976:13029   */\n      tag_601\n        /* \"#utility.yul\":13021:13028   */\n      dup6\n        /* \"#utility.yul\":13012:13018   */\n      dup3\n        /* \"#utility.yul\":13001:13010   */\n      dup7\n        /* \"#utility.yul\":12997:13019   */\n      add\n        /* \"#utility.yul\":12976:13029   */\n      tag_402\n      jump\t// in\n    tag_601:\n        /* \"#utility.yul\":12966:13029   */\n      swap2\n      pop\n        /* \"#utility.yul\":12921:13039   */\n      pop\n        /* \"#utility.yul\":12572:13046   */\n      swap3\n      pop\n      swap3\n      swap1\n      pop\n      jump\t// out\n        /* \"#utility.yul\":13052:13232   */\n    tag_423:\n        /* \"#utility.yul\":13100:13177   */\n      0x4e487b7100000000000000000000000000000000000000000000000000000000\n        /* \"#utility.yul\":13097:13098   */\n      0x00\n        /* \"#utility.yul\":13090:13178   */\n      mstore\n        /* \"#utility.yul\":13197:13201   */\n      0x22\n        /* \"#utility.yul\":13194:13195   */\n      0x04\n        /* \"#utility.yul\":13187:13202   */\n      mstore\n        /* \"#utility.yul\":13221:13225   */\n      0x24\n        /* \"#utility.yul\":13218:13219   */\n      0x00\n        /* \"#utility.yul\":13211:13226   */\n      revert\n        /* \"#utility.yul\":13238:13558   */\n    tag_149:\n        /* \"#utility.yul\":13282:13288   */\n      0x00\n        /* \"#utility.yul\":13319:13320   */\n      0x02\n        /* \"#utility.yul\":13313:13317   */\n      dup3\n        /* \"#utility.yul\":13309:13321   */\n      div\n        /* \"#utility.yul\":13299:13321   */\n      swap1\n      pop\n        /* \"#utility.yul\":13366:13367   */\n      0x01\n        /* \"#utility.yul\":13360:13364   */\n      dup3\n        /* \"#utility.yul\":13356:13368   */\n      and\n        /* \"#utility.yul\":13387:13405   */\n      dup1\n        /* \"#utility.yul\":13377:13458   */\n      tag_604\n      jumpi\n        /* \"#utility.yul\":13443:13447   */\n      0x7f\n        /* \"#utility.yul\":13435:13441   */\n      dup3\n        /* \"#utility.yul\":13431:13448   */\n      and\n        /* \"#utility.yul\":13421:13448   */\n      swap2\n      pop\n        /* \"#utility.yul\":13377:13458   */\n    tag_604:\n        /* \"#utility.yul\":13505:13507   */\n      0x20\n        /* \"#utility.yul\":13497:13503   */\n      dup3\n        /* \"#utility.yul\":13494:13508   */\n      lt\n        /* \"#utility.yul\":13474:13492   */\n      dup2\n        /* \"#utility.yul\":13471:13509   */\n      sub\n        /* \"#utility.yul\":13468:13552   */\n      tag_605\n      jumpi\n        /* \"#utility.yul\":13524:13542   */\n      tag_606\n      tag_423\n      jump\t// in\n    tag_606:\n        /* \"#utility.yul\":13468:13552   */\n    tag_605:\n        /* \"#utility.yul\":13289:13558   */\n      pop\n        /* \"#utility.yul\":13238:13558   */\n      swap2\n      swap1\n      pop\n      jump\t// out\n        /* \"#utility.yul\":13564:14006   */\n    tag_172:\n        /* \"#utility.yul\":13713:13717   */\n      0x00\n        /* \"#utility.yul\":13751:13753   */\n      0x60\n        /* \"#utility.yul\":13740:13749   */\n      dup3\n        /* \"#utility.yul\":13736:13754   */\n      add\n        /* \"#utility.yul\":13728:13754   */\n      swap1\n      pop\n        /* \"#utility.yul\":13764:13835   */\n      tag_608\n        /* \"#utility.yul\":13832:13833   */\n      0x00\n        /* \"#utility.yul\":13821:13830   */\n      dup4\n        /* \"#utility.yul\":13817:13834   */\n      add\n        /* \"#utility.yul\":13808:13814   */\n      dup7\n        /* \"#utility.yul\":13764:13835   */\n      tag_400\n      jump\t// in\n    tag_608:\n        /* \"#utility.yul\":13845:13917   */\n      tag_609\n        /* \"#utility.yul\":13913:13915   */\n      0x20\n        /* \"#utility.yul\":13902:13911   */\n      dup4\n        /* \"#utility.yul\":13898:13916   */\n      add\n        /* \"#utility.yul\":13889:13895   */\n      dup6\n        /* \"#utility.yul\":13845:13917   */\n      tag_406\n      jump\t// in\n    tag_609:\n        /* \"#utility.yul\":13927:13999   */\n      tag_610\n        /* \"#utility.yul\":13995:13997   */\n      0x40\n        /* \"#utility.yul\":13984:13993   */\n      dup4\n        /* \"#utility.yul\":13980:13998   */\n      add\n        /* \"#utility.yul\":13971:13977   */\n      dup5\n        /* \"#utility.yul\":13927:13999   */\n      tag_400\n      jump\t// in\n    tag_610:\n        /* \"#utility.yul\":13564:14006   */\n      swap5\n      swap4\n      pop\n      pop\n      pop\n      pop\n      jump\t// out\n        /* \"#utility.yul\":14012:14193   */\n    tag_424:\n        /* \"#utility.yul\":14152:14185   */\n      0x4e46542077697468207468697320494420616c72656164792065786973747300\n        /* \"#utility.yul\":14148:14149   */\n      0x00\n        /* \"#utility.yul\":14140:14146   */\n      dup3\n        /* \"#utility.yul\":14136:14150   */\n      add\n        /* \"#utility.yul\":14129:14186   */\n      mstore\n        /* \"#utility.yul\":14012:14193   */\n      pop\n      jump\t// out\n        /* \"#utility.yul\":14199:14565   */\n    tag_425:\n        /* \"#utility.yul\":14341:14344   */\n      0x00\n        /* \"#utility.yul\":14362:14429   */\n      tag_613\n        /* \"#utility.yul\":14426:14428   */\n      0x1f\n        /* \"#utility.yul\":14421:14424   */\n      dup4\n        /* \"#utility.yul\":14362:14429   */\n      tag_391\n      jump\t// in\n    tag_613:\n        /* \"#utility.yul\":14355:14429   */\n      swap2\n      pop\n        /* \"#utility.yul\":14438:14531   */\n      tag_614\n        /* \"#utility.yul\":14527:14530   */\n      dup3\n        /* \"#utility.yul\":14438:14531   */\n      tag_424\n      jump\t// in\n    tag_614:\n        /* \"#utility.yul\":14556:14558   */\n      0x20\n        /* \"#utility.yul\":14551:14554   */\n      dup3\n        /* \"#utility.yul\":14547:14559   */\n      add\n        /* \"#utility.yul\":14540:14559   */\n      swap1\n      pop\n        /* \"#utility.yul\":14199:14565   */\n      swap2\n      swap1\n      pop\n      jump\t// out\n        /* \"#utility.yul\":14571:14990   */\n    tag_182:\n        /* \"#utility.yul\":14737:14741   */\n      0x00\n        /* \"#utility.yul\":14775:14777   */\n      0x20\n        /* \"#utility.yul\":14764:14773   */\n      dup3\n        /* \"#utility.yul\":14760:14778   */\n      add\n        /* \"#utility.yul\":14752:14778   */\n      swap1\n      pop\n        /* \"#utility.yul\":14824:14833   */\n      dup2\n        /* \"#utility.yul\":14818:14822   */\n      dup2\n        /* \"#utility.yul\":14814:14834   */\n      sub\n        /* \"#utility.yul\":14810:14811   */\n      0x00\n        /* \"#utility.yul\":14799:14808   */\n      dup4\n        /* \"#utility.yul\":14795:14812   */\n      add\n        /* \"#utility.yul\":14788:14835   */\n      mstore\n        /* \"#utility.yul\":14852:14983   */\n      tag_616\n        /* \"#utility.yul\":14978:14982   */\n      dup2\n        /* \"#utility.yul\":14852:14983   */\n      tag_425\n      jump\t// in\n    tag_616:\n        /* \"#utility.yul\":14844:14983   */\n      swap1\n      pop\n        /* \"#utility.yul\":14571:14990   */\n      swap2\n      swap1\n      pop\n      jump\t// out\n        /* \"#utility.yul\":14996:15216   */\n    tag_426:\n        /* \"#utility.yul\":15136:15170   */\n      0x596f7520617265206e6f7420746865206f776e6572206f662074686973204e46\n        /* \"#utility.yul\":15132:15133   */\n      0x00\n        /* \"#utility.yul\":15124:15130   */\n      dup3\n        /* \"#utility.yul\":15120:15134   */\n      add\n        /* \"#utility.yul\":15113:15171   */\n      mstore\n        /* \"#utility.yul\":15205:15208   */\n      0x5400000000000000000000000000000000000000000000000000000000000000\n        /* \"#utility.yul\":15200:15202   */\n      0x20\n        /* \"#utility.yul\":15192:15198   */\n      dup3\n        /* \"#utility.yul\":15188:15203   */\n      add\n        /* \"#utility.yul\":15181:15209   */\n      mstore\n        /* \"#utility.yul\":14996:15216   */\n      pop\n      jump\t// out\n        /* \"#utility.yul\":15222:15588   */\n    tag_427:\n        /* \"#utility.yul\":15364:15367   */\n      0x00\n        /* \"#utility.yul\":15385:15452   */\n      tag_619\n        /* \"#utility.yul\":15449:15451   */\n      0x21\n        /* \"#utility.yul\":15444:15447   */\n      dup4\n        /* \"#utility.yul\":15385:15452   */\n      tag_391\n      jump\t// in\n    tag_619:\n        /* \"#utility.yul\":15378:15452   */\n      swap2\n      pop\n        /* \"#utility.yul\":15461:15554   */\n      tag_620\n        /* \"#utility.yul\":15550:15553   */\n      dup3\n        /* \"#utility.yul\":15461:15554   */\n      tag_426\n      jump\t// in\n    tag_620:\n        /* \"#utility.yul\":15579:15581   */\n      0x40\n        /* \"#utility.yul\":15574:15577   */\n      dup3\n        /* \"#utility.yul\":15570:15582   */\n      add\n        /* \"#utility.yul\":15563:15582   */\n      swap1\n      pop\n        /* \"#utility.yul\":15222:15588   */\n      swap2\n      swap1\n      pop\n      jump\t// out\n        /* \"#utility.yul\":15594:16013   */\n    tag_202:\n        /* \"#utility.yul\":15760:15764   */\n      0x00\n        /* \"#utility.yul\":15798:15800   */\n      0x20\n        /* \"#utility.yul\":15787:15796   */\n      dup3\n        /* \"#utility.yul\":15783:15801   */\n      add\n        /* \"#utility.yul\":15775:15801   */\n      swap1\n      pop\n        /* \"#utility.yul\":15847:15856   */\n      dup2\n        /* \"#utility.yul\":15841:15845   */\n      dup2\n        /* \"#utility.yul\":15837:15857   */\n      sub\n        /* \"#utility.yul\":15833:15834   */\n      0x00\n        /* \"#utility.yul\":15822:15831   */\n      dup4\n        /* \"#utility.yul\":15818:15835   */\n      add\n        /* \"#utility.yul\":15811:15858   */\n      mstore\n        /* \"#utility.yul\":15875:16006   */\n      tag_622\n        /* \"#utility.yul\":16001:16005   */\n      dup2\n        /* \"#utility.yul\":15875:16006   */\n      tag_427\n      jump\t// in\n    tag_622:\n        /* \"#utility.yul\":15867:16006   */\n      swap1\n      pop\n        /* \"#utility.yul\":15594:16013   */\n      swap2\n      swap1\n      pop\n      jump\t// out\n        /* \"#utility.yul\":16019:16461   */\n    tag_206:\n        /* \"#utility.yul\":16168:16172   */\n      0x00\n        /* \"#utility.yul\":16206:16208   */\n      0x60\n        /* \"#utility.yul\":16195:16204   */\n      dup3\n        /* \"#utility.yul\":16191:16209   */\n      add\n        /* \"#utility.yul\":16183:16209   */\n      swap1\n      pop\n        /* \"#utility.yul\":16219:16290   */\n      tag_624\n        /* \"#utility.yul\":16287:16288   */\n      0x00\n        /* \"#utility.yul\":16276:16285   */\n      dup4\n        /* \"#utility.yul\":16272:16289   */\n      add\n        /* \"#utility.yul\":16263:16269   */\n      dup7\n        /* \"#utility.yul\":16219:16290   */\n      tag_400\n      jump\t// in\n    tag_624:\n        /* \"#utility.yul\":16300:16372   */\n      tag_625\n        /* \"#utility.yul\":16368:16370   */\n      0x20\n        /* \"#utility.yul\":16357:16366   */\n      dup4\n        /* \"#utility.yul\":16353:16371   */\n      add\n        /* \"#utility.yul\":16344:16350   */\n      dup6\n        /* \"#utility.yul\":16300:16372   */\n      tag_400\n      jump\t// in\n    tag_625:\n        /* \"#utility.yul\":16382:16454   */\n      tag_626\n        /* \"#utility.yul\":16450:16452   */\n      0x40\n        /* \"#utility.yul\":16439:16448   */\n      dup4\n        /* \"#utility.yul\":16435:16453   */\n      add\n        /* \"#utility.yul\":16426:16432   */\n      dup5\n        /* \"#utility.yul\":16382:16454   */\n      tag_406\n      jump\t// in\n    tag_626:\n        /* \"#utility.yul\":16019:16461   */\n      swap5\n      swap4\n      pop\n      pop\n      pop\n      pop\n      jump\t// out\n        /* \"#utility.yul\":16467:16604   */\n    tag_428:\n        /* \"#utility.yul\":16521:16526   */\n      0x00\n        /* \"#utility.yul\":16552:16558   */\n      dup2\n        /* \"#utility.yul\":16546:16559   */\n      mload\n        /* \"#utility.yul\":16537:16559   */\n      swap1\n      pop\n        /* \"#utility.yul\":16568:16598   */\n      tag_628\n        /* \"#utility.yul\":16592:16597   */\n      dup2\n        /* \"#utility.yul\":16568:16598   */\n      tag_408\n      jump\t// in\n    tag_628:\n        /* \"#utility.yul\":16467:16604   */\n      swap3\n      swap2\n      pop\n      pop\n      jump\t// out\n        /* \"#utility.yul\":16610:16955   */\n    tag_210:\n        /* \"#utility.yul\":16677:16683   */\n      0x00\n        /* \"#utility.yul\":16726:16728   */\n      0x20\n        /* \"#utility.yul\":16714:16723   */\n      dup3\n        /* \"#utility.yul\":16705:16712   */\n      dup5\n        /* \"#utility.yul\":16701:16724   */\n      sub\n        /* \"#utility.yul\":16697:16729   */\n      slt\n        /* \"#utility.yul\":16694:16813   */\n      iszero\n      tag_630\n      jumpi\n        /* \"#utility.yul\":16732:16811   */\n      tag_631\n      tag_383\n      jump\t// in\n    tag_631:\n        /* \"#utility.yul\":16694:16813   */\n    tag_630:\n        /* \"#utility.yul\":16852:16853   */\n      0x00\n        /* \"#utility.yul\":16877:16938   */\n      tag_632\n        /* \"#utility.yul\":16930:16937   */\n      dup5\n        /* \"#utility.yul\":16921:16927   */\n      dup3\n        /* \"#utility.yul\":16910:16919   */\n      dup6\n        /* \"#utility.yul\":16906:16928   */\n      add\n        /* \"#utility.yul\":16877:16938   */\n      tag_428\n      jump\t// in\n    tag_632:\n        /* \"#utility.yul\":16867:16938   */\n      swap2\n      pop\n        /* \"#utility.yul\":16823:16948   */\n      pop\n        /* \"#utility.yul\":16610:16955   */\n      swap3\n      swap2\n      pop\n      pop\n      jump\t// out\n        /* \"#utility.yul\":16961:17139   */\n    tag_429:\n        /* \"#utility.yul\":17101:17131   */\n      0x546f6b656e20416d6f756e74207472616e73666572206661696c656400000000\n        /* \"#utility.yul\":17097:17098   */\n      0x00\n        /* \"#utility.yul\":17089:17095   */\n      dup3\n        /* \"#utility.yul\":17085:17099   */\n      add\n        /* \"#utility.yul\":17078:17132   */\n      mstore\n        /* \"#utility.yul\":16961:17139   */\n      pop\n      jump\t// out\n        /* \"#utility.yul\":17145:17511   */\n    tag_430:\n        /* \"#utility.yul\":17287:17290   */\n      0x00\n        /* \"#utility.yul\":17308:17375   */\n      tag_635\n        /* \"#utility.yul\":17372:17374   */\n      0x1c\n        /* \"#utility.yul\":17367:17370   */\n      dup4\n        /* \"#utility.yul\":17308:17375   */\n      tag_391\n      jump\t// in\n    tag_635:\n        /* \"#utility.yul\":17301:17375   */\n      swap2\n      pop\n        /* \"#utility.yul\":17384:17477   */\n      tag_636\n        /* \"#utility.yul\":17473:17476   */\n      dup3\n        /* \"#utility.yul\":17384:17477   */\n      tag_429\n      jump\t// in\n    tag_636:\n        /* \"#utility.yul\":17502:17504   */\n      0x20\n        /* \"#utility.yul\":17497:17500   */\n      dup3\n        /* \"#utility.yul\":17493:17505   */\n      add\n        /* \"#utility.yul\":17486:17505   */\n      swap1\n      pop\n        /* \"#utility.yul\":17145:17511   */\n      swap2\n      swap1\n      pop\n      jump\t// out\n        /* \"#utility.yul\":17517:17936   */\n    tag_213:\n        /* \"#utility.yul\":17683:17687   */\n      0x00\n        /* \"#utility.yul\":17721:17723   */\n      0x20\n        /* \"#utility.yul\":17710:17719   */\n      dup3\n        /* \"#utility.yul\":17706:17724   */\n      add\n        /* \"#utility.yul\":17698:17724   */\n      swap1\n      pop\n        /* \"#utility.yul\":17770:17779   */\n      dup2\n        /* \"#utility.yul\":17764:17768   */\n      dup2\n        /* \"#utility.yul\":17760:17780   */\n      sub\n        /* \"#utility.yul\":17756:17757   */\n      0x00\n        /* \"#utility.yul\":17745:17754   */\n      dup4\n        /* \"#utility.yul\":17741:17758   */\n      add\n        /* \"#utility.yul\":17734:17781   */\n      mstore\n        /* \"#utility.yul\":17798:17929   */\n      tag_638\n        /* \"#utility.yul\":17924:17928   */\n      dup2\n        /* \"#utility.yul\":17798:17929   */\n      tag_430\n      jump\t// in\n    tag_638:\n        /* \"#utility.yul\":17790:17929   */\n      swap1\n      pop\n        /* \"#utility.yul\":17517:17936   */\n      swap2\n      swap1\n      pop\n      jump\t// out\n        /* \"#utility.yul\":17942:18036   */\n    tag_431:\n        /* \"#utility.yul\":17975:17983   */\n      0x00\n        /* \"#utility.yul\":18023:18028   */\n      dup2\n        /* \"#utility.yul\":18019:18021   */\n      0x60\n        /* \"#utility.yul\":18015:18029   */\n      shl\n        /* \"#utility.yul\":17994:18029   */\n      swap1\n      pop\n        /* \"#utility.yul\":17942:18036   */\n      swap2\n      swap1\n      pop\n      jump\t// out\n        /* \"#utility.yul\":18042:18136   */\n    tag_432:\n        /* \"#utility.yul\":18081:18088   */\n      0x00\n        /* \"#utility.yul\":18110:18130   */\n      tag_641\n        /* \"#utility.yul\":18124:18129   */\n      dup3\n        /* \"#utility.yul\":18110:18130   */\n      tag_431\n      jump\t// in\n    tag_641:\n        /* \"#utility.yul\":18099:18130   */\n      swap1\n      pop\n        /* \"#utility.yul\":18042:18136   */\n      swap2\n      swap1\n      pop\n      jump\t// out\n        /* \"#utility.yul\":18142:18242   */\n    tag_433:\n        /* \"#utility.yul\":18181:18188   */\n      0x00\n        /* \"#utility.yul\":18210:18236   */\n      tag_643\n        /* \"#utility.yul\":18230:18235   */\n      dup3\n        /* \"#utility.yul\":18210:18236   */\n      tag_432\n      jump\t// in\n    tag_643:\n        /* \"#utility.yul\":18199:18236   */\n      swap1\n      pop\n        /* \"#utility.yul\":18142:18242   */\n      swap2\n      swap1\n      pop\n      jump\t// out\n        /* \"#utility.yul\":18248:18405   */\n    tag_434:\n        /* \"#utility.yul\":18353:18398   */\n      tag_645\n        /* \"#utility.yul\":18373:18397   */\n      tag_646\n        /* \"#utility.yul\":18391:18396   */\n      dup3\n        /* \"#utility.yul\":18373:18397   */\n      tag_399\n      jump\t// in\n    tag_646:\n        /* \"#utility.yul\":18353:18398   */\n      tag_433\n      jump\t// in\n    tag_645:\n        /* \"#utility.yul\":18348:18351   */\n      dup3\n        /* \"#utility.yul\":18341:18399   */\n      mstore\n        /* \"#utility.yul\":18248:18405   */\n      pop\n      pop\n      jump\t// out\n        /* \"#utility.yul\":18411:18490   */\n    tag_435:\n        /* \"#utility.yul\":18450:18457   */\n      0x00\n        /* \"#utility.yul\":18479:18484   */\n      dup2\n        /* \"#utility.yul\":18468:18484   */\n      swap1\n      pop\n        /* \"#utility.yul\":18411:18490   */\n      swap2\n      swap1\n      pop\n      jump\t// out\n        /* \"#utility.yul\":18496:18653   */\n    tag_436:\n        /* \"#utility.yul\":18601:18646   */\n      tag_649\n        /* \"#utility.yul\":18621:18645   */\n      tag_650\n        /* \"#utility.yul\":18639:18644   */\n      dup3\n        /* \"#utility.yul\":18621:18645   */\n      tag_395\n      jump\t// in\n    tag_650:\n        /* \"#utility.yul\":18601:18646   */\n      tag_435\n      jump\t// in\n    tag_649:\n        /* \"#utility.yul\":18596:18599   */\n      dup3\n        /* \"#utility.yul\":18589:18647   */\n      mstore\n        /* \"#utility.yul\":18496:18653   */\n      pop\n      pop\n      jump\t// out\n        /* \"#utility.yul\":18659:19479   */\n    tag_215:\n        /* \"#utility.yul\":18883:18886   */\n      0x00\n        /* \"#utility.yul\":18898:18973   */\n      tag_652\n        /* \"#utility.yul\":18969:18972   */\n      dup3\n        /* \"#utility.yul\":18960:18966   */\n      dup9\n        /* \"#utility.yul\":18898:18973   */\n      tag_434\n      jump\t// in\n    tag_652:\n        /* \"#utility.yul\":18998:19000   */\n      0x14\n        /* \"#utility.yul\":18993:18996   */\n      dup3\n        /* \"#utility.yul\":18989:19001   */\n      add\n        /* \"#utility.yul\":18982:19001   */\n      swap2\n      pop\n        /* \"#utility.yul\":19011:19086   */\n      tag_653\n        /* \"#utility.yul\":19082:19085   */\n      dup3\n        /* \"#utility.yul\":19073:19079   */\n      dup8\n        /* \"#utility.yul\":19011:19086   */\n      tag_434\n      jump\t// in\n    tag_653:\n        /* \"#utility.yul\":19111:19113   */\n      0x14\n        /* \"#utility.yul\":19106:19109   */\n      dup3\n        /* \"#utility.yul\":19102:19114   */\n      add\n        /* \"#utility.yul\":19095:19114   */\n      swap2\n      pop\n        /* \"#utility.yul\":19124:19199   */\n      tag_654\n        /* \"#utility.yul\":19195:19198   */\n      dup3\n        /* \"#utility.yul\":19186:19192   */\n      dup7\n        /* \"#utility.yul\":19124:19199   */\n      tag_436\n      jump\t// in\n    tag_654:\n        /* \"#utility.yul\":19224:19226   */\n      0x20\n        /* \"#utility.yul\":19219:19222   */\n      dup3\n        /* \"#utility.yul\":19215:19227   */\n      add\n        /* \"#utility.yul\":19208:19227   */\n      swap2\n      pop\n        /* \"#utility.yul\":19237:19312   */\n      tag_655\n        /* \"#utility.yul\":19308:19311   */\n      dup3\n        /* \"#utility.yul\":19299:19305   */\n      dup6\n        /* \"#utility.yul\":19237:19312   */\n      tag_436\n      jump\t// in\n    tag_655:\n        /* \"#utility.yul\":19337:19339   */\n      0x20\n        /* \"#utility.yul\":19332:19335   */\n      dup3\n        /* \"#utility.yul\":19328:19340   */\n      add\n        /* \"#utility.yul\":19321:19340   */\n      swap2\n      pop\n        /* \"#utility.yul\":19350:19425   */\n      tag_656\n        /* \"#utility.yul\":19421:19424   */\n      dup3\n        /* \"#utility.yul\":19412:19418   */\n      dup5\n        /* \"#utility.yul\":19350:19425   */\n      tag_436\n      jump\t// in\n    tag_656:\n        /* \"#utility.yul\":19450:19452   */\n      0x20\n        /* \"#utility.yul\":19445:19448   */\n      dup3\n        /* \"#utility.yul\":19441:19453   */\n      add\n        /* \"#utility.yul\":19434:19453   */\n      swap2\n      pop\n        /* \"#utility.yul\":19470:19473   */\n      dup2\n        /* \"#utility.yul\":19463:19473   */\n      swap1\n      pop\n        /* \"#utility.yul\":18659:19479   */\n      swap7\n      swap6\n      pop\n      pop\n      pop\n      pop\n      pop\n      pop\n      jump\t// out\n        /* \"#utility.yul\":19485:19927   */\n    tag_217:\n        /* \"#utility.yul\":19634:19638   */\n      0x00\n        /* \"#utility.yul\":19672:19674   */\n      0x60\n        /* \"#utility.yul\":19661:19670   */\n      dup3\n        /* \"#utility.yul\":19657:19675   */\n      add\n        /* \"#utility.yul\":19649:19675   */\n      swap1\n      pop\n        /* \"#utility.yul\":19685:19756   */\n      tag_658\n        /* \"#utility.yul\":19753:19754   */\n      0x00\n        /* \"#utility.yul\":19742:19751   */\n      dup4\n        /* \"#utility.yul\":19738:19755   */\n      add\n        /* \"#utility.yul\":19729:19735   */\n      dup7\n        /* \"#utility.yul\":19685:19756   */\n      tag_406\n      jump\t// in\n    tag_658:\n        /* \"#utility.yul\":19766:19838   */\n      tag_659\n        /* \"#utility.yul\":19834:19836   */\n      0x20\n        /* \"#utility.yul\":19823:19832   */\n      dup4\n        /* \"#utility.yul\":19819:19837   */\n      add\n        /* \"#utility.yul\":19810:19816   */\n      dup6\n        /* \"#utility.yul\":19766:19838   */\n      tag_406\n      jump\t// in\n    tag_659:\n        /* \"#utility.yul\":19848:19920   */\n      tag_660\n        /* \"#utility.yul\":19916:19918   */\n      0x40\n        /* \"#utility.yul\":19905:19914   */\n      dup4\n        /* \"#utility.yul\":19901:19919   */\n      add\n        /* \"#utility.yul\":19892:19898   */\n      dup5\n        /* \"#utility.yul\":19848:19920   */\n      tag_407\n      jump\t// in\n    tag_660:\n        /* \"#utility.yul\":19485:19927   */\n      swap5\n      swap4\n      pop\n      pop\n      pop\n      pop\n      jump\t// out\n        /* \"#utility.yul\":19933:20018   */\n    tag_437:\n        /* \"#utility.yul\":19978:19985   */\n      0x00\n        /* \"#utility.yul\":20007:20012   */\n      dup2\n        /* \"#utility.yul\":19996:20012   */\n      swap1\n      pop\n        /* \"#utility.yul\":19933:20018   */\n      swap2\n      swap1\n      pop\n      jump\t// out\n        /* \"#utility.yul\":20024:20182   */\n    tag_438:\n        /* \"#utility.yul\":20082:20091   */\n      0x00\n        /* \"#utility.yul\":20115:20176   */\n      tag_663\n        /* \"#utility.yul\":20133:20175   */\n      tag_664\n        /* \"#utility.yul\":20142:20174   */\n      tag_665\n        /* \"#utility.yul\":20168:20173   */\n      dup5\n        /* \"#utility.yul\":20142:20174   */\n      tag_437\n      jump\t// in\n    tag_665:\n        /* \"#utility.yul\":20133:20175   */\n      tag_418\n      jump\t// in\n    tag_664:\n        /* \"#utility.yul\":20115:20176   */\n      tag_395\n      jump\t// in\n    tag_663:\n        /* \"#utility.yul\":20102:20176   */\n      swap1\n      pop\n        /* \"#utility.yul\":20024:20182   */\n      swap2\n      swap1\n      pop\n      jump\t// out\n        /* \"#utility.yul\":20188:20335   */\n    tag_439:\n        /* \"#utility.yul\":20283:20328   */\n      tag_667\n        /* \"#utility.yul\":20322:20327   */\n      dup2\n        /* \"#utility.yul\":20283:20328   */\n      tag_438\n      jump\t// in\n    tag_667:\n        /* \"#utility.yul\":20278:20281   */\n      dup3\n        /* \"#utility.yul\":20271:20329   */\n      mstore\n        /* \"#utility.yul\":20188:20335   */\n      pop\n      pop\n      jump\t// out\n        /* \"#utility.yul\":20341:20799   */\n    tag_225:\n        /* \"#utility.yul\":20498:20502   */\n      0x00\n        /* \"#utility.yul\":20536:20538   */\n      0x60\n        /* \"#utility.yul\":20525:20534   */\n      dup3\n        /* \"#utility.yul\":20521:20539   */\n      add\n        /* \"#utility.yul\":20513:20539   */\n      swap1\n      pop\n        /* \"#utility.yul\":20549:20620   */\n      tag_669\n        /* \"#utility.yul\":20617:20618   */\n      0x00\n        /* \"#utility.yul\":20606:20615   */\n      dup4\n        /* \"#utility.yul\":20602:20619   */\n      add\n        /* \"#utility.yul\":20593:20599   */\n      dup7\n        /* \"#utility.yul\":20549:20620   */\n      tag_406\n      jump\t// in\n    tag_669:\n        /* \"#utility.yul\":20630:20710   */\n      tag_670\n        /* \"#utility.yul\":20706:20708   */\n      0x20\n        /* \"#utility.yul\":20695:20704   */\n      dup4\n        /* \"#utility.yul\":20691:20709   */\n      add\n        /* \"#utility.yul\":20682:20688   */\n      dup6\n        /* \"#utility.yul\":20630:20710   */\n      tag_439\n      jump\t// in\n    tag_670:\n        /* \"#utility.yul\":20720:20792   */\n      tag_671\n        /* \"#utility.yul\":20788:20790   */\n      0x40\n        /* \"#utility.yul\":20777:20786   */\n      dup4\n        /* \"#utility.yul\":20773:20791   */\n      add\n        /* \"#utility.yul\":20764:20770   */\n      dup5\n        /* \"#utility.yul\":20720:20792   */\n      tag_407\n      jump\t// in\n    tag_671:\n        /* \"#utility.yul\":20341:20799   */\n      swap5\n      swap4\n      pop\n      pop\n      pop\n      pop\n      jump\t// out\n        /* \"#utility.yul\":20805:20953   */\n    tag_440:\n        /* \"#utility.yul\":20907:20918   */\n      0x00\n        /* \"#utility.yul\":20944:20947   */\n      dup2\n        /* \"#utility.yul\":20929:20947   */\n      swap1\n      pop\n        /* \"#utility.yul\":20805:20953   */\n      swap3\n      swap2\n      pop\n      pop\n      jump\t// out\n        /* \"#utility.yul\":20959:21349   */\n    tag_441:\n        /* \"#utility.yul\":21065:21068   */\n      0x00\n        /* \"#utility.yul\":21093:21132   */\n      tag_674\n        /* \"#utility.yul\":21126:21131   */\n      dup3\n        /* \"#utility.yul\":21093:21132   */\n      tag_390\n      jump\t// in\n    tag_674:\n        /* \"#utility.yul\":21148:21237   */\n      tag_675\n        /* \"#utility.yul\":21230:21236   */\n      dup2\n        /* \"#utility.yul\":21225:21228   */\n      dup6\n        /* \"#utility.yul\":21148:21237   */\n      tag_440\n      jump\t// in\n    tag_675:\n        /* \"#utility.yul\":21141:21237   */\n      swap4\n      pop\n        /* \"#utility.yul\":21246:21311   */\n      tag_676\n        /* \"#utility.yul\":21304:21310   */\n      dup2\n        /* \"#utility.yul\":21299:21302   */\n      dup6\n        /* \"#utility.yul\":21292:21296   */\n      0x20\n        /* \"#utility.yul\":21285:21290   */\n      dup7\n        /* \"#utility.yul\":21281:21297   */\n      add\n        /* \"#utility.yul\":21246:21311   */\n      tag_392\n      jump\t// in\n    tag_676:\n        /* \"#utility.yul\":21336:21342   */\n      dup1\n        /* \"#utility.yul\":21331:21334   */\n      dup5\n        /* \"#utility.yul\":21327:21343   */\n      add\n        /* \"#utility.yul\":21320:21343   */\n      swap2\n      pop\n        /* \"#utility.yul\":21069:21349   */\n      pop\n        /* \"#utility.yul\":20959:21349   */\n      swap3\n      swap2\n      pop\n      pop\n      jump\t// out\n        /* \"#utility.yul\":21355:21790   */\n    tag_249:\n        /* \"#utility.yul\":21535:21538   */\n      0x00\n        /* \"#utility.yul\":21557:21652   */\n      tag_678\n        /* \"#utility.yul\":21648:21651   */\n      dup3\n        /* \"#utility.yul\":21639:21645   */\n      dup6\n        /* \"#utility.yul\":21557:21652   */\n      tag_441\n      jump\t// in\n    tag_678:\n        /* \"#utility.yul\":21550:21652   */\n      swap2\n      pop\n        /* \"#utility.yul\":21669:21764   */\n      tag_679\n        /* \"#utility.yul\":21760:21763   */\n      dup3\n        /* \"#utility.yul\":21751:21757   */\n      dup5\n        /* \"#utility.yul\":21669:21764   */\n      tag_441\n      jump\t// in\n    tag_679:\n        /* \"#utility.yul\":21662:21764   */\n      swap2\n      pop\n        /* \"#utility.yul\":21781:21784   */\n      dup2\n        /* \"#utility.yul\":21774:21784   */\n      swap1\n      pop\n        /* \"#utility.yul\":21355:21790   */\n      swap4\n      swap3\n      pop\n      pop\n      pop\n      jump\t// out\n        /* \"#utility.yul\":21796:21894   */\n    tag_442:\n        /* \"#utility.yul\":21847:21853   */\n      0x00\n        /* \"#utility.yul\":21881:21886   */\n      dup2\n        /* \"#utility.yul\":21875:21887   */\n      mload\n        /* \"#utility.yul\":21865:21887   */\n      swap1\n      pop\n        /* \"#utility.yul\":21796:21894   */\n      swap2\n      swap1\n      pop\n      jump\t// out\n        /* \"#utility.yul\":21900:22068   */\n    tag_443:\n        /* \"#utility.yul\":21983:21994   */\n      0x00\n        /* \"#utility.yul\":22017:22023   */\n      dup3\n        /* \"#utility.yul\":22012:22015   */\n      dup3\n        /* \"#utility.yul\":22005:22024   */\n      mstore\n        /* \"#utility.yul\":22057:22061   */\n      0x20\n        /* \"#utility.yul\":22052:22055   */\n      dup3\n        /* \"#utility.yul\":22048:22062   */\n      add\n        /* \"#utility.yul\":22033:22062   */\n      swap1\n      pop\n        /* \"#utility.yul\":21900:22068   */\n      swap3\n      swap2\n      pop\n      pop\n      jump\t// out\n        /* \"#utility.yul\":22074:22447   */\n    tag_444:\n        /* \"#utility.yul\":22160:22163   */\n      0x00\n        /* \"#utility.yul\":22188:22226   */\n      tag_683\n        /* \"#utility.yul\":22220:22225   */\n      dup3\n        /* \"#utility.yul\":22188:22226   */\n      tag_442\n      jump\t// in\n    tag_683:\n        /* \"#utility.yul\":22242:22312   */\n      tag_684\n        /* \"#utility.yul\":22305:22311   */\n      dup2\n        /* \"#utility.yul\":22300:22303   */\n      dup6\n        /* \"#utility.yul\":22242:22312   */\n      tag_443\n      jump\t// in\n    tag_684:\n        /* \"#utility.yul\":22235:22312   */\n      swap4\n      pop\n        /* \"#utility.yul\":22321:22386   */\n      tag_685\n        /* \"#utility.yul\":22379:22385   */\n      dup2\n        /* \"#utility.yul\":22374:22377   */\n      dup6\n        /* \"#utility.yul\":22367:22371   */\n      0x20\n        /* \"#utility.yul\":22360:22365   */\n      dup7\n        /* \"#utility.yul\":22356:22372   */\n      add\n        /* \"#utility.yul\":22321:22386   */\n      tag_392\n      jump\t// in\n    tag_685:\n        /* \"#utility.yul\":22411:22440   */\n      tag_686\n        /* \"#utility.yul\":22433:22439   */\n      dup2\n        /* \"#utility.yul\":22411:22440   */\n      tag_393\n      jump\t// in\n    tag_686:\n        /* \"#utility.yul\":22406:22409   */\n      dup5\n        /* \"#utility.yul\":22402:22441   */\n      add\n        /* \"#utility.yul\":22395:22441   */\n      swap2\n      pop\n        /* \"#utility.yul\":22164:22447   */\n      pop\n        /* \"#utility.yul\":22074:22447   */\n      swap3\n      swap2\n      pop\n      pop\n      jump\t// out\n        /* \"#utility.yul\":22453:23093   */\n    tag_306:\n        /* \"#utility.yul\":22648:22652   */\n      0x00\n        /* \"#utility.yul\":22686:22689   */\n      0x80\n        /* \"#utility.yul\":22675:22684   */\n      dup3\n        /* \"#utility.yul\":22671:22690   */\n      add\n        /* \"#utility.yul\":22663:22690   */\n      swap1\n      pop\n        /* \"#utility.yul\":22700:22771   */\n      tag_688\n        /* \"#utility.yul\":22768:22769   */\n      0x00\n        /* \"#utility.yul\":22757:22766   */\n      dup4\n        /* \"#utility.yul\":22753:22770   */\n      add\n        /* \"#utility.yul\":22744:22750   */\n      dup8\n        /* \"#utility.yul\":22700:22771   */\n      tag_400\n      jump\t// in\n    tag_688:\n        /* \"#utility.yul\":22781:22853   */\n      tag_689\n        /* \"#utility.yul\":22849:22851   */\n      0x20\n        /* \"#utility.yul\":22838:22847   */\n      dup4\n        /* \"#utility.yul\":22834:22852   */\n      add\n        /* \"#utility.yul\":22825:22831   */\n      dup7\n        /* \"#utility.yul\":22781:22853   */\n      tag_400\n      jump\t// in\n    tag_689:\n        /* \"#utility.yul\":22863:22935   */\n      tag_690\n        /* \"#utility.yul\":22931:22933   */\n      0x40\n        /* \"#utility.yul\":22920:22929   */\n      dup4\n        /* \"#utility.yul\":22916:22934   */\n      add\n        /* \"#utility.yul\":22907:22913   */\n      dup6\n        /* \"#utility.yul\":22863:22935   */\n      tag_406\n      jump\t// in\n    tag_690:\n        /* \"#utility.yul\":22982:22991   */\n      dup2\n        /* \"#utility.yul\":22976:22980   */\n      dup2\n        /* \"#utility.yul\":22972:22992   */\n      sub\n        /* \"#utility.yul\":22967:22969   */\n      0x60\n        /* \"#utility.yul\":22956:22965   */\n      dup4\n        /* \"#utility.yul\":22952:22970   */\n      add\n        /* \"#utility.yul\":22945:22993   */\n      mstore\n        /* \"#utility.yul\":23010:23086   */\n      tag_691\n        /* \"#utility.yul\":23081:23085   */\n      dup2\n        /* \"#utility.yul\":23072:23078   */\n      dup5\n        /* \"#utility.yul\":23010:23086   */\n      tag_444\n      jump\t// in\n    tag_691:\n        /* \"#utility.yul\":23002:23086   */\n      swap1\n      pop\n        /* \"#utility.yul\":22453:23093   */\n      swap6\n      swap5\n      pop\n      pop\n      pop\n      pop\n      pop\n      jump\t// out\n        /* \"#utility.yul\":23099:23240   */\n    tag_445:\n        /* \"#utility.yul\":23155:23160   */\n      0x00\n        /* \"#utility.yul\":23186:23192   */\n      dup2\n        /* \"#utility.yul\":23180:23193   */\n      mload\n        /* \"#utility.yul\":23171:23193   */\n      swap1\n      pop\n        /* \"#utility.yul\":23202:23234   */\n      tag_693\n        /* \"#utility.yul\":23228:23233   */\n      dup2\n        /* \"#utility.yul\":23202:23234   */\n      tag_386\n      jump\t// in\n    tag_693:\n        /* \"#utility.yul\":23099:23240   */\n      swap3\n      swap2\n      pop\n      pop\n      jump\t// out\n        /* \"#utility.yul\":23246:23595   */\n    tag_309:\n        /* \"#utility.yul\":23315:23321   */\n      0x00\n        /* \"#utility.yul\":23364:23366   */\n      0x20\n        /* \"#utility.yul\":23352:23361   */\n      dup3\n        /* \"#utility.yul\":23343:23350   */\n      dup5\n        /* \"#utility.yul\":23339:23362   */\n      sub\n        /* \"#utility.yul\":23335:23367   */\n      slt\n        /* \"#utility.yul\":23332:23451   */\n      iszero\n      tag_695\n      jumpi\n        /* \"#utility.yul\":23370:23449   */\n      tag_696\n      tag_383\n      jump\t// in\n    tag_696:\n        /* \"#utility.yul\":23332:23451   */\n    tag_695:\n        /* \"#utility.yul\":23490:23491   */\n      0x00\n        /* \"#utility.yul\":23515:23578   */\n      tag_697\n        /* \"#utility.yul\":23570:23577   */\n      dup5\n        /* \"#utility.yul\":23561:23567   */\n      dup3\n        /* \"#utility.yul\":23550:23559   */\n      dup6\n        /* \"#utility.yul\":23546:23568   */\n      add\n        /* \"#utility.yul\":23515:23578   */\n      tag_445\n      jump\t// in\n    tag_697:\n        /* \"#utility.yul\":23505:23578   */\n      swap2\n      pop\n        /* \"#utility.yul\":23461:23588   */\n      pop\n        /* \"#utility.yul\":23246:23595   */\n      swap3\n      swap2\n      pop\n      pop\n      jump\t// out\n        /* \"#utility.yul\":23601:23781   */\n    tag_334:\n        /* \"#utility.yul\":23649:23726   */\n      0x4e487b7100000000000000000000000000000000000000000000000000000000\n        /* \"#utility.yul\":23646:23647   */\n      0x00\n        /* \"#utility.yul\":23639:23727   */\n      mstore\n        /* \"#utility.yul\":23746:23750   */\n      0x12\n        /* \"#utility.yul\":23743:23744   */\n      0x04\n        /* \"#utility.yul\":23736:23751   */\n      mstore\n        /* \"#utility.yul\":23770:23774   */\n      0x24\n        /* \"#utility.yul\":23767:23768   */\n      0x00\n        /* \"#utility.yul\":23760:23775   */\n      revert\n        /* \"#utility.yul\":23787:24119   */\n    tag_355:\n        /* \"#utility.yul\":23908:23912   */\n      0x00\n        /* \"#utility.yul\":23946:23948   */\n      0x40\n        /* \"#utility.yul\":23935:23944   */\n      dup3\n        /* \"#utility.yul\":23931:23949   */\n      add\n        /* \"#utility.yul\":23923:23949   */\n      swap1\n      pop\n        /* \"#utility.yul\":23959:24030   */\n      tag_700\n        /* \"#utility.yul\":24027:24028   */\n      0x00\n        /* \"#utility.yul\":24016:24025   */\n      dup4\n        /* \"#utility.yul\":24012:24029   */\n      add\n        /* \"#utility.yul\":24003:24009   */\n      dup6\n        /* \"#utility.yul\":23959:24030   */\n      tag_400\n      jump\t// in\n    tag_700:\n        /* \"#utility.yul\":24040:24112   */\n      tag_701\n        /* \"#utility.yul\":24108:24110   */\n      0x20\n        /* \"#utility.yul\":24097:24106   */\n      dup4\n        /* \"#utility.yul\":24093:24111   */\n      add\n        /* \"#utility.yul\":24084:24090   */\n      dup5\n        /* \"#utility.yul\":24040:24112   */\n      tag_406\n      jump\t// in\n    tag_701:\n        /* \"#utility.yul\":23787:24119   */\n      swap4\n      swap3\n      pop\n      pop\n      pop\n      jump\t// out\n\n    auxdata: 0xa26469706673582212203214b1311ee203f100044891666930a905352eda97e01f39fd84b5c43873793264736f6c63430008150033\n}\n",
				"bytecode": {
					"linkReferences": {},
					"object": "608060405234801562000010575f80fd5b50604051620032b3380380620032b38339818101604052810190620000369190620002fe565b816040518060400160405280600a81526020017f4e465450617469656e74000000000000000000000000000000000000000000008152506040518060400160405280600481526020017f4e504e5400000000000000000000000000000000000000000000000000000000815250815f9081620000b39190620005bb565b508060019081620000c59190620005bb565b5050505f73ffffffffffffffffffffffffffffffffffffffff168173ffffffffffffffffffffffffffffffffffffffff16036200013b575f6040517f1e4fbdf7000000000000000000000000000000000000000000000000000000008152600401620001329190620006b0565b60405180910390fd5b6200014c81620001d660201b60201c565b508260085f6101000a81548173ffffffffffffffffffffffffffffffffffffffff021916908373ffffffffffffffffffffffffffffffffffffffff1602179055508060095f6101000a81548173ffffffffffffffffffffffffffffffffffffffff021916908373ffffffffffffffffffffffffffffffffffffffff160217905550505050620006cb565b5f60065f9054906101000a900473ffffffffffffffffffffffffffffffffffffffff1690508160065f6101000a81548173ffffffffffffffffffffffffffffffffffffffff021916908373ffffffffffffffffffffffffffffffffffffffff1602179055508173ffffffffffffffffffffffffffffffffffffffff168173ffffffffffffffffffffffffffffffffffffffff167f8be0079c531659141344cd1fd0a4f28419497f9722a3daafe3b4186f6b6457e060405160405180910390a35050565b5f80fd5b5f73ffffffffffffffffffffffffffffffffffffffff82169050919050565b5f620002c8826200029d565b9050919050565b620002da81620002bc565b8114620002e5575f80fd5b50565b5f81519050620002f881620002cf565b92915050565b5f805f6060848603121562000318576200031762000299565b5b5f6200032786828701620002e8565b93505060206200033a86828701620002e8565b92505060406200034d86828701620002e8565b9150509250925092565b5f81519050919050565b7f4e487b71000000000000000000000000000000000000000000000000000000005f52604160045260245ffd5b7f4e487b71000000000000000000000000000000000000000000000000000000005f52602260045260245ffd5b5f6002820490506001821680620003d357607f821691505b602082108103620003e957620003e86200038e565b5b50919050565b5f819050815f5260205f209050919050565b5f6020601f8301049050919050565b5f82821b905092915050565b5f600883026200044d7fffffffffffffffffffffffffffffffffffffffffffffffffffffffffffffffff8262000410565b62000459868362000410565b95508019841693508086168417925050509392505050565b5f819050919050565b5f819050919050565b5f620004a36200049d620004978462000471565b6200047a565b62000471565b9050919050565b5f819050919050565b620004be8362000483565b620004d6620004cd82620004aa565b8484546200041c565b825550505050565b5f90565b620004ec620004de565b620004f9818484620004b3565b505050565b5b818110156200052057620005145f82620004e2565b600181019050620004ff565b5050565b601f8211156200056f576200053981620003ef565b620005448462000401565b8101602085101562000554578190505b6200056c620005638562000401565b830182620004fe565b50505b505050565b5f82821c905092915050565b5f620005915f198460080262000574565b1980831691505092915050565b5f620005ab838362000580565b9150826002028217905092915050565b620005c68262000357565b67ffffffffffffffff811115620005e257620005e162000361565b5b620005ee8254620003bb565b620005fb82828562000524565b5f60209050601f83116001811462000631575f84156200061c578287015190505b6200062885826200059e565b86555062000697565b601f1984166200064186620003ef565b5f5b828110156200066a5784890151825560018201915060208501945060208101905062000643565b868310156200068a578489015162000686601f89168262000580565b8355505b6001600288020188555050505b505050505050565b620006aa81620002bc565b82525050565b5f602082019050620006c55f8301846200069f565b92915050565b612bda80620006d95f395ff3fe60806040526004361061013f575f3560e01c8063863b3894116100b5578063a22cb4651161006e578063a22cb4651461044d578063b88d4fde14610475578063b8fcf9371461049d578063c87b56dd146104c7578063e985e9c514610503578063f2fde38b1461053f5761013f565b8063863b38941461033b5780638da5cb5b146103655780638f3481c01461038f57806394407465146103bf57806394ab67fe146103fb57806395d89b41146104235761013f565b8063374189721161010757806337418972146102355780633c168eab1461025d57806342842e0e146102855780636352211e146102ad57806370a08231146102e9578063715018a6146103255761013f565b806301ffc9a71461014357806306fdde031461017f578063081812fc146101a9578063095ea7b3146101e557806323b872dd1461020d575b5f80fd5b34801561014e575f80fd5b5061016960048036038101906101649190611fe9565b610567565b604051610176919061202e565b60405180910390f35b34801561018a575f80fd5b50610193610648565b6040516101a091906120d1565b60405180910390f35b3480156101b4575f80fd5b506101cf60048036038101906101ca9190612124565b6106d7565b6040516101dc919061218e565b60405180910390f35b3480156101f0575f80fd5b5061020b600480360381019061020691906121d1565b6106f2565b005b348015610218575f80fd5b50610233600480360381019061022e919061220f565b610708565b005b348015610240575f80fd5b5061025b60048036038101906102569190612292565b610807565b005b348015610268575f80fd5b50610283600480360381019061027e91906121d1565b61083b565b005b348015610290575f80fd5b506102ab60048036038101906102a6919061220f565b6108d8565b005b3480156102b8575f80fd5b506102d360048036038101906102ce9190612124565b6108f7565b6040516102e0919061218e565b60405180910390f35b3480156102f4575f80fd5b5061030f600480360381019061030a91906122bd565b610908565b60405161031c91906122f7565b60405180910390f35b348015610330575f80fd5b506103396109be565b005b348015610346575f80fd5b5061034f6109d1565b60405161035c919061218e565b60405180910390f35b348015610370575f80fd5b506103796109f6565b604051610386919061218e565b60405180910390f35b6103a960048036038101906103a49190612310565b610a1e565b6040516103b6919061236f565b60405180910390f35b3480156103ca575f80fd5b506103e560048036038101906103e09190612292565b610c50565b6040516103f2919061202e565b60405180910390f35b348015610406575f80fd5b50610421600480360381019061041c91906121d1565b610c76565b005b34801561042e575f80fd5b50610437610d6b565b60405161044491906120d1565b60405180910390f35b348015610458575f80fd5b50610473600480360381019061046e91906123b2565b610dfb565b005b348015610480575f80fd5b5061049b6004803603810190610496919061251c565b610e11565b005b3480156104a8575f80fd5b506104b1610e2e565b6040516104be91906125f7565b60405180910390f35b3480156104d2575f80fd5b506104ed60048036038101906104e89190612124565b610e53565b6040516104fa91906120d1565b60405180910390f35b34801561050e575f80fd5b5061052960048036038101906105249190612610565b610eb9565b604051610536919061202e565b60405180910390f35b34801561054a575f80fd5b50610565600480360381019061056091906122bd565b610f47565b005b5f7f80ac58cd000000000000000000000000000000000000000000000000000000007bffffffffffffffffffffffffffffffffffffffffffffffffffffffff1916827bffffffffffffffffffffffffffffffffffffffffffffffffffffffff1916148061063157507f5b5e139f000000000000000000000000000000000000000000000000000000007bffffffffffffffffffffffffffffffffffffffffffffffffffffffff1916827bffffffffffffffffffffffffffffffffffffffffffffffffffffffff1916145b80610641575061064082610fcb565b5b9050919050565b60605f80546106569061267b565b80601f01602080910402602001604051908101604052809291908181526020018280546106829061267b565b80156106cd5780601f106106a4576101008083540402835291602001916106cd565b820191905f5260205f20905b8154815290600101906020018083116106b057829003601f168201915b5050505050905090565b5f6106e182611034565b506106eb826110ba565b9050919050565b61070482826106ff6110f3565b6110fa565b5050565b5f73ffffffffffffffffffffffffffffffffffffffff168273ffffffffffffffffffffffffffffffffffffffff1603610778575f6040517f64a0ae9200000000000000000000000000000000000000000000000000000000815260040161076f919061218e565b60405180910390fd5b5f61078b83836107866110f3565b61110c565b90508373ffffffffffffffffffffffffffffffffffffffff168173ffffffffffffffffffffffffffffffffffffffff1614610801578382826040517f64283d7b0000000000000000000000000000000000000000000000000000000081526004016107f8939291906126ab565b60405180910390fd5b50505050565b61080f611317565b6001600b5f8381526020019081526020015f205f6101000a81548160ff02191690831515021790555050565b610843611317565b600a5f8281526020019081526020015f205f9054906101000a900460ff16156108a1576040517f08c379a00000000000000000000000000000000000000000000000000000000081526004016108989061272a565b60405180910390fd5b6108ab828261139e565b6001600a5f8381526020019081526020015f205f6101000a81548160ff0219169083151502179055505050565b6108f283838360405180602001604052805f815250610e11565b505050565b5f61090182611034565b9050919050565b5f8073ffffffffffffffffffffffffffffffffffffffff168273ffffffffffffffffffffffffffffffffffffffff1603610979575f6040517f89c62b64000000000000000000000000000000000000000000000000000000008152600401610970919061218e565b60405180910390fd5b60035f8373ffffffffffffffffffffffffffffffffffffffff1673ffffffffffffffffffffffffffffffffffffffff1681526020019081526020015f20549050919050565b6109c6611317565b6109cf5f611491565b565b60095f9054906101000a900473ffffffffffffffffffffffffffffffffffffffff1681565b5f60065f9054906101000a900473ffffffffffffffffffffffffffffffffffffffff16905090565b5f80610a29846108f7565b90503373ffffffffffffffffffffffffffffffffffffffff168173ffffffffffffffffffffffffffffffffffffffff1614610a99576040517f08c379a0000000000000000000000000000000000000000000000000000000008152600401610a90906127b8565b60405180910390fd5b610aa4818686611554565b60085f9054906101000a900473ffffffffffffffffffffffffffffffffffffffff1673ffffffffffffffffffffffffffffffffffffffff166323b872dd8683866040518463ffffffff1660e01b8152600401610b02939291906127d6565b6020604051808303815f875af1158015610b1e573d5f803e3d5ffd5b505050506040513d601f19601f82011682018060405250810190610b42919061281f565b610b81576040517f08c379a0000000000000000000000000000000000000000000000000000000008152600401610b7890612894565b60405180910390fd5b5f3386868643604051602001610b9b959493929190612917565b6040516020818303038152906040528051906020012090505f600b5f8381526020019081526020015f205f6101000a81548160ff0219169083151502179055508573ffffffffffffffffffffffffffffffffffffffff168273ffffffffffffffffffffffffffffffffffffffff167f9f9ac6bca37e427696541548195017f8d7569c1bdff1ba5b97d815bfb9c11f8c878785604051610c3c93929190612975565b60405180910390a380925050509392505050565b5f600b5f8381526020019081526020015f205f9054906101000a900460ff169050919050565b5f610c80826108f7565b90503373ffffffffffffffffffffffffffffffffffffffff168173ffffffffffffffffffffffffffffffffffffffff1614610cf0576040517f08c379a0000000000000000000000000000000000000000000000000000000008152600401610ce7906127b8565b60405180910390fd5b610cfb818484611554565b8273ffffffffffffffffffffffffffffffffffffffff168173ffffffffffffffffffffffffffffffffffffffff167f9f9ac6bca37e427696541548195017f8d7569c1bdff1ba5b97d815bfb9c11f8c845f805f1b604051610d5e939291906129e3565b60405180910390a3505050565b606060018054610d7a9061267b565b80601f0160208091040260200160405190810160405280929190818152602001828054610da69061267b565b8015610df15780601f10610dc857610100808354040283529160200191610df1565b820191905f5260205f20905b815481529060010190602001808311610dd457829003601f168201915b5050505050905090565b610e0d610e066110f3565b83836116bc565b5050565b610e1c848484610708565b610e2884848484611825565b50505050565b60085f9054906101000a900473ffffffffffffffffffffffffffffffffffffffff1681565b6060610e5e82611034565b505f610e686119d7565b90505f815111610e865760405180602001604052805f815250610eb1565b80610e90846119ed565b604051602001610ea1929190612a52565b6040516020818303038152906040525b915050919050565b5f60055f8473ffffffffffffffffffffffffffffffffffffffff1673ffffffffffffffffffffffffffffffffffffffff1681526020019081526020015f205f8373ffffffffffffffffffffffffffffffffffffffff1673ffffffffffffffffffffffffffffffffffffffff1681526020019081526020015f205f9054906101000a900460ff16905092915050565b610f4f611317565b5f73ffffffffffffffffffffffffffffffffffffffff168173ffffffffffffffffffffffffffffffffffffffff1603610fbf575f6040517f1e4fbdf7000000000000000000000000000000000000000000000000000000008152600401610fb6919061218e565b60405180910390fd5b610fc881611491565b50565b5f7f01ffc9a7000000000000000000000000000000000000000000000000000000007bffffffffffffffffffffffffffffffffffffffffffffffffffffffff1916827bffffffffffffffffffffffffffffffffffffffffffffffffffffffff1916149050919050565b5f8061103f83611ab7565b90505f73ffffffffffffffffffffffffffffffffffffffff168173ffffffffffffffffffffffffffffffffffffffff16036110b157826040517f7e2732890000000000000000000000000000000000000000000000000000000081526004016110a891906122f7565b60405180910390fd5b80915050919050565b5f60045f8381526020019081526020015f205f9054906101000a900473ffffffffffffffffffffffffffffffffffffffff169050919050565b5f33905090565b6111078383836001611af0565b505050565b5f8061111784611ab7565b90505f73ffffffffffffffffffffffffffffffffffffffff168373ffffffffffffffffffffffffffffffffffffffff161461115857611157818486611caf565b5b5f73ffffffffffffffffffffffffffffffffffffffff168173ffffffffffffffffffffffffffffffffffffffff16146111e3576111975f855f80611af0565b600160035f8373ffffffffffffffffffffffffffffffffffffffff1673ffffffffffffffffffffffffffffffffffffffff1681526020019081526020015f205f82825403925050819055505b5f73ffffffffffffffffffffffffffffffffffffffff168573ffffffffffffffffffffffffffffffffffffffff161461126257600160035f8773ffffffffffffffffffffffffffffffffffffffff1673ffffffffffffffffffffffffffffffffffffffff1681526020019081526020015f205f82825401925050819055505b8460025f8681526020019081526020015f205f6101000a81548173ffffffffffffffffffffffffffffffffffffffff021916908373ffffffffffffffffffffffffffffffffffffffff160217905550838573ffffffffffffffffffffffffffffffffffffffff168273ffffffffffffffffffffffffffffffffffffffff167fddf252ad1be2c89b69c2b068fc378daa952ba7f163c4a11628f55a4df523b3ef60405160405180910390a4809150509392505050565b61131f6110f3565b73ffffffffffffffffffffffffffffffffffffffff1661133d6109f6565b73ffffffffffffffffffffffffffffffffffffffff161461139c576113606110f3565b6040517f118cdaa7000000000000000000000000000000000000000000000000000000008152600401611393919061218e565b60405180910390fd5b565b5f73ffffffffffffffffffffffffffffffffffffffff168273ffffffffffffffffffffffffffffffffffffffff160361140e575f6040517f64a0ae92000000000000000000000000000000000000000000000000000000008152600401611405919061218e565b60405180910390fd5b5f61141a83835f61110c565b90505f73ffffffffffffffffffffffffffffffffffffffff168173ffffffffffffffffffffffffffffffffffffffff161461148c575f6040517f73c6ac6e000000000000000000000000000000000000000000000000000000008152600401611483919061218e565b60405180910390fd5b505050565b5f60065f9054906101000a900473ffffffffffffffffffffffffffffffffffffffff1690508160065f6101000a81548173ffffffffffffffffffffffffffffffffffffffff021916908373ffffffffffffffffffffffffffffffffffffffff1602179055508173ffffffffffffffffffffffffffffffffffffffff168173ffffffffffffffffffffffffffffffffffffffff167f8be0079c531659141344cd1fd0a4f28419497f9722a3daafe3b4186f6b6457e060405160405180910390a35050565b5f73ffffffffffffffffffffffffffffffffffffffff168273ffffffffffffffffffffffffffffffffffffffff16036115c4575f6040517f64a0ae920000000000000000000000000000000000000000000000000000000081526004016115bb919061218e565b60405180910390fd5b5f6115d083835f61110c565b90505f73ffffffffffffffffffffffffffffffffffffffff168173ffffffffffffffffffffffffffffffffffffffff160361164257816040517f7e27328900000000000000000000000000000000000000000000000000000000815260040161163991906122f7565b60405180910390fd5b8373ffffffffffffffffffffffffffffffffffffffff168173ffffffffffffffffffffffffffffffffffffffff16146116b6578382826040517f64283d7b0000000000000000000000000000000000000000000000000000000081526004016116ad939291906126ab565b60405180910390fd5b50505050565b5f73ffffffffffffffffffffffffffffffffffffffff168273ffffffffffffffffffffffffffffffffffffffff160361172c57816040517f5b08ba18000000000000000000000000000000000000000000000000000000008152600401611723919061218e565b60405180910390fd5b8060055f8573ffffffffffffffffffffffffffffffffffffffff1673ffffffffffffffffffffffffffffffffffffffff1681526020019081526020015f205f8473ffffffffffffffffffffffffffffffffffffffff1673ffffffffffffffffffffffffffffffffffffffff1681526020019081526020015f205f6101000a81548160ff0219169083151502179055508173ffffffffffffffffffffffffffffffffffffffff168373ffffffffffffffffffffffffffffffffffffffff167f17307eab39ab6107e8899845ad3d59bd9653f200f220920489ca2b5937696c3183604051611818919061202e565b60405180910390a3505050565b5f8373ffffffffffffffffffffffffffffffffffffffff163b11156119d1578273ffffffffffffffffffffffffffffffffffffffff1663150b7a026118686110f3565b8685856040518563ffffffff1660e01b815260040161188a9493929190612ac7565b6020604051808303815f875af19250505080156118c557506040513d601f19601f820116820180604052508101906118c29190612b25565b60015b611946573d805f81146118f3576040519150601f19603f3d011682016040523d82523d5f602084013e6118f8565b606091505b505f81510361193e57836040517f64a0ae92000000000000000000000000000000000000000000000000000000008152600401611935919061218e565b60405180910390fd5b805181602001fd5b63150b7a0260e01b7bffffffffffffffffffffffffffffffffffffffffffffffffffffffff1916817bffffffffffffffffffffffffffffffffffffffffffffffffffffffff1916146119cf57836040517f64a0ae920000000000000000000000000000000000000000000000000000000081526004016119c6919061218e565b60405180910390fd5b505b50505050565b606060405180602001604052805f815250905090565b60605f60016119fb84611d72565b0190505f8167ffffffffffffffff811115611a1957611a186123f8565b5b6040519080825280601f01601f191660200182016040528015611a4b5781602001600182028036833780820191505090505b5090505f82602001820190505b600115611aac578080600190039150507f3031323334353637383961626364656600000000000000000000000000000000600a86061a8153600a8581611aa157611aa0612b50565b5b0494505f8503611a58575b819350505050919050565b5f60025f8381526020019081526020015f205f9054906101000a900473ffffffffffffffffffffffffffffffffffffffff169050919050565b8080611b2857505f73ffffffffffffffffffffffffffffffffffffffff168273ffffffffffffffffffffffffffffffffffffffff1614155b15611c5a575f611b3784611034565b90505f73ffffffffffffffffffffffffffffffffffffffff168373ffffffffffffffffffffffffffffffffffffffff1614158015611ba157508273ffffffffffffffffffffffffffffffffffffffff168173ffffffffffffffffffffffffffffffffffffffff1614155b8015611bb45750611bb28184610eb9565b155b15611bf657826040517fa9fbf51f000000000000000000000000000000000000000000000000000000008152600401611bed919061218e565b60405180910390fd5b8115611c5857838573ffffffffffffffffffffffffffffffffffffffff168273ffffffffffffffffffffffffffffffffffffffff167f8c5be1e5ebec7d5bd14f71427d1e84f3dd0314c0f7b2291e5b200ac8c7c3b92560405160405180910390a45b505b8360045f8581526020019081526020015f205f6101000a81548173ffffffffffffffffffffffffffffffffffffffff021916908373ffffffffffffffffffffffffffffffffffffffff16021790555050505050565b611cba838383611ec3565b611d6d575f73ffffffffffffffffffffffffffffffffffffffff168373ffffffffffffffffffffffffffffffffffffffff1603611d2e57806040517f7e273289000000000000000000000000000000000000000000000000000000008152600401611d2591906122f7565b60405180910390fd5b81816040517f177e802f000000000000000000000000000000000000000000000000000000008152600401611d64929190612b7d565b60405180910390fd5b505050565b5f805f90507a184f03e93ff9f4daa797ed6e38ed64bf6a1f0100000000000000008310611dce577a184f03e93ff9f4daa797ed6e38ed64bf6a1f0100000000000000008381611dc457611dc3612b50565b5b0492506040810190505b6d04ee2d6d415b85acef81000000008310611e0b576d04ee2d6d415b85acef81000000008381611e0157611e00612b50565b5b0492506020810190505b662386f26fc100008310611e3a57662386f26fc100008381611e3057611e2f612b50565b5b0492506010810190505b6305f5e1008310611e63576305f5e1008381611e5957611e58612b50565b5b0492506008810190505b6127108310611e88576127108381611e7e57611e7d612b50565b5b0492506004810190505b60648310611eab5760648381611ea157611ea0612b50565b5b0492506002810190505b600a8310611eba576001810190505b80915050919050565b5f8073ffffffffffffffffffffffffffffffffffffffff168373ffffffffffffffffffffffffffffffffffffffff1614158015611f7a57508273ffffffffffffffffffffffffffffffffffffffff168473ffffffffffffffffffffffffffffffffffffffff161480611f3b5750611f3a8484610eb9565b5b80611f7957508273ffffffffffffffffffffffffffffffffffffffff16611f61836110ba565b73ffffffffffffffffffffffffffffffffffffffff16145b5b90509392505050565b5f604051905090565b5f80fd5b5f80fd5b5f7fffffffff0000000000000000000000000000000000000000000000000000000082169050919050565b611fc881611f94565b8114611fd2575f80fd5b50565b5f81359050611fe381611fbf565b92915050565b5f60208284031215611ffe57611ffd611f8c565b5b5f61200b84828501611fd5565b91505092915050565b5f8115159050919050565b61202881612014565b82525050565b5f6020820190506120415f83018461201f565b92915050565b5f81519050919050565b5f82825260208201905092915050565b5f5b8381101561207e578082015181840152602081019050612063565b5f8484015250505050565b5f601f19601f8301169050919050565b5f6120a382612047565b6120ad8185612051565b93506120bd818560208601612061565b6120c681612089565b840191505092915050565b5f6020820190508181035f8301526120e98184612099565b905092915050565b5f819050919050565b612103816120f1565b811461210d575f80fd5b50565b5f8135905061211e816120fa565b92915050565b5f6020828403121561213957612138611f8c565b5b5f61214684828501612110565b91505092915050565b5f73ffffffffffffffffffffffffffffffffffffffff82169050919050565b5f6121788261214f565b9050919050565b6121888161216e565b82525050565b5f6020820190506121a15f83018461217f565b92915050565b6121b08161216e565b81146121ba575f80fd5b50565b5f813590506121cb816121a7565b92915050565b5f80604083850312156121e7576121e6611f8c565b5b5f6121f4858286016121bd565b925050602061220585828601612110565b9150509250929050565b5f805f6060848603121561222657612225611f8c565b5b5f612233868287016121bd565b9350506020612244868287016121bd565b925050604061225586828701612110565b9150509250925092565b5f819050919050565b6122718161225f565b811461227b575f80fd5b50565b5f8135905061228c81612268565b92915050565b5f602082840312156122a7576122a6611f8c565b5b5f6122b48482850161227e565b91505092915050565b5f602082840312156122d2576122d1611f8c565b5b5f6122df848285016121bd565b91505092915050565b6122f1816120f1565b82525050565b5f60208201905061230a5f8301846122e8565b92915050565b5f805f6060848603121561232757612326611f8c565b5b5f612334868287016121bd565b935050602061234586828701612110565b925050604061235686828701612110565b9150509250925092565b6123698161225f565b82525050565b5f6020820190506123825f830184612360565b92915050565b61239181612014565b811461239b575f80fd5b50565b5f813590506123ac81612388565b92915050565b5f80604083850312156123c8576123c7611f8c565b5b5f6123d5858286016121bd565b92505060206123e68582860161239e565b9150509250929050565b5f80fd5b5f80fd5b7f4e487b71000000000000000000000000000000000000000000000000000000005f52604160045260245ffd5b61242e82612089565b810181811067ffffffffffffffff8211171561244d5761244c6123f8565b5b80604052505050565b5f61245f611f83565b905061246b8282612425565b919050565b5f67ffffffffffffffff82111561248a576124896123f8565b5b61249382612089565b9050602081019050919050565b828183375f83830152505050565b5f6124c06124bb84612470565b612456565b9050828152602081018484840111156124dc576124db6123f4565b5b6124e78482856124a0565b509392505050565b5f82601f830112612503576125026123f0565b5b81356125138482602086016124ae565b91505092915050565b5f805f806080858703121561253457612533611f8c565b5b5f612541878288016121bd565b9450506020612552878288016121bd565b935050604061256387828801612110565b925050606085013567ffffffffffffffff81111561258457612583611f90565b5b612590878288016124ef565b91505092959194509250565b5f819050919050565b5f6125bf6125ba6125b58461214f565b61259c565b61214f565b9050919050565b5f6125d0826125a5565b9050919050565b5f6125e1826125c6565b9050919050565b6125f1816125d7565b82525050565b5f60208201905061260a5f8301846125e8565b92915050565b5f806040838503121561262657612625611f8c565b5b5f612633858286016121bd565b9250506020612644858286016121bd565b9150509250929050565b7f4e487b71000000000000000000000000000000000000000000000000000000005f52602260045260245ffd5b5f600282049050600182168061269257607f821691505b6020821081036126a5576126a461264e565b5b50919050565b5f6060820190506126be5f83018661217f565b6126cb60208301856122e8565b6126d8604083018461217f565b949350505050565b7f4e46542077697468207468697320494420616c726561647920657869737473005f82015250565b5f612714601f83612051565b915061271f826126e0565b602082019050919050565b5f6020820190508181035f83015261274181612708565b9050919050565b7f596f7520617265206e6f7420746865206f776e6572206f662074686973204e465f8201527f5400000000000000000000000000000000000000000000000000000000000000602082015250565b5f6127a2602183612051565b91506127ad82612748565b604082019050919050565b5f6020820190508181035f8301526127cf81612796565b9050919050565b5f6060820190506127e95f83018661217f565b6127f6602083018561217f565b61280360408301846122e8565b949350505050565b5f8151905061281981612388565b92915050565b5f6020828403121561283457612833611f8c565b5b5f6128418482850161280b565b91505092915050565b7f546f6b656e20416d6f756e74207472616e73666572206661696c6564000000005f82015250565b5f61287e601c83612051565b91506128898261284a565b602082019050919050565b5f6020820190508181035f8301526128ab81612872565b9050919050565b5f8160601b9050919050565b5f6128c8826128b2565b9050919050565b5f6128d9826128be565b9050919050565b6128f16128ec8261216e565b6128cf565b82525050565b5f819050919050565b61291161290c826120f1565b6128f7565b82525050565b5f61292282886128e0565b60148201915061293282876128e0565b6014820191506129428286612900565b6020820191506129528285612900565b6020820191506129628284612900565b6020820191508190509695505050505050565b5f6060820190506129885f8301866122e8565b61299560208301856122e8565b6129a26040830184612360565b949350505050565b5f819050919050565b5f6129cd6129c86129c3846129aa565b61259c565b6120f1565b9050919050565b6129dd816129b3565b82525050565b5f6060820190506129f65f8301866122e8565b612a0360208301856129d4565b612a106040830184612360565b949350505050565b5f81905092915050565b5f612a2c82612047565b612a368185612a18565b9350612a46818560208601612061565b80840191505092915050565b5f612a5d8285612a22565b9150612a698284612a22565b91508190509392505050565b5f81519050919050565b5f82825260208201905092915050565b5f612a9982612a75565b612aa38185612a7f565b9350612ab3818560208601612061565b612abc81612089565b840191505092915050565b5f608082019050612ada5f83018761217f565b612ae7602083018661217f565b612af460408301856122e8565b8181036060830152612b068184612a8f565b905095945050505050565b5f81519050612b1f81611fbf565b92915050565b5f60208284031215612b3a57612b39611f8c565b5b5f612b4784828501612b11565b91505092915050565b7f4e487b71000000000000000000000000000000000000000000000000000000005f52601260045260245ffd5b5f604082019050612b905f83018561217f565b612b9d60208301846122e8565b939250505056fea26469706673582212203214b1311ee203f100044891666930a905352eda97e01f39fd84b5c43873793264736f6c63430008150033",
					"opcodes": "PUSH1 0x80 PUSH1 0x40 MSTORE CALLVALUE DUP1 ISZERO PUSH3 0x10 JUMPI PUSH0 DUP1 REVERT JUMPDEST POP PUSH1 0x40 MLOAD PUSH3 0x32B3 CODESIZE SUB DUP1 PUSH3 0x32B3 DUP4 CODECOPY DUP2 DUP2 ADD PUSH1 0x40 MSTORE DUP2 ADD SWAP1 PUSH3 0x36 SWAP2 SWAP1 PUSH3 0x2FE JUMP JUMPDEST DUP2 PUSH1 0x40 MLOAD DUP1 PUSH1 0x40 ADD PUSH1 0x40 MSTORE DUP1 PUSH1 0xA DUP2 MSTORE PUSH1 0x20 ADD PUSH32 0x4E465450617469656E7400000000000000000000000000000000000000000000 DUP2 MSTORE POP PUSH1 0x40 MLOAD DUP1 PUSH1 0x40 ADD PUSH1 0x40 MSTORE DUP1 PUSH1 0x4 DUP2 MSTORE PUSH1 0x20 ADD PUSH32 0x4E504E5400000000000000000000000000000000000000000000000000000000 DUP2 MSTORE POP DUP2 PUSH0 SWAP1 DUP2 PUSH3 0xB3 SWAP2 SWAP1 PUSH3 0x5BB JUMP JUMPDEST POP DUP1 PUSH1 0x1 SWAP1 DUP2 PUSH3 0xC5 SWAP2 SWAP1 PUSH3 0x5BB JUMP JUMPDEST POP POP POP PUSH0 PUSH20 0xFFFFFFFFFFFFFFFFFFFFFFFFFFFFFFFFFFFFFFFF AND DUP2 PUSH20 0xFFFFFFFFFFFFFFFFFFFFFFFFFFFFFFFFFFFFFFFF AND SUB PUSH3 0x13B JUMPI PUSH0 PUSH1 0x40 MLOAD PUSH32 0x1E4FBDF700000000000000000000000000000000000000000000000000000000 DUP2 MSTORE PUSH1 0x4 ADD PUSH3 0x132 SWAP2 SWAP1 PUSH3 0x6B0 JUMP JUMPDEST PUSH1 0x40 MLOAD DUP1 SWAP2 SUB SWAP1 REVERT JUMPDEST PUSH3 0x14C DUP2 PUSH3 0x1D6 PUSH1 0x20 SHL PUSH1 0x20 SHR JUMP JUMPDEST POP DUP3 PUSH1 0x8 PUSH0 PUSH2 0x100 EXP DUP2 SLOAD DUP2 PUSH20 0xFFFFFFFFFFFFFFFFFFFFFFFFFFFFFFFFFFFFFFFF MUL NOT AND SWAP1 DUP4 PUSH20 0xFFFFFFFFFFFFFFFFFFFFFFFFFFFFFFFFFFFFFFFF AND MUL OR SWAP1 SSTORE POP DUP1 PUSH1 0x9 PUSH0 PUSH2 0x100 EXP DUP2 SLOAD DUP2 PUSH20 0xFFFFFFFFFFFFFFFFFFFFFFFFFFFFFFFFFFFFFFFF MUL NOT AND SWAP1 DUP4 PUSH20 0xFFFFFFFFFFFFFFFFFFFFFFFFFFFFFFFFFFFFFFFF AND MUL OR SWAP1 SSTORE POP POP POP POP PUSH3 0x6CB JUMP JUMPDEST PUSH0 PUSH1 0x6 PUSH0 SWAP1 SLOAD SWAP1 PUSH2 0x100 EXP SWAP1 DIV PUSH20 0xFFFFFFFFFFFFFFFFFFFFFFFFFFFFFFFFFFFFFFFF AND SWAP1 POP DUP2 PUSH1 0x6 PUSH0 PUSH2 0x100 EXP DUP2 SLOAD DUP2 PUSH20 0xFFFFFFFFFFFFFFFFFFFFFFFFFFFFFFFFFFFFFFFF MUL NOT AND SWAP1 DUP4 PUSH20 0xFFFFFFFFFFFFFFFFFFFFFFFFFFFFFFFFFFFFFFFF AND MUL OR SWAP1 SSTORE POP DUP2 PUSH20 0xFFFFFFFFFFFFFFFFFFFFFFFFFFFFFFFFFFFFFFFF AND DUP2 PUSH20 0xFFFFFFFFFFFFFFFFFFFFFFFFFFFFFFFFFFFFFFFF AND PUSH32 0x8BE0079C531659141344CD1FD0A4F28419497F9722A3DAAFE3B4186F6B6457E0 PUSH1 0x40 MLOAD PUSH1 0x40 MLOAD DUP1 SWAP2 SUB SWAP1 LOG3 POP POP JUMP JUMPDEST PUSH0 DUP1 REVERT JUMPDEST PUSH0 PUSH20 0xFFFFFFFFFFFFFFFFFFFFFFFFFFFFFFFFFFFFFFFF DUP3 AND SWAP1 POP SWAP2 SWAP1 POP JUMP JUMPDEST PUSH0 PUSH3 0x2C8 DUP3 PUSH3 0x29D JUMP JUMPDEST SWAP1 POP SWAP2 SWAP1 POP JUMP JUMPDEST PUSH3 0x2DA DUP2 PUSH3 0x2BC JUMP JUMPDEST DUP2 EQ PUSH3 0x2E5 JUMPI PUSH0 DUP1 REVERT JUMPDEST POP JUMP JUMPDEST PUSH0 DUP2 MLOAD SWAP1 POP PUSH3 0x2F8 DUP2 PUSH3 0x2CF JUMP JUMPDEST SWAP3 SWAP2 POP POP JUMP JUMPDEST PUSH0 DUP1 PUSH0 PUSH1 0x60 DUP5 DUP7 SUB SLT ISZERO PUSH3 0x318 JUMPI PUSH3 0x317 PUSH3 0x299 JUMP JUMPDEST JUMPDEST PUSH0 PUSH3 0x327 DUP7 DUP3 DUP8 ADD PUSH3 0x2E8 JUMP JUMPDEST SWAP4 POP POP PUSH1 0x20 PUSH3 0x33A DUP7 DUP3 DUP8 ADD PUSH3 0x2E8 JUMP JUMPDEST SWAP3 POP POP PUSH1 0x40 PUSH3 0x34D DUP7 DUP3 DUP8 ADD PUSH3 0x2E8 JUMP JUMPDEST SWAP2 POP POP SWAP3 POP SWAP3 POP SWAP3 JUMP JUMPDEST PUSH0 DUP2 MLOAD SWAP1 POP SWAP2 SWAP1 POP JUMP JUMPDEST PUSH32 0x4E487B7100000000000000000000000000000000000000000000000000000000 PUSH0 MSTORE PUSH1 0x41 PUSH1 0x4 MSTORE PUSH1 0x24 PUSH0 REVERT JUMPDEST PUSH32 0x4E487B7100000000000000000000000000000000000000000000000000000000 PUSH0 MSTORE PUSH1 0x22 PUSH1 0x4 MSTORE PUSH1 0x24 PUSH0 REVERT JUMPDEST PUSH0 PUSH1 0x2 DUP3 DIV SWAP1 POP PUSH1 0x1 DUP3 AND DUP1 PUSH3 0x3D3 JUMPI PUSH1 0x7F DUP3 AND SWAP2 POP JUMPDEST PUSH1 0x20 DUP3 LT DUP2 SUB PUSH3 0x3E9 JUMPI PUSH3 0x3E8 PUSH3 0x38E JUMP JUMPDEST JUMPDEST POP SWAP2 SWAP1 POP JUMP JUMPDEST PUSH0 DUP2 SWAP1 POP DUP2 PUSH0 MSTORE PUSH1 0x20 PUSH0 KECCAK256 SWAP1 POP SWAP2 SWAP1 POP JUMP JUMPDEST PUSH0 PUSH1 0x20 PUSH1 0x1F DUP4 ADD DIV SWAP1 POP SWAP2 SWAP1 POP JUMP JUMPDEST PUSH0 DUP3 DUP3 SHL SWAP1 POP SWAP3 SWAP2 POP POP JUMP JUMPDEST PUSH0 PUSH1 0x8 DUP4 MUL PUSH3 0x44D PUSH32 0xFFFFFFFFFFFFFFFFFFFFFFFFFFFFFFFFFFFFFFFFFFFFFFFFFFFFFFFFFFFFFFFF DUP3 PUSH3 0x410 JUMP JUMPDEST PUSH3 0x459 DUP7 DUP4 PUSH3 0x410 JUMP JUMPDEST SWAP6 POP DUP1 NOT DUP5 AND SWAP4 POP DUP1 DUP7 AND DUP5 OR SWAP3 POP POP POP SWAP4 SWAP3 POP POP POP JUMP JUMPDEST PUSH0 DUP2 SWAP1 POP SWAP2 SWAP1 POP JUMP JUMPDEST PUSH0 DUP2 SWAP1 POP SWAP2 SWAP1 POP JUMP JUMPDEST PUSH0 PUSH3 0x4A3 PUSH3 0x49D PUSH3 0x497 DUP5 PUSH3 0x471 JUMP JUMPDEST PUSH3 0x47A JUMP JUMPDEST PUSH3 0x471 JUMP JUMPDEST SWAP1 POP SWAP2 SWAP1 POP JUMP JUMPDEST PUSH0 DUP2 SWAP1 POP SWAP2 SWAP1 POP JUMP JUMPDEST PUSH3 0x4BE DUP4 PUSH3 0x483 JUMP JUMPDEST PUSH3 0x4D6 PUSH3 0x4CD DUP3 PUSH3 0x4AA JUMP JUMPDEST DUP5 DUP5 SLOAD PUSH3 0x41C JUMP JUMPDEST DUP3 SSTORE POP POP POP POP JUMP JUMPDEST PUSH0 SWAP1 JUMP JUMPDEST PUSH3 0x4EC PUSH3 0x4DE JUMP JUMPDEST PUSH3 0x4F9 DUP2 DUP5 DUP5 PUSH3 0x4B3 JUMP JUMPDEST POP POP POP JUMP JUMPDEST JUMPDEST DUP2 DUP2 LT ISZERO PUSH3 0x520 JUMPI PUSH3 0x514 PUSH0 DUP3 PUSH3 0x4E2 JUMP JUMPDEST PUSH1 0x1 DUP2 ADD SWAP1 POP PUSH3 0x4FF JUMP JUMPDEST POP POP JUMP JUMPDEST PUSH1 0x1F DUP3 GT ISZERO PUSH3 0x56F JUMPI PUSH3 0x539 DUP2 PUSH3 0x3EF JUMP JUMPDEST PUSH3 0x544 DUP5 PUSH3 0x401 JUMP JUMPDEST DUP2 ADD PUSH1 0x20 DUP6 LT ISZERO PUSH3 0x554 JUMPI DUP2 SWAP1 POP JUMPDEST PUSH3 0x56C PUSH3 0x563 DUP6 PUSH3 0x401 JUMP JUMPDEST DUP4 ADD DUP3 PUSH3 0x4FE JUMP JUMPDEST POP POP JUMPDEST POP POP POP JUMP JUMPDEST PUSH0 DUP3 DUP3 SHR SWAP1 POP SWAP3 SWAP2 POP POP JUMP JUMPDEST PUSH0 PUSH3 0x591 PUSH0 NOT DUP5 PUSH1 0x8 MUL PUSH3 0x574 JUMP JUMPDEST NOT DUP1 DUP4 AND SWAP2 POP POP SWAP3 SWAP2 POP POP JUMP JUMPDEST PUSH0 PUSH3 0x5AB DUP4 DUP4 PUSH3 0x580 JUMP JUMPDEST SWAP2 POP DUP3 PUSH1 0x2 MUL DUP3 OR SWAP1 POP SWAP3 SWAP2 POP POP JUMP JUMPDEST PUSH3 0x5C6 DUP3 PUSH3 0x357 JUMP JUMPDEST PUSH8 0xFFFFFFFFFFFFFFFF DUP2 GT ISZERO PUSH3 0x5E2 JUMPI PUSH3 0x5E1 PUSH3 0x361 JUMP JUMPDEST JUMPDEST PUSH3 0x5EE DUP3 SLOAD PUSH3 0x3BB JUMP JUMPDEST PUSH3 0x5FB DUP3 DUP3 DUP6 PUSH3 0x524 JUMP JUMPDEST PUSH0 PUSH1 0x20 SWAP1 POP PUSH1 0x1F DUP4 GT PUSH1 0x1 DUP2 EQ PUSH3 0x631 JUMPI PUSH0 DUP5 ISZERO PUSH3 0x61C JUMPI DUP3 DUP8 ADD MLOAD SWAP1 POP JUMPDEST PUSH3 0x628 DUP6 DUP3 PUSH3 0x59E JUMP JUMPDEST DUP7 SSTORE POP PUSH3 0x697 JUMP JUMPDEST PUSH1 0x1F NOT DUP5 AND PUSH3 0x641 DUP7 PUSH3 0x3EF JUMP JUMPDEST PUSH0 JUMPDEST DUP3 DUP2 LT ISZERO PUSH3 0x66A JUMPI DUP5 DUP10 ADD MLOAD DUP3 SSTORE PUSH1 0x1 DUP3 ADD SWAP2 POP PUSH1 0x20 DUP6 ADD SWAP5 POP PUSH1 0x20 DUP2 ADD SWAP1 POP PUSH3 0x643 JUMP JUMPDEST DUP7 DUP4 LT ISZERO PUSH3 0x68A JUMPI DUP5 DUP10 ADD MLOAD PUSH3 0x686 PUSH1 0x1F DUP10 AND DUP3 PUSH3 0x580 JUMP JUMPDEST DUP4 SSTORE POP JUMPDEST PUSH1 0x1 PUSH1 0x2 DUP9 MUL ADD DUP9 SSTORE POP POP POP JUMPDEST POP POP POP POP POP POP JUMP JUMPDEST PUSH3 0x6AA DUP2 PUSH3 0x2BC JUMP JUMPDEST DUP3 MSTORE POP POP JUMP JUMPDEST PUSH0 PUSH1 0x20 DUP3 ADD SWAP1 POP PUSH3 0x6C5 PUSH0 DUP4 ADD DUP5 PUSH3 0x69F JUMP JUMPDEST SWAP3 SWAP2 POP POP JUMP JUMPDEST PUSH2 0x2BDA DUP1 PUSH3 0x6D9 PUSH0 CODECOPY PUSH0 RETURN INVALID PUSH1 0x80 PUSH1 0x40 MSTORE PUSH1 0x4 CALLDATASIZE LT PUSH2 0x13F JUMPI PUSH0 CALLDATALOAD PUSH1 0xE0 SHR DUP1 PUSH4 0x863B3894 GT PUSH2 0xB5 JUMPI DUP1 PUSH4 0xA22CB465 GT PUSH2 0x6E JUMPI DUP1 PUSH4 0xA22CB465 EQ PUSH2 0x44D JUMPI DUP1 PUSH4 0xB88D4FDE EQ PUSH2 0x475 JUMPI DUP1 PUSH4 0xB8FCF937 EQ PUSH2 0x49D JUMPI DUP1 PUSH4 0xC87B56DD EQ PUSH2 0x4C7 JUMPI DUP1 PUSH4 0xE985E9C5 EQ PUSH2 0x503 JUMPI DUP1 PUSH4 0xF2FDE38B EQ PUSH2 0x53F JUMPI PUSH2 0x13F JUMP JUMPDEST DUP1 PUSH4 0x863B3894 EQ PUSH2 0x33B JUMPI DUP1 PUSH4 0x8DA5CB5B EQ PUSH2 0x365 JUMPI DUP1 PUSH4 0x8F3481C0 EQ PUSH2 0x38F JUMPI DUP1 PUSH4 0x94407465 EQ PUSH2 0x3BF JUMPI DUP1 PUSH4 0x94AB67FE EQ PUSH2 0x3FB JUMPI DUP1 PUSH4 0x95D89B41 EQ PUSH2 0x423 JUMPI PUSH2 0x13F JUMP JUMPDEST DUP1 PUSH4 0x37418972 GT PUSH2 0x107 JUMPI DUP1 PUSH4 0x37418972 EQ PUSH2 0x235 JUMPI DUP1 PUSH4 0x3C168EAB EQ PUSH2 0x25D JUMPI DUP1 PUSH4 0x42842E0E EQ PUSH2 0x285 JUMPI DUP1 PUSH4 0x6352211E EQ PUSH2 0x2AD JUMPI DUP1 PUSH4 0x70A08231 EQ PUSH2 0x2E9 JUMPI DUP1 PUSH4 0x715018A6 EQ PUSH2 0x325 JUMPI PUSH2 0x13F JUMP JUMPDEST DUP1 PUSH4 0x1FFC9A7 EQ PUSH2 0x143 JUMPI DUP1 PUSH4 0x6FDDE03 EQ PUSH2 0x17F JUMPI DUP1 PUSH4 0x81812FC EQ PUSH2 0x1A9 JUMPI DUP1 PUSH4 0x95EA7B3 EQ PUSH2 0x1E5 JUMPI DUP1 PUSH4 0x23B872DD EQ PUSH2 0x20D JUMPI JUMPDEST PUSH0 DUP1 REVERT JUMPDEST CALLVALUE DUP1 ISZERO PUSH2 0x14E JUMPI PUSH0 DUP1 REVERT JUMPDEST POP PUSH2 0x169 PUSH1 0x4 DUP1 CALLDATASIZE SUB DUP2 ADD SWAP1 PUSH2 0x164 SWAP2 SWAP1 PUSH2 0x1FE9 JUMP JUMPDEST PUSH2 0x567 JUMP JUMPDEST PUSH1 0x40 MLOAD PUSH2 0x176 SWAP2 SWAP1 PUSH2 0x202E JUMP JUMPDEST PUSH1 0x40 MLOAD DUP1 SWAP2 SUB SWAP1 RETURN JUMPDEST CALLVALUE DUP1 ISZERO PUSH2 0x18A JUMPI PUSH0 DUP1 REVERT JUMPDEST POP PUSH2 0x193 PUSH2 0x648 JUMP JUMPDEST PUSH1 0x40 MLOAD PUSH2 0x1A0 SWAP2 SWAP1 PUSH2 0x20D1 JUMP JUMPDEST PUSH1 0x40 MLOAD DUP1 SWAP2 SUB SWAP1 RETURN JUMPDEST CALLVALUE DUP1 ISZERO PUSH2 0x1B4 JUMPI PUSH0 DUP1 REVERT JUMPDEST POP PUSH2 0x1CF PUSH1 0x4 DUP1 CALLDATASIZE SUB DUP2 ADD SWAP1 PUSH2 0x1CA SWAP2 SWAP1 PUSH2 0x2124 JUMP JUMPDEST PUSH2 0x6D7 JUMP JUMPDEST PUSH1 0x40 MLOAD PUSH2 0x1DC SWAP2 SWAP1 PUSH2 0x218E JUMP JUMPDEST PUSH1 0x40 MLOAD DUP1 SWAP2 SUB SWAP1 RETURN JUMPDEST CALLVALUE DUP1 ISZERO PUSH2 0x1F0 JUMPI PUSH0 DUP1 REVERT JUMPDEST POP PUSH2 0x20B PUSH1 0x4 DUP1 CALLDATASIZE SUB DUP2 ADD SWAP1 PUSH2 0x206 SWAP2 SWAP1 PUSH2 0x21D1 JUMP JUMPDEST PUSH2 0x6F2 JUMP JUMPDEST STOP JUMPDEST CALLVALUE DUP1 ISZERO PUSH2 0x218 JUMPI PUSH0 DUP1 REVERT JUMPDEST POP PUSH2 0x233 PUSH1 0x4 DUP1 CALLDATASIZE SUB DUP2 ADD SWAP1 PUSH2 0x22E SWAP2 SWAP1 PUSH2 0x220F JUMP JUMPDEST PUSH2 0x708 JUMP JUMPDEST STOP JUMPDEST CALLVALUE DUP1 ISZERO PUSH2 0x240 JUMPI PUSH0 DUP1 REVERT JUMPDEST POP PUSH2 0x25B PUSH1 0x4 DUP1 CALLDATASIZE SUB DUP2 ADD SWAP1 PUSH2 0x256 SWAP2 SWAP1 PUSH2 0x2292 JUMP JUMPDEST PUSH2 0x807 JUMP JUMPDEST STOP JUMPDEST CALLVALUE DUP1 ISZERO PUSH2 0x268 JUMPI PUSH0 DUP1 REVERT JUMPDEST POP PUSH2 0x283 PUSH1 0x4 DUP1 CALLDATASIZE SUB DUP2 ADD SWAP1 PUSH2 0x27E SWAP2 SWAP1 PUSH2 0x21D1 JUMP JUMPDEST PUSH2 0x83B JUMP JUMPDEST STOP JUMPDEST CALLVALUE DUP1 ISZERO PUSH2 0x290 JUMPI PUSH0 DUP1 REVERT JUMPDEST POP PUSH2 0x2AB PUSH1 0x4 DUP1 CALLDATASIZE SUB DUP2 ADD SWAP1 PUSH2 0x2A6 SWAP2 SWAP1 PUSH2 0x220F JUMP JUMPDEST PUSH2 0x8D8 JUMP JUMPDEST STOP JUMPDEST CALLVALUE DUP1 ISZERO PUSH2 0x2B8 JUMPI PUSH0 DUP1 REVERT JUMPDEST POP PUSH2 0x2D3 PUSH1 0x4 DUP1 CALLDATASIZE SUB DUP2 ADD SWAP1 PUSH2 0x2CE SWAP2 SWAP1 PUSH2 0x2124 JUMP JUMPDEST PUSH2 0x8F7 JUMP JUMPDEST PUSH1 0x40 MLOAD PUSH2 0x2E0 SWAP2 SWAP1 PUSH2 0x218E JUMP JUMPDEST PUSH1 0x40 MLOAD DUP1 SWAP2 SUB SWAP1 RETURN JUMPDEST CALLVALUE DUP1 ISZERO PUSH2 0x2F4 JUMPI PUSH0 DUP1 REVERT JUMPDEST POP PUSH2 0x30F PUSH1 0x4 DUP1 CALLDATASIZE SUB DUP2 ADD SWAP1 PUSH2 0x30A SWAP2 SWAP1 PUSH2 0x22BD JUMP JUMPDEST PUSH2 0x908 JUMP JUMPDEST PUSH1 0x40 MLOAD PUSH2 0x31C SWAP2 SWAP1 PUSH2 0x22F7 JUMP JUMPDEST PUSH1 0x40 MLOAD DUP1 SWAP2 SUB SWAP1 RETURN JUMPDEST CALLVALUE DUP1 ISZERO PUSH2 0x330 JUMPI PUSH0 DUP1 REVERT JUMPDEST POP PUSH2 0x339 PUSH2 0x9BE JUMP JUMPDEST STOP JUMPDEST CALLVALUE DUP1 ISZERO PUSH2 0x346 JUMPI PUSH0 DUP1 REVERT JUMPDEST POP PUSH2 0x34F PUSH2 0x9D1 JUMP JUMPDEST PUSH1 0x40 MLOAD PUSH2 0x35C SWAP2 SWAP1 PUSH2 0x218E JUMP JUMPDEST PUSH1 0x40 MLOAD DUP1 SWAP2 SUB SWAP1 RETURN JUMPDEST CALLVALUE DUP1 ISZERO PUSH2 0x370 JUMPI PUSH0 DUP1 REVERT JUMPDEST POP PUSH2 0x379 PUSH2 0x9F6 JUMP JUMPDEST PUSH1 0x40 MLOAD PUSH2 0x386 SWAP2 SWAP1 PUSH2 0x218E JUMP JUMPDEST PUSH1 0x40 MLOAD DUP1 SWAP2 SUB SWAP1 RETURN JUMPDEST PUSH2 0x3A9 PUSH1 0x4 DUP1 CALLDATASIZE SUB DUP2 ADD SWAP1 PUSH2 0x3A4 SWAP2 SWAP1 PUSH2 0x2310 JUMP JUMPDEST PUSH2 0xA1E JUMP JUMPDEST PUSH1 0x40 MLOAD PUSH2 0x3B6 SWAP2 SWAP1 PUSH2 0x236F JUMP JUMPDEST PUSH1 0x40 MLOAD DUP1 SWAP2 SUB SWAP1 RETURN JUMPDEST CALLVALUE DUP1 ISZERO PUSH2 0x3CA JUMPI PUSH0 DUP1 REVERT JUMPDEST POP PUSH2 0x3E5 PUSH1 0x4 DUP1 CALLDATASIZE SUB DUP2 ADD SWAP1 PUSH2 0x3E0 SWAP2 SWAP1 PUSH2 0x2292 JUMP JUMPDEST PUSH2 0xC50 JUMP JUMPDEST PUSH1 0x40 MLOAD PUSH2 0x3F2 SWAP2 SWAP1 PUSH2 0x202E JUMP JUMPDEST PUSH1 0x40 MLOAD DUP1 SWAP2 SUB SWAP1 RETURN JUMPDEST CALLVALUE DUP1 ISZERO PUSH2 0x406 JUMPI PUSH0 DUP1 REVERT JUMPDEST POP PUSH2 0x421 PUSH1 0x4 DUP1 CALLDATASIZE SUB DUP2 ADD SWAP1 PUSH2 0x41C SWAP2 SWAP1 PUSH2 0x21D1 JUMP JUMPDEST PUSH2 0xC76 JUMP JUMPDEST STOP JUMPDEST CALLVALUE DUP1 ISZERO PUSH2 0x42E JUMPI PUSH0 DUP1 REVERT JUMPDEST POP PUSH2 0x437 PUSH2 0xD6B JUMP JUMPDEST PUSH1 0x40 MLOAD PUSH2 0x444 SWAP2 SWAP1 PUSH2 0x20D1 JUMP JUMPDEST PUSH1 0x40 MLOAD DUP1 SWAP2 SUB SWAP1 RETURN JUMPDEST CALLVALUE DUP1 ISZERO PUSH2 0x458 JUMPI PUSH0 DUP1 REVERT JUMPDEST POP PUSH2 0x473 PUSH1 0x4 DUP1 CALLDATASIZE SUB DUP2 ADD SWAP1 PUSH2 0x46E SWAP2 SWAP1 PUSH2 0x23B2 JUMP JUMPDEST PUSH2 0xDFB JUMP JUMPDEST STOP JUMPDEST CALLVALUE DUP1 ISZERO PUSH2 0x480 JUMPI PUSH0 DUP1 REVERT JUMPDEST POP PUSH2 0x49B PUSH1 0x4 DUP1 CALLDATASIZE SUB DUP2 ADD SWAP1 PUSH2 0x496 SWAP2 SWAP1 PUSH2 0x251C JUMP JUMPDEST PUSH2 0xE11 JUMP JUMPDEST STOP JUMPDEST CALLVALUE DUP1 ISZERO PUSH2 0x4A8 JUMPI PUSH0 DUP1 REVERT JUMPDEST POP PUSH2 0x4B1 PUSH2 0xE2E JUMP JUMPDEST PUSH1 0x40 MLOAD PUSH2 0x4BE SWAP2 SWAP1 PUSH2 0x25F7 JUMP JUMPDEST PUSH1 0x40 MLOAD DUP1 SWAP2 SUB SWAP1 RETURN JUMPDEST CALLVALUE DUP1 ISZERO PUSH2 0x4D2 JUMPI PUSH0 DUP1 REVERT JUMPDEST POP PUSH2 0x4ED PUSH1 0x4 DUP1 CALLDATASIZE SUB DUP2 ADD SWAP1 PUSH2 0x4E8 SWAP2 SWAP1 PUSH2 0x2124 JUMP JUMPDEST PUSH2 0xE53 JUMP JUMPDEST PUSH1 0x40 MLOAD PUSH2 0x4FA SWAP2 SWAP1 PUSH2 0x20D1 JUMP JUMPDEST PUSH1 0x40 MLOAD DUP1 SWAP2 SUB SWAP1 RETURN JUMPDEST CALLVALUE DUP1 ISZERO PUSH2 0x50E JUMPI PUSH0 DUP1 REVERT JUMPDEST POP PUSH2 0x529 PUSH1 0x4 DUP1 CALLDATASIZE SUB DUP2 ADD SWAP1 PUSH2 0x524 SWAP2 SWAP1 PUSH2 0x2610 JUMP JUMPDEST PUSH2 0xEB9 JUMP JUMPDEST PUSH1 0x40 MLOAD PUSH2 0x536 SWAP2 SWAP1 PUSH2 0x202E JUMP JUMPDEST PUSH1 0x40 MLOAD DUP1 SWAP2 SUB SWAP1 RETURN JUMPDEST CALLVALUE DUP1 ISZERO PUSH2 0x54A JUMPI PUSH0 DUP1 REVERT JUMPDEST POP PUSH2 0x565 PUSH1 0x4 DUP1 CALLDATASIZE SUB DUP2 ADD SWAP1 PUSH2 0x560 SWAP2 SWAP1 PUSH2 0x22BD JUMP JUMPDEST PUSH2 0xF47 JUMP JUMPDEST STOP JUMPDEST PUSH0 PUSH32 0x80AC58CD00000000000000000000000000000000000000000000000000000000 PUSH28 0xFFFFFFFFFFFFFFFFFFFFFFFFFFFFFFFFFFFFFFFFFFFFFFFFFFFFFFFF NOT AND DUP3 PUSH28 0xFFFFFFFFFFFFFFFFFFFFFFFFFFFFFFFFFFFFFFFFFFFFFFFFFFFFFFFF NOT AND EQ DUP1 PUSH2 0x631 JUMPI POP PUSH32 0x5B5E139F00000000000000000000000000000000000000000000000000000000 PUSH28 0xFFFFFFFFFFFFFFFFFFFFFFFFFFFFFFFFFFFFFFFFFFFFFFFFFFFFFFFF NOT AND DUP3 PUSH28 0xFFFFFFFFFFFFFFFFFFFFFFFFFFFFFFFFFFFFFFFFFFFFFFFFFFFFFFFF NOT AND EQ JUMPDEST DUP1 PUSH2 0x641 JUMPI POP PUSH2 0x640 DUP3 PUSH2 0xFCB JUMP JUMPDEST JUMPDEST SWAP1 POP SWAP2 SWAP1 POP JUMP JUMPDEST PUSH1 0x60 PUSH0 DUP1 SLOAD PUSH2 0x656 SWAP1 PUSH2 0x267B JUMP JUMPDEST DUP1 PUSH1 0x1F ADD PUSH1 0x20 DUP1 SWAP2 DIV MUL PUSH1 0x20 ADD PUSH1 0x40 MLOAD SWAP1 DUP2 ADD PUSH1 0x40 MSTORE DUP1 SWAP3 SWAP2 SWAP1 DUP2 DUP2 MSTORE PUSH1 0x20 ADD DUP3 DUP1 SLOAD PUSH2 0x682 SWAP1 PUSH2 0x267B JUMP JUMPDEST DUP1 ISZERO PUSH2 0x6CD JUMPI DUP1 PUSH1 0x1F LT PUSH2 0x6A4 JUMPI PUSH2 0x100 DUP1 DUP4 SLOAD DIV MUL DUP4 MSTORE SWAP2 PUSH1 0x20 ADD SWAP2 PUSH2 0x6CD JUMP JUMPDEST DUP3 ADD SWAP2 SWAP1 PUSH0 MSTORE PUSH1 0x20 PUSH0 KECCAK256 SWAP1 JUMPDEST DUP2 SLOAD DUP2 MSTORE SWAP1 PUSH1 0x1 ADD SWAP1 PUSH1 0x20 ADD DUP1 DUP4 GT PUSH2 0x6B0 JUMPI DUP3 SWAP1 SUB PUSH1 0x1F AND DUP3 ADD SWAP2 JUMPDEST POP POP POP POP POP SWAP1 POP SWAP1 JUMP JUMPDEST PUSH0 PUSH2 0x6E1 DUP3 PUSH2 0x1034 JUMP JUMPDEST POP PUSH2 0x6EB DUP3 PUSH2 0x10BA JUMP JUMPDEST SWAP1 POP SWAP2 SWAP1 POP JUMP JUMPDEST PUSH2 0x704 DUP3 DUP3 PUSH2 0x6FF PUSH2 0x10F3 JUMP JUMPDEST PUSH2 0x10FA JUMP JUMPDEST POP POP JUMP JUMPDEST PUSH0 PUSH20 0xFFFFFFFFFFFFFFFFFFFFFFFFFFFFFFFFFFFFFFFF AND DUP3 PUSH20 0xFFFFFFFFFFFFFFFFFFFFFFFFFFFFFFFFFFFFFFFF AND SUB PUSH2 0x778 JUMPI PUSH0 PUSH1 0x40 MLOAD PUSH32 0x64A0AE9200000000000000000000000000000000000000000000000000000000 DUP2 MSTORE PUSH1 0x4 ADD PUSH2 0x76F SWAP2 SWAP1 PUSH2 0x218E JUMP JUMPDEST PUSH1 0x40 MLOAD DUP1 SWAP2 SUB SWAP1 REVERT JUMPDEST PUSH0 PUSH2 0x78B DUP4 DUP4 PUSH2 0x786 PUSH2 0x10F3 JUMP JUMPDEST PUSH2 0x110C JUMP JUMPDEST SWAP1 POP DUP4 PUSH20 0xFFFFFFFFFFFFFFFFFFFFFFFFFFFFFFFFFFFFFFFF AND DUP2 PUSH20 0xFFFFFFFFFFFFFFFFFFFFFFFFFFFFFFFFFFFFFFFF AND EQ PUSH2 0x801 JUMPI DUP4 DUP3 DUP3 PUSH1 0x40 MLOAD PUSH32 0x64283D7B00000000000000000000000000000000000000000000000000000000 DUP2 MSTORE PUSH1 0x4 ADD PUSH2 0x7F8 SWAP4 SWAP3 SWAP2 SWAP1 PUSH2 0x26AB JUMP JUMPDEST PUSH1 0x40 MLOAD DUP1 SWAP2 SUB SWAP1 REVERT JUMPDEST POP POP POP POP JUMP JUMPDEST PUSH2 0x80F PUSH2 0x1317 JUMP JUMPDEST PUSH1 0x1 PUSH1 0xB PUSH0 DUP4 DUP2 MSTORE PUSH1 0x20 ADD SWAP1 DUP2 MSTORE PUSH1 0x20 ADD PUSH0 KECCAK256 PUSH0 PUSH2 0x100 EXP DUP2 SLOAD DUP2 PUSH1 0xFF MUL NOT AND SWAP1 DUP4 ISZERO ISZERO MUL OR SWAP1 SSTORE POP POP JUMP JUMPDEST PUSH2 0x843 PUSH2 0x1317 JUMP JUMPDEST PUSH1 0xA PUSH0 DUP3 DUP2 MSTORE PUSH1 0x20 ADD SWAP1 DUP2 MSTORE PUSH1 0x20 ADD PUSH0 KECCAK256 PUSH0 SWAP1 SLOAD SWAP1 PUSH2 0x100 EXP SWAP1 DIV PUSH1 0xFF AND ISZERO PUSH2 0x8A1 JUMPI PUSH1 0x40 MLOAD PUSH32 0x8C379A000000000000000000000000000000000000000000000000000000000 DUP2 MSTORE PUSH1 0x4 ADD PUSH2 0x898 SWAP1 PUSH2 0x272A JUMP JUMPDEST PUSH1 0x40 MLOAD DUP1 SWAP2 SUB SWAP1 REVERT JUMPDEST PUSH2 0x8AB DUP3 DUP3 PUSH2 0x139E JUMP JUMPDEST PUSH1 0x1 PUSH1 0xA PUSH0 DUP4 DUP2 MSTORE PUSH1 0x20 ADD SWAP1 DUP2 MSTORE PUSH1 0x20 ADD PUSH0 KECCAK256 PUSH0 PUSH2 0x100 EXP DUP2 SLOAD DUP2 PUSH1 0xFF MUL NOT AND SWAP1 DUP4 ISZERO ISZERO MUL OR SWAP1 SSTORE POP POP POP JUMP JUMPDEST PUSH2 0x8F2 DUP4 DUP4 DUP4 PUSH1 0x40 MLOAD DUP1 PUSH1 0x20 ADD PUSH1 0x40 MSTORE DUP1 PUSH0 DUP2 MSTORE POP PUSH2 0xE11 JUMP JUMPDEST POP POP POP JUMP JUMPDEST PUSH0 PUSH2 0x901 DUP3 PUSH2 0x1034 JUMP JUMPDEST SWAP1 POP SWAP2 SWAP1 POP JUMP JUMPDEST PUSH0 DUP1 PUSH20 0xFFFFFFFFFFFFFFFFFFFFFFFFFFFFFFFFFFFFFFFF AND DUP3 PUSH20 0xFFFFFFFFFFFFFFFFFFFFFFFFFFFFFFFFFFFFFFFF AND SUB PUSH2 0x979 JUMPI PUSH0 PUSH1 0x40 MLOAD PUSH32 0x89C62B6400000000000000000000000000000000000000000000000000000000 DUP2 MSTORE PUSH1 0x4 ADD PUSH2 0x970 SWAP2 SWAP1 PUSH2 0x218E JUMP JUMPDEST PUSH1 0x40 MLOAD DUP1 SWAP2 SUB SWAP1 REVERT JUMPDEST PUSH1 0x3 PUSH0 DUP4 PUSH20 0xFFFFFFFFFFFFFFFFFFFFFFFFFFFFFFFFFFFFFFFF AND PUSH20 0xFFFFFFFFFFFFFFFFFFFFFFFFFFFFFFFFFFFFFFFF AND DUP2 MSTORE PUSH1 0x20 ADD SWAP1 DUP2 MSTORE PUSH1 0x20 ADD PUSH0 KECCAK256 SLOAD SWAP1 POP SWAP2 SWAP1 POP JUMP JUMPDEST PUSH2 0x9C6 PUSH2 0x1317 JUMP JUMPDEST PUSH2 0x9CF PUSH0 PUSH2 0x1491 JUMP JUMPDEST JUMP JUMPDEST PUSH1 0x9 PUSH0 SWAP1 SLOAD SWAP1 PUSH2 0x100 EXP SWAP1 DIV PUSH20 0xFFFFFFFFFFFFFFFFFFFFFFFFFFFFFFFFFFFFFFFF AND DUP2 JUMP JUMPDEST PUSH0 PUSH1 0x6 PUSH0 SWAP1 SLOAD SWAP1 PUSH2 0x100 EXP SWAP1 DIV PUSH20 0xFFFFFFFFFFFFFFFFFFFFFFFFFFFFFFFFFFFFFFFF AND SWAP1 POP SWAP1 JUMP JUMPDEST PUSH0 DUP1 PUSH2 0xA29 DUP5 PUSH2 0x8F7 JUMP JUMPDEST SWAP1 POP CALLER PUSH20 0xFFFFFFFFFFFFFFFFFFFFFFFFFFFFFFFFFFFFFFFF AND DUP2 PUSH20 0xFFFFFFFFFFFFFFFFFFFFFFFFFFFFFFFFFFFFFFFF AND EQ PUSH2 0xA99 JUMPI PUSH1 0x40 MLOAD PUSH32 0x8C379A000000000000000000000000000000000000000000000000000000000 DUP2 MSTORE PUSH1 0x4 ADD PUSH2 0xA90 SWAP1 PUSH2 0x27B8 JUMP JUMPDEST PUSH1 0x40 MLOAD DUP1 SWAP2 SUB SWAP1 REVERT JUMPDEST PUSH2 0xAA4 DUP2 DUP7 DUP7 PUSH2 0x1554 JUMP JUMPDEST PUSH1 0x8 PUSH0 SWAP1 SLOAD SWAP1 PUSH2 0x100 EXP SWAP1 DIV PUSH20 0xFFFFFFFFFFFFFFFFFFFFFFFFFFFFFFFFFFFFFFFF AND PUSH20 0xFFFFFFFFFFFFFFFFFFFFFFFFFFFFFFFFFFFFFFFF AND PUSH4 0x23B872DD DUP7 DUP4 DUP7 PUSH1 0x40 MLOAD DUP5 PUSH4 0xFFFFFFFF AND PUSH1 0xE0 SHL DUP2 MSTORE PUSH1 0x4 ADD PUSH2 0xB02 SWAP4 SWAP3 SWAP2 SWAP1 PUSH2 0x27D6 JUMP JUMPDEST PUSH1 0x20 PUSH1 0x40 MLOAD DUP1 DUP4 SUB DUP2 PUSH0 DUP8 GAS CALL ISZERO DUP1 ISZERO PUSH2 0xB1E JUMPI RETURNDATASIZE PUSH0 DUP1 RETURNDATACOPY RETURNDATASIZE PUSH0 REVERT JUMPDEST POP POP POP POP PUSH1 0x40 MLOAD RETURNDATASIZE PUSH1 0x1F NOT PUSH1 0x1F DUP3 ADD AND DUP3 ADD DUP1 PUSH1 0x40 MSTORE POP DUP2 ADD SWAP1 PUSH2 0xB42 SWAP2 SWAP1 PUSH2 0x281F JUMP JUMPDEST PUSH2 0xB81 JUMPI PUSH1 0x40 MLOAD PUSH32 0x8C379A000000000000000000000000000000000000000000000000000000000 DUP2 MSTORE PUSH1 0x4 ADD PUSH2 0xB78 SWAP1 PUSH2 0x2894 JUMP JUMPDEST PUSH1 0x40 MLOAD DUP1 SWAP2 SUB SWAP1 REVERT JUMPDEST PUSH0 CALLER DUP7 DUP7 DUP7 NUMBER PUSH1 0x40 MLOAD PUSH1 0x20 ADD PUSH2 0xB9B SWAP6 SWAP5 SWAP4 SWAP3 SWAP2 SWAP1 PUSH2 0x2917 JUMP JUMPDEST PUSH1 0x40 MLOAD PUSH1 0x20 DUP2 DUP4 SUB SUB DUP2 MSTORE SWAP1 PUSH1 0x40 MSTORE DUP1 MLOAD SWAP1 PUSH1 0x20 ADD KECCAK256 SWAP1 POP PUSH0 PUSH1 0xB PUSH0 DUP4 DUP2 MSTORE PUSH1 0x20 ADD SWAP1 DUP2 MSTORE PUSH1 0x20 ADD PUSH0 KECCAK256 PUSH0 PUSH2 0x100 EXP DUP2 SLOAD DUP2 PUSH1 0xFF MUL NOT AND SWAP1 DUP4 ISZERO ISZERO MUL OR SWAP1 SSTORE POP DUP6 PUSH20 0xFFFFFFFFFFFFFFFFFFFFFFFFFFFFFFFFFFFFFFFF AND DUP3 PUSH20 0xFFFFFFFFFFFFFFFFFFFFFFFFFFFFFFFFFFFFFFFF AND PUSH32 0x9F9AC6BCA37E427696541548195017F8D7569C1BDFF1BA5B97D815BFB9C11F8C DUP8 DUP8 DUP6 PUSH1 0x40 MLOAD PUSH2 0xC3C SWAP4 SWAP3 SWAP2 SWAP1 PUSH2 0x2975 JUMP JUMPDEST PUSH1 0x40 MLOAD DUP1 SWAP2 SUB SWAP1 LOG3 DUP1 SWAP3 POP POP POP SWAP4 SWAP3 POP POP POP JUMP JUMPDEST PUSH0 PUSH1 0xB PUSH0 DUP4 DUP2 MSTORE PUSH1 0x20 ADD SWAP1 DUP2 MSTORE PUSH1 0x20 ADD PUSH0 KECCAK256 PUSH0 SWAP1 SLOAD SWAP1 PUSH2 0x100 EXP SWAP1 DIV PUSH1 0xFF AND SWAP1 POP SWAP2 SWAP1 POP JUMP JUMPDEST PUSH0 PUSH2 0xC80 DUP3 PUSH2 0x8F7 JUMP JUMPDEST SWAP1 POP CALLER PUSH20 0xFFFFFFFFFFFFFFFFFFFFFFFFFFFFFFFFFFFFFFFF AND DUP2 PUSH20 0xFFFFFFFFFFFFFFFFFFFFFFFFFFFFFFFFFFFFFFFF AND EQ PUSH2 0xCF0 JUMPI PUSH1 0x40 MLOAD PUSH32 0x8C379A000000000000000000000000000000000000000000000000000000000 DUP2 MSTORE PUSH1 0x4 ADD PUSH2 0xCE7 SWAP1 PUSH2 0x27B8 JUMP JUMPDEST PUSH1 0x40 MLOAD DUP1 SWAP2 SUB SWAP1 REVERT JUMPDEST PUSH2 0xCFB DUP2 DUP5 DUP5 PUSH2 0x1554 JUMP JUMPDEST DUP3 PUSH20 0xFFFFFFFFFFFFFFFFFFFFFFFFFFFFFFFFFFFFFFFF AND DUP2 PUSH20 0xFFFFFFFFFFFFFFFFFFFFFFFFFFFFFFFFFFFFFFFF AND PUSH32 0x9F9AC6BCA37E427696541548195017F8D7569C1BDFF1BA5B97D815BFB9C11F8C DUP5 PUSH0 DUP1 PUSH0 SHL PUSH1 0x40 MLOAD PUSH2 0xD5E SWAP4 SWAP3 SWAP2 SWAP1 PUSH2 0x29E3 JUMP JUMPDEST PUSH1 0x40 MLOAD DUP1 SWAP2 SUB SWAP1 LOG3 POP POP POP JUMP JUMPDEST PUSH1 0x60 PUSH1 0x1 DUP1 SLOAD PUSH2 0xD7A SWAP1 PUSH2 0x267B JUMP JUMPDEST DUP1 PUSH1 0x1F ADD PUSH1 0x20 DUP1 SWAP2 DIV MUL PUSH1 0x20 ADD PUSH1 0x40 MLOAD SWAP1 DUP2 ADD PUSH1 0x40 MSTORE DUP1 SWAP3 SWAP2 SWAP1 DUP2 DUP2 MSTORE PUSH1 0x20 ADD DUP3 DUP1 SLOAD PUSH2 0xDA6 SWAP1 PUSH2 0x267B JUMP JUMPDEST DUP1 ISZERO PUSH2 0xDF1 JUMPI DUP1 PUSH1 0x1F LT PUSH2 0xDC8 JUMPI PUSH2 0x100 DUP1 DUP4 SLOAD DIV MUL DUP4 MSTORE SWAP2 PUSH1 0x20 ADD SWAP2 PUSH2 0xDF1 JUMP JUMPDEST DUP3 ADD SWAP2 SWAP1 PUSH0 MSTORE PUSH1 0x20 PUSH0 KECCAK256 SWAP1 JUMPDEST DUP2 SLOAD DUP2 MSTORE SWAP1 PUSH1 0x1 ADD SWAP1 PUSH1 0x20 ADD DUP1 DUP4 GT PUSH2 0xDD4 JUMPI DUP3 SWAP1 SUB PUSH1 0x1F AND DUP3 ADD SWAP2 JUMPDEST POP POP POP POP POP SWAP1 POP SWAP1 JUMP JUMPDEST PUSH2 0xE0D PUSH2 0xE06 PUSH2 0x10F3 JUMP JUMPDEST DUP4 DUP4 PUSH2 0x16BC JUMP JUMPDEST POP POP JUMP JUMPDEST PUSH2 0xE1C DUP5 DUP5 DUP5 PUSH2 0x708 JUMP JUMPDEST PUSH2 0xE28 DUP5 DUP5 DUP5 DUP5 PUSH2 0x1825 JUMP JUMPDEST POP POP POP POP JUMP JUMPDEST PUSH1 0x8 PUSH0 SWAP1 SLOAD SWAP1 PUSH2 0x100 EXP SWAP1 DIV PUSH20 0xFFFFFFFFFFFFFFFFFFFFFFFFFFFFFFFFFFFFFFFF AND DUP2 JUMP JUMPDEST PUSH1 0x60 PUSH2 0xE5E DUP3 PUSH2 0x1034 JUMP JUMPDEST POP PUSH0 PUSH2 0xE68 PUSH2 0x19D7 JUMP JUMPDEST SWAP1 POP PUSH0 DUP2 MLOAD GT PUSH2 0xE86 JUMPI PUSH1 0x40 MLOAD DUP1 PUSH1 0x20 ADD PUSH1 0x40 MSTORE DUP1 PUSH0 DUP2 MSTORE POP PUSH2 0xEB1 JUMP JUMPDEST DUP1 PUSH2 0xE90 DUP5 PUSH2 0x19ED JUMP JUMPDEST PUSH1 0x40 MLOAD PUSH1 0x20 ADD PUSH2 0xEA1 SWAP3 SWAP2 SWAP1 PUSH2 0x2A52 JUMP JUMPDEST PUSH1 0x40 MLOAD PUSH1 0x20 DUP2 DUP4 SUB SUB DUP2 MSTORE SWAP1 PUSH1 0x40 MSTORE JUMPDEST SWAP2 POP POP SWAP2 SWAP1 POP JUMP JUMPDEST PUSH0 PUSH1 0x5 PUSH0 DUP5 PUSH20 0xFFFFFFFFFFFFFFFFFFFFFFFFFFFFFFFFFFFFFFFF AND PUSH20 0xFFFFFFFFFFFFFFFFFFFFFFFFFFFFFFFFFFFFFFFF AND DUP2 MSTORE PUSH1 0x20 ADD SWAP1 DUP2 MSTORE PUSH1 0x20 ADD PUSH0 KECCAK256 PUSH0 DUP4 PUSH20 0xFFFFFFFFFFFFFFFFFFFFFFFFFFFFFFFFFFFFFFFF AND PUSH20 0xFFFFFFFFFFFFFFFFFFFFFFFFFFFFFFFFFFFFFFFF AND DUP2 MSTORE PUSH1 0x20 ADD SWAP1 DUP2 MSTORE PUSH1 0x20 ADD PUSH0 KECCAK256 PUSH0 SWAP1 SLOAD SWAP1 PUSH2 0x100 EXP SWAP1 DIV PUSH1 0xFF AND SWAP1 POP SWAP3 SWAP2 POP POP JUMP JUMPDEST PUSH2 0xF4F PUSH2 0x1317 JUMP JUMPDEST PUSH0 PUSH20 0xFFFFFFFFFFFFFFFFFFFFFFFFFFFFFFFFFFFFFFFF AND DUP2 PUSH20 0xFFFFFFFFFFFFFFFFFFFFFFFFFFFFFFFFFFFFFFFF AND SUB PUSH2 0xFBF JUMPI PUSH0 PUSH1 0x40 MLOAD PUSH32 0x1E4FBDF700000000000000000000000000000000000000000000000000000000 DUP2 MSTORE PUSH1 0x4 ADD PUSH2 0xFB6 SWAP2 SWAP1 PUSH2 0x218E JUMP JUMPDEST PUSH1 0x40 MLOAD DUP1 SWAP2 SUB SWAP1 REVERT JUMPDEST PUSH2 0xFC8 DUP2 PUSH2 0x1491 JUMP JUMPDEST POP JUMP JUMPDEST PUSH0 PUSH32 0x1FFC9A700000000000000000000000000000000000000000000000000000000 PUSH28 0xFFFFFFFFFFFFFFFFFFFFFFFFFFFFFFFFFFFFFFFFFFFFFFFFFFFFFFFF NOT AND DUP3 PUSH28 0xFFFFFFFFFFFFFFFFFFFFFFFFFFFFFFFFFFFFFFFFFFFFFFFFFFFFFFFF NOT AND EQ SWAP1 POP SWAP2 SWAP1 POP JUMP JUMPDEST PUSH0 DUP1 PUSH2 0x103F DUP4 PUSH2 0x1AB7 JUMP JUMPDEST SWAP1 POP PUSH0 PUSH20 0xFFFFFFFFFFFFFFFFFFFFFFFFFFFFFFFFFFFFFFFF AND DUP2 PUSH20 0xFFFFFFFFFFFFFFFFFFFFFFFFFFFFFFFFFFFFFFFF AND SUB PUSH2 0x10B1 JUMPI DUP3 PUSH1 0x40 MLOAD PUSH32 0x7E27328900000000000000000000000000000000000000000000000000000000 DUP2 MSTORE PUSH1 0x4 ADD PUSH2 0x10A8 SWAP2 SWAP1 PUSH2 0x22F7 JUMP JUMPDEST PUSH1 0x40 MLOAD DUP1 SWAP2 SUB SWAP1 REVERT JUMPDEST DUP1 SWAP2 POP POP SWAP2 SWAP1 POP JUMP JUMPDEST PUSH0 PUSH1 0x4 PUSH0 DUP4 DUP2 MSTORE PUSH1 0x20 ADD SWAP1 DUP2 MSTORE PUSH1 0x20 ADD PUSH0 KECCAK256 PUSH0 SWAP1 SLOAD SWAP1 PUSH2 0x100 EXP SWAP1 DIV PUSH20 0xFFFFFFFFFFFFFFFFFFFFFFFFFFFFFFFFFFFFFFFF AND SWAP1 POP SWAP2 SWAP1 POP JUMP JUMPDEST PUSH0 CALLER SWAP1 POP SWAP1 JUMP JUMPDEST PUSH2 0x1107 DUP4 DUP4 DUP4 PUSH1 0x1 PUSH2 0x1AF0 JUMP JUMPDEST POP POP POP JUMP JUMPDEST PUSH0 DUP1 PUSH2 0x1117 DUP5 PUSH2 0x1AB7 JUMP JUMPDEST SWAP1 POP PUSH0 PUSH20 0xFFFFFFFFFFFFFFFFFFFFFFFFFFFFFFFFFFFFFFFF AND DUP4 PUSH20 0xFFFFFFFFFFFFFFFFFFFFFFFFFFFFFFFFFFFFFFFF AND EQ PUSH2 0x1158 JUMPI PUSH2 0x1157 DUP2 DUP5 DUP7 PUSH2 0x1CAF JUMP JUMPDEST JUMPDEST PUSH0 PUSH20 0xFFFFFFFFFFFFFFFFFFFFFFFFFFFFFFFFFFFFFFFF AND DUP2 PUSH20 0xFFFFFFFFFFFFFFFFFFFFFFFFFFFFFFFFFFFFFFFF AND EQ PUSH2 0x11E3 JUMPI PUSH2 0x1197 PUSH0 DUP6 PUSH0 DUP1 PUSH2 0x1AF0 JUMP JUMPDEST PUSH1 0x1 PUSH1 0x3 PUSH0 DUP4 PUSH20 0xFFFFFFFFFFFFFFFFFFFFFFFFFFFFFFFFFFFFFFFF AND PUSH20 0xFFFFFFFFFFFFFFFFFFFFFFFFFFFFFFFFFFFFFFFF AND DUP2 MSTORE PUSH1 0x20 ADD SWAP1 DUP2 MSTORE PUSH1 0x20 ADD PUSH0 KECCAK256 PUSH0 DUP3 DUP3 SLOAD SUB SWAP3 POP POP DUP2 SWAP1 SSTORE POP JUMPDEST PUSH0 PUSH20 0xFFFFFFFFFFFFFFFFFFFFFFFFFFFFFFFFFFFFFFFF AND DUP6 PUSH20 0xFFFFFFFFFFFFFFFFFFFFFFFFFFFFFFFFFFFFFFFF AND EQ PUSH2 0x1262 JUMPI PUSH1 0x1 PUSH1 0x3 PUSH0 DUP8 PUSH20 0xFFFFFFFFFFFFFFFFFFFFFFFFFFFFFFFFFFFFFFFF AND PUSH20 0xFFFFFFFFFFFFFFFFFFFFFFFFFFFFFFFFFFFFFFFF AND DUP2 MSTORE PUSH1 0x20 ADD SWAP1 DUP2 MSTORE PUSH1 0x20 ADD PUSH0 KECCAK256 PUSH0 DUP3 DUP3 SLOAD ADD SWAP3 POP POP DUP2 SWAP1 SSTORE POP JUMPDEST DUP5 PUSH1 0x2 PUSH0 DUP7 DUP2 MSTORE PUSH1 0x20 ADD SWAP1 DUP2 MSTORE PUSH1 0x20 ADD PUSH0 KECCAK256 PUSH0 PUSH2 0x100 EXP DUP2 SLOAD DUP2 PUSH20 0xFFFFFFFFFFFFFFFFFFFFFFFFFFFFFFFFFFFFFFFF MUL NOT AND SWAP1 DUP4 PUSH20 0xFFFFFFFFFFFFFFFFFFFFFFFFFFFFFFFFFFFFFFFF AND MUL OR SWAP1 SSTORE POP DUP4 DUP6 PUSH20 0xFFFFFFFFFFFFFFFFFFFFFFFFFFFFFFFFFFFFFFFF AND DUP3 PUSH20 0xFFFFFFFFFFFFFFFFFFFFFFFFFFFFFFFFFFFFFFFF AND PUSH32 0xDDF252AD1BE2C89B69C2B068FC378DAA952BA7F163C4A11628F55A4DF523B3EF PUSH1 0x40 MLOAD PUSH1 0x40 MLOAD DUP1 SWAP2 SUB SWAP1 LOG4 DUP1 SWAP2 POP POP SWAP4 SWAP3 POP POP POP JUMP JUMPDEST PUSH2 0x131F PUSH2 0x10F3 JUMP JUMPDEST PUSH20 0xFFFFFFFFFFFFFFFFFFFFFFFFFFFFFFFFFFFFFFFF AND PUSH2 0x133D PUSH2 0x9F6 JUMP JUMPDEST PUSH20 0xFFFFFFFFFFFFFFFFFFFFFFFFFFFFFFFFFFFFFFFF AND EQ PUSH2 0x139C JUMPI PUSH2 0x1360 PUSH2 0x10F3 JUMP JUMPDEST PUSH1 0x40 MLOAD PUSH32 0x118CDAA700000000000000000000000000000000000000000000000000000000 DUP2 MSTORE PUSH1 0x4 ADD PUSH2 0x1393 SWAP2 SWAP1 PUSH2 0x218E JUMP JUMPDEST PUSH1 0x40 MLOAD DUP1 SWAP2 SUB SWAP1 REVERT JUMPDEST JUMP JUMPDEST PUSH0 PUSH20 0xFFFFFFFFFFFFFFFFFFFFFFFFFFFFFFFFFFFFFFFF AND DUP3 PUSH20 0xFFFFFFFFFFFFFFFFFFFFFFFFFFFFFFFFFFFFFFFF AND SUB PUSH2 0x140E JUMPI PUSH0 PUSH1 0x40 MLOAD PUSH32 0x64A0AE9200000000000000000000000000000000000000000000000000000000 DUP2 MSTORE PUSH1 0x4 ADD PUSH2 0x1405 SWAP2 SWAP1 PUSH2 0x218E JUMP JUMPDEST PUSH1 0x40 MLOAD DUP1 SWAP2 SUB SWAP1 REVERT JUMPDEST PUSH0 PUSH2 0x141A DUP4 DUP4 PUSH0 PUSH2 0x110C JUMP JUMPDEST SWAP1 POP PUSH0 PUSH20 0xFFFFFFFFFFFFFFFFFFFFFFFFFFFFFFFFFFFFFFFF AND DUP2 PUSH20 0xFFFFFFFFFFFFFFFFFFFFFFFFFFFFFFFFFFFFFFFF AND EQ PUSH2 0x148C JUMPI PUSH0 PUSH1 0x40 MLOAD PUSH32 0x73C6AC6E00000000000000000000000000000000000000000000000000000000 DUP2 MSTORE PUSH1 0x4 ADD PUSH2 0x1483 SWAP2 SWAP1 PUSH2 0x218E JUMP JUMPDEST PUSH1 0x40 MLOAD DUP1 SWAP2 SUB SWAP1 REVERT JUMPDEST POP POP POP JUMP JUMPDEST PUSH0 PUSH1 0x6 PUSH0 SWAP1 SLOAD SWAP1 PUSH2 0x100 EXP SWAP1 DIV PUSH20 0xFFFFFFFFFFFFFFFFFFFFFFFFFFFFFFFFFFFFFFFF AND SWAP1 POP DUP2 PUSH1 0x6 PUSH0 PUSH2 0x100 EXP DUP2 SLOAD DUP2 PUSH20 0xFFFFFFFFFFFFFFFFFFFFFFFFFFFFFFFFFFFFFFFF MUL NOT AND SWAP1 DUP4 PUSH20 0xFFFFFFFFFFFFFFFFFFFFFFFFFFFFFFFFFFFFFFFF AND MUL OR SWAP1 SSTORE POP DUP2 PUSH20 0xFFFFFFFFFFFFFFFFFFFFFFFFFFFFFFFFFFFFFFFF AND DUP2 PUSH20 0xFFFFFFFFFFFFFFFFFFFFFFFFFFFFFFFFFFFFFFFF AND PUSH32 0x8BE0079C531659141344CD1FD0A4F28419497F9722A3DAAFE3B4186F6B6457E0 PUSH1 0x40 MLOAD PUSH1 0x40 MLOAD DUP1 SWAP2 SUB SWAP1 LOG3 POP POP JUMP JUMPDEST PUSH0 PUSH20 0xFFFFFFFFFFFFFFFFFFFFFFFFFFFFFFFFFFFFFFFF AND DUP3 PUSH20 0xFFFFFFFFFFFFFFFFFFFFFFFFFFFFFFFFFFFFFFFF AND SUB PUSH2 0x15C4 JUMPI PUSH0 PUSH1 0x40 MLOAD PUSH32 0x64A0AE9200000000000000000000000000000000000000000000000000000000 DUP2 MSTORE PUSH1 0x4 ADD PUSH2 0x15BB SWAP2 SWAP1 PUSH2 0x218E JUMP JUMPDEST PUSH1 0x40 MLOAD DUP1 SWAP2 SUB SWAP1 REVERT JUMPDEST PUSH0 PUSH2 0x15D0 DUP4 DUP4 PUSH0 PUSH2 0x110C JUMP JUMPDEST SWAP1 POP PUSH0 PUSH20 0xFFFFFFFFFFFFFFFFFFFFFFFFFFFFFFFFFFFFFFFF AND DUP2 PUSH20 0xFFFFFFFFFFFFFFFFFFFFFFFFFFFFFFFFFFFFFFFF AND SUB PUSH2 0x1642 JUMPI DUP2 PUSH1 0x40 MLOAD PUSH32 0x7E27328900000000000000000000000000000000000000000000000000000000 DUP2 MSTORE PUSH1 0x4 ADD PUSH2 0x1639 SWAP2 SWAP1 PUSH2 0x22F7 JUMP JUMPDEST PUSH1 0x40 MLOAD DUP1 SWAP2 SUB SWAP1 REVERT JUMPDEST DUP4 PUSH20 0xFFFFFFFFFFFFFFFFFFFFFFFFFFFFFFFFFFFFFFFF AND DUP2 PUSH20 0xFFFFFFFFFFFFFFFFFFFFFFFFFFFFFFFFFFFFFFFF AND EQ PUSH2 0x16B6 JUMPI DUP4 DUP3 DUP3 PUSH1 0x40 MLOAD PUSH32 0x64283D7B00000000000000000000000000000000000000000000000000000000 DUP2 MSTORE PUSH1 0x4 ADD PUSH2 0x16AD SWAP4 SWAP3 SWAP2 SWAP1 PUSH2 0x26AB JUMP JUMPDEST PUSH1 0x40 MLOAD DUP1 SWAP2 SUB SWAP1 REVERT JUMPDEST POP POP POP POP JUMP JUMPDEST PUSH0 PUSH20 0xFFFFFFFFFFFFFFFFFFFFFFFFFFFFFFFFFFFFFFFF AND DUP3 PUSH20 0xFFFFFFFFFFFFFFFFFFFFFFFFFFFFFFFFFFFFFFFF AND SUB PUSH2 0x172C JUMPI DUP2 PUSH1 0x40 MLOAD PUSH32 0x5B08BA1800000000000000000000000000000000000000000000000000000000 DUP2 MSTORE PUSH1 0x4 ADD PUSH2 0x1723 SWAP2 SWAP1 PUSH2 0x218E JUMP JUMPDEST PUSH1 0x40 MLOAD DUP1 SWAP2 SUB SWAP1 REVERT JUMPDEST DUP1 PUSH1 0x5 PUSH0 DUP6 PUSH20 0xFFFFFFFFFFFFFFFFFFFFFFFFFFFFFFFFFFFFFFFF AND PUSH20 0xFFFFFFFFFFFFFFFFFFFFFFFFFFFFFFFFFFFFFFFF AND DUP2 MSTORE PUSH1 0x20 ADD SWAP1 DUP2 MSTORE PUSH1 0x20 ADD PUSH0 KECCAK256 PUSH0 DUP5 PUSH20 0xFFFFFFFFFFFFFFFFFFFFFFFFFFFFFFFFFFFFFFFF AND PUSH20 0xFFFFFFFFFFFFFFFFFFFFFFFFFFFFFFFFFFFFFFFF AND DUP2 MSTORE PUSH1 0x20 ADD SWAP1 DUP2 MSTORE PUSH1 0x20 ADD PUSH0 KECCAK256 PUSH0 PUSH2 0x100 EXP DUP2 SLOAD DUP2 PUSH1 0xFF MUL NOT AND SWAP1 DUP4 ISZERO ISZERO MUL OR SWAP1 SSTORE POP DUP2 PUSH20 0xFFFFFFFFFFFFFFFFFFFFFFFFFFFFFFFFFFFFFFFF AND DUP4 PUSH20 0xFFFFFFFFFFFFFFFFFFFFFFFFFFFFFFFFFFFFFFFF AND PUSH32 0x17307EAB39AB6107E8899845AD3D59BD9653F200F220920489CA2B5937696C31 DUP4 PUSH1 0x40 MLOAD PUSH2 0x1818 SWAP2 SWAP1 PUSH2 0x202E JUMP JUMPDEST PUSH1 0x40 MLOAD DUP1 SWAP2 SUB SWAP1 LOG3 POP POP POP JUMP JUMPDEST PUSH0 DUP4 PUSH20 0xFFFFFFFFFFFFFFFFFFFFFFFFFFFFFFFFFFFFFFFF AND EXTCODESIZE GT ISZERO PUSH2 0x19D1 JUMPI DUP3 PUSH20 0xFFFFFFFFFFFFFFFFFFFFFFFFFFFFFFFFFFFFFFFF AND PUSH4 0x150B7A02 PUSH2 0x1868 PUSH2 0x10F3 JUMP JUMPDEST DUP7 DUP6 DUP6 PUSH1 0x40 MLOAD DUP6 PUSH4 0xFFFFFFFF AND PUSH1 0xE0 SHL DUP2 MSTORE PUSH1 0x4 ADD PUSH2 0x188A SWAP5 SWAP4 SWAP3 SWAP2 SWAP1 PUSH2 0x2AC7 JUMP JUMPDEST PUSH1 0x20 PUSH1 0x40 MLOAD DUP1 DUP4 SUB DUP2 PUSH0 DUP8 GAS CALL SWAP3 POP POP POP DUP1 ISZERO PUSH2 0x18C5 JUMPI POP PUSH1 0x40 MLOAD RETURNDATASIZE PUSH1 0x1F NOT PUSH1 0x1F DUP3 ADD AND DUP3 ADD DUP1 PUSH1 0x40 MSTORE POP DUP2 ADD SWAP1 PUSH2 0x18C2 SWAP2 SWAP1 PUSH2 0x2B25 JUMP JUMPDEST PUSH1 0x1 JUMPDEST PUSH2 0x1946 JUMPI RETURNDATASIZE DUP1 PUSH0 DUP2 EQ PUSH2 0x18F3 JUMPI PUSH1 0x40 MLOAD SWAP2 POP PUSH1 0x1F NOT PUSH1 0x3F RETURNDATASIZE ADD AND DUP3 ADD PUSH1 0x40 MSTORE RETURNDATASIZE DUP3 MSTORE RETURNDATASIZE PUSH0 PUSH1 0x20 DUP5 ADD RETURNDATACOPY PUSH2 0x18F8 JUMP JUMPDEST PUSH1 0x60 SWAP2 POP JUMPDEST POP PUSH0 DUP2 MLOAD SUB PUSH2 0x193E JUMPI DUP4 PUSH1 0x40 MLOAD PUSH32 0x64A0AE9200000000000000000000000000000000000000000000000000000000 DUP2 MSTORE PUSH1 0x4 ADD PUSH2 0x1935 SWAP2 SWAP1 PUSH2 0x218E JUMP JUMPDEST PUSH1 0x40 MLOAD DUP1 SWAP2 SUB SWAP1 REVERT JUMPDEST DUP1 MLOAD DUP2 PUSH1 0x20 ADD REVERT JUMPDEST PUSH4 0x150B7A02 PUSH1 0xE0 SHL PUSH28 0xFFFFFFFFFFFFFFFFFFFFFFFFFFFFFFFFFFFFFFFFFFFFFFFFFFFFFFFF NOT AND DUP2 PUSH28 0xFFFFFFFFFFFFFFFFFFFFFFFFFFFFFFFFFFFFFFFFFFFFFFFFFFFFFFFF NOT AND EQ PUSH2 0x19CF JUMPI DUP4 PUSH1 0x40 MLOAD PUSH32 0x64A0AE9200000000000000000000000000000000000000000000000000000000 DUP2 MSTORE PUSH1 0x4 ADD PUSH2 0x19C6 SWAP2 SWAP1 PUSH2 0x218E JUMP JUMPDEST PUSH1 0x40 MLOAD DUP1 SWAP2 SUB SWAP1 REVERT JUMPDEST POP JUMPDEST POP POP POP POP JUMP JUMPDEST PUSH1 0x60 PUSH1 0x40 MLOAD DUP1 PUSH1 0x20 ADD PUSH1 0x40 MSTORE DUP1 PUSH0 DUP2 MSTORE POP SWAP1 POP SWAP1 JUMP JUMPDEST PUSH1 0x60 PUSH0 PUSH1 0x1 PUSH2 0x19FB DUP5 PUSH2 0x1D72 JUMP JUMPDEST ADD SWAP1 POP PUSH0 DUP2 PUSH8 0xFFFFFFFFFFFFFFFF DUP2 GT ISZERO PUSH2 0x1A19 JUMPI PUSH2 0x1A18 PUSH2 0x23F8 JUMP JUMPDEST JUMPDEST PUSH1 0x40 MLOAD SWAP1 DUP1 DUP3 MSTORE DUP1 PUSH1 0x1F ADD PUSH1 0x1F NOT AND PUSH1 0x20 ADD DUP3 ADD PUSH1 0x40 MSTORE DUP1 ISZERO PUSH2 0x1A4B JUMPI DUP2 PUSH1 0x20 ADD PUSH1 0x1 DUP3 MUL DUP1 CALLDATASIZE DUP4 CALLDATACOPY DUP1 DUP3 ADD SWAP2 POP POP SWAP1 POP JUMPDEST POP SWAP1 POP PUSH0 DUP3 PUSH1 0x20 ADD DUP3 ADD SWAP1 POP JUMPDEST PUSH1 0x1 ISZERO PUSH2 0x1AAC JUMPI DUP1 DUP1 PUSH1 0x1 SWAP1 SUB SWAP2 POP POP PUSH32 0x3031323334353637383961626364656600000000000000000000000000000000 PUSH1 0xA DUP7 MOD BYTE DUP2 MSTORE8 PUSH1 0xA DUP6 DUP2 PUSH2 0x1AA1 JUMPI PUSH2 0x1AA0 PUSH2 0x2B50 JUMP JUMPDEST JUMPDEST DIV SWAP5 POP PUSH0 DUP6 SUB PUSH2 0x1A58 JUMPI JUMPDEST DUP2 SWAP4 POP POP POP POP SWAP2 SWAP1 POP JUMP JUMPDEST PUSH0 PUSH1 0x2 PUSH0 DUP4 DUP2 MSTORE PUSH1 0x20 ADD SWAP1 DUP2 MSTORE PUSH1 0x20 ADD PUSH0 KECCAK256 PUSH0 SWAP1 SLOAD SWAP1 PUSH2 0x100 EXP SWAP1 DIV PUSH20 0xFFFFFFFFFFFFFFFFFFFFFFFFFFFFFFFFFFFFFFFF AND SWAP1 POP SWAP2 SWAP1 POP JUMP JUMPDEST DUP1 DUP1 PUSH2 0x1B28 JUMPI POP PUSH0 PUSH20 0xFFFFFFFFFFFFFFFFFFFFFFFFFFFFFFFFFFFFFFFF AND DUP3 PUSH20 0xFFFFFFFFFFFFFFFFFFFFFFFFFFFFFFFFFFFFFFFF AND EQ ISZERO JUMPDEST ISZERO PUSH2 0x1C5A JUMPI PUSH0 PUSH2 0x1B37 DUP5 PUSH2 0x1034 JUMP JUMPDEST SWAP1 POP PUSH0 PUSH20 0xFFFFFFFFFFFFFFFFFFFFFFFFFFFFFFFFFFFFFFFF AND DUP4 PUSH20 0xFFFFFFFFFFFFFFFFFFFFFFFFFFFFFFFFFFFFFFFF AND EQ ISZERO DUP1 ISZERO PUSH2 0x1BA1 JUMPI POP DUP3 PUSH20 0xFFFFFFFFFFFFFFFFFFFFFFFFFFFFFFFFFFFFFFFF AND DUP2 PUSH20 0xFFFFFFFFFFFFFFFFFFFFFFFFFFFFFFFFFFFFFFFF AND EQ ISZERO JUMPDEST DUP1 ISZERO PUSH2 0x1BB4 JUMPI POP PUSH2 0x1BB2 DUP2 DUP5 PUSH2 0xEB9 JUMP JUMPDEST ISZERO JUMPDEST ISZERO PUSH2 0x1BF6 JUMPI DUP3 PUSH1 0x40 MLOAD PUSH32 0xA9FBF51F00000000000000000000000000000000000000000000000000000000 DUP2 MSTORE PUSH1 0x4 ADD PUSH2 0x1BED SWAP2 SWAP1 PUSH2 0x218E JUMP JUMPDEST PUSH1 0x40 MLOAD DUP1 SWAP2 SUB SWAP1 REVERT JUMPDEST DUP2 ISZERO PUSH2 0x1C58 JUMPI DUP4 DUP6 PUSH20 0xFFFFFFFFFFFFFFFFFFFFFFFFFFFFFFFFFFFFFFFF AND DUP3 PUSH20 0xFFFFFFFFFFFFFFFFFFFFFFFFFFFFFFFFFFFFFFFF AND PUSH32 0x8C5BE1E5EBEC7D5BD14F71427D1E84F3DD0314C0F7B2291E5B200AC8C7C3B925 PUSH1 0x40 MLOAD PUSH1 0x40 MLOAD DUP1 SWAP2 SUB SWAP1 LOG4 JUMPDEST POP JUMPDEST DUP4 PUSH1 0x4 PUSH0 DUP6 DUP2 MSTORE PUSH1 0x20 ADD SWAP1 DUP2 MSTORE PUSH1 0x20 ADD PUSH0 KECCAK256 PUSH0 PUSH2 0x100 EXP DUP2 SLOAD DUP2 PUSH20 0xFFFFFFFFFFFFFFFFFFFFFFFFFFFFFFFFFFFFFFFF MUL NOT AND SWAP1 DUP4 PUSH20 0xFFFFFFFFFFFFFFFFFFFFFFFFFFFFFFFFFFFFFFFF AND MUL OR SWAP1 SSTORE POP POP POP POP POP JUMP JUMPDEST PUSH2 0x1CBA DUP4 DUP4 DUP4 PUSH2 0x1EC3 JUMP JUMPDEST PUSH2 0x1D6D JUMPI PUSH0 PUSH20 0xFFFFFFFFFFFFFFFFFFFFFFFFFFFFFFFFFFFFFFFF AND DUP4 PUSH20 0xFFFFFFFFFFFFFFFFFFFFFFFFFFFFFFFFFFFFFFFF AND SUB PUSH2 0x1D2E JUMPI DUP1 PUSH1 0x40 MLOAD PUSH32 0x7E27328900000000000000000000000000000000000000000000000000000000 DUP2 MSTORE PUSH1 0x4 ADD PUSH2 0x1D25 SWAP2 SWAP1 PUSH2 0x22F7 JUMP JUMPDEST PUSH1 0x40 MLOAD DUP1 SWAP2 SUB SWAP1 REVERT JUMPDEST DUP2 DUP2 PUSH1 0x40 MLOAD PUSH32 0x177E802F00000000000000000000000000000000000000000000000000000000 DUP2 MSTORE PUSH1 0x4 ADD PUSH2 0x1D64 SWAP3 SWAP2 SWAP1 PUSH2 0x2B7D JUMP JUMPDEST PUSH1 0x40 MLOAD DUP1 SWAP2 SUB SWAP1 REVERT JUMPDEST POP POP POP JUMP JUMPDEST PUSH0 DUP1 PUSH0 SWAP1 POP PUSH27 0x184F03E93FF9F4DAA797ED6E38ED64BF6A1F010000000000000000 DUP4 LT PUSH2 0x1DCE JUMPI PUSH27 0x184F03E93FF9F4DAA797ED6E38ED64BF6A1F010000000000000000 DUP4 DUP2 PUSH2 0x1DC4 JUMPI PUSH2 0x1DC3 PUSH2 0x2B50 JUMP JUMPDEST JUMPDEST DIV SWAP3 POP PUSH1 0x40 DUP2 ADD SWAP1 POP JUMPDEST PUSH14 0x4EE2D6D415B85ACEF8100000000 DUP4 LT PUSH2 0x1E0B JUMPI PUSH14 0x4EE2D6D415B85ACEF8100000000 DUP4 DUP2 PUSH2 0x1E01 JUMPI PUSH2 0x1E00 PUSH2 0x2B50 JUMP JUMPDEST JUMPDEST DIV SWAP3 POP PUSH1 0x20 DUP2 ADD SWAP1 POP JUMPDEST PUSH7 0x2386F26FC10000 DUP4 LT PUSH2 0x1E3A JUMPI PUSH7 0x2386F26FC10000 DUP4 DUP2 PUSH2 0x1E30 JUMPI PUSH2 0x1E2F PUSH2 0x2B50 JUMP JUMPDEST JUMPDEST DIV SWAP3 POP PUSH1 0x10 DUP2 ADD SWAP1 POP JUMPDEST PUSH4 0x5F5E100 DUP4 LT PUSH2 0x1E63 JUMPI PUSH4 0x5F5E100 DUP4 DUP2 PUSH2 0x1E59 JUMPI PUSH2 0x1E58 PUSH2 0x2B50 JUMP JUMPDEST JUMPDEST DIV SWAP3 POP PUSH1 0x8 DUP2 ADD SWAP1 POP JUMPDEST PUSH2 0x2710 DUP4 LT PUSH2 0x1E88 JUMPI PUSH2 0x2710 DUP4 DUP2 PUSH2 0x1E7E JUMPI PUSH2 0x1E7D PUSH2 0x2B50 JUMP JUMPDEST JUMPDEST DIV SWAP3 POP PUSH1 0x4 DUP2 ADD SWAP1 POP JUMPDEST PUSH1 0x64 DUP4 LT PUSH2 0x1EAB JUMPI PUSH1 0x64 DUP4 DUP2 PUSH2 0x1EA1 JUMPI PUSH2 0x1EA0 PUSH2 0x2B50 JUMP JUMPDEST JUMPDEST DIV SWAP3 POP PUSH1 0x2 DUP2 ADD SWAP1 POP JUMPDEST PUSH1 0xA DUP4 LT PUSH2 0x1EBA JUMPI PUSH1 0x1 DUP2 ADD SWAP1 POP JUMPDEST DUP1 SWAP2 POP POP SWAP2 SWAP1 POP JUMP JUMPDEST PUSH0 DUP1 PUSH20 0xFFFFFFFFFFFFFFFFFFFFFFFFFFFFFFFFFFFFFFFF AND DUP4 PUSH20 0xFFFFFFFFFFFFFFFFFFFFFFFFFFFFFFFFFFFFFFFF AND EQ ISZERO DUP1 ISZERO PUSH2 0x1F7A JUMPI POP DUP3 PUSH20 0xFFFFFFFFFFFFFFFFFFFFFFFFFFFFFFFFFFFFFFFF AND DUP5 PUSH20 0xFFFFFFFFFFFFFFFFFFFFFFFFFFFFFFFFFFFFFFFF AND EQ DUP1 PUSH2 0x1F3B JUMPI POP PUSH2 0x1F3A DUP5 DUP5 PUSH2 0xEB9 JUMP JUMPDEST JUMPDEST DUP1 PUSH2 0x1F79 JUMPI POP DUP3 PUSH20 0xFFFFFFFFFFFFFFFFFFFFFFFFFFFFFFFFFFFFFFFF AND PUSH2 0x1F61 DUP4 PUSH2 0x10BA JUMP JUMPDEST PUSH20 0xFFFFFFFFFFFFFFFFFFFFFFFFFFFFFFFFFFFFFFFF AND EQ JUMPDEST JUMPDEST SWAP1 POP SWAP4 SWAP3 POP POP POP JUMP JUMPDEST PUSH0 PUSH1 0x40 MLOAD SWAP1 POP SWAP1 JUMP JUMPDEST PUSH0 DUP1 REVERT JUMPDEST PUSH0 DUP1 REVERT JUMPDEST PUSH0 PUSH32 0xFFFFFFFF00000000000000000000000000000000000000000000000000000000 DUP3 AND SWAP1 POP SWAP2 SWAP1 POP JUMP JUMPDEST PUSH2 0x1FC8 DUP2 PUSH2 0x1F94 JUMP JUMPDEST DUP2 EQ PUSH2 0x1FD2 JUMPI PUSH0 DUP1 REVERT JUMPDEST POP JUMP JUMPDEST PUSH0 DUP2 CALLDATALOAD SWAP1 POP PUSH2 0x1FE3 DUP2 PUSH2 0x1FBF JUMP JUMPDEST SWAP3 SWAP2 POP POP JUMP JUMPDEST PUSH0 PUSH1 0x20 DUP3 DUP5 SUB SLT ISZERO PUSH2 0x1FFE JUMPI PUSH2 0x1FFD PUSH2 0x1F8C JUMP JUMPDEST JUMPDEST PUSH0 PUSH2 0x200B DUP5 DUP3 DUP6 ADD PUSH2 0x1FD5 JUMP JUMPDEST SWAP2 POP POP SWAP3 SWAP2 POP POP JUMP JUMPDEST PUSH0 DUP2 ISZERO ISZERO SWAP1 POP SWAP2 SWAP1 POP JUMP JUMPDEST PUSH2 0x2028 DUP2 PUSH2 0x2014 JUMP JUMPDEST DUP3 MSTORE POP POP JUMP JUMPDEST PUSH0 PUSH1 0x20 DUP3 ADD SWAP1 POP PUSH2 0x2041 PUSH0 DUP4 ADD DUP5 PUSH2 0x201F JUMP JUMPDEST SWAP3 SWAP2 POP POP JUMP JUMPDEST PUSH0 DUP2 MLOAD SWAP1 POP SWAP2 SWAP1 POP JUMP JUMPDEST PUSH0 DUP3 DUP3 MSTORE PUSH1 0x20 DUP3 ADD SWAP1 POP SWAP3 SWAP2 POP POP JUMP JUMPDEST PUSH0 JUMPDEST DUP4 DUP2 LT ISZERO PUSH2 0x207E JUMPI DUP1 DUP3 ADD MLOAD DUP2 DUP5 ADD MSTORE PUSH1 0x20 DUP2 ADD SWAP1 POP PUSH2 0x2063 JUMP JUMPDEST PUSH0 DUP5 DUP5 ADD MSTORE POP POP POP POP JUMP JUMPDEST PUSH0 PUSH1 0x1F NOT PUSH1 0x1F DUP4 ADD AND SWAP1 POP SWAP2 SWAP1 POP JUMP JUMPDEST PUSH0 PUSH2 0x20A3 DUP3 PUSH2 0x2047 JUMP JUMPDEST PUSH2 0x20AD DUP2 DUP6 PUSH2 0x2051 JUMP JUMPDEST SWAP4 POP PUSH2 0x20BD DUP2 DUP6 PUSH1 0x20 DUP7 ADD PUSH2 0x2061 JUMP JUMPDEST PUSH2 0x20C6 DUP2 PUSH2 0x2089 JUMP JUMPDEST DUP5 ADD SWAP2 POP POP SWAP3 SWAP2 POP POP JUMP JUMPDEST PUSH0 PUSH1 0x20 DUP3 ADD SWAP1 POP DUP2 DUP2 SUB PUSH0 DUP4 ADD MSTORE PUSH2 0x20E9 DUP2 DUP5 PUSH2 0x2099 JUMP JUMPDEST SWAP1 POP SWAP3 SWAP2 POP POP JUMP JUMPDEST PUSH0 DUP2 SWAP1 POP SWAP2 SWAP1 POP JUMP JUMPDEST PUSH2 0x2103 DUP2 PUSH2 0x20F1 JUMP JUMPDEST DUP2 EQ PUSH2 0x210D JUMPI PUSH0 DUP1 REVERT JUMPDEST POP JUMP JUMPDEST PUSH0 DUP2 CALLDATALOAD SWAP1 POP PUSH2 0x211E DUP2 PUSH2 0x20FA JUMP JUMPDEST SWAP3 SWAP2 POP POP JUMP JUMPDEST PUSH0 PUSH1 0x20 DUP3 DUP5 SUB SLT ISZERO PUSH2 0x2139 JUMPI PUSH2 0x2138 PUSH2 0x1F8C JUMP JUMPDEST JUMPDEST PUSH0 PUSH2 0x2146 DUP5 DUP3 DUP6 ADD PUSH2 0x2110 JUMP JUMPDEST SWAP2 POP POP SWAP3 SWAP2 POP POP JUMP JUMPDEST PUSH0 PUSH20 0xFFFFFFFFFFFFFFFFFFFFFFFFFFFFFFFFFFFFFFFF DUP3 AND SWAP1 POP SWAP2 SWAP1 POP JUMP JUMPDEST PUSH0 PUSH2 0x2178 DUP3 PUSH2 0x214F JUMP JUMPDEST SWAP1 POP SWAP2 SWAP1 POP JUMP JUMPDEST PUSH2 0x2188 DUP2 PUSH2 0x216E JUMP JUMPDEST DUP3 MSTORE POP POP JUMP JUMPDEST PUSH0 PUSH1 0x20 DUP3 ADD SWAP1 POP PUSH2 0x21A1 PUSH0 DUP4 ADD DUP5 PUSH2 0x217F JUMP JUMPDEST SWAP3 SWAP2 POP POP JUMP JUMPDEST PUSH2 0x21B0 DUP2 PUSH2 0x216E JUMP JUMPDEST DUP2 EQ PUSH2 0x21BA JUMPI PUSH0 DUP1 REVERT JUMPDEST POP JUMP JUMPDEST PUSH0 DUP2 CALLDATALOAD SWAP1 POP PUSH2 0x21CB DUP2 PUSH2 0x21A7 JUMP JUMPDEST SWAP3 SWAP2 POP POP JUMP JUMPDEST PUSH0 DUP1 PUSH1 0x40 DUP4 DUP6 SUB SLT ISZERO PUSH2 0x21E7 JUMPI PUSH2 0x21E6 PUSH2 0x1F8C JUMP JUMPDEST JUMPDEST PUSH0 PUSH2 0x21F4 DUP6 DUP3 DUP7 ADD PUSH2 0x21BD JUMP JUMPDEST SWAP3 POP POP PUSH1 0x20 PUSH2 0x2205 DUP6 DUP3 DUP7 ADD PUSH2 0x2110 JUMP JUMPDEST SWAP2 POP POP SWAP3 POP SWAP3 SWAP1 POP JUMP JUMPDEST PUSH0 DUP1 PUSH0 PUSH1 0x60 DUP5 DUP7 SUB SLT ISZERO PUSH2 0x2226 JUMPI PUSH2 0x2225 PUSH2 0x1F8C JUMP JUMPDEST JUMPDEST PUSH0 PUSH2 0x2233 DUP7 DUP3 DUP8 ADD PUSH2 0x21BD JUMP JUMPDEST SWAP4 POP POP PUSH1 0x20 PUSH2 0x2244 DUP7 DUP3 DUP8 ADD PUSH2 0x21BD JUMP JUMPDEST SWAP3 POP POP PUSH1 0x40 PUSH2 0x2255 DUP7 DUP3 DUP8 ADD PUSH2 0x2110 JUMP JUMPDEST SWAP2 POP POP SWAP3 POP SWAP3 POP SWAP3 JUMP JUMPDEST PUSH0 DUP2 SWAP1 POP SWAP2 SWAP1 POP JUMP JUMPDEST PUSH2 0x2271 DUP2 PUSH2 0x225F JUMP JUMPDEST DUP2 EQ PUSH2 0x227B JUMPI PUSH0 DUP1 REVERT JUMPDEST POP JUMP JUMPDEST PUSH0 DUP2 CALLDATALOAD SWAP1 POP PUSH2 0x228C DUP2 PUSH2 0x2268 JUMP JUMPDEST SWAP3 SWAP2 POP POP JUMP JUMPDEST PUSH0 PUSH1 0x20 DUP3 DUP5 SUB SLT ISZERO PUSH2 0x22A7 JUMPI PUSH2 0x22A6 PUSH2 0x1F8C JUMP JUMPDEST JUMPDEST PUSH0 PUSH2 0x22B4 DUP5 DUP3 DUP6 ADD PUSH2 0x227E JUMP JUMPDEST SWAP2 POP POP SWAP3 SWAP2 POP POP JUMP JUMPDEST PUSH0 PUSH1 0x20 DUP3 DUP5 SUB SLT ISZERO PUSH2 0x22D2 JUMPI PUSH2 0x22D1 PUSH2 0x1F8C JUMP JUMPDEST JUMPDEST PUSH0 PUSH2 0x22DF DUP5 DUP3 DUP6 ADD PUSH2 0x21BD JUMP JUMPDEST SWAP2 POP POP SWAP3 SWAP2 POP POP JUMP JUMPDEST PUSH2 0x22F1 DUP2 PUSH2 0x20F1 JUMP JUMPDEST DUP3 MSTORE POP POP JUMP JUMPDEST PUSH0 PUSH1 0x20 DUP3 ADD SWAP1 POP PUSH2 0x230A PUSH0 DUP4 ADD DUP5 PUSH2 0x22E8 JUMP JUMPDEST SWAP3 SWAP2 POP POP JUMP JUMPDEST PUSH0 DUP1 PUSH0 PUSH1 0x60 DUP5 DUP7 SUB SLT ISZERO PUSH2 0x2327 JUMPI PUSH2 0x2326 PUSH2 0x1F8C JUMP JUMPDEST JUMPDEST PUSH0 PUSH2 0x2334 DUP7 DUP3 DUP8 ADD PUSH2 0x21BD JUMP JUMPDEST SWAP4 POP POP PUSH1 0x20 PUSH2 0x2345 DUP7 DUP3 DUP8 ADD PUSH2 0x2110 JUMP JUMPDEST SWAP3 POP POP PUSH1 0x40 PUSH2 0x2356 DUP7 DUP3 DUP8 ADD PUSH2 0x2110 JUMP JUMPDEST SWAP2 POP POP SWAP3 POP SWAP3 POP SWAP3 JUMP JUMPDEST PUSH2 0x2369 DUP2 PUSH2 0x225F JUMP JUMPDEST DUP3 MSTORE POP POP JUMP JUMPDEST PUSH0 PUSH1 0x20 DUP3 ADD SWAP1 POP PUSH2 0x2382 PUSH0 DUP4 ADD DUP5 PUSH2 0x2360 JUMP JUMPDEST SWAP3 SWAP2 POP POP JUMP JUMPDEST PUSH2 0x2391 DUP2 PUSH2 0x2014 JUMP JUMPDEST DUP2 EQ PUSH2 0x239B JUMPI PUSH0 DUP1 REVERT JUMPDEST POP JUMP JUMPDEST PUSH0 DUP2 CALLDATALOAD SWAP1 POP PUSH2 0x23AC DUP2 PUSH2 0x2388 JUMP JUMPDEST SWAP3 SWAP2 POP POP JUMP JUMPDEST PUSH0 DUP1 PUSH1 0x40 DUP4 DUP6 SUB SLT ISZERO PUSH2 0x23C8 JUMPI PUSH2 0x23C7 PUSH2 0x1F8C JUMP JUMPDEST JUMPDEST PUSH0 PUSH2 0x23D5 DUP6 DUP3 DUP7 ADD PUSH2 0x21BD JUMP JUMPDEST SWAP3 POP POP PUSH1 0x20 PUSH2 0x23E6 DUP6 DUP3 DUP7 ADD PUSH2 0x239E JUMP JUMPDEST SWAP2 POP POP SWAP3 POP SWAP3 SWAP1 POP JUMP JUMPDEST PUSH0 DUP1 REVERT JUMPDEST PUSH0 DUP1 REVERT JUMPDEST PUSH32 0x4E487B7100000000000000000000000000000000000000000000000000000000 PUSH0 MSTORE PUSH1 0x41 PUSH1 0x4 MSTORE PUSH1 0x24 PUSH0 REVERT JUMPDEST PUSH2 0x242E DUP3 PUSH2 0x2089 JUMP JUMPDEST DUP2 ADD DUP2 DUP2 LT PUSH8 0xFFFFFFFFFFFFFFFF DUP3 GT OR ISZERO PUSH2 0x244D JUMPI PUSH2 0x244C PUSH2 0x23F8 JUMP JUMPDEST JUMPDEST DUP1 PUSH1 0x40 MSTORE POP POP POP JUMP JUMPDEST PUSH0 PUSH2 0x245F PUSH2 0x1F83 JUMP JUMPDEST SWAP1 POP PUSH2 0x246B DUP3 DUP3 PUSH2 0x2425 JUMP JUMPDEST SWAP2 SWAP1 POP JUMP JUMPDEST PUSH0 PUSH8 0xFFFFFFFFFFFFFFFF DUP3 GT ISZERO PUSH2 0x248A JUMPI PUSH2 0x2489 PUSH2 0x23F8 JUMP JUMPDEST JUMPDEST PUSH2 0x2493 DUP3 PUSH2 0x2089 JUMP JUMPDEST SWAP1 POP PUSH1 0x20 DUP2 ADD SWAP1 POP SWAP2 SWAP1 POP JUMP JUMPDEST DUP3 DUP2 DUP4 CALLDATACOPY PUSH0 DUP4 DUP4 ADD MSTORE POP POP POP JUMP JUMPDEST PUSH0 PUSH2 0x24C0 PUSH2 0x24BB DUP5 PUSH2 0x2470 JUMP JUMPDEST PUSH2 0x2456 JUMP JUMPDEST SWAP1 POP DUP3 DUP2 MSTORE PUSH1 0x20 DUP2 ADD DUP5 DUP5 DUP5 ADD GT ISZERO PUSH2 0x24DC JUMPI PUSH2 0x24DB PUSH2 0x23F4 JUMP JUMPDEST JUMPDEST PUSH2 0x24E7 DUP5 DUP3 DUP6 PUSH2 0x24A0 JUMP JUMPDEST POP SWAP4 SWAP3 POP POP POP JUMP JUMPDEST PUSH0 DUP3 PUSH1 0x1F DUP4 ADD SLT PUSH2 0x2503 JUMPI PUSH2 0x2502 PUSH2 0x23F0 JUMP JUMPDEST JUMPDEST DUP2 CALLDATALOAD PUSH2 0x2513 DUP5 DUP3 PUSH1 0x20 DUP7 ADD PUSH2 0x24AE JUMP JUMPDEST SWAP2 POP POP SWAP3 SWAP2 POP POP JUMP JUMPDEST PUSH0 DUP1 PUSH0 DUP1 PUSH1 0x80 DUP6 DUP8 SUB SLT ISZERO PUSH2 0x2534 JUMPI PUSH2 0x2533 PUSH2 0x1F8C JUMP JUMPDEST JUMPDEST PUSH0 PUSH2 0x2541 DUP8 DUP3 DUP9 ADD PUSH2 0x21BD JUMP JUMPDEST SWAP5 POP POP PUSH1 0x20 PUSH2 0x2552 DUP8 DUP3 DUP9 ADD PUSH2 0x21BD JUMP JUMPDEST SWAP4 POP POP PUSH1 0x40 PUSH2 0x2563 DUP8 DUP3 DUP9 ADD PUSH2 0x2110 JUMP JUMPDEST SWAP3 POP POP PUSH1 0x60 DUP6 ADD CALLDATALOAD PUSH8 0xFFFFFFFFFFFFFFFF DUP2 GT ISZERO PUSH2 0x2584 JUMPI PUSH2 0x2583 PUSH2 0x1F90 JUMP JUMPDEST JUMPDEST PUSH2 0x2590 DUP8 DUP3 DUP9 ADD PUSH2 0x24EF JUMP JUMPDEST SWAP2 POP POP SWAP3 SWAP6 SWAP2 SWAP5 POP SWAP3 POP JUMP JUMPDEST PUSH0 DUP2 SWAP1 POP SWAP2 SWAP1 POP JUMP JUMPDEST PUSH0 PUSH2 0x25BF PUSH2 0x25BA PUSH2 0x25B5 DUP5 PUSH2 0x214F JUMP JUMPDEST PUSH2 0x259C JUMP JUMPDEST PUSH2 0x214F JUMP JUMPDEST SWAP1 POP SWAP2 SWAP1 POP JUMP JUMPDEST PUSH0 PUSH2 0x25D0 DUP3 PUSH2 0x25A5 JUMP JUMPDEST SWAP1 POP SWAP2 SWAP1 POP JUMP JUMPDEST PUSH0 PUSH2 0x25E1 DUP3 PUSH2 0x25C6 JUMP JUMPDEST SWAP1 POP SWAP2 SWAP1 POP JUMP JUMPDEST PUSH2 0x25F1 DUP2 PUSH2 0x25D7 JUMP JUMPDEST DUP3 MSTORE POP POP JUMP JUMPDEST PUSH0 PUSH1 0x20 DUP3 ADD SWAP1 POP PUSH2 0x260A PUSH0 DUP4 ADD DUP5 PUSH2 0x25E8 JUMP JUMPDEST SWAP3 SWAP2 POP POP JUMP JUMPDEST PUSH0 DUP1 PUSH1 0x40 DUP4 DUP6 SUB SLT ISZERO PUSH2 0x2626 JUMPI PUSH2 0x2625 PUSH2 0x1F8C JUMP JUMPDEST JUMPDEST PUSH0 PUSH2 0x2633 DUP6 DUP3 DUP7 ADD PUSH2 0x21BD JUMP JUMPDEST SWAP3 POP POP PUSH1 0x20 PUSH2 0x2644 DUP6 DUP3 DUP7 ADD PUSH2 0x21BD JUMP JUMPDEST SWAP2 POP POP SWAP3 POP SWAP3 SWAP1 POP JUMP JUMPDEST PUSH32 0x4E487B7100000000000000000000000000000000000000000000000000000000 PUSH0 MSTORE PUSH1 0x22 PUSH1 0x4 MSTORE PUSH1 0x24 PUSH0 REVERT JUMPDEST PUSH0 PUSH1 0x2 DUP3 DIV SWAP1 POP PUSH1 0x1 DUP3 AND DUP1 PUSH2 0x2692 JUMPI PUSH1 0x7F DUP3 AND SWAP2 POP JUMPDEST PUSH1 0x20 DUP3 LT DUP2 SUB PUSH2 0x26A5 JUMPI PUSH2 0x26A4 PUSH2 0x264E JUMP JUMPDEST JUMPDEST POP SWAP2 SWAP1 POP JUMP JUMPDEST PUSH0 PUSH1 0x60 DUP3 ADD SWAP1 POP PUSH2 0x26BE PUSH0 DUP4 ADD DUP7 PUSH2 0x217F JUMP JUMPDEST PUSH2 0x26CB PUSH1 0x20 DUP4 ADD DUP6 PUSH2 0x22E8 JUMP JUMPDEST PUSH2 0x26D8 PUSH1 0x40 DUP4 ADD DUP5 PUSH2 0x217F JUMP JUMPDEST SWAP5 SWAP4 POP POP POP POP JUMP JUMPDEST PUSH32 0x4E46542077697468207468697320494420616C72656164792065786973747300 PUSH0 DUP3 ADD MSTORE POP JUMP JUMPDEST PUSH0 PUSH2 0x2714 PUSH1 0x1F DUP4 PUSH2 0x2051 JUMP JUMPDEST SWAP2 POP PUSH2 0x271F DUP3 PUSH2 0x26E0 JUMP JUMPDEST PUSH1 0x20 DUP3 ADD SWAP1 POP SWAP2 SWAP1 POP JUMP JUMPDEST PUSH0 PUSH1 0x20 DUP3 ADD SWAP1 POP DUP2 DUP2 SUB PUSH0 DUP4 ADD MSTORE PUSH2 0x2741 DUP2 PUSH2 0x2708 JUMP JUMPDEST SWAP1 POP SWAP2 SWAP1 POP JUMP JUMPDEST PUSH32 0x596F7520617265206E6F7420746865206F776E6572206F662074686973204E46 PUSH0 DUP3 ADD MSTORE PUSH32 0x5400000000000000000000000000000000000000000000000000000000000000 PUSH1 0x20 DUP3 ADD MSTORE POP JUMP JUMPDEST PUSH0 PUSH2 0x27A2 PUSH1 0x21 DUP4 PUSH2 0x2051 JUMP JUMPDEST SWAP2 POP PUSH2 0x27AD DUP3 PUSH2 0x2748 JUMP JUMPDEST PUSH1 0x40 DUP3 ADD SWAP1 POP SWAP2 SWAP1 POP JUMP JUMPDEST PUSH0 PUSH1 0x20 DUP3 ADD SWAP1 POP DUP2 DUP2 SUB PUSH0 DUP4 ADD MSTORE PUSH2 0x27CF DUP2 PUSH2 0x2796 JUMP JUMPDEST SWAP1 POP SWAP2 SWAP1 POP JUMP JUMPDEST PUSH0 PUSH1 0x60 DUP3 ADD SWAP1 POP PUSH2 0x27E9 PUSH0 DUP4 ADD DUP7 PUSH2 0x217F JUMP JUMPDEST PUSH2 0x27F6 PUSH1 0x20 DUP4 ADD DUP6 PUSH2 0x217F JUMP JUMPDEST PUSH2 0x2803 PUSH1 0x40 DUP4 ADD DUP5 PUSH2 0x22E8 JUMP JUMPDEST SWAP5 SWAP4 POP POP POP POP JUMP JUMPDEST PUSH0 DUP2 MLOAD SWAP1 POP PUSH2 0x2819 DUP2 PUSH2 0x2388 JUMP JUMPDEST SWAP3 SWAP2 POP POP JUMP JUMPDEST PUSH0 PUSH1 0x20 DUP3 DUP5 SUB SLT ISZERO PUSH2 0x2834 JUMPI PUSH2 0x2833 PUSH2 0x1F8C JUMP JUMPDEST JUMPDEST PUSH0 PUSH2 0x2841 DUP5 DUP3 DUP6 ADD PUSH2 0x280B JUMP JUMPDEST SWAP2 POP POP SWAP3 SWAP2 POP POP JUMP JUMPDEST PUSH32 0x546F6B656E20416D6F756E74207472616E73666572206661696C656400000000 PUSH0 DUP3 ADD MSTORE POP JUMP JUMPDEST PUSH0 PUSH2 0x287E PUSH1 0x1C DUP4 PUSH2 0x2051 JUMP JUMPDEST SWAP2 POP PUSH2 0x2889 DUP3 PUSH2 0x284A JUMP JUMPDEST PUSH1 0x20 DUP3 ADD SWAP1 POP SWAP2 SWAP1 POP JUMP JUMPDEST PUSH0 PUSH1 0x20 DUP3 ADD SWAP1 POP DUP2 DUP2 SUB PUSH0 DUP4 ADD MSTORE PUSH2 0x28AB DUP2 PUSH2 0x2872 JUMP JUMPDEST SWAP1 POP SWAP2 SWAP1 POP JUMP JUMPDEST PUSH0 DUP2 PUSH1 0x60 SHL SWAP1 POP SWAP2 SWAP1 POP JUMP JUMPDEST PUSH0 PUSH2 0x28C8 DUP3 PUSH2 0x28B2 JUMP JUMPDEST SWAP1 POP SWAP2 SWAP1 POP JUMP JUMPDEST PUSH0 PUSH2 0x28D9 DUP3 PUSH2 0x28BE JUMP JUMPDEST SWAP1 POP SWAP2 SWAP1 POP JUMP JUMPDEST PUSH2 0x28F1 PUSH2 0x28EC DUP3 PUSH2 0x216E JUMP JUMPDEST PUSH2 0x28CF JUMP JUMPDEST DUP3 MSTORE POP POP JUMP JUMPDEST PUSH0 DUP2 SWAP1 POP SWAP2 SWAP1 POP JUMP JUMPDEST PUSH2 0x2911 PUSH2 0x290C DUP3 PUSH2 0x20F1 JUMP JUMPDEST PUSH2 0x28F7 JUMP JUMPDEST DUP3 MSTORE POP POP JUMP JUMPDEST PUSH0 PUSH2 0x2922 DUP3 DUP9 PUSH2 0x28E0 JUMP JUMPDEST PUSH1 0x14 DUP3 ADD SWAP2 POP PUSH2 0x2932 DUP3 DUP8 PUSH2 0x28E0 JUMP JUMPDEST PUSH1 0x14 DUP3 ADD SWAP2 POP PUSH2 0x2942 DUP3 DUP7 PUSH2 0x2900 JUMP JUMPDEST PUSH1 0x20 DUP3 ADD SWAP2 POP PUSH2 0x2952 DUP3 DUP6 PUSH2 0x2900 JUMP JUMPDEST PUSH1 0x20 DUP3 ADD SWAP2 POP PUSH2 0x2962 DUP3 DUP5 PUSH2 0x2900 JUMP JUMPDEST PUSH1 0x20 DUP3 ADD SWAP2 POP DUP2 SWAP1 POP SWAP7 SWAP6 POP POP POP POP POP POP JUMP JUMPDEST PUSH0 PUSH1 0x60 DUP3 ADD SWAP1 POP PUSH2 0x2988 PUSH0 DUP4 ADD DUP7 PUSH2 0x22E8 JUMP JUMPDEST PUSH2 0x2995 PUSH1 0x20 DUP4 ADD DUP6 PUSH2 0x22E8 JUMP JUMPDEST PUSH2 0x29A2 PUSH1 0x40 DUP4 ADD DUP5 PUSH2 0x2360 JUMP JUMPDEST SWAP5 SWAP4 POP POP POP POP JUMP JUMPDEST PUSH0 DUP2 SWAP1 POP SWAP2 SWAP1 POP JUMP JUMPDEST PUSH0 PUSH2 0x29CD PUSH2 0x29C8 PUSH2 0x29C3 DUP5 PUSH2 0x29AA JUMP JUMPDEST PUSH2 0x259C JUMP JUMPDEST PUSH2 0x20F1 JUMP JUMPDEST SWAP1 POP SWAP2 SWAP1 POP JUMP JUMPDEST PUSH2 0x29DD DUP2 PUSH2 0x29B3 JUMP JUMPDEST DUP3 MSTORE POP POP JUMP JUMPDEST PUSH0 PUSH1 0x60 DUP3 ADD SWAP1 POP PUSH2 0x29F6 PUSH0 DUP4 ADD DUP7 PUSH2 0x22E8 JUMP JUMPDEST PUSH2 0x2A03 PUSH1 0x20 DUP4 ADD DUP6 PUSH2 0x29D4 JUMP JUMPDEST PUSH2 0x2A10 PUSH1 0x40 DUP4 ADD DUP5 PUSH2 0x2360 JUMP JUMPDEST SWAP5 SWAP4 POP POP POP POP JUMP JUMPDEST PUSH0 DUP2 SWAP1 POP SWAP3 SWAP2 POP POP JUMP JUMPDEST PUSH0 PUSH2 0x2A2C DUP3 PUSH2 0x2047 JUMP JUMPDEST PUSH2 0x2A36 DUP2 DUP6 PUSH2 0x2A18 JUMP JUMPDEST SWAP4 POP PUSH2 0x2A46 DUP2 DUP6 PUSH1 0x20 DUP7 ADD PUSH2 0x2061 JUMP JUMPDEST DUP1 DUP5 ADD SWAP2 POP POP SWAP3 SWAP2 POP POP JUMP JUMPDEST PUSH0 PUSH2 0x2A5D DUP3 DUP6 PUSH2 0x2A22 JUMP JUMPDEST SWAP2 POP PUSH2 0x2A69 DUP3 DUP5 PUSH2 0x2A22 JUMP JUMPDEST SWAP2 POP DUP2 SWAP1 POP SWAP4 SWAP3 POP POP POP JUMP JUMPDEST PUSH0 DUP2 MLOAD SWAP1 POP SWAP2 SWAP1 POP JUMP JUMPDEST PUSH0 DUP3 DUP3 MSTORE PUSH1 0x20 DUP3 ADD SWAP1 POP SWAP3 SWAP2 POP POP JUMP JUMPDEST PUSH0 PUSH2 0x2A99 DUP3 PUSH2 0x2A75 JUMP JUMPDEST PUSH2 0x2AA3 DUP2 DUP6 PUSH2 0x2A7F JUMP JUMPDEST SWAP4 POP PUSH2 0x2AB3 DUP2 DUP6 PUSH1 0x20 DUP7 ADD PUSH2 0x2061 JUMP JUMPDEST PUSH2 0x2ABC DUP2 PUSH2 0x2089 JUMP JUMPDEST DUP5 ADD SWAP2 POP POP SWAP3 SWAP2 POP POP JUMP JUMPDEST PUSH0 PUSH1 0x80 DUP3 ADD SWAP1 POP PUSH2 0x2ADA PUSH0 DUP4 ADD DUP8 PUSH2 0x217F JUMP JUMPDEST PUSH2 0x2AE7 PUSH1 0x20 DUP4 ADD DUP7 PUSH2 0x217F JUMP JUMPDEST PUSH2 0x2AF4 PUSH1 0x40 DUP4 ADD DUP6 PUSH2 0x22E8 JUMP JUMPDEST DUP2 DUP2 SUB PUSH1 0x60 DUP4 ADD MSTORE PUSH2 0x2B06 DUP2 DUP5 PUSH2 0x2A8F JUMP JUMPDEST SWAP1 POP SWAP6 SWAP5 POP POP POP POP POP JUMP JUMPDEST PUSH0 DUP2 MLOAD SWAP1 POP PUSH2 0x2B1F DUP2 PUSH2 0x1FBF JUMP JUMPDEST SWAP3 SWAP2 POP POP JUMP JUMPDEST PUSH0 PUSH1 0x20 DUP3 DUP5 SUB SLT ISZERO PUSH2 0x2B3A JUMPI PUSH2 0x2B39 PUSH2 0x1F8C JUMP JUMPDEST JUMPDEST PUSH0 PUSH2 0x2B47 DUP5 DUP3 DUP6 ADD PUSH2 0x2B11 JUMP JUMPDEST SWAP2 POP POP SWAP3 SWAP2 POP POP JUMP JUMPDEST PUSH32 0x4E487B7100000000000000000000000000000000000000000000000000000000 PUSH0 MSTORE PUSH1 0x12 PUSH1 0x4 MSTORE PUSH1 0x24 PUSH0 REVERT JUMPDEST PUSH0 PUSH1 0x40 DUP3 ADD SWAP1 POP PUSH2 0x2B90 PUSH0 DUP4 ADD DUP6 PUSH2 0x217F JUMP JUMPDEST PUSH2 0x2B9D PUSH1 0x20 DUP4 ADD DUP5 PUSH2 0x22E8 JUMP JUMPDEST SWAP4 SWAP3 POP POP POP JUMP INVALID LOG2 PUSH5 0x6970667358 0x22 SLT KECCAK256 ORIGIN EQ 0xB1 BALANCE 0x1E 0xE2 SUB CALL STOP DIV BASEFEE SWAP2 PUSH7 0x6930A905352EDA SWAP8 0xE0 0x1F CODECOPY REVERT DUP5 0xB5 0xC4 CODESIZE PUSH20 0x793264736F6C6343000815003300000000000000 "
				},
				"gasEstimates": {
					"creation": {
						"codeDepositCost": "2245200",
						"executionCost": "infinite",
						"totalCost": "infinite"
					},
					"external": {
						"approve(address,uint256)": "infinite",
						"balanceOf(address)": "infinite",
						"getApproved(uint256)": "infinite",
						"getTransactionStatus(bytes32)": "2899",
						"housewallet()": "2531",
						"isApprovedForAll(address,address)": "infinite",
						"markTransactionCompleted(bytes32)": "infinite",
						"mintNFT(address,uint256)": "infinite",
						"myToken()": "infinite",
						"name()": "infinite",
						"owner()": "2560",
						"ownerOf(uint256)": "infinite",
						"renounceOwnership()": "infinite",
						"safeTransferFrom(address,address,uint256)": "infinite",
						"safeTransferFrom(address,address,uint256,bytes)": "infinite",
						"setApprovalForAll(address,bool)": "infinite",
						"supportsInterface(bytes4)": "787",
						"symbol()": "infinite",
						"tokenURI(uint256)": "infinite",
						"transferFrom(address,address,uint256)": "infinite",
						"transferNFT(address,uint256)": "infinite",
						"transferNFTWithToken(address,uint256,uint256)": "infinite",
						"transferOwnership(address)": "infinite"
					}
				},
				"methodIdentifiers": {
					"approve(address,uint256)": "095ea7b3",
					"balanceOf(address)": "70a08231",
					"getApproved(uint256)": "081812fc",
					"getTransactionStatus(bytes32)": "94407465",
					"housewallet()": "863b3894",
					"isApprovedForAll(address,address)": "e985e9c5",
					"markTransactionCompleted(bytes32)": "37418972",
					"mintNFT(address,uint256)": "3c168eab",
					"myToken()": "b8fcf937",
					"name()": "06fdde03",
					"owner()": "8da5cb5b",
					"ownerOf(uint256)": "6352211e",
					"renounceOwnership()": "715018a6",
					"safeTransferFrom(address,address,uint256)": "42842e0e",
					"safeTransferFrom(address,address,uint256,bytes)": "b88d4fde",
					"setApprovalForAll(address,bool)": "a22cb465",
					"supportsInterface(bytes4)": "01ffc9a7",
					"symbol()": "95d89b41",
					"tokenURI(uint256)": "c87b56dd",
					"transferFrom(address,address,uint256)": "23b872dd",
					"transferNFT(address,uint256)": "94ab67fe",
					"transferNFTWithToken(address,uint256,uint256)": "8f3481c0",
					"transferOwnership(address)": "f2fde38b"
				}
			},
			"storageLayout": {
				"storage": [
					{
						"astId": 395,
						"contract": "contracts/NFTPatient.sol:NFTPatientHealthChain",
						"label": "_name",
						"offset": 0,
						"slot": "0",
						"type": "t_string_storage"
					},
					{
						"astId": 397,
						"contract": "contracts/NFTPatient.sol:NFTPatientHealthChain",
						"label": "_symbol",
						"offset": 0,
						"slot": "1",
						"type": "t_string_storage"
					},
					{
						"astId": 401,
						"contract": "contracts/NFTPatient.sol:NFTPatientHealthChain",
						"label": "_owners",
						"offset": 0,
						"slot": "2",
						"type": "t_mapping(t_uint256,t_address)"
					},
					{
						"astId": 405,
						"contract": "contracts/NFTPatient.sol:NFTPatientHealthChain",
						"label": "_balances",
						"offset": 0,
						"slot": "3",
						"type": "t_mapping(t_address,t_uint256)"
					},
					{
						"astId": 409,
						"contract": "contracts/NFTPatient.sol:NFTPatientHealthChain",
						"label": "_tokenApprovals",
						"offset": 0,
						"slot": "4",
						"type": "t_mapping(t_uint256,t_address)"
					},
					{
						"astId": 415,
						"contract": "contracts/NFTPatient.sol:NFTPatientHealthChain",
						"label": "_operatorApprovals",
						"offset": 0,
						"slot": "5",
						"type": "t_mapping(t_address,t_mapping(t_address,t_bool))"
					},
					{
						"astId": 8,
						"contract": "contracts/NFTPatient.sol:NFTPatientHealthChain",
						"label": "_owner",
						"offset": 0,
						"slot": "6",
						"type": "t_address"
					},
					{
						"astId": 3097,
						"contract": "contracts/NFTPatient.sol:NFTPatientHealthChain",
						"label": "_tokenIds",
						"offset": 0,
						"slot": "7",
						"type": "t_struct(Counter)1562_storage"
					},
					{
						"astId": 3100,
						"contract": "contracts/NFTPatient.sol:NFTPatientHealthChain",
						"label": "myToken",
						"offset": 0,
						"slot": "8",
						"type": "t_contract(IERC20)362"
					},
					{
						"astId": 3102,
						"contract": "contracts/NFTPatient.sol:NFTPatientHealthChain",
						"label": "housewallet",
						"offset": 0,
						"slot": "9",
						"type": "t_address"
					},
					{
						"astId": 3106,
						"contract": "contracts/NFTPatient.sol:NFTPatientHealthChain",
						"label": "_nftExists",
						"offset": 0,
						"slot": "10",
						"type": "t_mapping(t_uint256,t_bool)"
					},
					{
						"astId": 3110,
						"contract": "contracts/NFTPatient.sol:NFTPatientHealthChain",
						"label": "_completedTransactions",
						"offset": 0,
						"slot": "11",
						"type": "t_mapping(t_bytes32,t_bool)"
					}
				],
				"types": {
					"t_address": {
						"encoding": "inplace",
						"label": "address",
						"numberOfBytes": "20"
					},
					"t_bool": {
						"encoding": "inplace",
						"label": "bool",
						"numberOfBytes": "1"
					},
					"t_bytes32": {
						"encoding": "inplace",
						"label": "bytes32",
						"numberOfBytes": "32"
					},
					"t_contract(IERC20)362": {
						"encoding": "inplace",
						"label": "contract IERC20",
						"numberOfBytes": "20"
					},
					"t_mapping(t_address,t_bool)": {
						"encoding": "mapping",
						"key": "t_address",
						"label": "mapping(address => bool)",
						"numberOfBytes": "32",
						"value": "t_bool"
					},
					"t_mapping(t_address,t_mapping(t_address,t_bool))": {
						"encoding": "mapping",
						"key": "t_address",
						"label": "mapping(address => mapping(address => bool))",
						"numberOfBytes": "32",
						"value": "t_mapping(t_address,t_bool)"
					},
					"t_mapping(t_address,t_uint256)": {
						"encoding": "mapping",
						"key": "t_address",
						"label": "mapping(address => uint256)",
						"numberOfBytes": "32",
						"value": "t_uint256"
					},
					"t_mapping(t_bytes32,t_bool)": {
						"encoding": "mapping",
						"key": "t_bytes32",
						"label": "mapping(bytes32 => bool)",
						"numberOfBytes": "32",
						"value": "t_bool"
					},
					"t_mapping(t_uint256,t_address)": {
						"encoding": "mapping",
						"key": "t_uint256",
						"label": "mapping(uint256 => address)",
						"numberOfBytes": "32",
						"value": "t_address"
					},
					"t_mapping(t_uint256,t_bool)": {
						"encoding": "mapping",
						"key": "t_uint256",
						"label": "mapping(uint256 => bool)",
						"numberOfBytes": "32",
						"value": "t_bool"
					},
					"t_string_storage": {
						"encoding": "bytes",
						"label": "string",
						"numberOfBytes": "32"
					},
					"t_struct(Counter)1562_storage": {
						"encoding": "inplace",
						"label": "struct Counters.Counter",
						"members": [
							{
								"astId": 1561,
								"contract": "contracts/NFTPatient.sol:NFTPatientHealthChain",
								"label": "_value",
								"offset": 0,
								"slot": "0",
								"type": "t_uint256"
							}
						],
						"numberOfBytes": "32"
					},
					"t_uint256": {
						"encoding": "inplace",
						"label": "uint256",
						"numberOfBytes": "32"
					}
				}
			},
			"userdoc": {
				"kind": "user",
				"methods": {},
				"version": 1
			}
		}
	}
}